:020000040000FA
:100000000C9465010C9496010C9496010C94960145
:100010000C9496010C9496010C9496010C94960104
:100020000C9496010C9496010C9496010C949601F4
:100030000C9496010C9496010C9496010C949601E4
:100040000C9496010C9496010C9496010C949601D4
:100050000C9496010C9496010C9496010C944B12FE
:100060000C9496010C94BF120C9495120C9496016A
:100070000C9496010C9496010C9496010C949601A4
:100080000C9496010C9496010C9496010C94960194
:100090000C9496010C9496010C9496010C94960184
:1000A0000C9496010C9496010C9496010C94960174
:1000B0000C9496010C9496010C9496010C94960164
:1000C0000C9496010C9496010C9496010C94960154
:1000D0000C9496010C9496010C9496010C94960144
:1000E0000C9496010C94690A0C94000F0C94CB01AB
:1000F0000C94C8010C9464090C94CD0A0C94570319
:100100000C948F0B0C94780E0C94C0010C943C0E44
:100110000C9476090C94D5010C948E0E0C948513D6
:100120000C94F7010C94610B0C94200F0C94FB01C0
:100130000C945A0E0C94EA030C94C4010C944303DF
:100140000C94DE0E0C94F6010C94BC010C94050E7C
:100150000C94E3010C94CC0E0C94B6010C94F101B8
:100160000C94330B0C94DB010C94DF010C94530AB8
:100170000C94350A0C94D1010C9407030C94E901FA
:100180000C94870A0C9434030C9465030C94110BA3
:100190000C949D030C94ED010C94AF0A0C94E30AAB
:1001A0000C949F0A0C94AC0E000021002400270040
:1001B0002A002D0030003300010100000401070176
:1001C0000A0100002200250028002B002E0031002B
:1001D000340002010000050108010B0100002000AD
:1001E0002300260029002C002F003200000100000F
:1001F00003010601090105050505070508080808AA
:10020000020202020A0A08080404040401010101AE
:1002100001010101030303030303030304070707A9
:100220000C0C0C0C0C0C0C0C02020202060606064E
:10023000060606060B0B0B0B0B0B0B0B010210201B
:10024000200808102040102040800201020108040C
:1002500002010102040810204080804020100804A0
:1002600002018004020180402010080402010804F9
:10027000020101020408102040800102040810203D
:10028000408000000A0B02090C0D0E080703040150
:10029000000000000000000000000000000000005E
:1002A000000000000000000000000000000012112B
:1002B000100000000000000000000000000000002E
:1002C0000000000000000000851311241FBECFEFC6
:1002D000D1E2DEBFCDBF00E00CBF1AE0A0E0B2E08B
:1002E000EEE0F0E300E00BBF02C007900D92A235F4
:1002F000B107D9F72DE0A2E5BAE001C01D92AB38F5
:10030000B207E1F711E0C5E6D1E000E006C02197B1
:100310000109802FFE010E94E217C436D10780E058
:100320000807A9F70E9403140C9405180C94000008
:100330008150823108F05AC0E82FF0E08827EC5550
:10034000FE4F8F4F0C94E217C401C801B601BC01E7
:10035000C001F601CB01D101D501DB01DF01E301D1
:10036000E901ED01F601F101F701FB018091800047
:100370008F77809380000895809180008F7DF9CFE2
:1003800080918000877FF5CF84B58F7784BD0895F5
:1003900084B58F7DFBCF8091B0008F778093B000C4
:1003A00008958091B0008F7DF9CF809190008F7774
:1003B000809390000895809190008F7DF9CF809177
:1003C0009000877FF5CF8091A0008F778093A00069
:1003D00008958091A0008F7DF9CF8091A000877F44
:1003E000F5CF809120018F7780932001089580912F
:1003F00020018F7DF9CF80912001877FF5CFCF93AA
:10040000DF93282F30E0F901EE57FD4F8491F90179
:10041000E45CFD4FD491F901EA50FE4FC491CC2326
:10042000A1F081110E949801EC2FF0E0EE0FFF1F68
:10043000E452FE4FA591B491EC91ED2381E090E060
:1004400009F480E0DF91CF91089580E090E0FACF49
:100450001F93CF93DF93282F30E0F901EE57FD4F24
:100460008491F901E45CFD4FD491F901EA50FE4F0B
:10047000C491CC23A9F0162F81110E949801EC2F72
:10048000F0E0EE0FFF1FEE53FE4FA591B4918FB732
:10049000F894EC91111108C0D095DE23DC938FBF46
:1004A000DF91CF911F910895DE2BF8CFCF93DF938B
:1004B00090E0FC01E45CFD4F24918A509E4FFC01CA
:1004C00084918823D1F090E0880F991FFC01E855B2
:1004D000FE4FA591B491FC01EE53FE4FC591D4910E
:1004E000623071F49FB7F8943C91822F80958323FA
:1004F0008C93E8812E2B28839FBFDF91CF910895A5
:100500008FB7F894EC912E2B2C938FBFF6CF8633B8
:1005100008F0865320917B00982F9870277F922BAC
:1005200090937B008770806480937C0080917A0038
:10053000806480937A0080917A0086FDFCCF809160
:1005400078009091790008953FB7F8948091100C4D
:100550009091110CA091120CB091130C26B5A89B90
:1005600005C02F3F19F00196A11DB11D3FBFBA2F45
:10057000A92F982F8827BC01CD01620F711D811D05
:10058000911D42E0660F771F881F991F4A95D1F78A
:1005900008958F929F92AF92BF92CF92DF92EF9287
:1005A000FF924B015C010E94A4026B017C010E943E
:1005B000A4026C197D098E099F09683E734081056C
:1005C0009105A8F321E0821A9108A108B10888EEEC
:1005D000C80E83E0D81EE11CF11C81149104A10413
:1005E000B10429F7FF90EF90DF90CF90BF90AF90CC
:1005F0009F908F9008952FB7F89460910C0C709194
:100600000D0C80910E0C90910F0C2FBF0895AF929E
:10061000BF92CF92DF92EF92FF920F931F93CF93EF
:10062000DF936C017B018B01040F151FEB015E0151
:10063000AE18BF08C017D10759F06991D601ED91E6
:10064000FC910190F081E02DC6011995892B79F775
:10065000C501DF91CF911F910F91FF90EF90DF9037
:10066000CF90BF90AF900895FC01538D448D252FFE
:1006700030E0842F90E0821B930B541710F0CF963C
:10068000089501970895FC01918D828D981761F06E
:10069000A28DAE0FBF2FB11D5D968C91928D9F5F85
:1006A0009F73928F90E008958FEF9FEF0895FC0164
:1006B000918D828D981731F0828DE80FF11D858D17
:1006C00090E008958FEF9FEF0895FC01918D228DAA
:1006D000892F90E0805C9F4F821B91098F7399272F
:1006E000089584E19CE00E94650321E0892B09F4D0
:1006F00020E0822F0895FC01A48DA80FB92FB11D11
:10070000A35ABF4F2C91848D90E001968F73992747
:10071000848FA689B7892C93A089B1898C91837025
:1007200080648C93938D848D981306C00288F3891E
:10073000E02D80818F7D80830895EF92FF920F934B
:100740001F93CF93DF93EC0181E0888F9B8D8C8D7D
:1007500098131AC0E889F989808185FF15C09FB771
:10076000F894EE89FF896083E889F9898081837034
:10077000806480839FBF81E090E0DF91CF911F91E3
:100780000F91FF90EF900895F62E0B8D10E00F5F04
:100790001F4F0F731127E02E8C8D8E110CC00FB6DA
:1007A00007FCFACFE889F989808185FFF5CFCE0172
:1007B0000E947B03F1CFEB8DEC0FFD2FF11DE35A6F
:1007C000FF4FF0829FB7F8940B8FEA89FB898081F5
:1007D0008062CFCFCF93DF93EC01888D8823B9F06F
:1007E000AA89BB89E889F9898C9185FD03C080813C
:1007F00086FD0DC00FB607FCF7CF8C9185FFF2CFB9
:10080000808185FFEDCFCE010E947B03E9CFDF9190
:10081000CF91089580E090E0892B29F00E94710328
:1008200081110E94000080E090E0892B49F080E077
:1008300090E0892B29F00E94000081110E940000A5
:1008400080E090E0892B49F080E090E0892B29F04E
:100850000E94000081110E94000080E090E0892B3E
:1008600049F080E090E0892B29F00E94000081117E
:100870000C9400000895CF93DF93A091850BB09165
:10088000860BAD01465D5D4F28E83BE090E080E0DF
:10089000E901C80FD91FBC016A0F7B1FFA01E80FDD
:1008A000F91F603D71052CF0FC01E05DF109E40FDA
:1008B000F51F6081688301968031910549F74053A7
:1008C0005F4F205F3F4F8CE028303807F9F6DF910B
:1008D000CF9108950E943B048091850B9091860BE7
:1008E00001968F3C910529F09093860B8093850BA0
:1008F00008951092860B1092850B0895CF93DF9385
:100900009C01215031092D30310560F46F51754F34
:10091000FB01E059FF4F81E080836F587F4FFB015F
:10092000808398C09C012E5031092D303105A8F4E8
:100930009B012F51354FF901E059FF4F81E0808332
:100940006E51754FFB01E059FF4F8083205A3F4F96
:10095000F9018083605A7F4FE2CF9C012B5131090E
:100960002D303105E8F49B012F51354FF901E05945
:10097000FF4F81E080836E51754FFB01E059FF4FBF
:100980008083F901E05AFF4F8083FB01E05AFF4F5B
:100990008083205B3F4FF9018083605B7F4FBFCF37
:1009A0009C01285231092D30310528F59B012F512A
:1009B000354FF901E059FF4F81E080836E51754F4B
:1009C000FB01E059FF4F8083F901E05AFF4F80831C
:1009D000FB01E05AFF4F8083F901E05BFF4F80830A
:1009E000FB01E05BFF4F8083205C3F4FF901808378
:1009F000605C7F4F94CF9C01255331092D30310528
:100A000060F5FB01EF51F54FDF01A059BF4F81E0C9
:100A10008C936E51754FDB01A059BF4F8C93DF0152
:100A2000A05ABF4F8C93DB01A05ABF4F8C93DF01BC
:100A3000A05BBF4F8C93DB01A05BBF4F8C93DF01AA
:100A4000A05CBF4F8C93DB01A05CBF4F8C9380AB4D
:100A5000FB0180ABDF91CF9108959C0122543109B5
:100A60002D30310578F5DB01AF51B54FFD01E0596F
:100A7000FF4F81E08083FB01EE51F54FEF01C0593C
:100A8000DF4F8883ED01C05ADF4F8883EF01C05AE2
:100A9000DF4F8883ED01C05BDF4F8883EF01C05BD0
:100AA000DF4F8883ED01C05CDF4F8883EF01C05CBE
:100AB000DF4F8883D0968C93D09780AB90968C93A1
:100AC00080A3C8CF9C012F5431092D30310598F5F2
:100AD000DB01AF51B54FFD01E059FF4F81E080834D
:100AE000FB01EE51F54FEF01C059DF4F8883ED0157
:100AF000C05ADF4F8883EF01C05ADF4F8883ED0172
:100B0000C05BDF4F8883EF01C05BDF4F8883ED015F
:100B1000C05CDF4F8883EF01C05CDF4F8883D096D5
:100B20008C93D09780AB90968C93909780A350969F
:100B30008C93808B8FCF8C559109099708F08ACFC1
:100B4000DB01AF51B54FFD01E059FF4F81E08083DC
:100B5000FB01EE51F54FEF01C059DF4F8883ED01E6
:100B6000C05ADF4F8883EF01C05ADF4F8883ED0101
:100B7000C05BDF4F8883EF01C05BDF4F8883ED01EF
:100B8000C05CDF4F8883EF01C05CDF4F8883D09665
:100B90008C93D09780AB90968C93909780A350962F
:100BA0008C935097808B8C93BBCE81EE9AE030E093
:100BB00020E0FC01E20FF31F10822F5F3F4F203136
:100BC0003105B9F740962BE08136920781F70895F9
:100BD00081E69AE030E020E0FC01E20FF31F408163
:100BE000413009F410822F5F3F4F20313105A1F7CA
:100BF00040962AE0813E920769F708951092620BB1
:100C00001092610B1092600A10925F0A1092770B9B
:100C10001092760B83E090E09093010280930002A3
:100C20001092740B1092730B10926E0B10926D0B4E
:100C30001092750B1092800B10926C0B1092670B38
:100C40001092080C0C94E80520916D0B30916E0BFE
:100C50004091730B5091740BC9010196BA016F5FFB
:100C60007F4FDA011296E091750BF4E0220F331FEB
:100C7000FA95E1F7F4E0880F991FFA95E1F72F5103
:100C8000354FEE2391F0F901EA0FFB1F10828F51CF
:100C9000954FA80FB91F1C92680F791FFB01108296
:100CA000840F951FFC0110820895F901E40FF51FD0
:100CB00010828F51954F480F591FFA011082680F0B
:100CC000791FFB011082A80FB91F1C920895CF93C2
:100CD00080916D0B90916E0B2091730B3091740B82
:100CE000DC011196A9014F5F5F4FB9016E5F7F4F25
:100CF000F091750BE4E0880F991FEA95E1F7C4E0E5
:100D0000AA0FBB1FCA95E1F78F51954FFF23A9F09A
:100D1000FC01E60FF71F91E09083FD01EF51F54FC5
:100D20006E0F7F1FDB019C934E0F5F1FDA019C93B8
:100D3000E20FF31F9083CF910895FC01E20FF31FA0
:100D4000C1E0C083CD018F51954F280F391FF901A4
:100D5000C083480F591FDA01CC93860F971FFC01FF
:100D6000C083E9CF4F925F926F927F928F929F9252
:100D7000AF92BF92CF92DF92EF92FF920F931F93A9
:100D8000CF93DF931F921F92CDB7DEB78C014983BB
:100D90002A83660F771FF801EA5AFF4FE080F1803F
:100DA000EE0CFF1CF801CF01801B910B8E159F05E7
:100DB00014F41192F8CF8981F801E60FF71F8183AF
:100DC0008A818083680184E5C80ED11C60E0F60149
:100DD00080810E9428025801F2E5AF0EB11C480143
:100DE00080E5880E911C1E141F040CF5E1E0EE1A3C
:100DF000F108F801EE0DFF1D6080F5015080F4014F
:100E0000408088E0782E662D661F6627661F842D39
:100E10000E942802660C61E0852D0E94280260E095
:100E2000852D0E9428027A947110EDCFDCCF61E00D
:100E3000F60180810F900F90DF91CF911F910F915C
:100E4000FF90EF90DF90CF90BF90AF909F908F90EA
:100E50007F906F905F904F900C942802E0E8F0E054
:100E600002C0F595E7954A95E2F7DC01A60FB71F9A
:100E700050963C915097222361F0E32B5096EC93CF
:100E8000509741E0460F50962C9170E060E00C9432
:100E9000B206E095E323F2CF8F929F92AF92BF927A
:100EA000CF92DF92EF92FF920F931F93CF93DF9336
:100EB00041EEE42E4AE0F42ED0E0C0E010E000E085
:100EC0008091890D90918A0D1816190674F421E00D
:100ED000F701E00FF11F8081813009F020E0A801C7
:100EE000BE0183E39DE00E942E070F5F1F4F083075
:100EF000110531F7219680E1E80EF11CC830D105CB
:100F0000E9F693E0E92EF12C23ECC22ED12C3BE242
:100F1000A32E31E1B32E81EE882E8AE0982ECEE109
:100F200008E010E0F401E00FF11F8081813089F5C5
:100F300060E08C2F0E94280261E0D0E2D00F8D2F5C
:100F40000E942802C5010197F1F761E08C2F0E94F1
:100F5000280260E08D2F0E9428020F5F1F4F003192
:100F6000110501F7CF5F80E1880E911CC632C1F6F2
:100F700081E0E81AF10879F6DF91CF911F910F9186
:100F8000FF90EF90DF90CF90BF90AF909F908F90A9
:100F90000895C6010197F1F7E0CFCF92DF92EF926B
:100FA000FF921F93CF93DF937C016B01EB0183E0F2
:100FB000CC0FDD1F8A95E1F76096CE0DDF1D11E0A5
:100FC000199220E0412FB601C7010E94B2061F5FAF
:100FD0001930B1F7DF91CF911F91FF90EF90DF9023
:100FE000CF900895FC0101900020E9F73197AF01FF
:100FF000481B590BBC0184E19CE00C940703CF9380
:10100000DF930E94F207EC018CEB98E00E94F2075C
:101010008C0F9D1FDF91CF9108958F929F92AF9279
:10102000BF92CF92DF92EF92FF920F931F93CF93D5
:10103000DF93CDB7DEB7A1970FB6F894DEBF0FBE32
:10104000CDBF6C01990FEE08FF08F7FE47C06DE2B7
:1010500084E19CE00E949D038C0122273327A90193
:101060002C193D094E095F0919A2CE0181967C0118
:101070009AE0892E912CA12CB12CCA01B901A501AD
:1010800094010E949D17605DF70162937F01211515
:1010900031054105510589F790E080E0309719F05E
:1010A000CF010E94F207080F191F8CEB98E00E94F5
:1010B000F207800F911FA1960FB6F894DEBF0FBE06
:1010C000CDBFDF91CF911F910F91FF90EF90DF90F7
:1010D000CF90BF90AF909F908F900895A7019601F9
:1010E00019A28E010F5D1F4F8AE0C82ED12CE12C72
:1010F000F12CCA01B901A70196010E949D17605DFC
:10110000F80162938F01211531054105510589F7D9
:10111000309729F0CF010E94F2078C01C6CF10E072
:1011200000E0C3CFCF92DF92EF92FF920F931F9315
:10113000CF93DF9331EEE32E3AE0F32E10E000E0A0
:1011400045E0C42ED12CD0E0C0E0F701EC0FFD1F2C
:1011500080818130A9F58091730B9091740BC81731
:10116000D90774F102968C179D0754F180916D0B8D
:1011700090916E0B081719071CF19C012F5F3F4FD0
:1011800020173107ECF0029797FD30C090936E0B5B
:1011900080936D0B80910002909101020E940D08D6
:1011A00080910002909101028230910524F1019713
:1011B00090930102809300020E9467060E944C07F0
:1011C0002196C031D10509F60F5F1F4F80E1E80E6F
:1011D000F11C0830110509F0B6CFDF91CF911F91B6
:1011E0000F91FF90EF90DF90CF90089510926E0BCB
:1011F00010926D0BCFCF0E94D5058091520A90912D
:10120000530AFC01EE0FFF1FEC5AF54F20915F0AC5
:101210003091600A318320830196B6010E94CE1777
:101220009093530A8093520A8FEB98E00E94FF0735
:101230001092080C0E94FE0510920A0C1092090CE4
:10124000BFCF2F923F924F925F926F927F928F9279
:101250009F92AF92BF92CF92DF92EF92FF920F9345
:101260001F93CF93DF9300D000D0CDB7DEB780912E
:10127000080C811104C00E94EF0F0E944C0770906F
:10128000080C772009F40CC38091800B81117AC27D
:10129000E091610BF091620BEE30F10508F065C250
:1012A0008827EA5AF64F8F4F0C94E21764097609A3
:1012B000350A530A690A870A9F0AAF0ACD0AE30A68
:1012C000110B330B610B8F0B81E08093080B809324
:1012D000380B8093F90A8093090B8093190B809344
:1012E000290B8093390B80933A0B1DC081E08093CA
:1012F000F70A8093F80A8093F90A8093FA0A809398
:101300000A0B80931A0B8093170B8093180B809312
:10131000190B8093370B8093380B8093390B809394
:101320003A0B8093270B0E944C070E94FB0200910E
:101330007C0B10917D0B20917E0B30917F0B601BFD
:10134000710B820B930B603D77408105910508F48A
:1013500019C20E94FB0260937C0B70937D0B8093FB
:101360007E0B90937F0B81E08093800B0E94D505CC
:101370004091610B5091620B4D5F5F4F5E834D83D7
:1013800088EE98E00E94FF078D819E810E940D08E3
:1013900010E000E07EE0272E312C412C512CE2E0C1
:1013A0008E2E912CA12CB12C662463948D819E816C
:1013B000081719070CF0E6C10E941317A20191014A
:1013C0000E946B176B010E94131724E030E040E08D
:1013D00050E00E946B179B01AC012F5F3F4F4F4FB6
:1013E0005F4F29833A834B835C838091610B90919B
:1013F000620B05970CF0BEC10E941317A501940162
:101400000E946B176F5F7F4F8F4F9F4F28E030E038
:1014100049815A81241B350B51E0C51AD108C601F8
:10142000860F971F6EE070E00E94CE170196A9010B
:1014300064E0440F551F6A95E1F7840F951F70E033
:1014400060E0283031050CF09AC1AB01480F591FFC
:10145000FA01EF51F54F60824F59554FFA01608202
:101460002F5F3F4F605F7F4FECCF81E08093F70AA3
:101470008093F80A8093F90A8093FA0A80930A0B02
:1014800080931A0B8093170B8093180B8093190B82
:101490008093370B80933A0B8093380B8093390BF2
:1014A00080932A0B40CF81E08093FA0A80930A0B45
:1014B00080931A0B80933A0B80932A0B8093F70A40
:1014C0008093070B8093170B8093180B8093190B55
:1014D0002ACF81E08093F70A8093F80A8093F90A73
:1014E0008093FA0A80931A0B80933A0B80932A0B0D
:1014F0008093070B8093170B8093180B8093190B25
:101500008093370B8093380B8093390B0CCF81E09D
:101510008093F70A8093F80A8093F90A8093FA0A75
:1015200080931A0B80933A0B80932A0B8093070BBE
:101530008093170B8093270B8093370B29C081E092
:101540008093F70A8093F80A8093F90A8093FA0A45
:1015500080930A0B80931A0B80932A0BC4CE81E0F0
:101560008093F70A8093F80A8093F90A8093FA0A25
:1015700080930A0B80931A0B80933A0B80932A0B6B
:101580008093070B8093170B8093370B8093270B67
:101590008093180B8093190BB5CF81E08093F70AE5
:1015A0008093F80A8093F90A8093FA0A80930A0BD1
:1015B00080931A0B80933A0B80932A0B8093070B2E
:1015C0008093170BB9CF81E08093060B8093F70AC5
:1015D0008093070B8093170B8093270B8093370B17
:1015E0008093360B8093380B8093F90A8093FA0A24
:1015F0008093FB0A8093FC0A80930C0B80931C0B56
:1016000080933C0B80932C0B8093090B8093190BD8
:101610008093390B8093290B80933A0B80933B0B7B
:1016200082CE81E08093060B8093F70A8093070BAC
:101630008093170B8093270B8093370B8093360B87
:101640008093380B80930A0B8093FB0A80930B0BDB
:1016500080931B0B80932B0B80933B0B80933A0B57
:1016600080933C0B60CE81E08093050B8093F60A5B
:101670008093060B8093160B8093260B8093360B7A
:101680008093350B8093370B8093F90A8093FA0A85
:101690008093FB0A8093FC0A80930C0B80931C0BB5
:1016A0008093190B80931A0B80931B0B8093390B3B
:1016B00080933A0B80933B0B80933C0B8093290BD8
:1016C00032CE81E08093050B8093F60A8093060B5F
:1016D0008093160B8093260B8093360B8093350BEB
:1016E0008093370B8093F90A8093FA0A8093FB0A60
:1016F0008093FC0A80930C0B80931C0B8093190B36
:1017000080931A0B80931B0B8093390B80933A0BB9
:1017100080933B0B80933C0B80932C0B04CE81E099
:101720008093050B8093F60A8093060B8093160B2B
:101730008093260B8093360B8093350B8093370B69
:101740008093FC0A80930C0B80931C0B80933C0BC2
:1017500080932C0B8093F90A8093090B8093190BCB
:1017600080931A0B80931B0BDECD81ED98E00E94D5
:10177000FF07D9CD0E94131761E070E047CE0F5FDD
:101780001F4F14CE8091800B882309F47BC00E94E8
:10179000FB020091780B1091790B20917A0B30911C
:1017A0007B0B6B017C01C01AD10AE20AF30A20917B
:1017B000760B3091770B032E000C440B550B215008
:1017C000310941095109A6EABFEF0E9498172FE09D
:1017D00030E040E050E00E946B172C593F4F4F4FD4
:1017E0005F4FC216D306E406F506D4F00E94FB0252
:1017F0006093780B7093790B80937A0B90937B0BAB
:101800008091730B9091740B2091750B222309F436
:1018100063C0019797FD5DC09093740B8093730B29
:101820000E94FB0200916F0B1091700B2091710BC5
:101830003091720B601B710B820B930B683E7340EF
:1018400081059105B8F00E94FB0260936F0B7093C5
:10185000700B8093710B9093720B80916D0B909134
:101860006E0B873091050CF041C0019690936E0B82
:1018700080936D0B0E9492080E9467060E944C079D
:101880000E94240685E00E94FF01892BA1F580912A
:10189000020290910302019771F581E08093750B2C
:1018A00026960FB6F894DEBF0FBECDBFDF91CF9165
:1018B0001F910F91FF90EF90DF90CF90BF90AF906E
:1018C0009F908F907F906F905F904F903F902F9060
:1018D00008958DE090E0A0CF01968E3091050CF434
:1018E0009BCF1092740B1092730B9ACF10926E0BC9
:1018F00010926D0BBFCF86E00E94FF01892B39F457
:101900008091020290910302019709F486C087E05A
:101910000E94FF01892B09F46EC184E00E94FF013F
:10192000892B09F0BDCF62E370E080E090E00E9477
:10193000C90284E00E94FF01892B09F0B1CF809198
:101940006C0B91E0892780936C0B882309F42BC3DF
:1019500080E399E00E94FF0780916C0B882309F4D3
:101960009FCF0E94D50541E04093F20A4093F30ACD
:101970004093040B4093050B4093F60A4093F70AFB
:101980004093010B4093110B4093220B4093330B78
:101990004093440B4093450B4093360B4093270BE9
:1019A0004093180B4093080B4093020B4093120B8B
:1019B0004093030B4093130B4093230B4093140B62
:1019C0004093240B4093340B4093150B4093250B0D
:1019D0004093350B4093060B4093160B4093260B18
:1019E0004093070B4093170BE0910002F091010226
:1019F0003197EA30F10508F04BC28827ED5FF24FCE
:101A00008F4F0C94E217050E3C0E5A0E780E8E0E78
:101A1000AC0ECC0EDE0E000F200F80916D0B90915E
:101A20006E0B6C0122E0C20ED11C0091730B109161
:101A3000740B0F5F1F4F24E0880F991F2A95E1F761
:101A4000080F191FA8014F51554F5A834983F12C94
:101A5000E12C412C552453943DE0832E912C45E0FC
:101A6000A42EB12C58E0C516D1040CF07EC0E9813B
:101A7000FA8150A28091730B9091740B2091750B99
:101A8000222391F1019797FD05C09093740B8093E9
:101A9000730B04C09092740B8092730B0E94920897
:101AA0000E9467060E944C070E942406FFEFCF1A8F
:101AB000DF0AE981FA8180A9813019F44420E9F034
:101AC000472CE981FA8110A264E670E080E090E0A2
:101AD0000E94C90229813A81205F3F4F3A832983BE
:101AE00030E1E30EF11CBECF01968E3091056CF211
:101AF0001092740B1092730BD1CF20915F0A30912A
:101B0000600A2F5F3F4F3093600A20935F0AE9819C
:101B1000FA8110AAF701E00FF11FEF59F54F10AA53
:101B2000DF01A05CBF4F1C9250961C92E05AFF4F01
:101B30001082C901B5010E94CE17892B09F6121631
:101B400013060CF0BDCF80910002909101028A3003
:101B5000910534F401969093010280930002B0CF76
:101B600086EF98E00E94FF07ABCF8CE199E00E94DE
:101B7000F20780915F0A9091600A0E940D0881EE41
:101B80009AE061E67BE050E040E030E020E0FC01DC
:101B9000E20FF31FE081E13011F44F5F5F4F2F5FE1
:101BA0003F4F2031310599F740966817790769F75B
:101BB000452B09F075CE8091610B9091620B0196D7
:101BC0009093620B8093610B0E94E8051092800B4A
:101BD0000E94FB0260937C0B70937D0B80937E0BC5
:101BE00090937F0B1092740B1092730B10926E0BEC
:101BF00010926D0B55CE80910202909103020197D5
:101C000009F08BCE1092750B4BCE51E050930C0B1C
:101C100050933C0B5093FD0A50930D0B50931D0BAA
:101C200050932D0B50933D0B50933E0B0E944C074D
:101C30000E94FB026B017C01C092680BD092690B81
:101C4000E0926A0BF0926B0B84E00E94FF01892BFB
:101C500009F0A6C18091670B81111FC191E090939B
:101C6000670B0E94FB026093630B7093640B80937D
:101C7000650B9093660B70CE81E08093FB0A809396
:101C8000FC0A8093FD0A8093FE0A80930E0B8093DA
:101C90001E0B80931B0B80931C0B80931D0B80935A
:101CA0003B0B80933C0B80933D0B80933E0B8093CA
:101CB0002B0BBCCF91E09093FB0A9093FC0A90937E
:101CC000FD0A9093FE0A90930E0B90931E0B909337
:101CD0001B0B90931C0B90931D0B90933B0B9093BD
:101CE0003E0B90933C0B90933D0B90932E0B9ECF0D
:101CF000E1E0E093FE0AE0930E0BE0931E0BE0930D
:101D00003E0BE0932E0BE093FB0AE0930B0BE0936A
:101D10001B0BE0931C0BE0931D0B88CFF1E0F093BD
:101D2000FB0AF093FC0AF093FD0AF093FE0AF0938D
:101D30001E0BF0933E0BF0932E0BF0930B0BF093D6
:101D40001B0BF0931C0BF0931D0BF0933B0BF093CC
:101D50003C0BF0933D0B6ACF21E02093FB0A2093CC
:101D6000FC0A2093FD0A2093FE0A20931E0B209369
:101D70003E0B20932E0B20930B0B20931B0B2093D9
:101D80002B0B20933B0B20931C0B20931D0B2093BC
:101D90003C0B20933D0B4ACF31E03093FB0A30934C
:101DA000FC0A3093FD0A3093FE0A30930E0B3093F9
:101DB0001E0B30932E0B30933E0B38CF41E04093F7
:101DC000FB0A4093FC0A4093FD0A4093FE0A4093AD
:101DD0000E0B40931E0B40933E0B40932E0B4093F3
:101DE0000B0B40931B0B40933B0B40932B0B4093EF
:101DF0001C0B40931D0B40933C0B40933D0B16CFA7
:101E000051E05093FB0A5093FC0A5093FD0A509303
:101E1000FE0A50930E0B50931E0B50933E0B5093A3
:101E20002E0B50930B0B50931B0B50933B0B50936B
:101E30001C0B50931D0B50933C0B50933D0BF6CE57
:101E400081E08093FA0A80930A0B80931A0B8093A7
:101E50002A0B80933A0B8093FC0A8093FD0A8093AF
:101E6000FE0A8093FF0A80930C0B80931C0B8093D7
:101E70002C0B80933C0B80930F0B80931F0B809354
:101E80002F0B80933F0B80933D0B80933E0BCECE68
:101E900081ED98E00E94FF07C9CE8091630B90917D
:101EA000640BA091650BB091660BC81AD90AEA0AB7
:101EB000FB0AD701C60188509740A109B109853FA7
:101EC0009140A105B105B8F58DE599E00E94FF07A5
:101ED00064EF71E080E090E00E94C90284E00E941B
:101EE000FF01892B41F180916C0BF1E08F278093EA
:101EF0006C0B81E499E00E94FF070E94D50521E662
:101F00003AE041EE5AE090E080E0F901E80FF91F75
:101F10006081613021F4FA01E80FF91F60830196B6
:101F20008031910591F7205F3F4F405F5F4F8AE01E
:101F3000213E380741F790EFC91A9AE0D90AE10823
:101F4000F108E5EFCE16E1E0DE06E104F10408F069
:101F500003CD8EE499E00E94F20764EF71E080E027
:101F600090E00E94C90284E00E94FF01892B09F4DD
:101F7000F3CC80916C0BF1E08F2780936C0B83E5A1
:101F800099E00E94FF0762E370E080E090E00E9429
:101F9000C9020E94D5051092080C0E94FE05DCCCF7
:101FA0001092670BD9CC81E699E026960FB6F8948B
:101FB000DEBF0FBECDBFDF91CF911F910F91FF907C
:101FC000EF90DF90CF90BF90AF909F908F907F90D9
:101FD0006F905F904F903F902F900C94FF074F921F
:101FE0005F926F927F929F92AF92BF92CF92DF9259
:101FF000EF92FF920F931F93CF93DF93D1E0C1E055
:1020000042E0A42EB12C54E6952E44244A9463E079
:10201000562E612C712CC093020BC093120BC093EF
:10202000130BC093140BC093330BC093E60AC093F9
:10203000E70AC093E80AC093E90AC093EA0AC0938A
:10204000EB0AC093F60AC093F70AC093F80AC0934C
:10205000F90AC093FA0AC093FB0AC093060BC09317
:10206000080BC093090BC0930A0BC0930B0BC093D2
:10207000160BC093180BC093190BC0931B0BC09386
:10208000260BC093290BC0932B0BC093360BC09328
:102090003B0BC093460BC093470BC093480BC093B8
:1020A000490BC0934A0BC0934B0BC093560BC09384
:1020B000570BC093580BC093590BC0935A0BC09346
:1020C0005B0BC0930E0BC0930F0BC0931D0BC09303
:1020D0002D0BC0933E0BC0933F0B85E00E94FF0188
:1020E000892BF1F480910202909103020197C1F4CF
:1020F00084E799E00E94FF07B0920A0CA092090CB5
:102100000E94FB0260937C0B70937D0B80937E0B8F
:1021100090937F0BC093080C0E94D5050E94210963
:1021200086E00E94FF01892B71F480910202909158
:102130000302019741F488E899E00E94FF070E949A
:10214000D505C0935E0A80915E0A882309F476C0A3
:102150000E94D5050091560A1091570A8091540AA1
:102160009091550A080F191F8091580A9091590AA9
:10217000080F191F80915A0A90915B0A080F191FC6
:1021800080915C0A90915D0A080F191F34E5C32EF7
:102190003AE0D32EF12CE12CF601219131916F011F
:1021A000929EC001939E900D1124B8010E94CE17FB
:1021B000CB01E114F10409F0EAC061E070E0181607
:1021C00019060CF4EEC0FFEFEF1AFF0A25E0E21645
:1021D000F10411F70E944C0784E00E94FF01892B53
:1021E00069F562E370E080E090E00E94C90284E05B
:1021F0000E94FF01892B11F50E94FB026B017C01FB
:10220000C092680BD092690BE0926A0BF0926B0B54
:1022100084E00E94FF01892B09F01BC18091670BAC
:102220008111DFC0C093670B0E94FB026093630BB8
:102230007093640B8093650B9093660B87E00E940C
:10224000FF01892B09F017C18091020290910302CE
:10225000019709F010C181EA99E00E94FF070E94EE
:10226000D505E1EEFAE0D1932AE0E13FF207D9F794
:10227000E1E5FBE0D1938BE0EB35F807D9F70E945D
:102280004C0786E30E948702BC01990F880B990BCB
:1022900024E0660F771F881F991F2A95D1F7A301A5
:1022A00092010E946B1789013093770B2093760B74
:1022B00087E30E94870227E030E0DC010E94EA17F2
:1022C000A30192010E946B17DA01C9010396A11DB7
:1022D000B11DAC019093010280930002E1EEFAE09F
:1022E00090E080E0801791070CF0B6C0D083019693
:1022F000319680319105B1F730E020E0C901805975
:102300009F4F8F51954FFC01241735070CF0A6C045
:10231000D0832F5F3F4F2A30310581F70E944C0751
:1023200084E00E94FF01892B09F09AC00E94FB0201
:102330000091810B1091820B2091830B3091840BC3
:10234000601B710B820B930B683B7B4081059105F1
:1023500008F497CF0E94FB026093810B7093820B6D
:102360008093830B9093840B81E090E090930A0C10
:102370008093090C87EB99E00E94FF078CED99E0B0
:102380000E94FF071092870B0E94D50544CEF1E012
:10239000EF16F10449F464E070E0181619060CF029
:1023A00012CF0E947E040FCF22E0E216F10439F42E
:1023B00067E070E0181619060CF005CFF2CFE3E0E5
:1023C000EE16F10439F46AE070E0181619060CF004
:1023D000FACEE7CF181619060CF0F5CE6DE070E0D6
:1023E000E0CF8091630B9091640BA091650BB0914D
:1023F000660BC81AD90AEA0AFB0A84EEC8168CE0F2
:10240000D806E104F1040CF419CF8EE499E00E949F
:10241000F20764EF71E080E090E00E94C90284E07E
:102420000E94FF01892B09F409CF80916C0B8D2745
:1024300080936C0B83E599E00E94FF0762E370E0F4
:1024400080E090E00E94C9020E94D50510925E0AC9
:10245000EBCE1092670BF2CE108249CF108259CF8B
:102460000E94FB026093810B7093820B8093830B1D
:102470009093840B06CFDF91CF911F910F91FF9026
:10248000EF90DF90CF90BF90AF909F907F906F9034
:102490005F904F9008951F920F920FB60F921124E4
:1024A0002F933F938F939F93AF93BF9380910C0C87
:1024B00090910D0CA0910E0CB0910F0C30910B0C63
:1024C00023E0230F2D3758F50196A11DB11D209350
:1024D0000B0C80930C0C90930D0CA0930E0CB093EE
:1024E0000F0C8091100C9091110CA091120CB091D6
:1024F000130C0196A11DB11D8093100C9093110C2B
:10250000A093120CB093130CBF91AF919F918F9138
:102510003F912F910F900FBE0F901F90189526E8B6
:10252000230F0296A11DB11DD2CF1F920F920FB69D
:102530000F9211240BB60F922F933F934F935F93FB
:102540006F937F938F939F93AF93BF93EF93FF937B
:1025500084E19CE00E947B03FF91EF91BF91AF91DA
:102560009F918F917F916F915F914F913F912F91AB
:102570000F900BBE0F900FBE0F901F9018951F92DB
:102580000F920FB60F9211240BB60F922F938F93C9
:102590009F93EF93FF93E091240CF091250C8081A1
:1025A000E0912A0CF0912B0C82FD1DC0908180914E
:1025B0002D0C8F5F8F7320912E0C821741F0E091CC
:1025C0002D0CF0E0EC5EF34F958F80932D0CFF9176
:1025D000EF919F918F912F910F900BBE0F900FBE97
:1025E0000F901F9018958081F2CF8F929F92AF929B
:1025F000BF92CF92DF92EF92FF920F931F93CF93F0
:10260000DF938C01EC01C05BDF4F8BE0A82EB12C77
:10261000B982A882480182E5880E911C8DE090E085
:10262000F401918380836801F4E5CF0ED11C8AE028
:1026300090E0F601918380837801F6E5EF0EF11CBE
:1026400081E090E0F7019183808361E08BE00E945C
:10265000560261E0F40180810E94560261E0F601B9
:1026600080810E94560261E0F60180810E9428026A
:10267000B982A882F80170961192EC17FD07E1F774
:10268000D0E0C0E0F70180819181C817D90784F5B7
:1026900020E04FE0BE01C8010E94B206F701808130
:1026A0009181C817D90734F427E04BE0BE01C80177
:1026B0000E94B20620E049E0BE01C8010E94B206B5
:1026C000F70180819181C817D90724F4BE01C801A0
:1026D0000E94CD07F70180819181C817D90734F492
:1026E00020E04CE0BE01C8010E94B2062196CACF8C
:1026F000DF91CF911F910F91FF90EF90DF90CF90DE
:10270000BF90AF909F908F900895CF93DF931092DA
:10271000170C1092160C88EE93E0A0E0B0E08093C6
:10272000180C9093190CA0931A0CB0931B0C8EEA02
:1027300098E09093150C8093140C85EC90E09093A6
:10274000210C8093200C84EC90E09093230C8093D8
:10275000220C80EC90E09093250C8093240C81EC6B
:1027600090E09093270C8093260C82EC90E090935D
:10277000290C8093280C86EC90E090932B0C80938E
:102780002A0C10922D0C10922E0C10922F0C1092DD
:10279000300C81E090E09093120D8093110DE6E1F2
:1027A000F2E0A3E1BDE0C6E0D2E0819191918D938A
:1027B0009D93899199911F969C938E931E9782E089
:1027C000E632F80791F789EB9CE00E94F51289EB5D
:1027D0009CE09093B60C8093B50C81E19DE09093C2
:1027E000B80C8093B70C0E94FB026093B10C7093FD
:1027F000B20C8093B30C9093B40C83E39DE0DF9113
:10280000CF910C94F512CF93DF93CDB7DEB7C458B8
:10281000D1090FB6F894DEBF0FBECDBF789484B552
:10282000826084BD84B5816084BD85B5826085BDCC
:1028300085B5816085BD80916E00816080936E005A
:10284000109281008091810082608093810080914C
:1028500081008160809381008091800081608093FD
:1028600080008091B10084608093B1008091B000BD
:1028700081608093B000809191008260809391008C
:10288000809191008160809391008091900081609F
:10289000809390008091A10082608093A10080913C
:1028A000A10081608093A1008091A000816080934D
:1028B000A0008091210182608093210180912101FB
:1028C00081608093210180912001816080932001AB
:1028D00080917A00846080937A0080917A0082608F
:1028E00080937A0080917A00816080937A00809151
:1028F0007A00806880937A001092C100E091240CE5
:10290000F091250C82E08083E091200CF091210C65
:102910001082E091220CF091230C8FEC80831092B6
:102920002C0CE091280CF091290C86E08083E0913A
:10293000260CF091270C808180618083E091260C29
:10294000F091270C808188608083E091260CF091C3
:10295000270C808180688083E091260CF091270C01
:1029600080818F7D8083E090B70CF090B80C870158
:102970000E5F1F4F22E1E20EF11CD8018C910E5F19
:102980001F4F61E00E94560261E0F80186850E94B7
:1029900056020E151F0589F78091B50C9091B60C63
:1029A000FC01EA5AFF4F208131811216130634F4DC
:1029B00021E04CE070E060E00E94B2068091B50C2E
:1029C0009091B60CFC01EA5AFF4F2081318112161A
:1029D000130634F428E04AE070E060E00E94B2069A
:1029E0008091B50C9091B60CFC01EA5AFF4F208102
:1029F00031811216130624F470E060E00E94CD07C6
:102A00000E946A0462E085E00E94560262E086E06D
:102A10000E94560262E087E00E94560262E084E073
:102A20000E9456029E012F573F4FCF57DF4F3983E9
:102A30002883C158D040812C912C54018A948091D4
:102A4000090C90910A0C009709F08EC18091090C35
:102A500090910A0C892B09F092C184E00E94FF0139
:102A6000892B09F038C10E94FB020091810B109163
:102A7000820B2091830B3091840B601B710B820BB6
:102A8000930B603D774081059105D0F00E94FB02D9
:102A90006093810B7093820B8093830B9093840BD4
:102AA00041E050E050930A0C4093090C87EB99E009
:102AB0000E94FF078DEF99E00E94FF071092870B9D
:102AC00086E00E94FF01892B81F48091040290919D
:102AD0000502019751F48091870B51E0852780937F
:102AE000870B8EE19AE00E94FF0785E00E94FF01BC
:102AF00086E00E94FF01909305028093040287E024
:102B00000E94FF01909303028093020284E00E94DE
:102B1000FF0148E85BE03E0181E4680E711CDE01C4
:102B200011966D01BD019301FA0190E080E0D90199
:102B3000A80FB91FF084FC927B01E80EF91E1081EA
:102B40003196D7011C9301968830910581F7405F3B
:102B50005F4F285F3F4F685F7F4FCF57DF4FE88160
:102B6000F981C158D0402E173F07F1F6F12CE12C26
:102B700010E000E08091B50C9091B60CFC01EA5A8F
:102B8000FF4F208131811216130644F4F601E00F45
:102B9000F11F2081A801B7010E942E070F5F1F4F70
:102BA0000830110539F7FFEFEF1AFF0A28E0C20ECF
:102BB000D11C38E0E316F104D9F60091B70C10915E
:102BC000B80CA801405F5F4FCD57DF4F5983488352
:102BD000C358D0402801180152E2250E311C60E094
:102BE000D20112968C910E9428027301B8E0EB0E7C
:102BF000F11C6801F30181913F01882331F061E00C
:102C0000D60152968C910E942802B2E0CB0ED11CC4
:102C10006E147F0479F761E070E080E090E00E943C
:102C2000C90261E0F20182810E9428027801F2E18A
:102C3000EF0EF11CD7018C91B2E0EB0EF11C60E0BD
:102C40000E9428022E143F04A9F7E2E04E0E511C08
:102C5000CD57DF4F28813981C358D04042165306E3
:102C600009F0BDCFC090B10CD090B20CE090B30C85
:102C7000F090B40C8091870B811138C00E94FB0248
:102C80009B01AC012C193D094E095F0969017A01CC
:102C900087E30E9487022CE330E0DC010E94EA1700
:102CA000A50194010E946B17285D3F4F4F4F5F4F66
:102CB0002C153D054E055F0508F0C8CE0E94FB02AD
:102CC0006093B10C7093B20C8093B30C9093B40CDE
:102CD0000E946A04BBCE0E94FB026093810B70933A
:102CE000820B8093830B9093840BEACE0E94FB02AD
:102CF0009B01AC012C193D094E095F0969017A015C
:102D000087E30E9487022CE330E0DC010E94EA178F
:102D1000A50194010E946B17285D3F4F4F4F5F4FF5
:102D20002C153D054E055F0508F090CE0E94FB0274
:102D30006093B10C7093B20C8093B30C9093B40C6D
:102D40000E943B048091850B9091860B019728F09F
:102D50009093860B8093850B79CE4FEC50E0509387
:102D6000860B4093850B72CE8130910559F480918A
:102D7000080C811104C00E94EF0F0E944C070E94B2
:102D80000A045DCE0297D9F70E942109F8CF8F92ED
:102D90009F92AF92BF92CF92DF92EF92FF92CF932A
:102DA000DF93EC01688179818A819B8161157105CE
:102DB0008105910521F464E279ED8BE597E02DE141
:102DC00033EF41E050E00E946B1749015A019B012B
:102DD000AC01A7EAB1E40E948A176B017C01ACEE5A
:102DE000B4EFA50194010E949817C60ED71EE81EE5
:102DF000F91EF7FE06C081E0C81AD108E10880E894
:102E0000F80AC882D982EA82FB82C701B6019F779D
:102E1000DF91CF91FF90EF90DF90CF90BF90AF9078
:102E20009F908F9008958F929F92AF92BF92CF9272
:102E3000DF92EF92FF9260912602709127028091BB
:102E4000280290912902611571058105910521F4EF
:102E500064E279ED8BE597E02DE133EF41E050E05E
:102E60000E946B1749015A019B01AC01A7EAB1E42A
:102E70000E948A176B017C01ACEEB4EFA5019401AE
:102E80000E949817C60ED71EE81EF91EF7FE06C050
:102E900081E0C81AD108E10880E8F80AC092260249
:102EA000D0922702E0922802F0922902C701B601CF
:102EB0009F77FF90EF90DF90CF90BF90AF909F9063
:102EC0008F900895609326027093270280932802C2
:102ED000909329020895052E97FB1EF400940E94FA
:102EE000821757FD07D00E949D1707FC03D04EF4B0
:102EF0000C94821750954095309521953F4F4F4F38
:102F00005F4F089590958095709561957F4F8F4F95
:102F10009F4F08950E94BF17A59F900DB49F900DDD
:102F2000A49F800D911D11240895B7FF0C948A175A
:102F30000E948A17821B930B0895A1E21A2EAA1BE6
:102F4000BB1BFD010DC0AA1FBB1FEE1FFF1FA21759
:102F5000B307E407F50720F0A21BB30BE40BF50B56
:102F6000661F771F881F991F1A9469F760957095DF
:102F7000809590959B01AC01BD01CF010895A29F62
:102F8000B001B39FC001A39F700D811D1124911D3D
:102F9000B29F700D811D1124911D089597FB072E7E
:102FA00016F4009407D077FD09D00E94F11707FCB2
:102FB00005D03EF4909581959F4F08957095619549
:102FC0007F4F0895EE0FFF1F881F8BBF0790F6916C
:102FD000E02D19940E94BF17B7FF0895821B930B31
:102FE0000895AA1BBB1B51E107C0AA1FBB1FA61750
:102FF000B70710F0A61BB70B881F991F5A95A9F7A2
:1030000080959095BC01CD010895F894FFCF030001
:1030100001000100280029002A002B002C002D00AF
:103020002E002F001E001F00200021002200230080
:103030002400250001000000000000000000000046
:103040000001010101010101000001010101010173
:10305000010100000001010100000000000000006B
:10306000000000000000000000000000000001015E
:10307000010101010101000000000000000000004A
:103080000001010101010101000000010101010134
:103090000000000101010101010100000001010126
:1030A000010100000000000001010000000000001C
:1030B0000000000000000101010101010100000108
:1030C00001000000000101000101010101010100F6
:1030D00000000101010101010000000001010000E8
:1030E00000000101000101000000000101000101D8
:1030F00001010101010100010101010101010100C2
:1031000000000101000000000001010101010100B7
:1031100000010101010101010100010101010101A1
:103120000101000101010101000000000000000098
:10313000000000000000000000000000000001018D
:103140000101010101010000000000000000000079
:103150000001010101010101000001010101010162
:103160000100000101010101010100000101010153
:10317000010101000000010100000000000000004A
:103180000101000000000101010101010101000134
:103190000100000000010100010101010101010124
:1031A0000001010101010101010000000101010014
:1031B0000001010100010100000000010100010106
:1031C00001010101010100010101010101010100F1
:1031D00000000000010100000001010101010100E7
:1031E00000010100000000010100010100000000D9
:1031F00001010000000001010000000000000000CB
:1032000000000000000000000000000000000000BE
:1032100000010100000000000000000000000000AC
:103220000000000000000101000001010000000199
:10323000010000000000000001010000000000008B
:103240000001010000010100000000000000000179
:103250000000010000000101000000000101000168
:103260000100000000010100010100000000010157
:103270000001010000000001010000000001010147
:103280000101010000010100000000010100000037
:10329000000101000000000000000101000000002A
:1032A0000000000000010100000101000001010018
:1032B0000001010000000001010001010000000008
:1032C00001010000000001010000000001010101F6
:1032D00001010101000001010000010100000000E6
:1032E00000010100000000010101010101010100D4
:1032F00000000000000001010000010100000001C9
:1033000001000000000000000101000000000101B8
:1033100001010100010000000000000000000001A8
:103320000000010000000101000000000101000197
:103330000100000000010100010100000000010186
:103340000001010000000001010000000000010177
:103350000101000000000101000001010000000067
:103360000001010000000000000001010000000059
:103370000000000000000001000101010101010046
:103380000001010101010101000001010101010130
:103390000101000000000101000000000101010125
:1033A0000101010100000101000001010000000015
:1033B0000001010000000001010101010101010003
:1033C00000010101010101010000010100000001F3
:1033D00001000001010101010101000000000101E3
:1033E00001010100010000000000000000000000D9
:1033F00001010100000001010101010101000001C2
:1034000001000000000101000101010101010101B1
:1034100000010100000000010100000000000101A6
:103420000101000000000101000001010000000096
:103430000001010000000000000001010000000088
:103440000000000000000001000101010101010075
:10345000000101010101010101000101010101015E
:103460000101000000000101000000000000000058
:103470000000000000000101000001010000010146
:10348000000101000000000000000000000000003A
:103490000001010000000000000001010000000127
:1034A0000100000101000000000000000000000019
:1034B0000001010000010100000000000000000008
:1034C00000000100000001010101010101010001F2
:1034D00001000000000101000101010101010100E2
:1034E00000010100000000010100000000010101D5
:1034F00001010100000001010000010100000000C5
:1035000000010100000000000000010100000000B7
:1035100000000000000101000001010000000000A7
:103520000001010000000001010001010000000095
:103530000101000101010101010101000000000081
:103540000000000000000001010101000000010175
:103550000101010000000000000000000000000068
:10356000000101010101010100000101010101014E
:10357000010000010101010101010000010101013F
:103580000101010000000101000000000000000135
:103590000000010000000101000000000101000125
:1035A0000101010101010100010100000000000012
:1035B0000001010101010101010000000101010000
:1035C00000010101000000010101010000000101F2
:1035D00001010101010100010101010101010100DD
:1035E00000000000010100000001010000000000D7
:1035F00000010100000000010100010100000000C5
:1036000001010001010101010101010000000000B0
:1036100000000000000000000101000000000001A7
:103620000101000000000000000000000000000098
:10363000000101010101010100000001010101017E
:103640000000000101010101010100000001010170
:103650000101000000000000010100000000000066
:103660000101000000000101000000000101000054
:103670000101010101010000010100000000000042
:103680000000010101010101000000000101000032
:103690000000010100000000010100000000010124
:1036A000010101010101000101010101010101000C
:1036B0000000010100000000000000009D0307035E
:1036C0003403EA036503430357030D0A00596120DD
:1036D0006E6F207469656E65207669646173005948
:1036E00061206E6F20686179206DC3A173206E69BF
:1036F00076656C6573004E756D206F626A657469DE
:10370000766F73004C6C65676173746520616C2023
:103710006D6178696D6F20646520766964617320DE
:103720007065726D697469646F00546F727265734D
:1037300020646573747275696461733A2000507215
:103740006F6772616D61207061757361646F0044B1
:103750004F5320534547554E444F53005452455301
:10376000005452455320534547554E444F53005043
:10377000726F6772616D61207265616E75646164FC
:103780006F004368616E676520746F2047414D4547
:10379000206D6F6465004368616E676520746F20FB
:1037A000535441544953544943206D6F6465004359
:1037B00068616E676520746F20434F4E464947200D
:1037C0006D6F646500494E495420627574746F6E64
:1037D00020776173206368616E67656420746F2071
:1037E00067616D65206D6F646500427574746F6EFE
:1037F000204D6964646C652068656C6420666F7236
:103800002033207365636F6E647300427574746F48
:103810006E204D6964646C652068656C6420666F19
:10382000722032207365636F6E6473004368616E4B
:10383000676520746865206D6F7665206F662074FB
:103840006865206C6F6F7020746578742066726F85
:103850006D206C65667420746F20726967687400EF
:020000040003F7
:10E000000D9489F10D94B2F10D94B2F10D94B2F129
:10E010000D94B2F10D94B2F10D94B2F10D94B2F1F0
:10E020000D94B2F10D94B2F10D94B2F10D94B2F1E0
:10E030000D94B2F10D94B2F10D94B2F10D94B2F1D0
:10E040000D94B2F10D94B2F10D94B2F10D94B2F1C0
:10E050000D94B2F10D94B2F10D94B2F10D94B2F1B0
:10E060000D94B2F10D94B2F10D94B2F10D94B2F1A0
:10E070000D94B2F10D94B2F10D94B2F10D94B2F190
:10E080000D94B2F10D94B2F10D94B2F10D94B2F180
:10E090000D94B2F10D94B2F10D94B2F10D94B2F170
:10E0A0000D94B2F10D94B2F10D94B2F10D94B2F160
:10E0B0000D94B2F10D94B2F10D94B2F10D94B2F150
:10E0C0000D94B2F10D94B2F10D94B2F10D94B2F140
:10E0D0000D94B2F10D94B2F10D94B2F10D94B2F130
:10E0E0000D94B2F141546D656761323536300041AF
:10E0F000726475696E6F206578706C6F72657220DE
:10E1000073746B3530305632206279204D4C530099
:10E11000426F6F746C6F616465723E004875683F52
:10E1200000436F6D70696C6564206F6E203D200048
:10E130004350552054797065202020203D20005FF9
:10E140005F4156525F415243485F5F3D2000415658
:10E1500052204C696243205665723D20004743437C
:10E160002056657273696F6E203D20004350552024
:10E1700049442020202020203D20004C6F7720663D
:10E18000757365202020203D20004869676820665F
:10E190007573652020203D200045787420667573D6
:10E1A00065202020203D20004C6F636B2066757336
:10E1B000652020203D20004D617220203720323024
:10E1C000313300312E362E3800342E332E350056A2
:10E1D00023202020414444522020206F7020636F70
:10E1E00064652020202020696E73747275637469E1
:10E1F0006F6E2061646472202020496E74657272B3
:10E20000757074006E6F20766563746F7200726A49
:10E210006D702020006A6D70200057686174207056
:10E220006F72743A00506F7274206E6F7420737541
:10E2300070706F72746564004D7573742062652030
:10E2400061206C6574746572002000577269747483
:10E25000696E672045450052656164696E672045B7
:10E26000450045452065727220636E743D00504F35
:10E27000525400303D5A65726F2061646472003FF1
:10E280003D43505520737461747300403D454550C3
:10E29000524F4D207465737400423D426C696E6B41
:10E2A000204C454400453D44756D70204545505215
:10E2B0004F4D00463D44756D7020464C415348001B
:10E2C000483D48656C70004C3D4C69737420492F83
:10E2D0004F20506F72747300513D51756974005234
:10E2E0003D44756D702052414D00563D73686F7707
:10E2F00020696E7465727275707420566563746FF0
:10E30000727300593D506F727420626C696E6B00BD
:10E310002A0011241FBECFEFD1E2DEBFCDBF01E046
:10E320000CBF12E0A0E0B2E0EEE1FDEF03E00BBFB6
:10E3300002C007900D92A030B107D9F712E0A0E01B
:10E34000B2E001C01D92AE30B107E1F70F9460F367
:10E350000D948DFE01E20EBF0FEF0DBF11241FBE05
:10E360000D9460F30D9400F020E030E040ED57E0B4
:10E3700005C0FA013197F1F72F5F3F4F2817390792
:10E38000C0F308959C01260F311DC901A0E0B0E043
:10E390002F5F3F4FABBFFC018791882361F08093D3
:10E3A000C6008091C00086FFFCCF8091C0008064D1
:10E3B0008093C000EACF08958DE08093C6008091DD
:10E3C000C00086FFFCCF8091C00080648093C000B5
:10E3D0008AE08093C6008091C00086FFFCCF8091C8
:10E3E000C00080648093C00008950F94C2F10F9420
:10E3F000DCF10895FC019081992359F09093C600B7
:10E400008091C00086FFFCCF8091C0008064809323
:10E41000C0003196992379F70895282F982F929567
:10E420009F70892F805D8A3308F0895F8093C600D2
:10E430008091C00086FFFCCF8091C00080648093F3
:10E44000C000822F8F70982F905D9A3308F0995FEB
:10E450009093C6008091C00086FFFCCF8091C000E1
:10E4600080648093C00008959C01FB01853691056E
:10E470001CF46330710594F0C90164E670E00F94F8
:10E480002EFE605D7F4F6093C6008091C00086FFC6
:10E49000FCCF8091C00080648093C0002B30310598
:10E4A00014F43297B4F0C90164E670E00F942EFEC4
:10E4B0006AE070E00F942EFE605D7F4F6093C600AF
:10E4C0008091C00086FFFCCF8091C0008064809363
:10E4D000C000C9016AE070E00F942EFEC0968093E0
:10E4E000C6008091C00086FFFCCF8091C000806490
:10E4F0008093C00008951F93182F8EE692EE60E07F
:10E500000F94C2F11093C6008091C00086FFFCCF2B
:10E510008091C00080648093C0000F94DCF11F9153
:10E5200008952F923F924F925F926F927F928F92B7
:10E530009F92AF92BF92CF92DF92EF92FF920F9392
:10E540001F93DF93CF93CDB7DEB762970FB6F894E2
:10E55000DEBF0FBECDBF382E622ECA01DB015C01CB
:10E560006D01772420E2222E2E010894411C511CBB
:10E570008BC081E0A81680E0B80681E0C80680E084
:10E58000D80628F0C601AA27BB270F940DF2BB2797
:10E59000AD2D9C2D8B2D0F940DF28A2D0F940DF225
:10E5A0002092C6008091C00086FFFCCF8091C00001
:10E5B00080648093C0009DE29093C6008091C0006B
:10E5C00086FFFCCF8091C00080648093C0002092C1
:10E5D000C6008091C00086FFFCCF8091C00080649F
:10E5E0008093C00019828601750188249924A1E0D6
:10E5F0003A1651F03A1620F0B2E03B1661F409C029
:10E600000BBFF701779007C0C7010F9477FE782EF4
:10E6100002C0F7017080872D0F940DF22092C60082
:10E620008091C00086FFFCCF8091C0008064809301
:10E63000C000872D8052F401EF70F0708F3520F408
:10E64000E40DF51D708204C0E40DF51D8EE280839B
:10E650000894E11CF11C011D111D0894811C911CE2
:10E6600090E18916910409F0C2CF80E190E0A0E02A
:10E67000B0E0A80EB91ECA1EDB1E198AC2010F9493
:10E68000FAF10F94DCF16A94662009F072CF629679
:10E690000FB6F894DEBF0FBECDBFCF91DF911F91B3
:10E6A0000F91FF90EF90DF90CF90BF90AF909F9031
:10E6B0008F907F906F905F904F903F902F90089534
:10E6C0002F923F924F925F926F927F928F929F9282
:10E6D000AF92BF92CF92DF92EF92FF920F931F9370
:10E6E000DF93CF93CDB7DEB7CD53D1400FB6F894BB
:10E6F000DEBF0FBECDBF01E20EBF0FEF0DBF94B75F
:10E70000F894A89514BE80916000886180936000A1
:10E7100010926000789493FF05C0E0910002F091A0
:10E7200001021995279A2F9A8091C00082608093E8
:10E73000C00080E18093C40088E18093C1000000A4
:10E74000EE24FF24870144E0A42EB12CCC24DD2448
:10E7500024C0C5010197F1F70894E11CF11C011DCB
:10E76000111D21E2E2162EE4F20620E0020720E06D
:10E77000120718F031E0C32ED12CC801B70127ECE5
:10E780003BE140E050E00F9441FE611571058105C9
:10E79000910519F485B1805885B98091C00087FD35
:10E7A00003C0C114D104A9F2A6014F5F5F4FC25E3E
:10E7B000DE4F59834883CE51D140C25EDE4F8881FF
:10E7C0009981CE51D140019711F00D9410FEC05D9A
:10E7D000DE4F19821882C053D14060E0C15DDE4F28
:10E7E0001882CF52D14088249924C35DDE4F19820C
:10E7F0001882CD52D140C05EDE4F188219821A8233
:10E800001B82C052D140CE5CDE4F188219821A8220
:10E810001B82C253D140EE24FF2487010BBFF701B6
:10E8200007911691C45CDE4F19830883CC53D14005
:10E830000D940BFEC25EDE4F28813981CE51D1404E
:10E840002130310509F52091C600C25EDE4F1982E4
:10E850001882CE51D14022C02F5F3F4F4F4F5F4FA4
:10E86000213082E138078AE7480780E0580780F0C6
:10E87000C45CDE4FE881F981CC53D140EF5FFF4F9C
:10E8800019F0EE27FF27099420E030E040E050E047
:10E890008091C00087FFE0CF2091C600C35DDE4FAE
:10E8A00048815981CD52D1404F5F5F4FC35DDE4FEC
:10E8B00059834883CD52D140213209F063C64A3092
:10E8C000510508F05FC60894811C911C53E0851621
:10E8D000910409F059C600E010E018C081E280936D
:10E8E000C6008091C00086FFFCCF8091C00080648C
:10E8F0008093C0002F5F3F4F2931310579F70F9486
:10E90000DCF10F5F1F4F0530110519F020E030E0FA
:10E91000E5CF10920A0210920B0210920C02109294
:10E920000D02109206021092070210920802109235
:10E930000902109202021092030210920402109235
:10E9400005028FEE90EE60E00F94F5F180E191EE1C
:10E9500060E00F94C2F18091C00087FFFCCF9091DE
:10E96000C600903608F09F759032B8F09093C600BC
:10E970008091C00086FFFCCF8091C00080648093AE
:10E98000C000A0E2A093C6008091C00086FFFCCF2B
:10E990008091C00080648093C000983409F4D7C18E
:10E9A0009934B8F4923409F459C1933458F490333B
:10E9B00019F1903308F4E3C59F33A1F1903409F0C5
:10E9C000DEC5BDC0953409F470C1963409F0D7C5D1
:10E9D00098C1923509F42BC2933538F49C3409F46C
:10E9E000F5C1913509F0CBC518C2963509F445C279
:10E9F000993509F0C4C567C483E792EE62E00F94CD
:10EA0000F5F110920602109207021092080210927D
:10EA1000090210920A0210920B0210920C0210923C
:10EA20000D0213C18FE792EE62E00F94F5F18FEEC5
:10EA300090EE60E00F94F5F181E291EE60E00F94CA
:10EA4000C2F187EB91EE60E00F94F5F180E391EE77
:10EA500060E00F94C2F184EE90EE60E00F94F5F167
:10EA60008FE391EE60E00F94C2F186E090E061E008
:10EA700070E00F9434F20F94DCF18DE591EE60E0DC
:10EA80000F94C2F189EC91EE60E00F94F5F18EE401
:10EA900091EE60E00F94C2F183EC91EE60E00F9490
:10EAA000F5F18CE691EE60E00F94C2F18EE10F94E7
:10EAB0000DF288E90F940DF281E00F940DF20F949E
:10EAC000DCF18BE791EE60E00F94C2F119E0E0E039
:10EAD000F0E010935700E4918E2F0F940DF20F94F5
:10EAE000DCF18AE891EE60E00F94C2F1E3E0F0E03F
:10EAF00010935700E4918E2F0F940DF20F94DCF1D8
:10EB000089E991EE60E00F94C2F1E2E0F0E0109349
:10EB10005700E4918E2F0F940DF20F94DCF188EAE8
:10EB200091EE60E00F94C2F1E1E0F0E01093570045
:10EB30001491812F0F940DF20F94DCF107CF8BE825
:10EB400092EE62E00F94F5F18BE492EE60E00F94A8
:10EB5000F5F10F94DCF100E010E019C0C8016F2D51
:10EB60000F947FFEFF2031F489E492EE60E00F9471
:10EB7000C2F10BC0F092C6008091C00086FFFCCFAE
:10EB80008091C00080648093C0000F5F1F4FC80158
:10EB900081519F41A0E0B0E0ABBFFC01F790BAE229
:10EBA000FB1621F0E2E000301E07C1F60F94DCF105
:10EBB0000F94DCF187E592EE60E00F94F5F10F948D
:10EBC000DCF1CC24DD2400E010E01EC0C8010F946D
:10EBD00077FEF82E882331F489E492EE60E00F94FA
:10EBE000C2F10BC08093C6008091C00086FFFCCFAD
:10EBF0008091C00080648093C000FE1419F00894D6
:10EC0000C11CD11C0F5F1F4FC80181519F41A0E063
:10EC1000B0E0ABBFFC01E790FAE2EF1621F022E092
:10EC20000030120799F60F94DCF10F94DCF182E6C4
:10EC300092EE60E00F94C2F1C60161E070E00F94C3
:10EC400034F20F94DCF10F94DCF110920202109276
:10EC50000302109204021092050278CE89E992EE26
:10EC600062E00F94F5F1279A2F9A16C02F9880E052
:10EC700090E0E0EDF7E03197F1F7019684369105E9
:10EC8000C1F72F9A80E090E0E0EDF7E03197F1F7DF
:10EC9000019684369105C1F78091C00087FFE6CFC9
:10ECA0008091C00087FFFCCF64C485EA92EE62E0E9
:10ECB0000F94F5F140910202509103026091040219
:10ECC0007091050281E020E10F9491F2809102029F
:10ECD00090910302A0910402B091050280509F4FD1
:10ECE000AF4FBF4F8093020290930302A0930402A0
:10ECF000B093050280509041A040B04008F426CE69
:10ED0000A4CF83EB92EE62E00F94F5F140910602FE
:10ED100050910702609108027091090280E020E1A1
:10ED20000F9491F28091060290910702A09108023F
:10ED3000B091090280509F4FAF4FBF4F80930602A2
:10ED400090930702A0930802B0930902FFCD80ECD4
:10ED500092EE62E00F94F5F183E792EE60E00F949B
:10ED6000F5F18FE792EE60E00F94F5F18BE892EE0B
:10ED700060E00F94F5F189E992EE60E00F94F5F10F
:10ED800085EA92EE60E00F94F5F183EB92EE60E09D
:10ED90000F94F5F180EC92EE60E00F94F5F187ECC2
:10EDA00092EE60E00F94F5F188ED92EE60E00F9442
:10EDB000F5F18FED92EE60E00F94F5F18AEE92EEB0
:10EDC00060E00F94F5F183E093EEBDCD87EC92EE19
:10EDD00062E00F94F5F181E40F947BF282E40F94EA
:10EDE0007BF283E40F947BF284E40F947BF285E45E
:10EDF0000F947BF286E40F947BF287E40F947BF20E
:10EE000088E40F947BF28AE40F947BF28BE40F94F6
:10EE10007BF28CE40F947BF299CD88ED92EE62E068
:10EE20000F94F5F1772473948824992409C48FED05
:10EE300092EE62E00F94F5F140910A0250910B02BC
:10EE400060910C0270910D0282E020E10F9491F22A
:10EE500080910A0290910B02A0910C02B0910D02D8
:10EE600080509F4FAF4FBF4F80930A0290930B0289
:10EE7000A0930C02B0930D0269CD8AEE92EE62E08F
:10EE80000F94F5F184EE90EE60E00F94F5F18FECC5
:10EE900091EE60E00F94F5F1662477244301CC5D98
:10EEA000DE4F19821882C452D140D401C301B695F5
:10EEB000A79597958795CA5DDE4F88839983AA8326
:10EEC000BB83C652D140CC5DDE4FA881B981C4520C
:10EED000D1401196CC5DDE4FB983A883C452D14096
:10EEE000CD0162E070E00F9434F2B0E2B093C6005E
:10EEF0008091C00086FFFCCF8091C0008064809329
:10EF0000C000EDE2E093C6008091C00086FFFCCF18
:10EF10008091C00080648093C000F0E2F093C6004E
:10EF20008091C00086FFFCCF8091C00080648093F8
:10EF3000C000CA5DDE4FE880F9800A811B81C6529D
:10EF4000D140BB27A12F902F8F2D0F940DF2CA5DBA
:10EF5000DE4F8881C652D1400F940DF2B0E2FB2EF5
:10EF6000F092C6008091C00086FFFCCF8091C00067
:10EF700080648093C0000DE30093C6008091C000C0
:10EF800086FFFCCF8091C00080648093C00010E2B7
:10EF90001093C6008091C00086FFFCCF8091C00016
:10EFA00080648093C0008BBEF3012791C65DDE4F65
:10EFB0002883CA52D140A22EBB24CC24DD2408943D
:10EFC000611C711C811C911C8BBEF3018791282E42
:10EFD0003324442455240894611C711C811C911C09
:10EFE0008BBEF3013791C55DDE4F3883CB52D140E4
:10EFF0000894611C711C811C911C8BBEF30147910C
:10F00000C45DDE4F4883CC52D140ADEFEA2EAFEF66
:10F01000FA2EAFEF0A2FAFEF1A2F6E0C7F1C801E57
:10F02000911E142D032DF22CEE24EA0CFB1C0C1D5A
:10F030001D1D0F940DF220E22093C6008091C000A8
:10F0400086FFFCCF8091C00080648093C000C65DC5
:10F05000DE4F8881CA52D1400F940DF230E23093D6
:10F06000C6008091C00086FFFCCF8091C000806404
:10F070008093C000C45DDE4F8881CC52D1400F9494
:10F080000DF240E24093C6008091C00086FFFCCFA5
:10F090008091C00080648093C000C55DDE4F888190
:10F0A000CB52D1400F940DF250E25093C6008091A4
:10F0B000C00086FFFCCF8091C00080648093C000B8
:10F0C0008FEFE8168FEFF80680E0080780E018075A
:10F0D00031F484E092EE60E00F94C2F1DFC0D80119
:10F0E000C7018070907CA070B0708050904CA040A0
:10F0F000B040D1F52FEF3FE340E050E0E222F322B1
:10F1000004231523CA5DDE4FA880B980CA80DB8046
:10F11000C652D140AE0CBF1CC01ED11EAA0CBB1CD7
:10F12000CC1CDD1C8EE092EE60E00F94C2F1BB2798
:10F13000A12F902F8F2D0F940DF28E2D0F940DF285
:10F1400030E23093C6008091C00086FFFCCF8091F2
:10F15000C00080648093C0004EE34093C60080915D
:10F16000C00086FFFCCF87C08EE09EEFA0E0B0E03D
:10F17000E822F9220A231B239CE0E91694E9F90608
:10F1800090E0090790E0190709F088C0C45DDE4FE0
:10F19000A881CC52D140EA2EFF2400E010E0102FCD
:10F1A0000F2DFE2CEE24C55DDE4FB881CB52D14031
:10F1B000EB0EF11C011D111DD601C501817090706F
:10F1C000A070B070DC0199278827E80EF91E0A1F8D
:10F1D0001B1F20EF30E040E050E0A222B322C42207
:10F1E000D52241E1AA0CBB1CCC1CDD1C4A95D1F7F1
:10F1F000EA0CFB1C0C1D1D1D81E090E0A0E0B0E0BE
:10F20000282239224A225B2235E1220C331C441C7D
:10F21000551C3A95D1F7E20CF31C041D151D57013E
:10F220006801AA0CBB1CCC1CDD1C85E192EE60E0E1
:10F230000F94C2F1C801AA27BB270F940DF2BB2778
:10F24000A12F902F8F2D0F940DF28E2D0F940DF274
:10F2500090E29093C6008091C00086FFFCCF809121
:10F26000C00080648093C000AEE3A093C60080918C
:10F27000C00086FFFCCF8091C00080648093C000F6
:10F28000C601AA27BB270F940DF2BB27AD2D9C2DDD
:10F290008B2D0F940DF28A2D0F940DF20F94DCF14B
:10F2A000CC5DDE4FE881F981C452D140F99709F471
:10F2B0004DCBF4E0EF2EF12C012D112D6E0C7F1CA7
:10F2C000801E911EF2CD83E093EE62E00F94F5F183
:10F2D0008AE192EE60E00F94C2F18091C00087FF56
:10F2E000FCCF1091C6001F751093C6008091C0001E
:10F2F00086FFFCCF8091C00080648093C0000F9493
:10F30000DCF1812F81548A3108F036C1163409F4BA
:10F3100095C0173490F4133409F44EC0143430F40B
:10F320001134F1F0123409F01DC130C0143409F465
:10F3300059C0153409F016C16BC01A3409F4C4C0A1
:10F340001B3438F4173409F48FC0183409F00AC19B
:10F35000A1C01B3409F4D2C01C3409F003C1E8C0B9
:10F360008FEF81B90DC082B1809582B980E090E0C5
:10F37000E0EDF7E03197F1F70196883C9105C1F790
:10F380008091C00087FFEFCF12B8EFC08FEF84B934
:10F390000DC085B1809585B980E090E0E0EDF7E0A3
:10F3A0003197F1F70196883C9105C1F78091C00033
:10F3B00087FFEFCF15B8D9C08FEF87B90DC088B1DF
:10F3C000809588B980E090E0E0EDF7E03197F1F7C3
:10F3D0000196883C9105C1F78091C00087FFEFCF6F
:10F3E00018B8C3C08FEF8AB90DC08BB180958BB9A7
:10F3F00080E090E0E0EDF7E03197F1F70196883C8E
:10F400009105C1F78091C00087FFEFCF1BB8ADC059
:10F410008FEF8DB90DC08EB180958EB980E090E0F0
:10F42000E0EDF7E03197F1F70196883C9105C1F7DF
:10F430008091C00087FFEFCF1EB897C08FEF80BBD1
:10F440000DC081B3809581BB80E090E0E0EDF7E0F6
:10F450003197F1F70196883C9105C1F78091C00082
:10F4600087FFEFCF11BA81C08FEF83BB0DC084B38C
:10F47000809584BB80E090E0E0EDF7E03197F1F714
:10F480000196883C9105C1F78091C00087FFEFCFBE
:10F4900014BA6BC08FEF809301010FC080910201FD
:10F4A00080958093020180E090E0E0EDF7E03197F5
:10F4B000F1F70196883C9105C1F78091C00087FF64
:10F4C000EDCF1092020151C08FEF809304010FC065
:10F4D0008091050180958093050180E090E0E0ED4A
:10F4E000F7E03197F1F70196883C9105C1F78091DB
:10F4F000C00087FFEDCF1092050137C08FEF8093DA
:10F5000007010FC08091080180958093080180E079
:10F5100090E0E0EDF7E03197F1F70196883C910536
:10F52000C1F78091C00087FFEDCF109208011DC088
:10F530008FEF80930A010FC080910B01809580931B
:10F540000B0180E090E0E0EDF7E03197F1F70196F4
:10F55000883C9105C1F78091C00087FFEDCF1092E4
:10F560000B0103C085E292EEEEC98091C00087FFD7
:10F57000FCCF8091C600EAC988E392EEE4C98CE131
:10F5800091EEE1C988249924933011F1943028F444
:10F59000913089F09230B8F408C0953061F195301F
:10F5A000F0F0963009F048C043C02B3109F042C951
:10F5B00091E06BE13FC96227C15DDE4F2883CF52E6
:10F5C000D14092E037C9B22FA0E0622793E032C960
:10F5D000822F90E0A82BB92B622794E02BC92E3004
:10F5E00009F039C3622795E0C05DDE4F19821882A9
:10F5F000C053D1401FC9E1E0F0E0EC0FFD1FC05D3A
:10F60000DE4F08811981C053D140E00FF11F2083E4
:10F610000F5F1F4FC05DDE4F19830883C053D14079
:10F6200062270A171B0709F005C9D80196E002C92D
:10F63000261709F010C303C0973009F0FBC87724E0
:10F640009981933109F412C19431C8F4963009F4C8
:10F65000D8C0973050F4923009F406C1933009F4C1
:10F660006DC0913009F059C253C0913109F477C08F
:10F67000923108F0BBC0903109F04FC2F5C098310B
:10F6800009F487C0993150F4953109F4EFC09531F0
:10F6900008F4C6C1963109F040C2C2C19A3109F4DA
:10F6A0006CC09A3108F491C09B3109F45BC09D3164
:10F6B00009F033C29D81903359F48F81882311F46E
:10F6C0009EE11CC0813011F091E018C098E916C08D
:10F6D000892F807591F0903539F4E0E0F0E089E011
:10F6E0008093570094910AC0983539F4E3E0F0E034
:10F6F00089E080935700949101C090E01A821B82A8
:10F700008D818C831D829E831F8227E030E009C299
:10F710001A8288E08B8381E48C8386E58D8382E581
:10F720008E8389E48F8383E5888780E589878FE5E9
:10F730008A8782E38B872BE030E0F3C18A818139AD
:10F7400041F0823941F0803911F48FE005C080E04A
:10F7500003C082E001C08AE01A828B8344C0772410
:10F76000739482C08D81882311F48EE12CC0813086
:10F7700011F081E028C088E926C01A82E1E0F0E0BB
:10F7800089E08093570084918B831C8224E030E0D1
:10F79000C8C18B81803589F48C81883039F4E2E0EE
:10F7A000F0E089E08093570084910DC0E0E0F0E044
:10F7B00089E080935700849106C0E3E0F0E089E09F
:10F7C0008093570084911A82DFCF8D81836C99E0FA
:10F7D000E1E0F0E0082E90935700E89507B600FCB2
:10F7E000FDCF1A821B8223E030E09BC180EC8A832C
:10F7F000CE5CDE4F188219821A821B82C253D1401E
:10F800008EC18A8190E0A0E0B0E0582F44273327D2
:10F8100022278B8190E0A0E0B0E0DC0199278827C7
:10F82000282B392B4A2B5B2B8D8190E0A0E0B0E098
:10F83000282B392B4A2B5B2B8C8190E0A0E0B0E089
:10F84000BA2FA92F982F8827282B392B4A2B5B2BCF
:10F85000220F331F441F551FC05EDE4F288339839C
:10F860004A835B83C052D1401A8259C13A81C95C34
:10F87000DE4F3883C753D140CA5CDE4F1882C6536F
:10F88000D1408B81C82EDD24CA5CDE4F488159816E
:10F89000C653D140C42AD52A933109F082C0CE5C28
:10F8A000DE4F88819981AA81BB81C253D1408050AB
:10F8B000904CA340B04030F583E0CE5CDE4FE88052
:10F8C000F9800A811B81C253D140F70100935B008C
:10F8D00080935700E89507B600FCFDCFCE5CDE4F65
:10F8E000088119812A813B81C253D14000501F4FAA
:10F8F0002F4F3F4FCE5CDE4F088319832A833B8313
:10F90000C253D140C05EDE4F488159816A817B81FC
:10F91000C052D140DE011B9631E08C9111962C91A2
:10F9200011971296C75CDE4F2883C953D140C85C3B
:10F93000DE4F1882C853D14090E0C85CDE4FE881AA
:10F94000F981C853D1408E2B9F2B0C01FA01609393
:10F950005B0030935700E89511244E5F5F4F6F4F67
:10F960007F4F0EEFE02E0FEFF02ECE0CDF1CC114F8
:10F97000D10499F685E0C05EDE4F088119812A81A5
:10F980003B81C052D140F80120935B008093570027
:10F99000E89507B600FCFDCF81E180935700E8951C
:10F9A00035C0C05EDE4F88819981AA81BB81C0527B
:10F9B000D140B695A795979587957C018601ABE0D8
:10F9C000AA2EB12CAC0EBD1E0BC0D5016D915D01F0
:10F9D000C7010F947FFE0894E11CF11C01501040F8
:10F9E0000115110591F7A60160E070E0440F551F65
:10F9F000661F771FC05EDE4FE880F9800A811B8199
:10FA0000C052D1404E0D5F1D601F711F1A82C05E33
:10FA1000DE4F488359836A837B83C052D1407FC0C5
:10FA2000FA80C55CDE4FF882CB53D140C65CDE4F16
:10FA30001882CA53D1408B81C82EDD24C65CDE4FAC
:10FA400008811981CA53D140C02AD12A1A828981DA
:10FA5000BE016D5F7F4F843121F59601C05EDE4FA0
:10FA6000E880F9800A811B81C052D1400BBFF701A9
:10FA700087919691DB018C9311969C936E5F7F4FDB
:10FA8000D801C7010296A11DB11DC05EDE4F88835B
:10FA90009983AA83BB83C052D14022503040F1F6F3
:10FAA00036C0C05EDE4F288139814A815B81C052F9
:10FAB000D1400894C108D108760100E010E0089414
:10FAC000C11CD11C0894E11CF11C011D111DE20E8A
:10FAD000F31E041F151F21BDBB27A52F942F832FB5
:10FAE00082BD2F5F3F4F4F4F5F4FF89A80B5DB01CC
:10FAF0008D93BD012E153F054007510761F7C05E8C
:10FB0000DE4F288339834A835B83C052D1409601FC
:10FB10002D5F3F4FFB01108204C080EC8A8322E0FE
:10FB200030E08BE18093C6008091C00086FFFCCF5F
:10FB30008091C00080648093C000C15DDE4FF88179
:10FB4000CF52D140F093C6008091C00086FFFCCF19
:10FB50008091C00080648093C000432F3093C60022
:10FB60008091C00086FFFCCF8091C00080648093AC
:10FB7000C000922F2093C6008091C00086FFFCCF6A
:10FB80008091C00080648093C0008EE08093C600A6
:10FB90008091C00086FFFCCF8091C000806480937C
:10FBA000C00065E1C15DDE4FE880CF52D1406E25D7
:10FBB00069276427FE01319610C090819093C6009A
:10FBC0008091C00086FFFCCF31968091C000806498
:10FBD0008093C0006927215030402115310569F715
:10FBE0006093C6008091C00086FFFCCF8091C0006A
:10FBF00080648093C00085B1805885B9772081F4F6
:10FC0000C15DDE4F0881CF52D1400F5FC15DDE4F35
:10FC10000883CF52D14090E0A0E0B0E00D941AF4F8
:10FC200027982F9880E090E020ED37E0F901319798
:10FC3000F1F7019684369105C9F700008091C00064
:10FC40008D7F8093C00081E180935700E895EE2777
:10FC5000FF270994FFCF90E00D941AF497FB092E2B
:10FC600007260AD077FD04D02ED006D000201AF443
:10FC7000709561957F4F0895F6F7909581959F4F08
:10FC80000895A1E21A2EAA1BBB1BFD010DC0AA1FDD
:10FC9000BB1FEE1FFF1FA217B307E407F50720F0F5
:10FCA000A21BB30BE40BF50B661F771F881F991F70
:10FCB0001A9469F760957095809590959B01AC01B9
:10FCC000BD01CF010895AA1BBB1B51E107C0AA1FAC
:10FCD000BB1FA617B70710F0A61BB70B881F991FED
:10FCE0005A95A9F780959095BC01CD010895F99991
:10FCF000FECF92BD81BDF89A992780B50895262F31
:10FD0000F999FECF1FBA92BD81BD20BD0FB6F89400
:0EFD1000FA9AF99A0FBE01960895F894FFCF63
:00000001FF
