:100000000C9435010C9466010C9466010C94660105
:100010000C9466010C9466010C9466010C946601C4
:100020000C9466010C9466010C9466010C946601B4
:100030000C9466010C9466010C9466010C946601A4
:100040000C9466010C9466010C9466010C94660194
:100050000C9466010C9466010C9466010C94BD0628
:100060000C9466010C9431070C9407070C946601FC
:100070000C9466010C9466010C9466010C94660164
:100080000C9466010C9466010C9466010C94660154
:100090000C9466010C9466010C9466010C94660144
:1000A0000C9466010C9466010C9466010C94660134
:1000B0000C9466010C9466010C9466010C94660124
:1000C0000C9466010C9466010C9466010C94660114
:1000D0000C9466010C9466010C9466010C94660104
:1000E0000C9466010C943B030C9494010C94F70758
:1000F0000C94C1010C94A5010C9403030C94A10170
:100100000C94C6010C94B3010C9490010C94D2028F
:100110000C9486010C94F5020C949B010C94AB0199
:100120000C9498010C94C7010C948C010C948803D6
:100130000C94AF010C94B9010C94E1020C94A5024B
:100140000C94BD010C94CB01000021002400270079
:100150002A002D00300033000101000004010701D6
:100160000A0100002200250028002B002E0031008B
:10017000340002010000050108010B01000020000D
:100180002300260029002C002F003200000100006F
:10019000030106010901050505050705080808080A
:1001A000020202020A0A080804040404010101010F
:1001B000010101010303030303030303040707070A
:1001C0000C0C0C0C0C0C0C0C0202020206060606AF
:1001D000060606060B0B0B0B0B0B0B0B010210207C
:1001E000200808102040102040800201020108046D
:1001F0000201010204081020408080402010080401
:100200000201800402018040201008040201080459
:10021000020101020408102040800102040810209D
:10022000408000000A0B02090C0D0E0807030401B0
:1002300000000000000000000000000000000000BE
:10024000000000000000000000000000000012118B
:10025000100000000000000000000000000000008E
:100260000000000000000000F70711241FBECFEFC0
:10027000D1E2DEBFCDBF00E00CBF19E0A0E0B2E0EC
:10028000E2E4F7E100E00BBF02C007900D92A03955
:10029000B107D9F72CE0A0E9B9E001C01D92A9315E
:1002A000B207E1F711E0C5E3D1E000E006C0219715
:1002B0000109802FFE010E94900BC433D10780E01A
:1002C0000807A9F70E9475080C949F0B0C94000076
:1002D0008150823108F05AC0E82FF0E08827EC58AE
:1002E000FE4F8F4F0C94900B9401980186018C0166
:1002F0009001C6019B01A101A501AB01AF01B301B2
:10030000B901BD01C601C101C701CB0180918000C7
:100310008F77809380000895809180008F7DF9CF42
:1003200080918000877FF5CF84B58F7784BD089555
:1003300084B58F7DFBCF8091B0008F778093B00024
:1003400008958091B0008F7DF9CF809190008F77D4
:10035000809390000895809190008F7DF9CF8091D7
:100360009000877FF5CF8091A0008F778093A000C9
:1003700008958091A0008F7DF9CF8091A000877FA4
:10038000F5CF809120018F7780932001089580918F
:1003900020018F7DF9CF80912001877FF5CFCF930A
:1003A000DF93282F30E0F901EE5DFD4F8491F901D4
:1003B000E452FE4FD491F901EA56FE4FC491CC238A
:1003C000A1F081110E946801EC2FF0E0EE0FFF1FF9
:1003D000E458FE4FA591B491EC91ED2381E090E0BB
:1003E00009F480E0DF91CF91089580E090E0FACFAA
:1003F0001F93CF93DF93282F30E0F901EE5DFD4F7F
:100400008491F901E452FE4FD491F901EA56FE4F6E
:10041000C491CC23A9F0162F81110E946801EC2F02
:10042000F0E0EE0FFF1FEE59FE4FA591B4918FB78C
:10043000F894EC91111108C0D095DE23DC938FBFA6
:10044000DF91CF911F910895DE2BF8CFCF93DF93EB
:1004500090E0FC01E452FE4F24918A569E4FFC012D
:1004600084918823D1F090E0880F991FFC01E85B0C
:10047000FE4FA591B491FC01EE59FE4FC591D49168
:10048000623071F49FB7F8943C91822F809583235A
:100490008C93E8812E2B28839FBFDF91CF91089505
:1004A0008FB7F894EC912E2B2C938FBFF6CF863319
:1004B00008F0865320917B00982F9870277F922B0D
:1004C00090937B008770806480937C0080917A0099
:1004D000806480937A0080917A0086FDFCCF8091C1
:1004E00078009091790008953FB7F89480919E0A22
:1004F00090919F0AA091A00AB091A10A26B5A89B4D
:1005000005C02F3F19F00196A11DB11D3FBFBA2FA5
:10051000A92F982F8827BC01CD01620F711D811D65
:10052000911D42E0660F771F881F991F4A95D1F7EA
:1005300008952FB7F89460919A0A70919B0A809160
:100540009C0A90919D0A2FBF0895AF92BF92CF92BF
:10055000DF92EF92FF920F931F93CF93DF936C0183
:100560007B018B01040F151FEB015E01AE18BF0864
:10057000C017D10759F06991D601ED91FC91019016
:10058000F081E02DC6011995892B79F7C501DF911E
:10059000CF911F910F91FF90EF90DF90CF90BF9080
:1005A000AF900895FC01538D448D252F30E0842FAA
:1005B00090E0821B930B541710F0CF96089501978B
:1005C0000895FC01918D828D981761F0A28DAE0F78
:1005D000BF2FB11D5D968C91928D9F5F9F73928FFF
:1005E00090E008958FEF9FEF0895FC01918D828D2B
:1005F000981731F0828DE80FF11D858D90E00895F8
:100600008FEF9FEF0895FC01918D228D892F90E04F
:10061000805C9F4F821B91098F739927089582EA0E
:100620009AE00E94030321E0892B09F420E0822F45
:100630000895FC01A48DA80FB92FB11DA35ABF4F77
:100640002C91848D90E001968F739927848FA689D1
:10065000B7892C93A089B1898C91837080648C9325
:10066000938D848D981306C00288F389E02D8081D4
:100670008F7D80830895EF92FF920F931F93CF9306
:10068000DF93EC0181E0888F9B8D8C8D98131AC0CD
:10069000E889F989808185FF15C09FB7F894EE89B4
:1006A000FF896083E889F989808183708064808311
:1006B0009FBF81E090E0DF91CF911F910F91FF905C
:1006C000EF900895F62E0B8D10E00F5F1F4F0F7304
:1006D0001127E02E8C8D8E110CC00FB607FCFACFBF
:1006E000E889F989808185FFF5CFCE010E94190341
:1006F000F1CFEB8DEC0FFD2FF11DE35AFF4FF08290
:100700009FB7F8940B8FEA89FB8980818062CFCFF5
:10071000CF93DF93EC01888D8823B9F0AA89BB8938
:10072000E889F9898C9185FD03C0808186FD0DC023
:100730000FB607FCF7CF8C9185FFF2CF808185FF44
:10074000EDCFCE010E941903E9CFDF91CF9108953B
:1007500080E090E0892B29F00E940F0381110E9414
:10076000000080E090E0892B49F080E090E0892B48
:1007700029F00E94000081110E94000080E090E0BA
:10078000892B49F080E090E0892B29F00E9400003D
:1007900081110E94000080E090E0892B49F080E008
:1007A00090E0892B29F00E94000081110C94000038
:1007B0000895CF93DF93A091140AB091150AAD016B
:1007C0004C5D5D4F27E13AE090E080E0E901C80F21
:1007D000D91FBC016A0F7B1FFA01E80FF91F603DAA
:1007E00071052CF0FC01E05DF109E40FF51F60815B
:1007F000688301968031910549F740535F4F205F30
:100800003F4F8AE027393807F9F6DF91CF910895F5
:100810000E94D9038091140A9091150A01968F3C89
:10082000910529F09093150A8093140A0895109267
:10083000150A1092140A089580E999E030E020E04A
:10084000FC01E20FF31F10822F5F3F4F2031310573
:10085000B9F740962AE08031920781F708954F92C8
:100860005F926F927F928F929F92AF92BF92CF9240
:10087000DF92EF92FF920F931F93CF93DF931F921C
:100880001F92CDB7DEB78C0149832A83660F771F8D
:10089000F801EA5AFF4FE080F180EE0CFF1CF801EE
:1008A000CF01801B910B8E159F0514F41192F8CF88
:1008B0008981F801E60FF71F81838A8180836801AF
:1008C00084E5C80ED11C60E0F60180810E94F80129
:1008D0005801F2E5AF0EB11C480180E5880E911C6D
:1008E0001E141F040CF5E1E0EE1AF108F801EE0DFC
:1008F000FF1D6080F5015080F401408088E0782E73
:10090000662D661F6627661F842D0E94F801660CFF
:1009100061E0852D0E94F80160E0852D0E94F801BC
:100920007A947110EDCFDCCF61E0F60180810F90F9
:100930000F90DF91CF911F910F91FF90EF90DF907B
:10094000CF90BF90AF909F908F907F906F905F906F
:100950004F900C94F801E0E8F0E002C0F595E795BF
:100960004A95E2F7DC01A60FB71F50963C915097CD
:10097000222361F0E32B5096EC93509741E0460F11
:1009800050962C9170E060E00C942F04E095E323E6
:10099000F2CF8F929F92AF92BF92CF92DF92EF925F
:1009A000FF920F931F93CF93DF9340E9E42E49E02A
:1009B000F42ED0E0C0E010E000E08091170C9091A0
:1009C000180C1816190674F421E0F701E00FF11F56
:1009D0008081813009F020E0A801BE0181EC9BE01C
:1009E0000E94AB040F5F1F4F0830110531F72196AD
:1009F00080E1E80EF11CC830D105E9F693E0E92E5C
:100A0000F12C23ECC22ED12C3BE2A32E31E1B32EEC
:100A100080E9882E89E0982ECEE108E010E0F4010C
:100A2000E00FF11F8081813089F560E08C2F0E94FA
:100A3000F80161E0D0E2D00F8D2F0E94F801C501CE
:100A40000197F1F761E08C2F0E94F80160E08D2F93
:100A50000E94F8010F5F1F4F0031110501F7CF5FB2
:100A600080E1880E911CC632C1F681E0E81AF108D7
:100A700079F6DF91CF911F910F91FF90EF90DF906A
:100A8000CF90BF90AF909F908F900895C60101972F
:100A9000F1F7E0CFCF92DF92EF92FF921F93CF93C7
:100AA000DF937C016B01EB0183E0CC0FDD1F8A95A6
:100AB000E1F76096CE0DDF1D11E0199220E0412F85
:100AC000B601C7010E942F041F5F1930B1F7DF91F3
:100AD000CF911F91FF90EF90DF90CF900895CF932B
:100AE000DF93FC0101900020E9F73197AF01481B2B
:100AF000590BBC0182EA9AE00E94A502EC0142E097
:100B000050E066EB78E082EA9AE00E94A5028C0F42
:100B10009D1FDF91CF9108958F929F92AF92BF92C8
:100B2000CF92DF92EF92FF920F931F93CF93DF93B9
:100B3000D1E0C1E0CC24CA9433E0D32EE12CF12CD7
:100B400001E010E0C093B109C093C109C093C2098C
:100B5000C093C309C093E209C0939509C093960955
:100B6000C0939709C0939809C0939909C0939A09B3
:100B7000C093A509C093A609C093A709C093A8096B
:100B8000C093A909C093AA09C093B509C093B70936
:100B9000C093B809C093B909C093BA09C093C509F5
:100BA000C093C709C093C809C093CA09C093D509A7
:100BB000C093D809C093DA09C093E509C093EA0944
:100BC000C093F509C093F609C093F709C093F809DB
:100BD000C093F909C093FA09C093050AC093060AA5
:100BE000C093070AC093080AC093090AC0930A0A6F
:100BF000C093BD09C093BE09C093CC09C093DC0962
:100C0000C093ED09C093EE0987E00E94CF01892BC4
:100C100009F0A6C08091000290910102019709F0AD
:100C20009FC089EB98E00E946F050E941C04E0E9D8
:100C3000F9E0D19329E0E03AF207D9F7E0E0FAE0F1
:100C4000D1938AE0EA30F807D9F70E94C90486E315
:100C50000E945702BC01990F880B990B24E0660F84
:100C6000771F881F991F2A95D1F7A70196010E9427
:100C7000400B590187E30E94570227E030E0DC0176
:100C80000E94980BA70196010E94400BBA01A9018E
:100C90004D5F5F4F6F4F7F4FE0E9F9E090E080E0FC
:100CA0008A159B050CF04DC0D0830196319680319A
:100CB0009105B1F730E020E0C90180599F4F80577E
:100CC000964FFC0124173507F4F5D0832F5F3F4F73
:100CD0002A30310589F70E94C90484E00E94CF01BF
:100CE000892B99F50E9499028090100A9090110A20
:100CF000A090120AB090130A681979098A099B0911
:100D0000683B7B408105910508F4A1CF0E949902C0
:100D10006093100A7093110A8093120A9093130A39
:100D20001093980A0093970A8FEC98E00E946F0541
:100D300084EF98E00E946F051092160A0E941C042E
:100D400001CF1082B2CF1082C1CF0E94990260936E
:100D5000100A7093110A8093120A9093130A77CFA6
:100D6000DF91CF911F910F91FF90EF90DF90CF9087
:100D7000BF90AF909F908F9008951F920F920FB6E3
:100D80000F9211242F933F938F939F93AF93BF9311
:100D900080919A0A90919B0AA0919C0AB0919D0A19
:100DA0003091990A23E0230F2D3758F50196A11DA4
:100DB000B11D2093990A80939A0A90939B0AA0935D
:100DC0009C0AB0939D0A80919E0A90919F0AA091DF
:100DD000A00AB091A10A0196A11DB11D80939E0A9F
:100DE00090939F0AA093A00AB093A10ABF91AF91DC
:100DF0009F918F913F912F910F900FBE0F901F9059
:100E0000189526E8230F0296A11DB11DD2CF1F927F
:100E10000F920FB60F9211240BB60F922F933F93A0
:100E20004F935F936F937F938F939F93AF93BF93F2
:100E3000EF93FF9382EA9AE00E941903FF91EF91EA
:100E4000BF91AF919F918F917F916F915F914F91E2
:100E50003F912F910F900BBE0F900FBE0F901F90E0
:100E600018951F920F920FB60F9211240BB60F9286
:100E70002F938F939F93EF93FF93E091B20AF0919A
:100E8000B30A8081E091B80AF091B90A82FD1DC0D1
:100E900090818091BB0A8F5F8F732091BC0A82176B
:100EA00041F0E091BB0AF0E0EE55F54F958F80934D
:100EB000BB0AFF91EF919F918F912F910F900BBEE5
:100EC0000F900FBE0F901F9018958081F2CF8F92D8
:100ED0009F92AF92BF92CF92DF92EF92FF920F93C9
:100EE0001F93CF93DF938C01EC01C05BDF4F8BE04E
:100EF000A82EB12CB982A882480182E5880E911CE7
:100F00008DE090E0F401918380836801F4E5CF0ED9
:100F1000D11C8AE090E0F601918380837801F6E5A8
:100F2000EF0EF11C81E090E0F7019183808361E096
:100F30008BE00E94260261E0F40180810E9426027B
:100F400061E0F60180810E94260261E0F601808165
:100F50000E94F801B982A882F80170961192EC17EC
:100F6000FD07E1F7D0E0C0E0F70180819181C8176B
:100F7000D90784F520E04FE0BE01C8010E942F048C
:100F8000F70180819181C817D90734F427E04BE03D
:100F9000BE01C8010E942F0420E049E0BE01C80143
:100FA0000E942F04F70180819181C817D90724F48A
:100FB000BE01C8010E944A05F70180819181C817CE
:100FC000D90734F420E04CE0BE01C8010E942F0490
:100FD0002196CACFDF91CF911F910F91FF90EF9093
:100FE000DF90CF90BF90AF909F908F900895CF9358
:100FF000DF931092A50A1092A40A88EE93E0A0E075
:10100000B0E08093A60A9093A70AA093A80AB09391
:10101000A90A88EA98E09093A30A8093A20A85EC33
:1010200090E09093AF0A8093AE0A84EC90E09093A6
:10103000B10A8093B00A80EC90E09093B30A809359
:10104000B20A81EC90E09093B50A8093B40A82ECE6
:1010500090E09093B70A8093B60A86EC90E0909364
:10106000B90A8093B80A1092BB0A1092BC0A109277
:10107000BD0A1092BE0A81E090E09093A00B80938D
:101080009F0BE4E1F2E0A1EABBE0C4E0D2E0819191
:1010900091918D939D93899199911F969C938E9395
:1010A0001E9782E0E432F80791F787E49BE00E9404
:1010B000670787E49BE09093440B8093430B8FE991
:1010C0009BE09093460B8093450B0E94990260939E
:1010D0003F0B7093400B8093410B9093420B81EC3C
:1010E0009BE0DF91CF910C946707CF93DF93CDB74F
:1010F000DEB7C458D1090FB6F894DEBF0FBECDBF1E
:10110000789484B5826084BD84B5816084BD85B5E2
:10111000826085BD85B5816085BD80916E008160EE
:1011200080936E0010928100809181008260809394
:101130008100809181008160809381008091800096
:101140008160809380008091B10084608093B100C1
:101150008091B00081608093B000809191008260A6
:1011600080939100809191008160809391008091A3
:1011700090008160809390008091A10082608093B4
:10118000A1008091A10081608093A1008091A000C6
:1011900081608093A0008091210182608093210171
:1011A00080912101816080932101809120018160E3
:1011B0008093200180917A00846080937A008091EE
:1011C0007A00826080937A0080917A0081608093B7
:1011D0007A0080917A00806880937A001092C10032
:1011E000E091B20AF091B30A82E08083E091AE0A06
:1011F000F091AF0A1082E091B00AF091B10A8FEC41
:1012000080831092BA0AE091B60AF091B70A86E09C
:101210008083E091B40AF091B50A80818061808377
:10122000E091B40AF091B50A808188608083E091F2
:10123000B40AF091B50A808180688083E091B40A95
:10124000F091B50A80818F7D8083E090450BF0900E
:10125000460B87010E5F1F4F22E1E20EF11CD80101
:101260008C910E5F1F4F61E00E94260261E0F80141
:1012700086850E9426020E151F0589F78091430B73
:101280009091440BFC01EA5AFF4F208131811216E4
:10129000130634F421E04CE070E060E00E942F047B
:1012A0008091430B9091440BFC01EA5AFF4F20813F
:1012B00031811216130634F428E04AE070E060E051
:1012C0000E942F048091430B9091440BFC01EA5A39
:1012D000FF4F208131811216130624F470E060E084
:1012E0000E944A050E94080462E085E00E942602EE
:1012F00062E086E00E94260262E087E00E94260209
:1013000062E084E00E9426029E012F573F4FCF5794
:10131000DF4F39832883C158D040812C912C540150
:101320008A948091970A9091980A009709F09BC13E
:1013300085E199E00E946F058091970A9091980A43
:10134000892B09F09AC184E00E94CF01892B09F012
:1013500041C10E9499020091100A1091110A209136
:10136000120A3091130A601B710B820B930B603DC4
:10137000774081059105D0F00E9499026093100A90
:101380007093110A8093120A9093130A41E050E07F
:101390005093980A4093970A8FEC98E00E946F054B
:1013A00089E299E00E946F051092160A86E00E9479
:1013B000CF01892B81F48091020290910302019761
:1013C00051F48091160A51E085278093160A8AE429
:1013D00099E00E946F0585E00E94CF0186E00E949F
:1013E000CF01909303028093020287E00E94CF0115
:1013F000909301028093000284E00E94CF0147E1B4
:101400005AE03E0181E4680E711CDE0111966D0107
:10141000BD019301FA0190E080E0D901A80FB91F46
:10142000F084FC927B01E80EF91E10813196D70101
:101430001C9301968830910581F7405F5F4F285FCC
:101440003F4F685F7F4FCF57DF4FE881F981C15829
:10145000D0402E173F07F1F6F12CE12C10E000E010
:101460008091430B9091440BFC01EA5AFF4F20817D
:1014700031811216130644F4F601E00FF11F2081AA
:10148000A801B7010E94AB040F5F1F4F0830110580
:1014900039F7FFEFEF1AFF0A28E0C20ED11C38E03F
:1014A000E316F104D9F60091450B1091460BA80103
:1014B000405F5F4FCD57DF4F59834883C358D040BB
:1014C0002801180152E2250E311C60E0D20112966B
:1014D0008C910E94F8017301B8E0EB0EF11C6801D9
:1014E000F30181913F01882331F061E0D6015296EA
:1014F0008C910E94F801B2E0CB0ED11C6E147F04D7
:1015000079F70E9474026B017C010E9474026C19CD
:101510007D098E099F09683E734081059105A8F3F6
:1015200061E0F20182810E94F8017801F2E1EF0EA0
:10153000F11CD7018C91B2E0EB0EF11C60E00E942F
:10154000F8012E143F04A9F7E2E04E0E511CCD57CE
:10155000DF4F28813981C358D0404216530609F025
:10156000B4CFC0903F0BD090400BE090410BF09077
:10157000420B8091160A811138C00E9499029B018A
:10158000AC012C193D094E095F0969017A0187E315
:101590000E9457022CE330E0DC010E94980BA50169
:1015A00094010E94400B285D3F4F4F4F5F4F2C1519
:1015B0003D054E055F0508F0BFCE0E94990260937D
:1015C0003F0B7093400B8093410B9093420B0E9412
:1015D0000804B2CE0E9499026093100A7093110A17
:1015E0008093120A9093130AE1CE0E9499029B0104
:1015F000AC012C193D094E095F0969017A0187E3A5
:101600000E9457022CE330E0DC010E94980BA501F8
:1016100094010E94400B285D3F4F4F4F5F4F2C15A8
:101620003D054E055F0508F087CE0E949902609344
:101630003F0B7093400B8093410B9093420B0E94A1
:10164000D9038091140A9091150A019728F090937C
:10165000150A8093140A70CE4FEC50E05093150A8F
:101660004093140A69CE019741F48EE799E00E94F5
:101670006F050E948C050E94C9040E94A80351CEE8
:10168000052E97FB1EF400940E94570B57FD07D0C0
:101690000E945F0B07FC03D04EF40C94570B50953F
:1016A0004095309521953F4F4F4F5F4F089590954E
:1016B0008095709561957F4F8F4F9F4F0895A1E260
:1016C0001A2EAA1BBB1BFD010DC0AA1FBB1FEE1FBC
:1016D000FF1FA217B307E407F50720F0A21BB30B07
:1016E000E40BF50B661F771F881F991F1A9469F783
:1016F00060957095809590959B01AC01BD01CF01DF
:101700000895A29FB001B39FC001A39F700D811DDA
:101710001124911DB29F700D811D1124911D0895FA
:10172000EE0FFF1F881F8BBF0790F691E02D1994D5
:101730000E94810BB7FF0895821B930B0895F894C4
:02174000FFCFD9
:1017420001000100280029002A002B002C002D0096
:101752002E002F001E001F00200021002200230067
:10176200240025000000000000000000000101012B
:10177200010101010000010101010101010100005B
:101782000001010100000000000000000000000054
:101792000000000000000000000001010101010141
:1017A2000101000000000000000000000001010132
:1017B200010101010000000101010101000000011D
:1017C200010101010101000000010101010100000C
:1017D2000000000001010000000000000000000005
:1017E20000000101010101010100000101000000EE
:1017F20000010100010101010101010000000101DC
:1018020001010101000000000101000000000101CE
:1018120000010100000000010100010101010101BC
:1018220001010001010101010101010000000101AA
:10183200000000000001010101010100000101019D
:101842000101010101000101010101010101000188
:101852000101010100000000000000000000000082
:101862000000000000000000000001010101010170
:101872000101000000000000000000000001010161
:10188200010101010000010101010101010000014A
:101892000101010101010000010101010101010039
:1018A2000000010100000000000000000101000032
:1018B200000001010101010101010001010000001C
:1018C2000001010001010101010101010001010109
:1018D20001010101010000000101010000010101FB
:1018E20000010100000000010100010101010101EC
:1018F20001010001010101010101010000000000DC
:1019020001010000000101010101010000010100CB
:1019120000000001010001010000000001010000BF
:1019220000000101000000000000000000000000B3
:1019320000000000000000000000000000010100A3
:101942000000000000000000000000000000000095
:10195200000001010000010100000001010000007F
:101962000000000001010000000000000001010071
:101972000001010000000000000000010000010061
:10198200000001010000000001010001010000004F
:10199200000101000101000000000101000101003D
:1019A200000000010100000000010101010101002D
:1019B200000101000000000101000000000101001F
:1019C2000000000000000101000000000000000013
:1019D20000010100000101000001010000010100FD
:1019E20000000001010001010000000001010000EF
:1019F20000000101000000000101010101010101DB
:101A020000000101000001010000000000010100CE
:101A120000000001010101010101010000000000BC
:101A220000000101000001010000000101000000AE
:101A3200000000000101000000000101010101009D
:101A42000100000000000000000000010000010091
:101A5200000001010000000001010001010000007E
:101A6200000101000101000000000101000101006C
:101A7200000000010100000000000101010100005E
:101A8200000001010000010100000000000101004E
:101A92000000000000000101000000000000000042
:101AA200000000010001010101010100000101012A
:101AB2000101010100000101010101010101000018
:101AC200000001010000000001010101010101010A
:101AD20000000101000001010000000000010100FE
:101AE20000000001010101010101010000010101E9
:101AF20001010101000001010000000101000001DB
:101B020001010101010100000000010101010100C8
:101B120001000000000000000000000001010100BF
:101B220000000101010101010100000101000000AA
:101B32000001010001010101010101010001010097
:101B4200000000010100000000000101010100008D
:101B5200000001010000010100000000000101007D
:101B62000000000000000101000000000000000071
:101B72000000000100010101010101000001010159
:101B82000101010101000101010101010101000046
:101B92000000010100000000000000000000000041
:101BA200000001010000010100000101000101002B
:101BB2000000000000000000000000000001010021
:101BC200000000000000010100000001010000010E
:101BD2000100000000000000000000000001010000
:101BE20000010100000000000000000000000100F0
:101BF20000000101010101010101000101000000D9
:101C020000010100010101010101010000010100C7
:101C120000000001010000000001010101010100BA
:101C220000000101000001010000000000010100AC
:101C320000000000000001010000000000000000A0
:101C4200000101000001010000000000000101008C
:101C5200000000010100010100000000010100017B
:101C6200010101010101010000000000000000006B
:101C72000000000101010100000001010101010059
:101C8200000000000000000000000000000101014F
:101C92000101010100000101010101010100000136
:101CA2000101010101010000010101010101010025
:101CB200000001010000000000000001000001001E
:101CC2000000010100000000010100010101010109
:101CD20001010100010100000000000000010101FA
:101CE20001010101010000000101010000010101E7
:101CF20000000001010101000000010101010101D8
:101D020001010001010101010101010000000000C7
:101D120001010000000101000000000000010100BB
:101D220000000001010001010000000001010001AA
:101D3200010101010101010000000000000000009A
:101D4200000000000101000000000001010100008C
:101D5200000000000000000000000000000101017E
:101D62000101010100000001010101010000000167
:101D72000101010101010000000101010101000056
:101D8200000000000101000000000000010100004D
:101D92000000010100000000010100000101010139
:101DA200010100000101000000000000000001012B
:101DB2000101010100000000010100000000010119
:101DC2000000000001010000000001010101010109
:101DD20001010001010101010101010000000101F5
:101DE20000000000000000003B03A502D2028803AD
:101DF2000303E102F5020D0A004368616E67652084
:101E0200746F20434F4E464947206D6F6465004909
:101E12004E495420627574746F6E2077617320632B
:101E220068616E67656420746F2067616D65206DFF
:101E32006F646500427574746F6E204D6964646CE2
:101E4200652068656C6420666F7220332073656359
:101E52006F6E6473004573746F7920656E20656CD4
:101E6200206D656E73616A6500427574746F6E20D1
:101E72004D6964646C652068656C6420666F7220CD
:101E820032207365636F6E6473004368616E6765C9
:101E920020746865206D6F7665206F6620746865B2
:101EA200206C6F6F7020746578742066726F6D207D
:101EB2006C65667420746F2072696768740045737C
:101EC200746F7920656E20656C206D656E750000FB
:00000001FF
