:100000000C9435010C9466010C9466010C94660105
:100010000C9466010C9466010C9466010C946601C4
:100020000C9466010C9466010C9466010C946601B4
:100030000C9466010C9466010C9466010C946601A4
:100040000C9466010C9466010C9466010C94660194
:100050000C9466010C9466010C9466010C94DA040D
:100060000C9466010C944E050C9424050C946601C6
:100070000C9466010C9466010C9466010C94660164
:100080000C9466010C9466010C9466010C94660154
:100090000C9466010C9466010C9466010C94660144
:1000A0000C9466010C9466010C9466010C94660134
:1000B0000C9466010C9466010C9466010C94660124
:1000C0000C9466010C9466010C9466010C94660114
:1000D0000C9466010C9466010C9466010C94660104
:1000E0000C9466010C9490010C9403030C94F5029B
:1000F0000C94E1020C94C6010C9486010C94A502A8
:100100000C9484050C94D2020C94B3010C949B01C2
:100110000C948C010C9494010C94B9010C94C101C1
:100120000C9488030C9498010C943B030C94CB0121
:100130000C94A5010C94AF010C94BD010C94A10189
:100140000C94AB010C94C70100002100240027008F
:100150002A002D00300033000101000004010701D6
:100160000A0100002200250028002B002E0031008B
:10017000340002010000050108010B01000020000D
:100180002300260029002C002F003200000100006F
:10019000030106010901050505050705080808080A
:1001A000020202020A0A080804040404010101010F
:1001B000010101010303030303030303040707070A
:1001C0000C0C0C0C0C0C0C0C0202020206060606AF
:1001D000060606060B0B0B0B0B0B0B0B010210207C
:1001E000200808102040102040800201020108046D
:1001F0000201010204081020408080402010080401
:100200000201800402018040201008040201080459
:10021000020101020408102040800102040810209D
:10022000408000000A0B02090C0D0E0807030401B0
:1002300000000000000000000000000000000000BE
:10024000000000000000000000000000000012118B
:10025000100000000000000000000000000000008E
:100260000000000000000000840511241FBECFEF35
:10027000D1E2DEBFCDBF00E00CBF18E0A0E0B2E0ED
:10028000EAE6F3E100E00BBF02C007900D92A83D43
:10029000B107D9F72AE0A8EDB8E001C01D92A9384E
:1002A000B207E1F711E0C5E3D1E000E006C0219715
:1002B0000109802FFE010E94A409C433D10780E008
:1002C0000807A9F70E9473060C94B3090C94000068
:1002D0008150823108F05AC0E82FF0E08827EC58AE
:1002E000FE4F8F4F0C94A4099401980186018C0154
:1002F0009001C6019B01A101A501AB01AF01B301B2
:10030000B901BD01C601C101C701CB0180918000C7
:100310008F77809380000895809180008F7DF9CF42
:1003200080918000877FF5CF84B58F7784BD089555
:1003300084B58F7DFBCF8091B0008F778093B00024
:1003400008958091B0008F7DF9CF809190008F77D4
:10035000809390000895809190008F7DF9CF8091D7
:100360009000877FF5CF8091A0008F778093A000C9
:1003700008958091A0008F7DF9CF8091A000877FA4
:10038000F5CF809120018F7780932001089580918F
:1003900020018F7DF9CF80912001877FF5CFCF930A
:1003A000DF93282F30E0F901EE5DFD4F8491F901D4
:1003B000E452FE4FD491F901EA56FE4FC491CC238A
:1003C000A1F081110E946801EC2FF0E0EE0FFF1FF9
:1003D000E458FE4FA591B491EC91ED2381E090E0BB
:1003E00009F480E0DF91CF91089580E090E0FACFAA
:1003F0001F93CF93DF93282F30E0F901EE5DFD4F7F
:100400008491F901E452FE4FD491F901EA56FE4F6E
:10041000C491CC23A9F0162F81110E946801EC2F02
:10042000F0E0EE0FFF1FEE59FE4FA591B4918FB78C
:10043000F894EC91111108C0D095DE23DC938FBFA6
:10044000DF91CF911F910895DE2BF8CFCF93DF93EB
:1004500090E0FC01E452FE4F24918A569E4FFC012D
:1004600084918823D1F090E0880F991FFC01E85B0C
:10047000FE4FA591B491FC01EE59FE4FC591D49168
:10048000623071F49FB7F8943C91822F809583235A
:100490008C93E8812E2B28839FBFDF91CF91089505
:1004A0008FB7F894EC912E2B2C938FBFF6CF863319
:1004B00008F0865320917B00982F9870277F922B0D
:1004C00090937B008770806480937C0080917A0099
:1004D000806480937A0080917A0086FDFCCF8091C1
:1004E00078009091790008953FB7F894809166095B
:1004F00090916709A0916809B091690926B5A89BF8
:1005000005C02F3F19F00196A11DB11D3FBFBA2FA5
:10051000A92F982F8827BC01CD01620F711D811D65
:10052000911D42E0660F771F881F991F4A95D1F7EA
:1005300008952FB7F89460916209709163098091D2
:100540006409909165092FBF0895AF92BF92CF9231
:10055000DF92EF92FF920F931F93CF93DF936C0183
:100560007B018B01040F151FEB015E01AE18BF0864
:10057000C017D10759F06991D601ED91FC91019016
:10058000F081E02DC6011995892B79F7C501DF911E
:10059000CF911F910F91FF90EF90DF90CF90BF9080
:1005A000AF900895FC01538D448D252F30E0842FAA
:1005B00090E0821B930B541710F0CF96089501978B
:1005C0000895FC01918D828D981761F0A28DAE0F78
:1005D000BF2FB11D5D968C91928D9F5F9F73928FFF
:1005E00090E008958FEF9FEF0895FC01918D828D2B
:1005F000981731F0828DE80FF11D858D90E00895F8
:100600008FEF9FEF0895FC01918D228D892F90E04F
:10061000805C9F4F821B91098F73992708958AE60A
:1006200099E00E94030321E0892B09F420E0822F46
:100630000895FC01A48DA80FB92FB11DA35ABF4F77
:100640002C91848D90E001968F739927848FA689D1
:10065000B7892C93A089B1898C91837080648C9325
:10066000938D848D981306C00288F389E02D8081D4
:100670008F7D80830895EF92FF920F931F93CF9306
:10068000DF93EC0181E0888F9B8D8C8D98131AC0CD
:10069000E889F989808185FF15C09FB7F894EE89B4
:1006A000FF896083E889F989808183708064808311
:1006B0009FBF81E090E0DF91CF911F910F91FF905C
:1006C000EF900895F62E0B8D10E00F5F1F4F0F7304
:1006D0001127E02E8C8D8E110CC00FB607FCFACFBF
:1006E000E889F989808185FFF5CFCE010E94190341
:1006F000F1CFEB8DEC0FFD2FF11DE35AFF4FF08290
:100700009FB7F8940B8FEA89FB8980818062CFCFF5
:10071000CF93DF93EC01888D8823B9F0AA89BB8938
:10072000E889F9898C9185FD03C0808186FD0DC023
:100730000FB607FCF7CF8C9185FFF2CF808185FF44
:10074000EDCFCE010E941903E9CFDF91CF9108953B
:1007500080E090E0892B29F00E940F0381110E9414
:10076000000080E090E0892B49F080E090E0892B48
:1007700029F00E94000081110E94000080E090E0BA
:10078000892B49F080E090E0892B29F00E9400003D
:1007900081110E94000080E090E0892B49F080E008
:1007A00090E0892B29F00E94000081110C94000038
:1007B0000895CF93DF93A091DC08B091DD08AD01DF
:1007C0004C5D5D4F2FED38E090E080E0E901C80F0F
:1007D000D91FBC016A0F7B1FFA01E80FF91F6E3B9E
:1007E00071052CF0FC01EE5BF109E40FF51F60814F
:1007F000688301968031910549F742545F4F205F2D
:100800003F4F89E02F353807F9F6DF91CF910895F2
:100810000E94D9038091DC089091DD0801968D3B00
:10082000910529F09093DD088093DC0808951092DB
:10083000DD081092DC0808954F925F926F927F92CC
:100840008F929F92AF92BF92CF92DF92EF92FF92E0
:100850000F931F93CF93DF931F921F92CDB7DEB7F5
:100860008C0149832A83660F771FF801EA5AFF4FEC
:10087000E080F180EE0CFF1CF801CF01801B910B92
:100880008E159F0514F41192F8CF8981F801E60FB7
:10089000F71F81838A818083680184E5C80ED11C9B
:1008A00060E0F60180810E94F8015801F2E5AF0E88
:1008B000B11C480180E5880E911C1E141F040CF524
:1008C000E1E0EE1AF108F801EE0DFF1D6080F50180
:1008D0005080F401408088E0782E662D661F6627E0
:1008E000661F842D0E94F801660C61E0852D0E9430
:1008F000F80160E0852D0E94F8017A947110EDCF27
:10090000DCCF61E0F60180810F900F90DF91CF91F5
:100910001F910F91FF90EF90DF90CF90BF90AF901D
:100920009F908F907F906F905F904F900C94F80104
:10093000CF92DF92EF92FF921F93CF93DF937C01D0
:100940006B01EB0183E0CC0FDD1F8A95E1F7609628
:10095000CE0DDF1D11E0199220E0412FB601C70135
:100960000E941C041F5F1930B1F7DF91CF911F91D6
:10097000FF90EF90DF90CF900895CF93DF93FC012D
:1009800001900020E9F73197AF01481B590BBC01DA
:100990008AE699E00E94A502EC0142E050E066E29E
:1009A00078E08AE699E00E94A5028C0F9D1FDF91F6
:1009B000CF9108951F920F920FB60F9211242F938B
:1009C0003F938F939F93AF93BF93809162099091D0
:1009D0006309A0916409B09165093091610923E030
:1009E000230F2D3758F50196A11DB11D20936109E4
:1009F0008093620990936309A0936409B093650999
:100A00008091660990916709A0916809B091690980
:100A10000196A11DB11D8093660990936709A0936B
:100A20006809B0936909BF91AF919F918F913F91F0
:100A30002F910F900FBE0F901F90189526E8230F4F
:100A40000296A11DB11DD2CF1F920F920FB60F9229
:100A500011240BB60F922F933F934F935F936F9395
:100A60007F938F939F93AF93BF93EF93FF938AE608
:100A700099E00E941903FF91EF91BF91AF919F916F
:100A80008F917F916F915F914F913F912F910F9037
:100A90000BBE0F900FBE0F901F9018951F920F92D4
:100AA0000FB60F9211240BB60F922F938F939F9333
:100AB000EF93FF93E0917A09F0917B098081E091B7
:100AC0008009F091810982FD1DC090818091830988
:100AD0008F5F8F7320918409821741F0E091830921
:100AE000F0E0E659F64F958F80938309FF91EF91DF
:100AF0009F918F912F910F900BBE0F900FBE0F9073
:100B00001F9018958081F2CFCF93DF9310926D09DB
:100B100010926C0988EE93E0A0E0B0E080936E093B
:100B200090936F09A0937009B093710988E198E0E0
:100B300090936B0980936A0985EC90E09093770914
:100B40008093760984EC90E09093790980937809FA
:100B500080EC90E090937B0980937A0981EC90E09F
:100B600090937D0980937C0982EC90E090937F09BB
:100B700080937E0986EC90E09093810980938009B0
:100B800010928309109284091092850910928609A7
:100B900081E090E09093680A8093670AE4E1F2E0D4
:100BA000A9E6BAE0C4E0D2E0819191918D939D9342
:100BB000899199911F969C938E931E9782E0E432BF
:100BC000F80791F7CBE0D0E0D093600AC0935F0ABA
:100BD0008DE090E09093620A8093610A8AE090E051
:100BE0009093640A8093630A81E090E09093660A90
:100BF0008093650A61E08BE00E94260261E08091AB
:100C0000610A0E94260261E08091630A0E94260226
:100C100061E08091630A0E94F801D093600AC0935A
:100C20005F0AEFE1FAE08FE59AE011928E179F07D5
:100C3000E1F7D0E0C0E08091650A9091660AC8179C
:100C4000D907C4F520E04FE0BE018FE09AE00E9492
:100C50001C048091650A9091660AC817D9073CF474
:100C600027E04BE0BE018FE09AE00E941C0420E0E8
:100C700049E0BE018FE09AE00E941C048091650A61
:100C80009091660AC817D9072CF4BE018FE09AE04C
:100C90000E9498048091650A9091660AC817D90746
:100CA0003CF420E04CE0BE018FE09AE00E941C047E
:100CB0002196C1CF8FE09AE090930C0A80930B0AA3
:100CC00087E69AE090930E0A80930D0A0E9499029B
:100CD0006093070A7093080A8093090A90930A0A9E
:100CE000DF91CF910895CF93DF93CDB7DEB7C6588C
:100CF000D1090FB6F894DEBF0FBECDBF789484B58E
:100D0000826084BD84B5816084BD85B5826085BD07
:100D100085B5816085BD80916E00816080936E0095
:100D20001092810080918100826080938100809187
:100D30008100816080938100809180008160809338
:100D400080008091B10084608093B1008091B000F8
:100D500081608093B00080919100826080939100C7
:100D600080919100816080939100809190008160DA
:100D7000809390008091A10082608093A100809177
:100D8000A10081608093A1008091A0008160809388
:100D9000A000809121018260809321018091210136
:100DA00081608093210180912001816080932001E6
:100DB00080917A00846080937A0080917A008260CA
:100DC00080937A0080917A00816080937A0080918C
:100DD0007A00806880937A001092C100E0917A09CD
:100DE000F0917B0982E08083E0917609F0917709A8
:100DF0001082E0917809F09179098FEC808310924C
:100E00008209E0917E09F0917F0986E08083E0917C
:100E10007C09F0917D09808180618083E0917C096B
:100E2000F0917D09808188608083E0917C09F09158
:100E30007D09808180688083E0917C09F0917D0943
:100E400080818F7D8083E0900D0AF0900E0A8701EB
:100E50000E5F1F4F22E1E20EF11CD8018C910E5F54
:100E60001F4F61E00E94260261E0F80186850E9422
:100E700026020E151F0589F780910B0A90910C0A26
:100E8000FC01EA5AFF4F208131811216130634F417
:100E900021E04CE070E060E00E941C0480910B0AAD
:100EA00090910C0AFC01EA5AFF4F20813181121601
:100EB000130634F428E04AE070E060E00E941C046D
:100EC00080910B0A90910C0AFC01EA5AFF4F208195
:100ED00031811216130624F470E060E00E94980439
:100EE0000E94080462E085E00E94260262E086E03B
:100EF0000E94260262E087E00E9426029E012F5790
:100F00003F4FCF57DF4F39832883C158D040412C02
:100F1000512C32014A9480915F09909160090197A8
:100F200009F4BFC186E00E94CF01892B09F06DC191
:100F30000E9499020091D8081091D9082091DA08EE
:100F40003091DB08601B710B820B930B683B7B407D
:100F500081059105D0F00E9499026093D8087093A2
:100F6000D9088093DA089093DB0841E050E0509371
:100F7000600940935F0989E298E00E94BD048EE415
:100F800098E00E94BD041092DE0885E00E94CF0127
:100F9000892B61F48091020290910302019731F450
:100FA0001092DE088FE698E00E94BD0487E00E9460
:100FB000CF01892B69F48091000290910102019781
:100FC00039F451E05093DE0883EA98E00E94BD04B2
:100FD00085E00E94CF01909303028093020286E095
:100FE0000E94CF0187E00E94CF019093010280937D
:100FF00000026FED78E04E0181E4880E911CDE0165
:1010000011961D01AD019401FB0190E080E0890182
:10101000080F191FF084D801FC928A01080F191FCC
:10102000F0803196D801FC9201968830910579F7CD
:10103000605F7F4F285F3F4F485F5F4FCF57DF4F65
:10104000E881F981C158D0402E173F07E9F6E090BA
:101050000D0AF0900E0A9701205F3F4FCB57DF4FEC
:1010600039832883C558D0408701A7014E5D5F4F63
:10107000CD57DF4F59834883C358D04060E0D80133
:1010800012968C910E94F8015101B8E0AB0EB11C90
:101090006701F10181911F01882331F061E0D601E0
:1010A00052968C910E94F801B2E0CB0ED11C2A140A
:1010B0003B0479F70E9474025B016C010E94740288
:1010C0006A197B098C099D09683E73408105910569
:1010D000A8F361E0F80182810E94F8016701F2E162
:1010E000CF0ED11CD6018C91B2E0CB0ED11C60E0AA
:1010F0000E94F801CD57DF4FE881F981C358D040F5
:10110000CE16DF0679F70E5F1F4FCB57DF4F2881D2
:101110003981C558D0402017310709F0AFCF10E012
:1011200000E0F12CE12CDD24D394D00E80910B0A49
:1011300090910C0AFC01EA5AFF4F2081318112166E
:101140001306DCF420E830E00E2C02C0359527951C
:101150000A94E2F7FC01E00FF11F4089D401AE0DC3
:10116000BF1D5C91552309F45BC0242B208B208983
:101170004D2D70E060E00E941C043FEFE31AF30A7B
:1011800048E0E416F10491F60F5F1F4F58E0850E1A
:10119000911C0830110529F6C090070AD090080A62
:1011A000E090090AF0900A0A8091DE0881113BC0A4
:1011B0000E9499029B01AC012C193D094E095F095F
:1011C00069017A0187E30E9457022CE330E0DC01D9
:1011D0000E94AC09A30192010E945409285D3F4F6F
:1011E0004F4F5F4F2C153D054E055F0508F093CE20
:1011F0000E9499026093070A7093080A8093090A73
:1012000090930A0A0E94080486CE0E949902609375
:10121000D8087093D9088093DA089093DB08B5CE8C
:1012200020952423A3CF0E9499029B01AC012C1985
:101230003D094E095F0969017A0187E30E9457025F
:101240002CE330E0DC010E94AC09A30192010E9472
:101250005409285D3F4F4F4F5F4F2C153D054E05FC
:101260005F0508F058CE0E9499026093070A7093B8
:10127000080A8093090A90930A0A0E94D903809170
:10128000DC089091DD08019728F09093DD088093A9
:10129000DC0841CE4DEB50E05093DD084093DC0874
:1012A0003ACE0E94A80337CE052E97FB1EF4009479
:1012B0000E946B0957FD07D00E94730907FC03D0F9
:1012C0004EF40C946B0950954095309521953F4F05
:1012D0004F4F5F4F089590958095709561957F4F22
:1012E0008F4F9F4F0895A1E21A2EAA1BBB1BFD0131
:1012F0000DC0AA1FBB1FEE1FFF1FA217B307E407F5
:10130000F50720F0A21BB30BE40BF50B661F771F4C
:10131000881F991F1A9469F760957095809590952C
:101320009B01AC01BD01CF010895A29FB001B39F05
:10133000C001A39F700D811D1124911DB29F700DDE
:10134000811D1124911D0895EE0FFF1F881F8BBF73
:101350000790F691E02D19940E949509B7FF089522
:0A136000821B930B0895F894FFCF51
:10136A0001000100280029002A002B002C002D0072
:10137A002E002F001E001F00200021002200230043
:10138A002400250000000000000000000001010107
:10139A000101010100000101010101010101000037
:1013AA000000000000010100000000000000000031
:1013BA00000000000000000000000101010101011D
:1013CA00010100000000000000000000000101010E
:1013DA0001010101000000010101010100000001F9
:1013EA0001010101010100000001010101010000E8
:1013FA0000000000010100000000000000000000E1
:10140A0000000101010101010100000101000000C9
:10141A0000010100010101010101010000000101B7
:10142A0001010101000000000000000000000101AC
:10143A00000000010101010101000000010100009A
:10144A00000000000000000000000001010101018D
:10145A000101010001010101010101010000000077
:10146A000000000101000000000000000000000070
:10147A00000000000000000001010101010101015A
:10148A00000000000000000000000001010101014D
:10149A000101000001010101010101000001010136
:1014AA000101010100000101010101010100000027
:1014BA00010100000000000000000101000000001E
:1014CA000101010101010101000101000000000107
:1014DA0001000101010101010101000101010101F4
:1014EA0001010100000000000000000001010000ED
:1014FA0000010101010101000000000001010000DA
:10150A0000010101010100000001010000000001C9
:10151A0001000101000000000101000000000000BC
:10152A0000010100000000000000000000000000AF
:10153A00000000000000000000010100000000009F
:10154A00000000000000000000000000000001018F
:10155A00000001010000000101000000000000007D
:10156A00010100000000000000010100000101006B
:10157A00000000000000000100000100000001015D
:10158A00000000000101000101000000000101004B
:10159A00010100000000010100010100000000013A
:1015AA00010000000000000000000101000000002E
:1015BA00000000010100000000000001010000011C
:1015CA00010000010000000101000000000101000B
:1015DA0001010000000001010000000000000001FC
:1015EA0001000101010101010101000001010000E6
:1015FA0001010000000000010100000000010101DA
:10160A0001010101010000000000000001010000C9
:10161A0001010000000101000000000000000101BA
:10162A0000000000010101010100010000000000AA
:10163A00000000000001000001000000010100009C
:10164A000000010100010100000000010100010188
:10165A00000000000101000101000000000101007A
:10166A00000000000000000001010000000000006E
:10167A00000101000000000000000001000101015A
:10168A000101000000010101010101010000010145
:10169A000101010101010000000000000001010038
:1016AA000101010101010101000001010000010124
:1016BA000000000000010100000000010101010119
:1016CA000101010000010101010101010000010104
:1016DA0000000001010000010101010101010000F7
:1016EA0000000101010101000100000000000000EA
:1016FA0000000000010101000000010101010101D7
:10170A0001000001010000000001010001010101C6
:10171A0001010101000101000000000101000000B7
:10172A0000000000000001010000000000010101AA
:10173A00010000000000000000010001010000009B
:10174A000000000101010101010101000101010183
:10175A000101010100000000000000010100000079
:10176A00000000000000000001010000010100006B
:10177A00010100010100000000000000000000005B
:10178A00000000010100000000000000010100004B
:10179A00000101000001010000000000000000003B
:1017AA00000000010100000101000000000000002B
:1017BA000000000001000000010101010101010116
:1017CA000001010000000001010001010101010105
:1017DA0001000001010000000001010000000000FA
:1017EA0000000000010100000000000000010100EB
:1017FA0000000000000101000001010000000000DB
:10180A0000010100000000010100010100000000C8
:10181A0001010000000000000001010000000000BA
:10182A0000000000000000010101010000000101A8
:10183A00010101000000000000000000000000009B
:10184A000001010101010101000001010101010181
:10185A000100000101010101010100000101010172
:10186A000101010000000101000000000000000168
:10187A000000010000000101000000000101000158
:10188A000101010101010100010100000000000045
:10189A000001010101010101010000000000000036
:1018AA00000001010000000000000001010000002A
:1018BA000000010100000001010000000000000119
:1018CA000100000000010100010100000000010107
:1018DA0000000000000000010100000000000000FC
:1018EA0000000000000001010000000000010101E9
:1018FA0000000000000000000000000000000001DD
:10190A0001010101010100000001010101010000C2
:10191A0000010101010101010000000101010101B1
:10192A0000000000000001010000000000000101A9
:10193A000000000001010000000001010000010197
:10194A000101010100000101000000000000000087
:10195A000101010101010000000000000000000077
:10196A000101000000000000000101000000010167
:10197A0000000000000000003B03A502D202880319
:10198A000303E102F5020D0A00494E49542062752B
:10199A0074746F6E20776173206368616E67656423
:1019AA0020746F2067616D65206D6F6465004275F4
:1019BA0074746F6E204D6964646C652068656C642C
:1019CA0020666F722033207365636F6E6473004301
:1019DA0068616E676520746865206D6F7665206F33
:1019EA006620746865206C6F6F7020746578742047
:1019FA0066726F6D206C65667420746F20726967F9
:101A0A006874004368616E676520746865206D6F4D
:101A1A007665206F6620746865206C6F6F7020741D
:101A2A006578742066726F6D2072696768742074B5
:081A3A006F206C65667400006A
:00000001FF
