:100000000C9435010C9466010C9466010C94660105
:100010000C9466010C9466010C9466010C946601C4
:100020000C9466010C9466010C9466010C946601B4
:100030000C9466010C9466010C9466010C946601A4
:100040000C9466010C9466010C9466010C94660194
:100050000C9466010C9466010C9466010C94DA040D
:100060000C9466010C944E050C9424050C946601C6
:100070000C9466010C9466010C9466010C94660164
:100080000C9466010C9466010C9466010C94660154
:100090000C9466010C9466010C9466010C94660144
:1000A0000C9466010C9466010C9466010C94660134
:1000B0000C9466010C9466010C9466010C94660124
:1000C0000C9466010C9466010C9466010C94660114
:1000D0000C9466010C9466010C9466010C94660104
:1000E0000C9466010C94D2020C94C1010C94E102B0
:1000F0000C94CB010C94A5020C9494010C949001E7
:100100000C94AF010C94A1010C948C010C94840507
:100110000C9486010C9488030C94BD010C94F50298
:100120000C94B3010C94AB010C94B9010C949B0199
:100130000C943B030C94C7010C9403030C94A5018D
:100140000C9498010C94C6010000210024002700A3
:100150002A002D00300033000101000004010701D6
:100160000A0100002200250028002B002E0031008B
:10017000340002010000050108010B01000020000D
:100180002300260029002C002F003200000100006F
:10019000030106010901050505050705080808080A
:1001A000020202020A0A080804040404010101010F
:1001B000010101010303030303030303040707070A
:1001C0000C0C0C0C0C0C0C0C0202020206060606AF
:1001D000060606060B0B0B0B0B0B0B0B010210207C
:1001E000200808102040102040800201020108046D
:1001F0000201010204081020408080402010080401
:100200000201800402018040201008040201080459
:10021000020101020408102040800102040810209D
:10022000408000000A0B02090C0D0E0807030401B0
:1002300000000000000000000000000000000000BE
:10024000000000000000000000000000000012118B
:10025000100000000000000000000000000000008E
:100260000000000000000000840511241FBECFEF35
:10027000D1E2DEBFCDBF00E00CBF18E0A0E0B2E0ED
:10028000E0E4F3E100E00BBF02C007900D92A23A58
:10029000B107D9F72AE0A2EAB8E001C01D92A33560
:1002A000B207E1F711E0C5E3D1E000E006C0219715
:1002B0000109802FFE010E948F09C433D10780E01D
:1002C0000807A9F70E9473060C949E090C9400007D
:1002D0008150823108F05AC0E82FF0E08827EC58AE
:1002E000FE4F8F4F0C948F099401980186018C0169
:1002F0009001C6019B01A101A501AB01AF01B301B2
:10030000B901BD01C601C101C701CB0180918000C7
:100310008F77809380000895809180008F7DF9CF42
:1003200080918000877FF5CF84B58F7784BD089555
:1003300084B58F7DFBCF8091B0008F778093B00024
:1003400008958091B0008F7DF9CF809190008F77D4
:10035000809390000895809190008F7DF9CF8091D7
:100360009000877FF5CF8091A0008F778093A000C9
:1003700008958091A0008F7DF9CF8091A000877FA4
:10038000F5CF809120018F7780932001089580918F
:1003900020018F7DF9CF80912001877FF5CFCF930A
:1003A000DF93282F30E0F901EE5DFD4F8491F901D4
:1003B000E452FE4FD491F901EA56FE4FC491CC238A
:1003C000A1F081110E946801EC2FF0E0EE0FFF1FF9
:1003D000E458FE4FA591B491EC91ED2381E090E0BB
:1003E00009F480E0DF91CF91089580E090E0FACFAA
:1003F0001F93CF93DF93282F30E0F901EE5DFD4F7F
:100400008491F901E452FE4FD491F901EA56FE4F6E
:10041000C491CC23A9F0162F81110E946801EC2F02
:10042000F0E0EE0FFF1FEE59FE4FA591B4918FB78C
:10043000F894EC91111108C0D095DE23DC938FBFA6
:10044000DF91CF911F910895DE2BF8CFCF93DF93EB
:1004500090E0FC01E452FE4F24918A569E4FFC012D
:1004600084918823D1F090E0880F991FFC01E85B0C
:10047000FE4FA591B491FC01EE59FE4FC591D49168
:10048000623071F49FB7F8943C91822F809583235A
:100490008C93E8812E2B28839FBFDF91CF91089505
:1004A0008FB7F894EC912E2B2C938FBFF6CF863319
:1004B00008F0865320917B00982F9870277F922B0D
:1004C00090937B008770806480937C0080917A0099
:1004D000806480937A0080917A0086FDFCCF8091C1
:1004E00078009091790008953FB7F8948091300991
:1004F00090913109A0913209B091330926B5A89B9A
:1005000005C02F3F19F00196A11DB11D3FBFBA2FA5
:10051000A92F982F8827BC01CD01620F711D811D65
:10052000911D42E0660F771F881F991F4A95D1F7EA
:1005300008952FB7F89460912C0970912D0980913E
:100540002E0990912F092FBF0895AF92BF92CF929D
:10055000DF92EF92FF920F931F93CF93DF936C0183
:100560007B018B01040F151FEB015E01AE18BF0864
:10057000C017D10759F06991D601ED91FC91019016
:10058000F081E02DC6011995892B79F7C501DF911E
:10059000CF911F910F91FF90EF90DF90CF90BF9080
:1005A000AF900895FC01538D448D252F30E0842FAA
:1005B00090E0821B930B541710F0CF96089501978B
:1005C0000895FC01918D828D981761F0A28DAE0F78
:1005D000BF2FB11D5D968C91928D9F5F9F73928FFF
:1005E00090E008958FEF9FEF0895FC01918D828D2B
:1005F000981731F0828DE80FF11D858D90E00895F8
:100600008FEF9FEF0895FC01918D228D892F90E04F
:10061000805C9F4F821B91098F739927089584E313
:1006200099E00E94030321E0892B09F420E0822F46
:100630000895FC01A48DA80FB92FB11DA35ABF4F77
:100640002C91848D90E001968F739927848FA689D1
:10065000B7892C93A089B1898C91837080648C9325
:10066000938D848D981306C00288F389E02D8081D4
:100670008F7D80830895EF92FF920F931F93CF9306
:10068000DF93EC0181E0888F9B8D8C8D98131AC0CD
:10069000E889F989808185FF15C09FB7F894EE89B4
:1006A000FF896083E889F989808183708064808311
:1006B0009FBF81E090E0DF91CF911F910F91FF905C
:1006C000EF900895F62E0B8D10E00F5F1F4F0F7304
:1006D0001127E02E8C8D8E110CC00FB607FCFACFBF
:1006E000E889F989808185FFF5CFCE010E94190341
:1006F000F1CFEB8DEC0FFD2FF11DE35AFF4FF08290
:100700009FB7F8940B8FEA89FB8980818062CFCFF5
:10071000CF93DF93EC01888D8823B9F0AA89BB8938
:10072000E889F9898C9185FD03C0808186FD0DC023
:100730000FB607FCF7CF8C9185FFF2CF808185FF44
:10074000EDCFCE010E941903E9CFDF91CF9108953B
:1007500080E090E0892B29F00E940F0381110E9414
:10076000000080E090E0892B49F080E090E0892B48
:1007700029F00E94000081110E94000080E090E0BA
:10078000892B49F080E090E0892B29F00E9400003D
:1007900081110E94000080E090E0892B49F080E008
:1007A00090E0892B29F00E94000081110C94000038
:1007B0000895CF93DF93A091A608B091A708AD014B
:1007C0004E5D5D4F29EA38E090E080E0E901C80F16
:1007D000D91FBC016A0F7B1FFA01E80FF91F6E3B9E
:1007E00071052CF0FC01EE5BF109E40FF51F60814F
:1007F000688301968031910549F742545F4F205F2D
:100800003F4F89E029323807F9F6DF91CF910895FB
:100810000E94D9038091A6089091A70801968D3B6C
:10082000910529F09093A7088093A6080895109247
:10083000A7081092A60808954F925F926F927F9238
:100840008F929F92AF92BF92CF92DF92EF92FF92E0
:100850000F931F93CF93DF931F921F92CDB7DEB7F5
:100860008C0149832A83660F771FF801EA5AFF4FEC
:10087000E080F180EE0CFF1CF801CF01801B910B92
:100880008E159F0514F41192F8CF8981F801E60FB7
:10089000F71F81838A818083680184E5C80ED11C9B
:1008A00060E0F60180810E94F8015801F2E5AF0E88
:1008B000B11C480180E5880E911C1E141F040CF524
:1008C000E1E0EE1AF108F801EE0DFF1D6080F50180
:1008D0005080F401408088E0782E662D661F6627E0
:1008E000661F842D0E94F801660C61E0852D0E9430
:1008F000F80160E0852D0E94F8017A947110EDCF27
:10090000DCCF61E0F60180810F900F90DF91CF91F5
:100910001F910F91FF90EF90DF90CF90BF90AF901D
:100920009F908F907F906F905F904F900C94F80104
:10093000CF92DF92EF92FF921F93CF93DF937C01D0
:100940006B01EB0183E0CC0FDD1F8A95E1F7609628
:10095000CE0DDF1D11E0199220E0412FB601C70135
:100960000E941C041F5F1930B1F7DF91CF911F91D6
:10097000FF90EF90DF90CF900895CF93DF93FC012D
:1009800001900020E9F73197AF01481B590BBC01DA
:1009900084E399E00E94A502EC0142E050E064E2A9
:1009A00078E084E399E00E94A5028C0F9D1FDF91FF
:1009B000CF9108951F920F920FB60F9211242F938B
:1009C0003F938F939F93AF93BF9380912C09909106
:1009D0002D09A0912E09B0912F0930912B0923E008
:1009E000230F2D3758F50196A11DB11D20932B091A
:1009F00080932C0990932D09A0932E09B0932F0971
:100A00008091300990913109A0913209B091330958
:100A10000196A11DB11D8093300990933109A093D7
:100A20003209B0933309BF91AF919F918F913F915C
:100A30002F910F900FBE0F901F90189526E8230F4F
:100A40000296A11DB11DD2CF1F920F920FB60F9229
:100A500011240BB60F922F933F934F935F936F9395
:100A60007F938F939F93AF93BF93EF93FF9384E311
:100A700099E00E941903FF91EF91BF91AF919F916F
:100A80008F917F916F915F914F913F912F910F9037
:100A90000BBE0F900FBE0F901F9018951F920F92D4
:100AA0000FB60F9211240BB60F922F938F939F9333
:100AB000EF93FF93E0914409F09145098081E09123
:100AC0004A09F0914B0982FD1DC0908180914D092A
:100AD0008F5F8F7320914E09821741F0E0914D098D
:100AE000F0E0EC5CF64F958F80934D09FF91EF910C
:100AF0009F918F912F910F900BBE0F900FBE0F9073
:100B00001F9018958081F2CFCF93DF931092370911
:100B10001092360988EE93E0A0E0B0E080933809A7
:100B200090933909A0933A09B0933B0986E198E084
:100B3000909335098093340985EC90E090934109B6
:100B40008093400984EC90E090934309809342099C
:100B500080EC90E0909345098093440981EC90E00B
:100B6000909347098093460982EC90E0909349095D
:100B70008093480986EC90E090934B0980934A0952
:100B800010924D0910924E0910924F09109250097F
:100B900081E090E09093320A8093310AE2E1F2E042
:100BA000A3E3BAE0C2E0D2E0819191918D939D934D
:100BB000899199911F969C938E931E9782E0E232C1
:100BC000F80791F7CBE0D0E0D0932A0AC093290A26
:100BD0008DE090E090932C0A80932B0A8AE090E0BD
:100BE00090932E0A80932D0A81E090E09093300A32
:100BF00080932F0A61E08BE00E94260261E08091E1
:100C00002B0A0E94260261E080912D0A0E94260292
:100C100061E080912D0A0E94F801D0932A0AC093C6
:100C2000290AE9EEF9E089E29AE011928E179F070E
:100C3000E1F7D0E0C0E080912F0A9091300AC81708
:100C4000D907C4F520E04FE0BE0189ED99E00E948C
:100C50001C0480912F0A9091300AC817D9073CF4E0
:100C600027E04BE0BE0189ED99E00E941C0420E0E2
:100C700049E0BE0189ED99E00E941C0480912F0A91
:100C80009091300AC817D9072CF4BE0189ED99E07C
:100C90000E94980480912F0A9091300AC817D907B2
:100CA0003CF420E04CE0BE0189ED99E00E941C0478
:100CB0002196C1CF89ED99E09093D6098093D5090B
:100CC00081E39AE09093D8098093D7090E94990212
:100CD0006093D1097093D2098093D3099093D4097A
:100CE000DF91CF910895CF93DF93CDB7DEB7C6588C
:100CF000D1090FB6F894DEBF0FBECDBF789484B58E
:100D0000826084BD84B5816084BD85B5826085BD07
:100D100085B5816085BD80916E00816080936E0095
:100D20001092810080918100826080938100809187
:100D30008100816080938100809180008160809338
:100D400080008091B10084608093B1008091B000F8
:100D500081608093B00080919100826080939100C7
:100D600080919100816080939100809190008160DA
:100D7000809390008091A10082608093A100809177
:100D8000A10081608093A1008091A0008160809388
:100D9000A000809121018260809321018091210136
:100DA00081608093210180912001816080932001E6
:100DB00080917A00846080937A0080917A008260CA
:100DC00080937A0080917A00816080937A0080918C
:100DD0007A00806880937A001092C100E091440903
:100DE000F091450982E08083E0914009F09141094A
:100DF0001082E0914209F09143098FEC80831092B8
:100E00004C09E0914809F091490986E08083E0911E
:100E10004609F0914709808180618083E09146090D
:100E2000F0914709808188608083E0914609F091C4
:100E30004709808180688083E0914609F0914709E5
:100E400080818F7D8083E090D709F090D809870159
:100E50000E5F1F4F22E1E20EF11CD8018C910E5F54
:100E60001F4F61E00E94260261E0F80186850E9422
:100E700026020E151F0589F78091D5099091D60994
:100E8000FC01EA5AFF4F208131811216130634F417
:100E900021E04CE070E060E00E941C048091D509E4
:100EA0009091D609FC01EA5AFF4F20813181121638
:100EB000130634F428E04AE070E060E00E941C046D
:100EC0008091D5099091D609FC01EA5AFF4F208103
:100ED00031811216130624F470E060E00E94980439
:100EE0000E94080462E085E00E94260262E086E03B
:100EF0000E94260262E087E00E9426029E012F5790
:100F00003F4FCF57DF4F39832883C158D040412C02
:100F1000512C32014A948091290990912A09019714
:100F200009F4AAC186E00E94CF01892B09F058C1BB
:100F30000E9499020091A2081091A3082091A40890
:100F40003091A508601B710B820B930B683B7B40B3
:100F500081059105D0F00E9499026093A2087093D8
:100F6000A3088093A4089093A50841E050E0509313
:100F70002A094093290987E298E00E94BD048CE485
:100F800098E00E94BD041092A80886E00E94CF015C
:100F9000892B81F48091000290910102019751F414
:100FA0008091A80851E085278093A8088DE698E0F5
:100FB0000E94BD0485E00E94CF0186E00E94CF011F
:100FC000909301028093000287E00E94CF0169EABA
:100FD00078E01E0181E4280E311C8E010F5F1F4F47
:100FE000A8019101FB0190E080E0D901A80FB91F91
:100FF000F084FC927A01E80EF91ED0803196D70178
:10100000DC9201968830910581F7605F7F4F285F01
:101010003F4F485F5F4FCF57DF4FE881F981C1589D
:10102000D0402E173F07F1F6F12CE12CD12CC12C2A
:10103000BB24B394BE0C8091D5099091D609FC01D4
:10104000EA5AFF4F2081318112161306DCF420E8A2
:1010500030E00C2C02C0359527950A94E2F7FC018C
:10106000EE0DFF1D4089D801AC0DBD1D5C915523CF
:1010700009F4C1C0242B208B20894B2D70E060E047
:101080000E941C04FFEFCF1ADF0A28E0C216D10429
:1010900091F63FEFE31AF30A085F1F4F48E0E416AA
:1010A000F10421F6E090D709F090D809C7014096E5
:1010B000CB57DF4F99838883C558D0408701D7012C
:1010C0009296CD57DF4FB983A883C358D04060E0D4
:1010D000F80182810E94F8015101F8E0AF0EB11CC5
:1010E0006701D1018D911D01882329F061E0F6018E
:1010F00082890E94F801F2E0CF0ED11C2A143B0431
:1011000081F70E9474024B015C010E94740268190D
:1011100079098A099B09683E734081059105A8F306
:1011200061E0D80112968C910E94F8016701B2E14A
:10113000CB0ED11CD6018C91B2E0CB0ED11C60E05D
:101140000E94F801CD57DF4FE881F981C358D040A4
:10115000EC15FD0579F70E5F1F4FCB57DF4F288148
:101160003981C558D0400217130709F0B0CFC0909D
:10117000D109D090D209E090D309F090D4098091A0
:10118000A80881113BC00E9499029B01AC012C1957
:101190003D094E095F0969017A0187E30E94570200
:1011A0002CE330E0DC010E949709A30192010E9428
:1011B0003F09285D3F4F4F4F5F4F2C153D054E05B2
:1011C0005F0508F0A8CE0E9499026093D109709340
:1011D000D2098093D3099093D4090E9408049BCE2E
:1011E0000E9499026093A2087093A3088093A408B8
:1011F0009093A508CACE209524233DCF0E94990242
:101200009B01AC012C193D094E095F0969017A0166
:1012100087E30E9457022CE330E0DC010E9497092B
:10122000A30192010E943F09285D3F4F4F4F5F4F3E
:101230002C153D054E055F0508F06DCE0E94990204
:101240006093D1097093D2098093D3099093D40904
:101250000E94D9038091A6089091A708019728F0D1
:101260009093A7088093A60856CE4DEB50E050937C
:10127000A7084093A6084FCE0E94A8034CCE052E87
:1012800097FB1EF400940E94560957FD07D00E9458
:101290005E0907FC03D04EF40C9456095095409516
:1012A000309521953F4F4F4F5F4F08959095809512
:1012B000709561957F4F8F4F9F4F0895A1E21A2E31
:1012C000AA1BBB1BFD010DC0AA1FBB1FEE1FFF1FEA
:1012D000A217B307E407F50720F0A21BB30BE40B3A
:1012E000F50B661F771F881F991F1A9469F7609581
:1012F0007095809590959B01AC01BD01CF0108953B
:10130000A29FB001B39FC001A39F700D811D112446
:10131000911DB29F700D811D1124911D0895EE0F36
:10132000FF1F881F8BBF0790F691E02D19940E9434
:101330008009B7FF0895821B930B0895F894FFCF9F
:101340000100280029002A002B002C002D002E006F
:101350002F001E001F002000210022002300240077
:101360002500000000000000000000010101010153
:101370000101000001010101010101010000000063
:10138000000000010100000000000000000000005B
:101390000000000000000000010101010101010145
:1013A0000000000000000000000000010101010138
:1013B0000101000000010101010100000001010123
:1013C0000101010100000001010101010000000014
:1013D000000001010000000000000000000000000B
:1013E00001010101010101000001010000000001F3
:1013F00001000101010101010100000001010101E1
:1014000001010000000000000000000001010000D8
:1014100000010101010101000000010100000000C4
:1014200000000000000000000001010101010101B5
:1014300001000101010101010101000000000000A3
:10144000000101000000000000000000000000009A
:101450000000000000000101010101010101000084
:101460000000000000000000000101010101010175
:101470000000010101010101010000010101010160
:101480000101000001010101010101000000010151
:101490000000000000000000010100000000010148
:1014A0000101010101010001010000000001010032
:1014B000010101010101010100010101010101011D
:1014C0000100000000000000000001010000000118
:1014D0000101010101000000000001010000000104
:1014E00001010101000000010100000000010100F4
:1014F00001010000000001010000000000000001E7
:1015000001000000000000000000000000000000DA
:1015100000000000000000010100000000000000C9
:1015200000000000000000000000000001010000B9
:1015300001010000000101000000000000000101A5
:101540000000000000000001010000010100000097
:101550000000000000010000010000000101000087
:101560000000010100010100000000010100010173
:101570000000000001010001010000000001010065
:101580000000000000000000010100000000000059
:101590000001010000000000000101000001010045
:1015A0000001000000010100000000010100010134
:1015B0000000000001010000000000000001010027
:1015C000010101010101010100000101000001010F
:1015D0000000000000010100000000010101010104
:1015E00001010100000000000000010100000101F4
:1015F00000000001010000000000000001010000E7
:1016000000000101010101000100000000000000D4
:1016100000000001000001000000010100000000C6
:1016200001010001010000000001010001010000B2
:1016300000000101000101000000000101000000A4
:101640000000000000000101000000000000000197
:101650000100000000000000000100010101010183
:10166000000000010101010101010000010101016F
:101670000101010100000000000000010100010162
:101680000101010101010000010100000101000050
:101690000000000101000000000101010101010141
:1016A0000100000101010101010100000101000030
:1016B0000001010000010101010101010000000021
:1016C0000101010101000100000000000000000014
:1016D0000000010101000000010101010101010000
:1016E00000010100000000010100010101010101F0
:1016F00001010001010000000001010000000000E4
:1017000000000000010100000000000101010100D3
:1017100000000000000000010001010000000000C6
:1017200000010101010101010100010101010101AB
:1017300001010000000000000001010000000000A5
:101740000000000000000101000001010000010193
:101750000001010000000000000000000000000087
:101760000001010000000000000001010000000174
:101770000100000101000000000000000000000066
:101780000001010000010100000000000000000055
:10179000000001000000010101010101010100013F
:1017A000010000000001010001010101010101002F
:1017B0000001010000000001010000000000000025
:1017C0000000010100000000000000010100000015
:1017D0000000000101000001010000000000000104
:1017E00001000000000101000101000000000101F2
:1017F00000000000000000010100000000000000E7
:1018000000000000000101010100000001010101D0
:1018100001000000000000000000000000000001C6
:1018200001010101010100000101010101010100AB
:10183000000101010101010100000101010101019B
:101840000100000001010000000000000001000094
:101850000100000001010000000001010001010180
:101860000101010101000101000000000000000170
:101870000101010101010100000000000000000061
:101880000101000000000000000101000000000054
:101890000101000000010100000000000001010042
:1018A0000000000101000101000000000101000032
:1018B0000000000000010100000000000000000026
:1018C0000000000001010000000000010101000013
:1018D0000000000000000000000000000001010105
:1018E00001010101000000010101010100000001EE
:1018F00001010101010100000001010101010000DD
:1019000000000000010100000000000001010000D3
:1019100000000101000000000101000001010101BF
:1019200001010000010100000000000000000101B1
:1019300001010101000000000000000000000101A1
:101940000000000000000001010000000101000093
:101950000000000000003B03A502D202880303033D
:10196000E102F5020D0A00494E4954206275747473
:101970006F6E20776173206368616E6765642074A1
:101980006F2067616D65206D6F64650042757474CA
:101990006F6E204D6964646C652068656C642066B8
:1019A0006F722033207365636F6E647300436861E8
:1019B0006E676520746865206D6F7665206F6620A0
:1019C000746865206C6F6F7020746578742066721F
:1019D0006F6D206C65667420746F2072696768741F
:0219E000000005
:00000001FF
