:020000040000FA
:100000000C9465010C9496010C9496010C94960145
:100010000C9496010C9496010C9496010C94960104
:100020000C9496010C9496010C9496010C949601F4
:100030000C9496010C9496010C9496010C949601E4
:100040000C9496010C9496010C9496010C949601D4
:100050000C9496010C9496010C9496010C94231028
:100060000C9496010C9497100C946D100C949601BE
:100070000C9496010C9496010C9496010C949601A4
:100080000C9496010C9496010C9496010C94960194
:100090000C9496010C9496010C9496010C94960184
:1000A0000C9496010C9496010C9496010C94960174
:1000B0000C9496010C9496010C9496010C94960164
:1000C0000C9496010C9496010C9496010C94960154
:1000D0000C9496010C9496010C9496010C94960144
:1000E0000C9496010C94C0010C9407030C944303E8
:1000F0000C94DB010C94E9010C94FE070C94EA03C8
:100100000C94C8010C9403090C9434030C949D03C3
:100110000C94C50D0C94730D0C94CF080C94A30D86
:100120000C94ED010C94AB090C94B6010C94F701FE
:100130000C9457030C94290A0C94E50D0C94D501EA
:100140000C9439090C94FB010C94FB090C94E30109
:100150000C94CB010C945D110C943F0D0C94CD09C3
:100160000C94DE0C0C947D090C94D1010C94CC0CF5
:100170000C9467090C94F6010C94210D0C94490918
:100180000C9421090C94C4010C94BC010C94930DA3
:100190000C94ED080C94550D0C94DF010C94650340
:1001A0000C94F1010C941008000021002400270099
:1001B0002A002D0030003300010100000401070176
:1001C0000A0100002200250028002B002E0031002B
:1001D000340002010000050108010B0100002000AD
:1001E0002300260029002C002F003200000100000F
:1001F00003010601090105050505070508080808AA
:10020000020202020A0A08080404040401010101AE
:1002100001010101030303030303030304070707A9
:100220000C0C0C0C0C0C0C0C02020202060606064E
:10023000060606060B0B0B0B0B0B0B0B010210201B
:10024000200808102040102040800201020108040C
:1002500002010102040810204080804020100804A0
:1002600002018004020180402010080402010804F9
:10027000020101020408102040800102040810203D
:10028000408000000A0B02090C0D0E080703040150
:10029000000000000000000000000000000000005E
:1002A000000000000000000000000000000012112B
:1002B000100000000000000000000000000000002E
:1002C00000000000000000005D1111241FBECFEFF0
:1002D000D1E2DEBFCDBF00E00CBF1AE0A0E0B2E08B
:1002E000EEEDFBE200E00BBF02C007900D92AA3AD0
:1002F000B107D9F72DE0AAEABAE001C01D92A63DE8
:10030000B207E1F711E0C5E6D1E000E006C02197B1
:100310000109802FFE010E94CA15C436D10780E072
:100320000807A9F70E94DB110C94ED150C9400004E
:100330008150823108F05AC0E82FF0E08827EC5550
:10034000FE4F8F4F0C94CA15C401C801B601BC0101
:10035000C001F601CB01D101D501DB01DF01E301D1
:10036000E901ED01F601F101F701FB018091800047
:100370008F77809380000895809180008F7DF9CFE2
:1003800080918000877FF5CF84B58F7784BD0895F5
:1003900084B58F7DFBCF8091B0008F778093B000C4
:1003A00008958091B0008F7DF9CF809190008F7774
:1003B000809390000895809190008F7DF9CF809177
:1003C0009000877FF5CF8091A0008F778093A00069
:1003D00008958091A0008F7DF9CF8091A000877F44
:1003E000F5CF809120018F7780932001089580912F
:1003F00020018F7DF9CF80912001877FF5CFCF93AA
:10040000DF93282F30E0F901EE57FD4F8491F90179
:10041000E45CFD4FD491F901EA50FE4FC491CC2326
:10042000A1F081110E949801EC2FF0E0EE0FFF1F68
:10043000E452FE4FA591B491EC91ED2381E090E060
:1004400009F480E0DF91CF91089580E090E0FACF49
:100450001F93CF93DF93282F30E0F901EE57FD4F24
:100460008491F901E45CFD4FD491F901EA50FE4F0B
:10047000C491CC23A9F0162F81110E949801EC2F72
:10048000F0E0EE0FFF1FEE53FE4FA591B4918FB732
:10049000F894EC91111108C0D095DE23DC938FBF46
:1004A000DF91CF911F910895DE2BF8CFCF93DF938B
:1004B00090E0FC01E45CFD4F24918A509E4FFC01CA
:1004C00084918823D1F090E0880F991FFC01E855B2
:1004D000FE4FA591B491FC01EE53FE4FC591D4910E
:1004E000623071F49FB7F8943C91822F80958323FA
:1004F0008C93E8812E2B28839FBFDF91CF910895A5
:100500008FB7F894EC912E2B2C938FBFF6CF8633B8
:1005100008F0865320917B00982F9870277F922BAC
:1005200090937B008770806480937C0080917A0038
:10053000806480937A0080917A0086FDFCCF809160
:1005400078009091790008953FB7F89480915B0C02
:1005500090915C0CA0915D0CB0915E0C26B5A89BAF
:1005600005C02F3F19F00196A11DB11D3FBFBA2F45
:10057000A92F982F8827BC01CD01620F711D811D05
:10058000911D42E0660F771F881F991F4A95D1F78A
:1005900008958F929F92AF92BF92CF92DF92EF9287
:1005A000FF924B015C010E94A4026B017C010E943E
:1005B000A4026C197D098E099F09683E734081056C
:1005C0009105A8F321E0821A9108A108B10888EEEC
:1005D000C80E83E0D81EE11CF11C81149104A10413
:1005E000B10429F7FF90EF90DF90CF90BF90AF90CC
:1005F0009F908F9008952FB7F8946091570C709149
:10060000580C8091590C90915A0C2FBF0895AF92BD
:10061000BF92CF92DF92EF92FF920F931F93CF93EF
:10062000DF936C017B018B01040F151FEB015E0151
:10063000AE18BF08C017D10759F06991D601ED91E6
:10064000FC910190F081E02DC6011995892B79F775
:10065000C501DF91CF911F910F91FF90EF90DF9037
:10066000CF90BF90AF900895FC01538D448D252FFE
:1006700030E0842F90E0821B930B541710F0CF963C
:10068000089501970895FC01918D828D981761F06E
:10069000A28DAE0FBF2FB11D5D968C91928D9F5F85
:1006A0009F73928F90E008958FEF9FEF0895FC0164
:1006B000918D828D981731F0828DE80FF11D858D17
:1006C00090E008958FEF9FEF0895FC01918D228DAA
:1006D000892F90E0805C9F4F821B91098F7399272F
:1006E00008958FE59CE00E94650321E0892B09F4C1
:1006F00020E0822F0895FC01A48DA80FB92FB11D11
:10070000A35ABF4F2C91848D90E001968F73992747
:10071000848FA689B7892C93A089B1898C91837025
:1007200080648C93938D848D981306C00288F3891E
:10073000E02D80818F7D80830895EF92FF920F934B
:100740001F93CF93DF93EC0181E0888F9B8D8C8D7D
:1007500098131AC0E889F989808185FF15C09FB771
:10076000F894EE89FF896083E889F9898081837034
:10077000806480839FBF81E090E0DF91CF911F91E3
:100780000F91FF90EF900895F62E0B8D10E00F5F04
:100790001F4F0F731127E02E8C8D8E110CC00FB6DA
:1007A00007FCFACFE889F989808185FFF5CFCE0172
:1007B0000E947B03F1CFEB8DEC0FFD2FF11DE35A6F
:1007C000FF4FF0829FB7F8940B8FEA89FB898081F5
:1007D0008062CFCFCF93DF93EC01888D8823B9F06F
:1007E000AA89BB89E889F9898C9185FD03C080813C
:1007F00086FD0DC00FB607FCF7CF8C9185FFF2CFB9
:10080000808185FFEDCFCE010E947B03E9CFDF9190
:10081000CF91089580E090E0892B29F00E94710328
:1008200081110E94000080E090E0892B49F080E077
:1008300090E0892B29F00E94000081110E940000A5
:1008400080E090E0892B49F080E090E0892B29F04E
:100850000E94000081110E94000080E090E0892B3E
:1008600049F080E090E0892B29F00E94000081117E
:100870000C9400000895CF93DF93A091D20BB09118
:10088000D30BAD01425D5D4F25ED3BE090E080E094
:10089000E901C80FD91FBC016A0F7B1FFA01E80FDD
:1008A000F91F603D71052CF0FC01E05DF109E40FDA
:1008B000F51F6081688301968031910549F74053A7
:1008C0005F4F205F3F4F8CE025353807F9F6DF9109
:1008D000CF9108950E943B048091D20B9091D30B4D
:1008E00001968F3C910529F09093D30B8093D20B06
:1008F00008951092D30B1092D20B08958EE29BE0D4
:1009000030E020E0FC01E20FF31F10822F5F3F4F29
:1009100020313105B9F740962BE08E3A920781F7E6
:1009200008958EEA9AE030E020E0FC01E20FF31F28
:100930004081413009F410822F5F3F4F2031310553
:10094000A1F740962BE08E32920769F70895109236
:10095000AF0B1092AE0B1092AD0A1092AC0A10922F
:10096000C40B1092C30B83E090E09093010280933C
:1009700000021092C10B1092C00B1092BB0B109290
:10098000BA0B1092C20B1092CD0B1092B90B1092B1
:10099000B40B1092550C0C9491042091BA0B309129
:1009A000BB0B4091C00B5091C10BC9010196BA011C
:1009B0006F5F7F4FDA011296E091C20BF4E0220FD5
:1009C000331FFA95E1F7F4E0880F991FFA95E1F7E4
:1009D000225D344FEE2391F0F901EA0FFB1F1082E4
:1009E000825D944FA80FB91F1C92680F791FFB01FD
:1009F0001082840F951FFC0110820895F901E40F05
:100A0000F51F1082825D944F480F591FFA01108222
:100A1000680F791FFB011082A80FB91F1C9208955F
:100A2000CF938091BA0B9091BB0B2091C00B30916A
:100A3000C10BDC011196A9014F5F5F4FB9016E5FD9
:100A40007F4FF091C20BE4E0880F991FEA95E1F720
:100A5000C4E0AA0FBB1FCA95E1F7825D944FFF2344
:100A6000A9F0FC01E60FF71F91E09083FD01E25D24
:100A7000F44F6E0F7F1FDB019C934E0F5F1FDA0157
:100A80009C93E20FF31F9083CF910895FC01E20F36
:100A9000F31FC1E0C083CD01825D944F280F391F41
:100AA000F901C083480F591FDA01CC93860F971FB5
:100AB000FC01C083E9CF4F925F926F927F928F9239
:100AC0009F92AF92BF92CF92DF92EF92FF920F93DD
:100AD0001F93CF93DF931F921F92CDB7DEB78C0188
:100AE00049832A83660F771FF801EA5AFF4FE08097
:100AF000F180EE0CFF1CF801CF01801B910B8E15CD
:100B00009F0514F41192F8CF8981F801E60FF71FC1
:100B100081838A818083680184E5C80ED11C60E0EE
:100B2000F60180810E9428025801F2E5AF0EB11C47
:100B3000480180E5880E911C1E141F040CF5E1E0AD
:100B4000EE1AF108F801EE0DFF1D6080F5015080EE
:100B5000F401408088E0782E662D661F6627661FA8
:100B6000842D0E942802660C61E0852D0E942802D7
:100B700060E0852D0E9428027A947110EDCFDCCFC1
:100B800061E0F60180810F900F90DF91CF911F916E
:100B90000F91FF90EF90DF90CF90BF90AF909F901C
:100BA0008F907F906F905F904F900C942802E0E8B8
:100BB000F0E002C0F595E7954A95E2F7DC01A60F53
:100BC000B71F50963C915097222361F0E32B50962B
:100BD000EC93509741E0460F50962C9170E060E006
:100BE0000C945B05E095E323F2CF8F929F92AF9236
:100BF000BF92CF92DF92EF92FF920F931F93CF930A
:100C0000DF934EE2E42E4BE0F42ED0E0C0E010E0A3
:100C100000E08091D40D9091D50D1816190674F44A
:100C200021E0F701E00FF11F8081813009F020E021
:100C3000A801BE018EE79DE00E94D7050F5F1F4F00
:100C40000830110531F7219680E1E80EF11CC8301B
:100C5000D105E9F693E0E92EF12C23ECC22ED12C3C
:100C60003BE2A32E31E1B32E8EE2882E8BE0982E4C
:100C7000CEE108E010E0F401E00FF11F8081813047
:100C800089F560E08C2F0E94280261E0D0E2D00F4D
:100C90008D2F0E942802C5010197F1F761E08C2F8A
:100CA0000E94280260E08D2F0E9428020F5F1F4FD4
:100CB0000031110501F7CF5F80E1880E911CC6322B
:100CC000C1F681E0E81AF10879F6DF91CF911F9122
:100CD0000F91FF90EF90DF90CF90BF90AF909F90DB
:100CE0008F900895C6010197F1F7E0CFCF92DF9280
:100CF000EF92FF921F93CF93DF937C016B01EB0187
:100D000083E0CC0FDD1F8A95E1F76096CE0DDF1DE5
:100D100011E0199220E0412FB601C7010E945B0546
:100D20001F5F1930B1F7DF91CF911F91FF90EF90C6
:100D3000DF90CF900895FC0101900020E9F73197F2
:100D4000AF01481B590BBC018FE59CE00C940703D5
:100D5000CF93DF930E949B06EC0180EC98E00E9409
:100D60009B068C0F9D1FDF91CF9108958F929F92CC
:100D7000AF92BF92CF92DF92EF92FF920F931F93A9
:100D8000CF93DF93CDB7DEB7A1970FB6F894DEBF50
:100D90000FBECDBF6C01990FEE08FF08F7FE47C0EC
:100DA0006DE28FE59CE00E949D038C012227332792
:100DB000A9012C193D094E095F0919A2CE0181969E
:100DC0007C019AE0892E912CA12CB12CCA01B90189
:100DD000A50194010E948515605DF70162937F0172
:100DE000211531054105510589F790E080E03097E4
:100DF00019F0CF010E949B06080F191F80EC98E0A4
:100E00000E949B06800F911FA1960FB6F894DEBF3B
:100E10000FBECDBFDF91CF911F910F91FF90EF904B
:100E2000DF90CF90BF90AF909F908F900895A701D3
:100E3000960119A28E010F5D1F4F8AE0C82ED12C9A
:100E4000E12CF12CCA01B901A70196010E94851578
:100E5000605DF80162938F0121153105410551054F
:100E600089F7309729F0CF010E949B068C01C6CFED
:100E700010E000E0C3CFCF92DF92EF92FF920F938A
:100E80001F93CF93DF938EE2E82E8BE0F82E10E0D5
:100E900000E095E0C92ED12CD0E0C0E0F701EC0FC6
:100EA000FD1F80818130A9F58091C00B9091C10B0D
:100EB000C817D90774F102968C179D0754F18091D9
:100EC000BA0B9091BB0B081719071CF19C012F5FFF
:100ED0003F4F20173107ECF0029797FD30C09093F9
:100EE000BB0B8093BA0B80910002909101020E948B
:100EF000B60680910002909101028230910524F1A2
:100F0000019790930102809300020E9410050E94B5
:100F1000F5052196C031D10509F60F5F1F4F80E11D
:100F2000E80EF11C0830110509F0B6CFDF91CF9122
:100F30001F910F91FF90EF90DF90CF900895109246
:100F4000BB0B1092BA0BCFCF0E947E048091AA0AED
:100F50009091AB0A0196B6010E94B6159093AB0A28
:100F60008093AA0A83EC98E00E94A8061092550C80
:100F70000E94A704CECF2F923F924F925F926F9222
:100F80007F928F929F92AF92BF92CF92DF92EF9219
:100F9000FF920F931F93CF93DF9300D01F92CDB793
:100FA000DEB78091550C811104C00E94AF0E0E94E3
:100FB000F5057090550C772009F4BAC68091CD0BD9
:100FC000811175C2E091AE0BF091AF0BEE30F105DF
:100FD00008F065C28827E051F84F8F4F0C94CA156E
:100FE000FE071008CF08ED0803092109390949094E
:100FF00067097D09AB09CD09FB09290A81E08093C6
:10100000550B8093850B8093460B8093560B8093F2
:10101000660B8093760B8093860B8093870B1DC0A5
:1010200081E08093440B8093450B8093460B809323
:10103000470B8093570B8093670B8093640B8093CF
:10104000650B8093660B8093840B8093850B809354
:10105000860B8093870B8093740B0E94F5050E948A
:10106000FB020091C90B1091CA0B2091CB0B309160
:10107000CC0B601B710B820B930B603D774081059D
:10108000910508F414C20E94FB026093C90B70938F
:10109000CA0B8093CB0B9093CC0B81E08093CD0B4C
:1010A0000E947E048091AE0B9091AF0BFC013396B1
:1010B000FA83E9838CEE98E00E94A80689819A81E0
:1010C0000E94B60610E000E06624639429813A810C
:1010D000021713070CF0EBC10E94FB144B015C01DB
:1010E0000E94FB141B012C010E94FB146B017C016C
:1010F000C201B10124E030E040E050E00E9453150D
:101100006F5F7F4F8F4F9F4FE8E0F0E0E61BF70BDC
:10111000FC83EB83C501B4012EE030E040E050E0F9
:101120000E9453155B01F1E0AF1AB108C701B60187
:1011300022E030E040E050E00E945315DC01CB019A
:101140000196A11DB11D8A0D9B1D6EE070E00E94ED
:10115000B61501962B813C8144E0220F331F4A953E
:10116000E1F7820F931F50E040E02B813C81283053
:1011700031050CF099C19A01280F391FF901E25D80
:10118000F44F60822255354FF90160822B813C81FA
:101190002F5F3F4F3C832B83405F5F4FE6CF81E063
:1011A0008093440B8093450B8093460B8093470BB1
:1011B0008093570B8093670B8093640B8093650B30
:1011C0008093660B8093840B8093870B8093850BB1
:1011D0008093860B8093770B40CF81E08093470B01
:1011E0008093570B8093670B8093870B8093770BCB
:1011F0008093440B8093540B8093640B8093650B16
:101200008093660B2ACF81E08093440B8093450B3B
:101210008093460B8093470B8093670B8093870BDB
:101220008093770B8093540B8093640B8093650BB2
:101230008093660B8093840B8093850B8093860B41
:101240000CCF81E08093440B8093450B8093460B39
:101250008093470B8093670B8093870B8093770B6A
:101260008093540B8093640B8093740B8093840B56
:1012700029C081E08093440B8093450B8093460BFB
:101280008093470B8093570B8093670B8093770B6A
:10129000C4CE81E08093440B8093450B8093460B32
:1012A0008093470B8093570B8093670B8093870B3A
:1012B0008093770B8093540B8093640B8093840B03
:1012C0008093740B8093650B8093660BB5CF81E0A0
:1012D0008093440B8093450B8093460B8093470B80
:1012E0008093570B8093670B8093870B8093770BCA
:1012F0008093540B8093640BB9CF81E08093530BA0
:101300008093440B8093540B8093640B8093740BF5
:101310008093840B8093830B8093850B8093460B83
:101320008093470B8093480B8093490B8093590B14
:101330008093690B8093890B8093790B8093560B74
:101340008093660B8093860B8093760B8093870B3C
:101350008093880B82CE81E08093530B8093440B63
:101360008093540B8093640B8093740B8093840B55
:101370008093830B8093850B8093570B8093480B4E
:101380008093580B8093680B8093780B8093880B25
:101390008093870B8093890B60CE81E08093520B02
:1013A0008093430B8093530B8093630B8093730B59
:1013B0008093830B8093820B8093840B8093460BE6
:1013C0008093470B8093480B8093490B8093590B74
:1013D0008093690B8093660B8093670B8093680BF7
:1013E0008093860B8093870B8093880B8093890B67
:1013F0008093760B32CE81E08093520B8093430B27
:101400008093530B8093630B8093730B8093830BB8
:101410008093820B8093840B8093460B8093470BC1
:101420008093480B8093490B8093590B8093690BF1
:101430008093660B8093670B8093680B8093860B79
:101440008093870B8093880B8093890B8093790B13
:1014500004CE81E08093520B8093430B8093530B17
:101460008093630B8093730B8093830B8093820B29
:101470008093840B8093490B8093590B8093690B65
:101480008093890B8093790B8093460B8093560B46
:101490008093660B8093670B8093680BDECD85EDA0
:1014A00098E00E94A806D9CD0F5F1F4F0FCE809104
:1014B000CD0B882309F47BC00E94FB020091C50B71
:1014C0001091C60B2091C70B3091C80B6B017C01AA
:1014D000C01AD10AE20AF30A2091C30B3091C40B5F
:1014E000032E000C440B550B2150310941095109C1
:1014F000A6EABFEF0E9480152FE030E040E050E008
:101500000E9453152C593F4F4F4F5F4FC216D306C1
:10151000E406F506D4F00E94FB026093C50B7093BD
:10152000C60B8093C70B9093C80B8091C00B909112
:10153000C10B2091C20B222309F495C0019797FD9E
:101540008FC09093C10B8093C00B0E94FB0200914F
:10155000BC0B1091BD0B2091BE0B3091BF0B601BDB
:10156000710B820B930B683E734081059105B8F0B7
:101570000E94FB026093BC0B7093BD0B8093BE0B6B
:101580009093BF0B8091BA0B9091BB0B8730910564
:101590000CF073C001969093BB0B8093BA0B0E9422
:1015A0003B070E9410050E94F5050E94CD0485E0CE
:1015B0000E94FF01892B49F4809104029091050259
:1015C000019719F481E08093C20B86E00E94FF012D
:1015D000892B09F02CC1809104029091050201979A
:1015E00009F025C18091BA0B9091BB0B6C01E2E030
:1015F000CE0ED11C0091C00B1091C10B0F5F1F4F7D
:10160000F4E0880F991FFA95E1F7080F191F980168
:10161000225D344F3A832983F12CE12C512C66242E
:101620006394ADE08A2E912CB5E0AB2EB12C38E05E
:10163000C316D1040CF093C0E981FA8160A28091B5
:10164000C00B9091C10B2091C20B222309F444C01E
:10165000019797FD17C09093C10B8093C00B16C0E4
:101660008DE090E06ECF01968E3091050CF469CF3D
:101670001092C10B1092C00B68CF1092BB0B10924E
:10168000BA0B8DCF9092C10B8092C00B0E943B078A
:101690000E9410050E94F5050E94CD04FFEFCF1AAD
:1016A000DF0AE981FA8180A9813019F45520F1F02F
:1016B000572CE981FA8110A264E670E080E090E0A6
:1016C0000E94C90229813A81205F3F4F3A832983D2
:1016D00030E1E30EF11CABCF01968E3091050CF496
:1016E000BACF1092C10B1092C00BD0CF2091AC0A90
:1016F0003091AD0A2F5F3F4F3093AD0A2093AC0A73
:10170000E981FA8110AAF801EE0DFF1DE255F54FAF
:1017100010AADF01A05CBF4F1C9250961C92E05AA9
:10172000FF4F1082C901B5010E94B615892B09F03F
:10173000BFCF121613060CF0BBCF80910002909120
:1017400001028A30910534F401969093010280934E
:101750000002AECF8AEF98E00E94A806A9CF80E2EF
:1017600099E00E949B068091AC0A9091AD0A0E947C
:10177000B606AEE2BBE070E060E0D12CC12C50E0D8
:1017800040E090E080E08A01025D144F7D01E80EA8
:10179000F91EF70120812130E1F4FFEFCF1ADF0AB3
:1017A00030E020E07801E80EF91E5901E4E0AA0CCF
:1017B000BB1CEA95E1F7AE0CBF1CF501B080F1E06F
:1017C000BF1203C02F5F3F4FF0CF621773070CF4B7
:1017D000B901019680319105C9F65096405F5F4F7F
:1017E0004038510571F6CD2819F066307105FCF0CE
:1017F0008091AE0B9091AF0B01969093AF0B8093BD
:10180000AE0B0E9491041092CD0B0E94FB026093DC
:10181000C90B7093CA0B8093CB0B9093CC0B109297
:10182000C10B1092C00B1092BB0B1092BA0B87E049
:101830000E94FF01892B41F48091040290910502DE
:10184000019711F41092C20B84E00E94FF01892BD2
:1018500009F06EC28091020290910302019709F093
:1018600067C284E399E00E94A80684E00E94FF0119
:10187000892B31F480910202909103020197D1F0FB
:1018800088E499E00F900F900F900F90DF91CF9127
:101890001F910F91FF90EF90DF90CF90BF90AF908E
:1018A0009F908F907F906F905F904F903F902F9080
:1018B0000C94A8068BE599E00E94A8068091B90BCC
:1018C00091E089278093B90B882309F431C281E61E
:1018D00099E00E94A8068091B90B882309F428C2D8
:1018E0000E947E0421E020933F0B2093400B209325
:1018F000510B2093520B2093430B2093440B2093C6
:101900004E0B20935E0B20936F0B2093800B209344
:10191000910B2093920B2093830B2093740B2093B5
:10192000650B2093550B20934F0B20935F0B209357
:10193000500B2093600B2093700B2093610B20932E
:10194000710B2093810B2093620B2093720B2093D9
:10195000820B2093530B2093630B2093730B2093E4
:10196000540B2093640BE0910002F0910102319737
:10197000EA30F10508F051C18827EE53F34F8F4F3D
:101980000C94CA15CC0CDE0C210D3F0D550D730DBA
:10199000930DA30DC50DE50D31E03093590B309338
:1019A000890B30934A0B30935A0B30936A0B309368
:1019B0007A0B30938A0B30938B0B1DC081E08093A0
:1019C000480B8093490B80934A0B80934B0B809379
:1019D0005B0B80936B0B8093680B8093690B8093F8
:1019E0006A0B8093880B8093890B80938A0B80937A
:1019F0008B0B8093780B0E94F5050E94FB026B0114
:101A00007C01C092B50BD092B60BE092B70BF0926E
:101A1000B80B84E00E94FF01892B09F086C18091F8
:101A2000B40B8111FFC0F1E0F093B40B0E94FB02F4
:101A30006093B00B7093B10B8093B20B9093B30B88
:101A40004ACF91E09093480B9093490B90934A0BA7
:101A500090934B0B90935B0B90936B0B9093680B55
:101A60009093690B90936A0B9093880B90938B0BD8
:101A70009093890B90938A0B90937B0BBCCFE1E002
:101A8000E0934B0BE0935B0BE0936B0BE0938B0BC2
:101A9000E0937B0BE093480BE093580BE093680BCB
:101AA000E093690BE0936A0BA6CFF1E0F093480B4B
:101AB000F093490BF0934A0BF0934B0BF0936B0BA5
:101AC000F0938B0BF0937B0BF093580BF093680B18
:101AD000F093690BF0936A0BF093880BF093890BEA
:101AE000F0938A0B88CF21E02093480B2093490B79
:101AF00020934A0B20934B0B20936B0B20938B0B63
:101B000020937B0B2093580B2093680B2093780B2A
:101B10002093880B2093690B20936A0B2093890BE9
:101B200020938A0B68CF31E03093480B3093490BF8
:101B300030934A0B30934B0B30935B0B30936B0B12
:101B400030937B0B38CF81E08093480B8093490B17
:101B500080934A0B80934B0B80935B0B80936B0BB2
:101B600080938B0B80937B0B8093580B8093680B37
:101B70008093880B8093780B8093690B80936A0B1A
:101B80008093890B80938A0B36CF91E09093480B1A
:101B90009093490B90934A0B90934B0B90935B0B54
:101BA00090936B0B90938B0B90937B0B9093580BB4
:101BB0009093680B9093880B9093690B90936A0BAA
:101BC0009093890B90938A0B16CFE1E0E093470B3B
:101BD000E093570BE093670BE093770BE093870B51
:101BE000E093490BE0934A0BE0934B0BE0934C0BD3
:101BF000E093590BE093690BE093790BE093890B29
:101C0000E0935C0BE0936C0BE0937C0BE0938C0B0C
:101C1000E0938A0BE0938B0BEECE85ED98E00E946B
:101C2000A806E9CE8091B00B9091B10BA091B20BB8
:101C3000B091B30BC81AD90AEA0AFB0AD701C60148
:101C400088509740A109B109853F9140A105B10590
:101C5000B8F58EE899E00E94A80664EF71E080E094
:101C600090E00E94C90284E00E94FF01892B41F1AB
:101C70008091B90B31E083278093B90B82E799E01B
:101C80000E94A8060E947E042EEA3AE04EE25BE043
:101C900090E080E0F901E80FF91F6081613021F4E4
:101CA000FA01E80FF91F608301968031910591F7E1
:101CB000205F3F4F405F5F4F8BE02E32380741F788
:101CC00090EFC91A9AE0D90AE108F108E5EFCE16BB
:101CD000E1E0DE06E104F10408F0FDCD8FE799E0D4
:101CE0000E949B0664EF71E080E090E00E94C902D0
:101CF00084E00E94FF01892B09F4EDCD8091B90B9E
:101D0000F1E08F278093B90B84E899E00E94A80640
:101D100062E370E080E090E00E94C9020E947E04CD
:101D20001092550C0E94A704D6CD1092B40BD3CDBF
:101D30000F900F900F900F90DF91CF911F910F9107
:101D4000FF90EF90DF90CF90BF90AF909F908F90DB
:101D50007F906F905F904F903F902F9008954F929B
:101D60005F926F927F92AF92BF92CF92DF92EF928B
:101D7000FF920F931F93CF93DF93D1E0C1E032E046
:101D8000E32EF12C44244A9443E0542E612C712C10
:101D9000CC24C394D12CC0934F0BC0935F0BC09342
:101DA000600BC093610BC093800BC093330BC09347
:101DB000340BC093350BC093360BC093370BC093D5
:101DC000380BC093430BC093440BC093450BC09397
:101DD000460BC093470BC093480BC093530BC09363
:101DE000550BC093560BC093570BC093580BC09321
:101DF000630BC093650BC093660BC093680BC093D5
:101E0000730BC093760BC093780BC093830BC09376
:101E1000880BC093930BC093940BC093950BC09306
:101E2000960BC093970BC093980BC093A30BC093D2
:101E3000A40BC093A50BC093A60BC093A70BC09394
:101E4000A80BC0935B0BC0935C0BC0936A0BC09351
:101E50007A0BC0938B0BC0938C0B85E00E94FF0123
:101E6000892BF1F480910402909105020197C1F44D
:101E700082E999E00E94A806F0920902E092080225
:101E80000E94FB026093C90B7093CA0B8093CB0B2B
:101E90009093CC0BC093550C0E947E040E94BB070C
:101EA00086E00E94FF01892B61F4809104029091E9
:101EB0000502019731F486EA99E00E94A8060E9483
:101EC0007E0487E00E94FF01892B09F0ADC080915C
:101ED000040290910502019709F0A6C08FEB99E0EA
:101EE0000E94A8060E947E04EEE2FBE0D1932BE064
:101EF000EE33F207D9F7EEE9FBE0D1938BE0E83A55
:101F0000F807D9F70E94F50586E30E948702BC0115
:101F1000990F880B990B24E0660F771F881F991F74
:101F20002A95D1F7A30192010E94531559013093CC
:101F3000C40B2093C30B87E30E9487028C0127E028
:101F400030E0DC010E94D215A30192010E945315DA
:101F50002D5F3F4F4F4F5F4F1093010200930002E0
:101F6000EEE2FBE090E080E08A159B050CF04DC0AE
:101F7000D0830196319680319105B1F750E040E071
:101F8000CA0180599F4F825D944FFC01421753074D
:101F9000F4F5D0834F5F5F4F4A30510589F70E94B7
:101FA000F50584E00E94FF01892B99F50E94FB0250
:101FB0000091CE0B1091CF0B2091D00B3091D10B13
:101FC000601B710B820B930B683B7B408105910575
:101FD00008F49ACF0E94FB026093CE0B7093CF0B54
:101FE0008093D00B9093D10BD0920902C09208023B
:101FF00085ED99E00E94A8068AEF99E00E94A80664
:102000001092D40B0E947E04C6CE1082B2CF1082F2
:10201000C1CF0E94FB026093CE0B7093CF0B8093D5
:10202000D00B9093D10B70CFDF91CF911F910F9177
:10203000FF90EF90DF90CF90BF90AF907F906F9028
:102040005F904F9008951F920F920FB60F92112438
:102050002F933F938F939F93AF93BF938091570C90
:102060009091580CA091590CB0915A0C3091560C8B
:1020700023E0230F2D3758F50196A11DB11D2093A4
:10208000560C8093570C9093580CA093590CB09316
:102090005A0C80915B0C90915C0CA0915D0CB091FE
:1020A0005E0C0196A11DB11D80935B0C90935C0C9E
:1020B000A0935D0CB0935E0CBF91AF919F918F91F7
:1020C0003F912F910F900FBE0F901F90189526E80B
:1020D000230F0296A11DB11DD2CF1F920F920FB6F2
:1020E0000F9211240BB60F922F933F934F935F9350
:1020F0006F937F938F939F93AF93BF93EF93FF93D0
:102100008FE59CE00E947B03FF91EF91BF91AF911F
:102110009F918F917F916F915F914F913F912F91FF
:102120000F900BBE0F900FBE0F901F9018951F922F
:102130000F920FB60F9211240BB60F922F938F931D
:102140009F93EF93FF93E0916F0CF091700C80815F
:10215000E091750CF091760C82FD1DC0908180910C
:10216000780C8F5F8F732091790C821741F0E0918A
:10217000780CF0E0E15AF34F958F8093780CFF9143
:10218000EF919F918F912F910F900BBE0F900FBEEB
:102190000F901F9018958081F2CF8F929F92AF92EF
:1021A000BF92CF92DF92EF92FF920F931F93CF9344
:1021B000DF938C01EC01C05BDF4F8BE0A82EB12CCC
:1021C000B982A882480182E5880E911C8DE090E0DA
:1021D000F401918380836801F4E5CF0ED11C8AE07D
:1021E00090E0F601918380837801F6E5EF0EF11C13
:1021F00081E090E0F7019183808361E08BE00E94B1
:10220000560261E0F40180810E94560261E0F6010D
:1022100080810E94560261E0F60180810E942802BE
:10222000B982A882F80170961192EC17FD07E1F7C8
:10223000D0E0C0E0F70180819181C817D90784F50B
:1022400020E04FE0BE01C8010E945B05F7018081DC
:102250009181C817D90734F427E04BE0BE01C801CB
:102260000E945B0520E049E0BE01C8010E945B05B9
:10227000F70180819181C817D90724F4BE01C801F4
:102280000E947606F70180819181C817D90734F43E
:1022900020E04CE0BE01C8010E945B052196CACF38
:1022A000DF91CF911F910F91FF90EF90DF90CF9032
:1022B000BF90AF909F908F900895CF93DF9310922F
:1022C000620C1092610C88EE93E0A0E0B0E0809385
:1022D000630C9093640CA093650CB093660C82EB36
:1022E00098E09093600C80935F0C85EC90E0909365
:1022F0006C0C80936B0C84EC90E090936E0C80934C
:102300006D0C80EC90E09093700C80936F0C81ECDE
:1023100090E09093720C8093710C82EC90E090931B
:10232000740C8093730C86EC90E09093760C809301
:10233000750C1092780C1092790C10927A0C109205
:102340007B0C81E090E090935D0D80935C0DEAE161
:10235000F2E0AEE5BDE0CAE0D2E0819191918D93CB
:102360009D93899199911F969C938E931E9782E0DD
:10237000EA32F80791F784E09DE00E94CD1084E0F6
:102380009DE09093010D8093000D8CE59DE090936E
:10239000030D8093020D0E94FB026093FC0C70936E
:1023A000FD0C8093FE0C9093FF0C8EE79DE0DF9177
:1023B000CF910C94CD10CF93DF93CDB7DEB7C45837
:1023C000D1090FB6F894DEBF0FBECDBF789484B5A7
:1023D000826084BD84B5816084BD85B5826085BD21
:1023E00085B5816085BD80916E00816080936E00AF
:1023F00010928100809181008260809381008091A1
:102400008100816080938100809180008160809351
:1024100080008091B10084608093B1008091B00011
:1024200081608093B00080919100826080939100E0
:1024300080919100816080939100809190008160F3
:10244000809390008091A10082608093A100809190
:10245000A10081608093A1008091A00081608093A1
:10246000A00080912101826080932101809121014F
:1024700081608093210180912001816080932001FF
:1024800080917A00846080937A0080917A008260E3
:1024900080937A0080917A00816080937A008091A5
:1024A0007A00806880937A001092C100E0916F0CEE
:1024B000F091700C82E08083E0916B0CF0916C0CD9
:1024C0001082E0916D0CF0916E0C8FEC8083109275
:1024D000770CE091730CF091740C86E08083E091AE
:1024E000710CF091720C808180618083E091710C9D
:1024F000F091720C808188608083E091710CF09182
:10250000720C808180688083E091710CF091720C74
:1025100080818F7D8083E090020DF090030D870114
:102520000E5F1F4F22E1E20EF11CD8018C910E5F6D
:102530001F4F61E00E94560261E0F80186850E940B
:1025400056020E151F0589F78091000D9091010D1F
:10255000FC01EA5AFF4F208131811216130634F430
:1025600021E04CE070E060E00E945B058091000D8E
:102570009091010DFC01EA5AFF4F20813181121622
:10258000130634F428E04AE070E060E00E945B0546
:102590008091000D9091010DFC01EA5AFF4F2081BE
:1025A00031811216130624F470E060E00E94760672
:1025B0000E946A0462E085E00E94560262E086E0C2
:1025C0000E94560262E087E00E94560262E084E0C8
:1025D0000E9456029E012F573F4FCF57DF4F39833E
:1025E0002883C158D040812C912C54018A94809129
:1025F000080290910902009709F096C18BE19AE0D8
:102600000E94A8068091080290910902892B09F086
:102610009AC184E00E94FF01892B09F03CC10E940D
:10262000FB020091CE0B1091CF0B2091D00B30917B
:10263000D10B601B710B820B930B603D77408105C2
:102640009105D0F00E94FB026093CE0B7093CF0BEC
:102650008093D00B9093D10B41E050E0509309024E
:102660004093080285ED99E00E94A8068FE29AE067
:102670000E94A8061092D40B86E00E94FF01892BCD
:1026800081F48091060290910702019751F48091A4
:10269000D40B51E085278093D40B80E59AE00E940B
:1026A000A80685E00E94FF0186E00E94FF0190934A
:1026B00007028093060287E00E94FF0190930502C3
:1026C0008093040284E00E94FF01909303028093B0
:1026D000020245ED5BE03E0181E4680E711CDE0103
:1026E00011966D01BD019301FA0190E080E0D901DE
:1026F000A80FB91FF084FC927B01E80EF91E10812F
:102700003196D7011C9301968830910581F7405F7F
:102710005F4F285F3F4F685F7F4FCF57DF4FE881A4
:10272000F981C158D0402E173F07F1F6F12CE12C6A
:1027300010E000E08091000D9091010DFC01EA5A3B
:10274000FF4F208131811216130644F4F601E00F89
:10275000F11F2081A801B7010E94D7050F5F1F4F0D
:102760000830110539F7FFEFEF1AFF0A28E0C20E13
:10277000D11C38E0E316F104D9F60091020D109156
:10278000030DA801405F5F4FCD57DF4F598348834A
:10279000C358D0402801180152E2250E311C60E0D8
:1027A000D20112968C910E9428027301B8E0EB0EC0
:1027B000F11C6801F30181913F01882331F061E050
:1027C000D60152968C910E942802B2E0CB0ED11C09
:1027D0006E147F0479F761E070E080E090E00E9481
:1027E000C90261E0F20182810E9428027801F2E1CF
:1027F000EF0EF11CD7018C91B2E0EB0EF11C60E002
:102800000E9428022E143F04A9F7E2E04E0E511C4C
:10281000CD57DF4F28813981C358D0402415350565
:1028200009F0BDCFC090FC0CD090FD0CE090FE0CE8
:10283000F090FF0C8091D40B811138C00E94FB02F4
:102840009B01AC012C193D094E095F0969017A0110
:1028500087E30E9487022CE330E0DC010E94D2155E
:10286000A50194010E945315285D3F4F4F4F5F4FC4
:102870002C153D054E055F0508F0C4CE0E94FB02F5
:102880006093FC0C7093FD0C8093FE0C9093FF0CF6
:102890000E946A04B7CE0E94FB026093CE0B709335
:1028A000CF0B8093D00B9093D10BE6CE0E94FB020E
:1028B0009B01AC012C193D094E095F0969017A01A0
:1028C00087E30E9487022CE330E0DC010E94D215EE
:1028D000A50194010E945315285D3F4F4F4F5F4F54
:1028E0002C153D054E055F0508F08CCE0E94FB02BD
:1028F0006093FC0C7093FD0C8093FE0C9093FF0C86
:102900000E943B048091D20B9091D30B019728F049
:102910009093D30B8093D20B75CE4FEC50E0509335
:10292000D30B4093D20B6ECE8130910579F484E8BD
:102930009AE00E94A8068091550C811104C00E9463
:10294000AF0E0E94F5050E940A0451CE0297D9F7F6
:1029500085E99AE00E94A8060E94BB07F4CF8F92F7
:102960009F92AF92BF92CF92DF92EF92FF92CF935E
:10297000DF93EC01688179818A819B816115710502
:102980008105910521F464E279ED8BE597E02DE175
:1029900033EF41E050E00E94531549015A019B0179
:1029A000AC01A7EAB1E40E9472156B017C01ACEEA8
:1029B000B4EFA50194010E948015C60ED71EE81E33
:1029C000F91EF7FE06C081E0C81AD108E10880E8C8
:1029D000F80AC882D982EA82FB82C701B6019F77D2
:1029E000DF91CF91FF90EF90DF90CF90BF90AF90AD
:1029F0009F908F9008958F929F92AF92BF92CF92A7
:102A0000DF92EF92FF9260912A0270912B028091E7
:102A10002C0290912D02611571058105910521F41B
:102A200064E279ED8BE597E02DE133EF41E050E092
:102A30000E94531549015A019B01AC01A7EAB1E478
:102A40000E9472156B017C01ACEEB4EFA5019401FC
:102A50000E948015C60ED71EE81EF91EF7FE06C09E
:102A600081E0C81AD108E10880E8F80AC0922A0279
:102A7000D0922B02E0922C02F0922D02C701B601F7
:102A80009F77FF90EF90DF90CF90BF90AF909F9097
:102A90008F90089560932A0270932B0280932C02EA
:102AA00090932D020895052E97FB1EF400940E942A
:102AB0006A1557FD07D00E94851507FC03D04EF418
:102AC0000C946A1550954095309521953F4F4F4F86
:102AD0005F4F089590958095709561957F4F8F4FCA
:102AE0009F4F08950E94A715A59F900DB49F900D2C
:102AF000A49F800D911D11240895B7FF0C947215A9
:102B00000E947215821B930B0895A1E21A2EAA1B34
:102B1000BB1BFD010DC0AA1FBB1FEE1FFF1FA2178D
:102B2000B307E407F50720F0A21BB30BE40BF50B8A
:102B3000661F771F881F991F1A9469F76095709513
:102B4000809590959B01AC01BD01CF010895A29F96
:102B5000B001B39FC001A39F700D811D1124911D71
:102B6000B29F700D811D1124911D089597FB072EB2
:102B700016F4009407D077FD09D00E94D91507FC00
:102B800005D03EF4909581959F4F0895709561957D
:102B90007F4F0895EE0FFF1F881F8BBF0790F691A0
:102BA000E02D19940E94A715B7FF0895821B930B7F
:102BB0000895AA1BBB1B51E107C0AA1FBB1FA61784
:102BC000B70710F0A61BB70B881F991F5A95A9F7D6
:102BD00080959095BC01CD010895F894FFCF030036
:102BE0000100010001000100280029002A002B003B
:102BF0002C002D002E002F001E001F0020002100A1
:102C00002200230024002500010000000000000035
:102C100000000000000101010101010100000101AB
:102C2000010101010101000000010101000000009B
:102C30000000000000000000000000000000000094
:102C4000000001010101010101010000000000007C
:102C5000000000000001010101010101000000016C
:102C60000101010100000001010101010101000059
:102C7000000101010101000000000000010100004D
:102C8000000000000000000000000101010101013E
:102C9000010000010100000000010100010101012B
:102CA000010101000000010101010101000000001B
:102CB000010100000000010100010100000000010D
:102CC00001000101010101010101000101010101F6
:102CD00001010100000001010000000000010101EC
:102CE00001010100000101010101010101000101D7
:102CF00001010101010100010101010100000000C9
:102D000000000000000000000000000000000000C3
:102D100000000101010101010101000000000000AB
:102D2000000000000001010101010101000001019A
:102D30000101010101000001010101010101000087
:102D4000010101010101010000000101000000007A
:102D5000000000000101000000000101010101016B
:102D60000101000101000000000101000101010159
:102D70000101010100010101010101010100000047
:102D8000010101000001010100010100000000013A
:102D90000100010101010101010100010101010125
:102DA000010101000000000001010000000101011B
:102DB000010101000001010000000001010001010A
:102DC00000000000010100000000010100000000FF
:102DD00000000000000000000000000000000000F3
:102DE00000000000000101000000000000000000E1
:102DF00000000000000000000000010100000101CF
:102E000000000001010000000000000001010000BE
:102E100000000000000101000001010000000000AE
:102E2000000000010000010000000101000000009E
:102E3000010100010100000000010100010100008A
:102E4000000001010001010000000001010000007C
:102E50000001010101010100000101000000000169
:102E6000010000000001010000000000000001015D
:102E7000000000000000000000010100000101004E
:102E8000000101000001010000000001010001013A
:102E9000000000000101000000000101000000002E
:102EA0000101010101010101000001010000010116
:102EB000000000000001010000000001010101010B
:102EC00001010100000000000000010100000101FB
:102ED00000000001010000000000000001010000EE
:102EE00000000101010101000100000000000000DC
:102EF00000000001000001000000010100000000CE
:102F000001010001010000000001010001010000B9
:102F100000000101000101000000000101000000AB
:102F20000000010101010000000001010000010199
:102F3000000000000001010000000000000001018D
:102F4000000000000000000000000001000101017D
:102F50000101010000010101010101010000010165
:102F60000101010101010000000001010000000059
:102F70000101010101010101000001010000010145
:102F8000000000000001010000000001010101013A
:102F90000101010000010101010101010000010125
:102FA0000000000101000001010101010101000018
:102FB000000001010101010001000000000000000B
:102FC00000000000010101000000010101010101F8
:102FD00001000001010000000001010001010101E8
:102FE00001010101000101000000000101000000D9
:102FF00000000101010100000000010100000101C9
:1030000000000000000101000000000000000101BC
:1030100000000000000000000000000100010101AC
:103020000101010000010101010101010100010193
:103030000101010101010000000001010000000088
:10304000000000000000000000000101000001017C
:10305000000001010001010000000000000000006C
:10306000000000000001010000000000000001015C
:10307000000000010100000101000000000000004C
:10308000000000000001010000010100000000003C
:103090000000000000000100000001010101010129
:1030A0000101000101000000000101000101010116
:1030B0000101010000010100000000010100000009
:1030C00000010101010101000000010100000101F6
:1030D00000000000000101000000000000000101EC
:1030E00000000000000000000001010000010100DC
:1030F00000000000000101000000000101000101CA
:1031000000000000010100010101010101010100B5
:1031100000000000000000000000000101010100AB
:10312000000001010101010000000000000000009A
:103130000000000000010101010101010000010186
:103140000101010101000001010101010101000073
:103150000101010101010100000001010000000066
:10316000000000010000010000000101000000005B
:103170000101000101010101010101000101000043
:103180000000000000010101010101010100000037
:103190000101010000010101000000010101010025
:1031A0000000010101010101010100010101010112
:1031B0000101010000000000010100000001010008
:1031C00000000000000101000000000101000101F9
:1031D00000000000010100010101010101010100E5
:1031E00000000000000000000000000001010000DD
:1031F00000000001010100000000000000000000CC
:1032000000000000000101010101010100000001B6
:1032100001010101000000010101010101010000A3
:103220000001010101010000000000000101000097
:10323000000000000101000000000101000000008A
:103240000101000001010101010100000101000074
:103250000000000000000101010101010000000068
:103260000101000000000101000000000101000058
:103270000000010101010101010100010101010141
:103280000101010000000101000000000000000039
:103290009D0307033403EA036503430357030D0A41
:1032A000005961206E6F207469656E6520766964CF
:1032B0006173005961206E6F20686179206DC3A130
:1032C00073206E6976656C6573004E756D206F6254
:1032D0006A657469766F73004C6C656761737465B9
:1032E00020616C206D6178696D6F2064652076695E
:1032F000646173207065726D697469646F00546FE6
:103300007272657320646573747275696461733A6F
:10331000200050726573696F6E6120656C20626F6A
:10332000746F6E204B0050726F6772616D61207216
:1033300065616E756461646F00684F4C4153005065
:10334000726F6772616D61207061757361646F0087
:10335000444F5320534547554E444F530054524514
:1033600053005452455320534547554E444F530044
:103370004368616E676520746F2047414D45206D3D
:103380006F6465004368616E676520746F205354F5
:1033900041544953544943206D6F6465004368614B
:1033A0006E676520746F20434F4E464947206D6F0E
:1033B000646500494E495420627574746F6E2077BD
:1033C0006173206368616E67656420746F20676154
:1033D0006D65206D6F646500427574746F6E204D6D
:1033E0006964646C652068656C6420666F72203364
:1033F000207365636F6E6473004573746F79206525
:103400006E20656C206D656E73616A65004275742F
:10341000746F6E204D6964646C652068656C64200F
:10342000666F722032207365636F6E647300436849
:10343000616E676520746865206D6F7665206F66C4
:1034400020746865206C6F6F7020746578742066D6
:10345000726F6D206C65667420746F207269676886
:1034600074004573746F7920656E20656C206D65FE
:103470006E75004573746F7920656E20656C204A07
:083480007565676F20474700E6
:020000040003F7
:10E000000D9489F10D94B2F10D94B2F10D94B2F129
:10E010000D94B2F10D94B2F10D94B2F10D94B2F1F0
:10E020000D94B2F10D94B2F10D94B2F10D94B2F1E0
:10E030000D94B2F10D94B2F10D94B2F10D94B2F1D0
:10E040000D94B2F10D94B2F10D94B2F10D94B2F1C0
:10E050000D94B2F10D94B2F10D94B2F10D94B2F1B0
:10E060000D94B2F10D94B2F10D94B2F10D94B2F1A0
:10E070000D94B2F10D94B2F10D94B2F10D94B2F190
:10E080000D94B2F10D94B2F10D94B2F10D94B2F180
:10E090000D94B2F10D94B2F10D94B2F10D94B2F170
:10E0A0000D94B2F10D94B2F10D94B2F10D94B2F160
:10E0B0000D94B2F10D94B2F10D94B2F10D94B2F150
:10E0C0000D94B2F10D94B2F10D94B2F10D94B2F140
:10E0D0000D94B2F10D94B2F10D94B2F10D94B2F130
:10E0E0000D94B2F141546D656761323536300041AF
:10E0F000726475696E6F206578706C6F72657220DE
:10E1000073746B3530305632206279204D4C530099
:10E11000426F6F746C6F616465723E004875683F52
:10E1200000436F6D70696C6564206F6E203D200048
:10E130004350552054797065202020203D20005FF9
:10E140005F4156525F415243485F5F3D2000415658
:10E1500052204C696243205665723D20004743437C
:10E160002056657273696F6E203D20004350552024
:10E1700049442020202020203D20004C6F7720663D
:10E18000757365202020203D20004869676820665F
:10E190007573652020203D200045787420667573D6
:10E1A00065202020203D20004C6F636B2066757336
:10E1B000652020203D20004D617220203720323024
:10E1C000313300312E362E3800342E332E350056A2
:10E1D00023202020414444522020206F7020636F70
:10E1E00064652020202020696E73747275637469E1
:10E1F0006F6E2061646472202020496E74657272B3
:10E20000757074006E6F20766563746F7200726A49
:10E210006D702020006A6D70200057686174207056
:10E220006F72743A00506F7274206E6F7420737541
:10E2300070706F72746564004D7573742062652030
:10E2400061206C6574746572002000577269747483
:10E25000696E672045450052656164696E672045B7
:10E26000450045452065727220636E743D00504F35
:10E27000525400303D5A65726F2061646472003FF1
:10E280003D43505520737461747300403D454550C3
:10E29000524F4D207465737400423D426C696E6B41
:10E2A000204C454400453D44756D70204545505215
:10E2B0004F4D00463D44756D7020464C415348001B
:10E2C000483D48656C70004C3D4C69737420492F83
:10E2D0004F20506F72747300513D51756974005234
:10E2E0003D44756D702052414D00563D73686F7707
:10E2F00020696E7465727275707420566563746FF0
:10E30000727300593D506F727420626C696E6B00BD
:10E310002A0011241FBECFEFD1E2DEBFCDBF01E046
:10E320000CBF12E0A0E0B2E0EEE1FDEF03E00BBFB6
:10E3300002C007900D92A030B107D9F712E0A0E01B
:10E34000B2E001C01D92AE30B107E1F70F9460F367
:10E350000D948DFE01E20EBF0FEF0DBF11241FBE05
:10E360000D9460F30D9400F020E030E040ED57E0B4
:10E3700005C0FA013197F1F72F5F3F4F2817390792
:10E38000C0F308959C01260F311DC901A0E0B0E043
:10E390002F5F3F4FABBFFC018791882361F08093D3
:10E3A000C6008091C00086FFFCCF8091C0008064D1
:10E3B0008093C000EACF08958DE08093C6008091DD
:10E3C000C00086FFFCCF8091C00080648093C000B5
:10E3D0008AE08093C6008091C00086FFFCCF8091C8
:10E3E000C00080648093C00008950F94C2F10F9420
:10E3F000DCF10895FC019081992359F09093C600B7
:10E400008091C00086FFFCCF8091C0008064809323
:10E41000C0003196992379F70895282F982F929567
:10E420009F70892F805D8A3308F0895F8093C600D2
:10E430008091C00086FFFCCF8091C00080648093F3
:10E44000C000822F8F70982F905D9A3308F0995FEB
:10E450009093C6008091C00086FFFCCF8091C000E1
:10E4600080648093C00008959C01FB01853691056E
:10E470001CF46330710594F0C90164E670E00F94F8
:10E480002EFE605D7F4F6093C6008091C00086FFC6
:10E49000FCCF8091C00080648093C0002B30310598
:10E4A00014F43297B4F0C90164E670E00F942EFEC4
:10E4B0006AE070E00F942EFE605D7F4F6093C600AF
:10E4C0008091C00086FFFCCF8091C0008064809363
:10E4D000C000C9016AE070E00F942EFEC0968093E0
:10E4E000C6008091C00086FFFCCF8091C000806490
:10E4F0008093C00008951F93182F8EE692EE60E07F
:10E500000F94C2F11093C6008091C00086FFFCCF2B
:10E510008091C00080648093C0000F94DCF11F9153
:10E5200008952F923F924F925F926F927F928F92B7
:10E530009F92AF92BF92CF92DF92EF92FF920F9392
:10E540001F93DF93CF93CDB7DEB762970FB6F894E2
:10E55000DEBF0FBECDBF382E622ECA01DB015C01CB
:10E560006D01772420E2222E2E010894411C511CBB
:10E570008BC081E0A81680E0B80681E0C80680E084
:10E58000D80628F0C601AA27BB270F940DF2BB2797
:10E59000AD2D9C2D8B2D0F940DF28A2D0F940DF225
:10E5A0002092C6008091C00086FFFCCF8091C00001
:10E5B00080648093C0009DE29093C6008091C0006B
:10E5C00086FFFCCF8091C00080648093C0002092C1
:10E5D000C6008091C00086FFFCCF8091C00080649F
:10E5E0008093C00019828601750188249924A1E0D6
:10E5F0003A1651F03A1620F0B2E03B1661F409C029
:10E600000BBFF701779007C0C7010F9477FE782EF4
:10E6100002C0F7017080872D0F940DF22092C60082
:10E620008091C00086FFFCCF8091C0008064809301
:10E63000C000872D8052F401EF70F0708F3520F408
:10E64000E40DF51D708204C0E40DF51D8EE280839B
:10E650000894E11CF11C011D111D0894811C911CE2
:10E6600090E18916910409F0C2CF80E190E0A0E02A
:10E67000B0E0A80EB91ECA1EDB1E198AC2010F9493
:10E68000FAF10F94DCF16A94662009F072CF629679
:10E690000FB6F894DEBF0FBECDBFCF91DF911F91B3
:10E6A0000F91FF90EF90DF90CF90BF90AF909F9031
:10E6B0008F907F906F905F904F903F902F90089534
:10E6C0002F923F924F925F926F927F928F929F9282
:10E6D000AF92BF92CF92DF92EF92FF920F931F9370
:10E6E000DF93CF93CDB7DEB7CD53D1400FB6F894BB
:10E6F000DEBF0FBECDBF01E20EBF0FEF0DBF94B75F
:10E70000F894A89514BE80916000886180936000A1
:10E7100010926000789493FF05C0E0910002F091A0
:10E7200001021995279A2F9A8091C00082608093E8
:10E73000C00080E18093C40088E18093C1000000A4
:10E74000EE24FF24870144E0A42EB12CCC24DD2448
:10E7500024C0C5010197F1F70894E11CF11C011DCB
:10E76000111D21E2E2162EE4F20620E0020720E06D
:10E77000120718F031E0C32ED12CC801B70127ECE5
:10E780003BE140E050E00F9441FE611571058105C9
:10E79000910519F485B1805885B98091C00087FD35
:10E7A00003C0C114D104A9F2A6014F5F5F4FC25E3E
:10E7B000DE4F59834883CE51D140C25EDE4F8881FF
:10E7C0009981CE51D140019711F00D9410FEC05D9A
:10E7D000DE4F19821882C053D14060E0C15DDE4F28
:10E7E0001882CF52D14088249924C35DDE4F19820C
:10E7F0001882CD52D140C05EDE4F188219821A8233
:10E800001B82C052D140CE5CDE4F188219821A8220
:10E810001B82C253D140EE24FF2487010BBFF701B6
:10E8200007911691C45CDE4F19830883CC53D14005
:10E830000D940BFEC25EDE4F28813981CE51D1404E
:10E840002130310509F52091C600C25EDE4F1982E4
:10E850001882CE51D14022C02F5F3F4F4F4F5F4FA4
:10E86000213082E138078AE7480780E0580780F0C6
:10E87000C45CDE4FE881F981CC53D140EF5FFF4F9C
:10E8800019F0EE27FF27099420E030E040E050E047
:10E890008091C00087FFE0CF2091C600C35DDE4FAE
:10E8A00048815981CD52D1404F5F5F4FC35DDE4FEC
:10E8B00059834883CD52D140213209F063C64A3092
:10E8C000510508F05FC60894811C911C53E0851621
:10E8D000910409F059C600E010E018C081E280936D
:10E8E000C6008091C00086FFFCCF8091C00080648C
:10E8F0008093C0002F5F3F4F2931310579F70F9486
:10E90000DCF10F5F1F4F0530110519F020E030E0FA
:10E91000E5CF10920A0210920B0210920C02109294
:10E920000D02109206021092070210920802109235
:10E930000902109202021092030210920402109235
:10E9400005028FEE90EE60E00F94F5F180E191EE1C
:10E9500060E00F94C2F18091C00087FFFCCF9091DE
:10E96000C600903608F09F759032B8F09093C600BC
:10E970008091C00086FFFCCF8091C00080648093AE
:10E98000C000A0E2A093C6008091C00086FFFCCF2B
:10E990008091C00080648093C000983409F4D7C18E
:10E9A0009934B8F4923409F459C1933458F490333B
:10E9B00019F1903308F4E3C59F33A1F1903409F0C5
:10E9C000DEC5BDC0953409F470C1963409F0D7C5D1
:10E9D00098C1923509F42BC2933538F49C3409F46C
:10E9E000F5C1913509F0CBC518C2963509F445C279
:10E9F000993509F0C4C567C483E792EE62E00F94CD
:10EA0000F5F110920602109207021092080210927D
:10EA1000090210920A0210920B0210920C0210923C
:10EA20000D0213C18FE792EE62E00F94F5F18FEEC5
:10EA300090EE60E00F94F5F181E291EE60E00F94CA
:10EA4000C2F187EB91EE60E00F94F5F180E391EE77
:10EA500060E00F94C2F184EE90EE60E00F94F5F167
:10EA60008FE391EE60E00F94C2F186E090E061E008
:10EA700070E00F9434F20F94DCF18DE591EE60E0DC
:10EA80000F94C2F189EC91EE60E00F94F5F18EE401
:10EA900091EE60E00F94C2F183EC91EE60E00F9490
:10EAA000F5F18CE691EE60E00F94C2F18EE10F94E7
:10EAB0000DF288E90F940DF281E00F940DF20F949E
:10EAC000DCF18BE791EE60E00F94C2F119E0E0E039
:10EAD000F0E010935700E4918E2F0F940DF20F94F5
:10EAE000DCF18AE891EE60E00F94C2F1E3E0F0E03F
:10EAF00010935700E4918E2F0F940DF20F94DCF1D8
:10EB000089E991EE60E00F94C2F1E2E0F0E0109349
:10EB10005700E4918E2F0F940DF20F94DCF188EAE8
:10EB200091EE60E00F94C2F1E1E0F0E01093570045
:10EB30001491812F0F940DF20F94DCF107CF8BE825
:10EB400092EE62E00F94F5F18BE492EE60E00F94A8
:10EB5000F5F10F94DCF100E010E019C0C8016F2D51
:10EB60000F947FFEFF2031F489E492EE60E00F9471
:10EB7000C2F10BC0F092C6008091C00086FFFCCFAE
:10EB80008091C00080648093C0000F5F1F4FC80158
:10EB900081519F41A0E0B0E0ABBFFC01F790BAE229
:10EBA000FB1621F0E2E000301E07C1F60F94DCF105
:10EBB0000F94DCF187E592EE60E00F94F5F10F948D
:10EBC000DCF1CC24DD2400E010E01EC0C8010F946D
:10EBD00077FEF82E882331F489E492EE60E00F94FA
:10EBE000C2F10BC08093C6008091C00086FFFCCFAD
:10EBF0008091C00080648093C000FE1419F00894D6
:10EC0000C11CD11C0F5F1F4FC80181519F41A0E063
:10EC1000B0E0ABBFFC01E790FAE2EF1621F022E092
:10EC20000030120799F60F94DCF10F94DCF182E6C4
:10EC300092EE60E00F94C2F1C60161E070E00F94C3
:10EC400034F20F94DCF10F94DCF110920202109276
:10EC50000302109204021092050278CE89E992EE26
:10EC600062E00F94F5F1279A2F9A16C02F9880E052
:10EC700090E0E0EDF7E03197F1F7019684369105E9
:10EC8000C1F72F9A80E090E0E0EDF7E03197F1F7DF
:10EC9000019684369105C1F78091C00087FFE6CFC9
:10ECA0008091C00087FFFCCF64C485EA92EE62E0E9
:10ECB0000F94F5F140910202509103026091040219
:10ECC0007091050281E020E10F9491F2809102029F
:10ECD00090910302A0910402B091050280509F4FD1
:10ECE000AF4FBF4F8093020290930302A0930402A0
:10ECF000B093050280509041A040B04008F426CE69
:10ED0000A4CF83EB92EE62E00F94F5F140910602FE
:10ED100050910702609108027091090280E020E1A1
:10ED20000F9491F28091060290910702A09108023F
:10ED3000B091090280509F4FAF4FBF4F80930602A2
:10ED400090930702A0930802B0930902FFCD80ECD4
:10ED500092EE62E00F94F5F183E792EE60E00F949B
:10ED6000F5F18FE792EE60E00F94F5F18BE892EE0B
:10ED700060E00F94F5F189E992EE60E00F94F5F10F
:10ED800085EA92EE60E00F94F5F183EB92EE60E09D
:10ED90000F94F5F180EC92EE60E00F94F5F187ECC2
:10EDA00092EE60E00F94F5F188ED92EE60E00F9442
:10EDB000F5F18FED92EE60E00F94F5F18AEE92EEB0
:10EDC00060E00F94F5F183E093EEBDCD87EC92EE19
:10EDD00062E00F94F5F181E40F947BF282E40F94EA
:10EDE0007BF283E40F947BF284E40F947BF285E45E
:10EDF0000F947BF286E40F947BF287E40F947BF20E
:10EE000088E40F947BF28AE40F947BF28BE40F94F6
:10EE10007BF28CE40F947BF299CD88ED92EE62E068
:10EE20000F94F5F1772473948824992409C48FED05
:10EE300092EE62E00F94F5F140910A0250910B02BC
:10EE400060910C0270910D0282E020E10F9491F22A
:10EE500080910A0290910B02A0910C02B0910D02D8
:10EE600080509F4FAF4FBF4F80930A0290930B0289
:10EE7000A0930C02B0930D0269CD8AEE92EE62E08F
:10EE80000F94F5F184EE90EE60E00F94F5F18FECC5
:10EE900091EE60E00F94F5F1662477244301CC5D98
:10EEA000DE4F19821882C452D140D401C301B695F5
:10EEB000A79597958795CA5DDE4F88839983AA8326
:10EEC000BB83C652D140CC5DDE4FA881B981C4520C
:10EED000D1401196CC5DDE4FB983A883C452D14096
:10EEE000CD0162E070E00F9434F2B0E2B093C6005E
:10EEF0008091C00086FFFCCF8091C0008064809329
:10EF0000C000EDE2E093C6008091C00086FFFCCF18
:10EF10008091C00080648093C000F0E2F093C6004E
:10EF20008091C00086FFFCCF8091C00080648093F8
:10EF3000C000CA5DDE4FE880F9800A811B81C6529D
:10EF4000D140BB27A12F902F8F2D0F940DF2CA5DBA
:10EF5000DE4F8881C652D1400F940DF2B0E2FB2EF5
:10EF6000F092C6008091C00086FFFCCF8091C00067
:10EF700080648093C0000DE30093C6008091C000C0
:10EF800086FFFCCF8091C00080648093C00010E2B7
:10EF90001093C6008091C00086FFFCCF8091C00016
:10EFA00080648093C0008BBEF3012791C65DDE4F65
:10EFB0002883CA52D140A22EBB24CC24DD2408943D
:10EFC000611C711C811C911C8BBEF3018791282E42
:10EFD0003324442455240894611C711C811C911C09
:10EFE0008BBEF3013791C55DDE4F3883CB52D140E4
:10EFF0000894611C711C811C911C8BBEF30147910C
:10F00000C45DDE4F4883CC52D140ADEFEA2EAFEF66
:10F01000FA2EAFEF0A2FAFEF1A2F6E0C7F1C801E57
:10F02000911E142D032DF22CEE24EA0CFB1C0C1D5A
:10F030001D1D0F940DF220E22093C6008091C000A8
:10F0400086FFFCCF8091C00080648093C000C65DC5
:10F05000DE4F8881CA52D1400F940DF230E23093D6
:10F06000C6008091C00086FFFCCF8091C000806404
:10F070008093C000C45DDE4F8881CC52D1400F9494
:10F080000DF240E24093C6008091C00086FFFCCFA5
:10F090008091C00080648093C000C55DDE4F888190
:10F0A000CB52D1400F940DF250E25093C6008091A4
:10F0B000C00086FFFCCF8091C00080648093C000B8
:10F0C0008FEFE8168FEFF80680E0080780E018075A
:10F0D00031F484E092EE60E00F94C2F1DFC0D80119
:10F0E000C7018070907CA070B0708050904CA040A0
:10F0F000B040D1F52FEF3FE340E050E0E222F322B1
:10F1000004231523CA5DDE4FA880B980CA80DB8046
:10F11000C652D140AE0CBF1CC01ED11EAA0CBB1CD7
:10F12000CC1CDD1C8EE092EE60E00F94C2F1BB2798
:10F13000A12F902F8F2D0F940DF28E2D0F940DF285
:10F1400030E23093C6008091C00086FFFCCF8091F2
:10F15000C00080648093C0004EE34093C60080915D
:10F16000C00086FFFCCF87C08EE09EEFA0E0B0E03D
:10F17000E822F9220A231B239CE0E91694E9F90608
:10F1800090E0090790E0190709F088C0C45DDE4FE0
:10F19000A881CC52D140EA2EFF2400E010E0102FCD
:10F1A0000F2DFE2CEE24C55DDE4FB881CB52D14031
:10F1B000EB0EF11C011D111DD601C501817090706F
:10F1C000A070B070DC0199278827E80EF91E0A1F8D
:10F1D0001B1F20EF30E040E050E0A222B322C42207
:10F1E000D52241E1AA0CBB1CCC1CDD1C4A95D1F7F1
:10F1F000EA0CFB1C0C1D1D1D81E090E0A0E0B0E0BE
:10F20000282239224A225B2235E1220C331C441C7D
:10F21000551C3A95D1F7E20CF31C041D151D57013E
:10F220006801AA0CBB1CCC1CDD1C85E192EE60E0E1
:10F230000F94C2F1C801AA27BB270F940DF2BB2778
:10F24000A12F902F8F2D0F940DF28E2D0F940DF274
:10F2500090E29093C6008091C00086FFFCCF809121
:10F26000C00080648093C000AEE3A093C60080918C
:10F27000C00086FFFCCF8091C00080648093C000F6
:10F28000C601AA27BB270F940DF2BB27AD2D9C2DDD
:10F290008B2D0F940DF28A2D0F940DF20F94DCF14B
:10F2A000CC5DDE4FE881F981C452D140F99709F471
:10F2B0004DCBF4E0EF2EF12C012D112D6E0C7F1CA7
:10F2C000801E911EF2CD83E093EE62E00F94F5F183
:10F2D0008AE192EE60E00F94C2F18091C00087FF56
:10F2E000FCCF1091C6001F751093C6008091C0001E
:10F2F00086FFFCCF8091C00080648093C0000F9493
:10F30000DCF1812F81548A3108F036C1163409F4BA
:10F3100095C0173490F4133409F44EC0143430F40B
:10F320001134F1F0123409F01DC130C0143409F465
:10F3300059C0153409F016C16BC01A3409F4C4C0A1
:10F340001B3438F4173409F48FC0183409F00AC19B
:10F35000A1C01B3409F4D2C01C3409F003C1E8C0B9
:10F360008FEF81B90DC082B1809582B980E090E0C5
:10F37000E0EDF7E03197F1F70196883C9105C1F790
:10F380008091C00087FFEFCF12B8EFC08FEF84B934
:10F390000DC085B1809585B980E090E0E0EDF7E0A3
:10F3A0003197F1F70196883C9105C1F78091C00033
:10F3B00087FFEFCF15B8D9C08FEF87B90DC088B1DF
:10F3C000809588B980E090E0E0EDF7E03197F1F7C3
:10F3D0000196883C9105C1F78091C00087FFEFCF6F
:10F3E00018B8C3C08FEF8AB90DC08BB180958BB9A7
:10F3F00080E090E0E0EDF7E03197F1F70196883C8E
:10F400009105C1F78091C00087FFEFCF1BB8ADC059
:10F410008FEF8DB90DC08EB180958EB980E090E0F0
:10F42000E0EDF7E03197F1F70196883C9105C1F7DF
:10F430008091C00087FFEFCF1EB897C08FEF80BBD1
:10F440000DC081B3809581BB80E090E0E0EDF7E0F6
:10F450003197F1F70196883C9105C1F78091C00082
:10F4600087FFEFCF11BA81C08FEF83BB0DC084B38C
:10F47000809584BB80E090E0E0EDF7E03197F1F714
:10F480000196883C9105C1F78091C00087FFEFCFBE
:10F4900014BA6BC08FEF809301010FC080910201FD
:10F4A00080958093020180E090E0E0EDF7E03197F5
:10F4B000F1F70196883C9105C1F78091C00087FF64
:10F4C000EDCF1092020151C08FEF809304010FC065
:10F4D0008091050180958093050180E090E0E0ED4A
:10F4E000F7E03197F1F70196883C9105C1F78091DB
:10F4F000C00087FFEDCF1092050137C08FEF8093DA
:10F5000007010FC08091080180958093080180E079
:10F5100090E0E0EDF7E03197F1F70196883C910536
:10F52000C1F78091C00087FFEDCF109208011DC088
:10F530008FEF80930A010FC080910B01809580931B
:10F540000B0180E090E0E0EDF7E03197F1F70196F4
:10F55000883C9105C1F78091C00087FFEDCF1092E4
:10F560000B0103C085E292EEEEC98091C00087FFD7
:10F57000FCCF8091C600EAC988E392EEE4C98CE131
:10F5800091EEE1C988249924933011F1943028F444
:10F59000913089F09230B8F408C0953061F195301F
:10F5A000F0F0963009F048C043C02B3109F042C951
:10F5B00091E06BE13FC96227C15DDE4F2883CF52E6
:10F5C000D14092E037C9B22FA0E0622793E032C960
:10F5D000822F90E0A82BB92B622794E02BC92E3004
:10F5E00009F039C3622795E0C05DDE4F19821882A9
:10F5F000C053D1401FC9E1E0F0E0EC0FFD1FC05D3A
:10F60000DE4F08811981C053D140E00FF11F2083E4
:10F610000F5F1F4FC05DDE4F19830883C053D14079
:10F6200062270A171B0709F005C9D80196E002C92D
:10F63000261709F010C303C0973009F0FBC87724E0
:10F640009981933109F412C19431C8F4963009F4C8
:10F65000D8C0973050F4923009F406C1933009F4C1
:10F660006DC0913009F059C253C0913109F477C08F
:10F67000923108F0BBC0903109F04FC2F5C098310B
:10F6800009F487C0993150F4953109F4EFC09531F0
:10F6900008F4C6C1963109F040C2C2C19A3109F4DA
:10F6A0006CC09A3108F491C09B3109F45BC09D3164
:10F6B00009F033C29D81903359F48F81882311F46E
:10F6C0009EE11CC0813011F091E018C098E916C08D
:10F6D000892F807591F0903539F4E0E0F0E089E011
:10F6E0008093570094910AC0983539F4E3E0F0E034
:10F6F00089E080935700949101C090E01A821B82A8
:10F700008D818C831D829E831F8227E030E009C299
:10F710001A8288E08B8381E48C8386E58D8382E581
:10F720008E8389E48F8383E5888780E589878FE5E9
:10F730008A8782E38B872BE030E0F3C18A818139AD
:10F7400041F0823941F0803911F48FE005C080E04A
:10F7500003C082E001C08AE01A828B8344C0772410
:10F76000739482C08D81882311F48EE12CC0813086
:10F7700011F081E028C088E926C01A82E1E0F0E0BB
:10F7800089E08093570084918B831C8224E030E0D1
:10F79000C8C18B81803589F48C81883039F4E2E0EE
:10F7A000F0E089E08093570084910DC0E0E0F0E044
:10F7B00089E080935700849106C0E3E0F0E089E09F
:10F7C0008093570084911A82DFCF8D81836C99E0FA
:10F7D000E1E0F0E0082E90935700E89507B600FCB2
:10F7E000FDCF1A821B8223E030E09BC180EC8A832C
:10F7F000CE5CDE4F188219821A821B82C253D1401E
:10F800008EC18A8190E0A0E0B0E0582F44273327D2
:10F8100022278B8190E0A0E0B0E0DC0199278827C7
:10F82000282B392B4A2B5B2B8D8190E0A0E0B0E098
:10F83000282B392B4A2B5B2B8C8190E0A0E0B0E089
:10F84000BA2FA92F982F8827282B392B4A2B5B2BCF
:10F85000220F331F441F551FC05EDE4F288339839C
:10F860004A835B83C052D1401A8259C13A81C95C34
:10F87000DE4F3883C753D140CA5CDE4F1882C6536F
:10F88000D1408B81C82EDD24CA5CDE4F488159816E
:10F89000C653D140C42AD52A933109F082C0CE5C28
:10F8A000DE4F88819981AA81BB81C253D1408050AB
:10F8B000904CA340B04030F583E0CE5CDE4FE88052
:10F8C000F9800A811B81C253D140F70100935B008C
:10F8D00080935700E89507B600FCFDCFCE5CDE4F65
:10F8E000088119812A813B81C253D14000501F4FAA
:10F8F0002F4F3F4FCE5CDE4F088319832A833B8313
:10F90000C253D140C05EDE4F488159816A817B81FC
:10F91000C052D140DE011B9631E08C9111962C91A2
:10F9200011971296C75CDE4F2883C953D140C85C3B
:10F93000DE4F1882C853D14090E0C85CDE4FE881AA
:10F94000F981C853D1408E2B9F2B0C01FA01609393
:10F950005B0030935700E89511244E5F5F4F6F4F67
:10F960007F4F0EEFE02E0FEFF02ECE0CDF1CC114F8
:10F97000D10499F685E0C05EDE4F088119812A81A5
:10F980003B81C052D140F80120935B008093570027
:10F99000E89507B600FCFDCF81E180935700E8951C
:10F9A00035C0C05EDE4F88819981AA81BB81C0527B
:10F9B000D140B695A795979587957C018601ABE0D8
:10F9C000AA2EB12CAC0EBD1E0BC0D5016D915D01F0
:10F9D000C7010F947FFE0894E11CF11C01501040F8
:10F9E0000115110591F7A60160E070E0440F551F65
:10F9F000661F771FC05EDE4FE880F9800A811B8199
:10FA0000C052D1404E0D5F1D601F711F1A82C05E33
:10FA1000DE4F488359836A837B83C052D1407FC0C5
:10FA2000FA80C55CDE4FF882CB53D140C65CDE4F16
:10FA30001882CA53D1408B81C82EDD24C65CDE4FAC
:10FA400008811981CA53D140C02AD12A1A828981DA
:10FA5000BE016D5F7F4F843121F59601C05EDE4FA0
:10FA6000E880F9800A811B81C052D1400BBFF701A9
:10FA700087919691DB018C9311969C936E5F7F4FDB
:10FA8000D801C7010296A11DB11DC05EDE4F88835B
:10FA90009983AA83BB83C052D14022503040F1F6F3
:10FAA00036C0C05EDE4F288139814A815B81C052F9
:10FAB000D1400894C108D108760100E010E0089414
:10FAC000C11CD11C0894E11CF11C011D111DE20E8A
:10FAD000F31E041F151F21BDBB27A52F942F832FB5
:10FAE00082BD2F5F3F4F4F4F5F4FF89A80B5DB01CC
:10FAF0008D93BD012E153F054007510761F7C05E8C
:10FB0000DE4F288339834A835B83C052D1409601FC
:10FB10002D5F3F4FFB01108204C080EC8A8322E0FE
:10FB200030E08BE18093C6008091C00086FFFCCF5F
:10FB30008091C00080648093C000C15DDE4FF88179
:10FB4000CF52D140F093C6008091C00086FFFCCF19
:10FB50008091C00080648093C000432F3093C60022
:10FB60008091C00086FFFCCF8091C00080648093AC
:10FB7000C000922F2093C6008091C00086FFFCCF6A
:10FB80008091C00080648093C0008EE08093C600A6
:10FB90008091C00086FFFCCF8091C000806480937C
:10FBA000C00065E1C15DDE4FE880CF52D1406E25D7
:10FBB00069276427FE01319610C090819093C6009A
:10FBC0008091C00086FFFCCF31968091C000806498
:10FBD0008093C0006927215030402115310569F715
:10FBE0006093C6008091C00086FFFCCF8091C0006A
:10FBF00080648093C00085B1805885B9772081F4F6
:10FC0000C15DDE4F0881CF52D1400F5FC15DDE4F35
:10FC10000883CF52D14090E0A0E0B0E00D941AF4F8
:10FC200027982F9880E090E020ED37E0F901319798
:10FC3000F1F7019684369105C9F700008091C00064
:10FC40008D7F8093C00081E180935700E895EE2777
:10FC5000FF270994FFCF90E00D941AF497FB092E2B
:10FC600007260AD077FD04D02ED006D000201AF443
:10FC7000709561957F4F0895F6F7909581959F4F08
:10FC80000895A1E21A2EAA1BBB1BFD010DC0AA1FDD
:10FC9000BB1FEE1FFF1FA217B307E407F50720F0F5
:10FCA000A21BB30BE40BF50B661F771F881F991F70
:10FCB0001A9469F760957095809590959B01AC01B9
:10FCC000BD01CF010895AA1BBB1B51E107C0AA1FAC
:10FCD000BB1FA617B70710F0A61BB70B881F991FED
:10FCE0005A95A9F780959095BC01CD010895F99991
:10FCF000FECF92BD81BDF89A992780B50895262F31
:10FD0000F999FECF1FBA92BD81BD20BD0FB6F89400
:0EFD1000FA9AF99A0FBE01960895F894FFCF63
:00000001FF
