:100000000C9465010C9496010C9496010C94960145
:100010000C9496010C9496010C9496010C94960104
:100020000C9496010C9496010C9496010C949601F4
:100030000C9496010C9496010C9496010C949601E4
:100040000C9496010C9496010C9496010C949601D4
:100050000C9496010C9496010C9496010C946912E0
:100060000C9496010C94DD120C94B3120C9496012E
:100070000C9496010C9496010C9496010C949601A4
:100080000C9496010C9496010C9496010C94960194
:100090000C9496010C9496010C9496010C94960184
:1000A0000C9496010C9496010C9496010C94960174
:1000B0000C9496010C9496010C9496010C94960164
:1000C0000C9496010C9496010C9496010C94960154
:1000D0000C9496010C9496010C9496010C94960144
:1000E0000C9496010C94C8010C942F0B0C94C00135
:1000F0000C94F7010C94F6010C94700E0C946409A6
:100100000C94B6010C949B0A0C94E9010C94DF0A40
:100110000C94C90A0C94D1010C94520E0C94EA036D
:100120000C948E0E0C94310A0C9407030C940D0B56
:100130000C949D030C94D5010C945D0B0C94BC01A4
:100140000C948B0B0C944F0A0C94ED010C94F40E50
:100150000C94CB010C94DB010C94F1010C9434034E
:100160000C941B0E0C94C4010C94830A0C94E301B0
:100170000C94360F0C9457030C9443030C94160FF5
:100180000C94AB0A0C94E20E0C94DF010C94FB016E
:100190000C94A3130C94A40E0C94650A0C94760989
:1001A0000C94C20E0C94650300002100240027006B
:1001B0002A002D0030003300010100000401070176
:1001C0000A0100002200250028002B002E0031002B
:1001D000340002010000050108010B0100002000AD
:1001E0002300260029002C002F003200000100000F
:1001F00003010601090105050505070508080808AA
:10020000020202020A0A08080404040401010101AE
:1002100001010101030303030303030304070707A9
:100220000C0C0C0C0C0C0C0C02020202060606064E
:10023000060606060B0B0B0B0B0B0B0B010210201B
:10024000200808102040102040800201020108040C
:1002500002010102040810204080804020100804A0
:1002600002018004020180402010080402010804F9
:10027000020101020408102040800102040810203D
:10028000408000000A0B02090C0D0E080703040150
:10029000000000000000000000000000000000005E
:1002A000000000000000000000000000000012112B
:1002B000100000000000000000000000000000002E
:1002C0000000000000000000A31311241FBECFEFA8
:1002D000D1E2DEBFCDBF00E00CBF1AE0A0E0B2E08B
:1002E000E2E5F0E300E00BBF02C007900D92A435F9
:1002F000B107D9F72DE0A4E5BAE001C01D92AD38F1
:10030000B207E1F711E0C5E6D1E000E006C02197B1
:100310000109802FFE010E940418C436D10780E035
:100320000807A9F70E9421140C9427180C940000C8
:100330008150823108F05AC0E82FF0E08827EC5550
:10034000FE4F8F4F0C940418C401C801B601BC01C4
:10035000C001F601CB01D101D501DB01DF01E301D1
:10036000E901ED01F601F101F701FB018091800047
:100370008F77809380000895809180008F7DF9CFE2
:1003800080918000877FF5CF84B58F7784BD0895F5
:1003900084B58F7DFBCF8091B0008F778093B000C4
:1003A00008958091B0008F7DF9CF809190008F7774
:1003B000809390000895809190008F7DF9CF809177
:1003C0009000877FF5CF8091A0008F778093A00069
:1003D00008958091A0008F7DF9CF8091A000877F44
:1003E000F5CF809120018F7780932001089580912F
:1003F00020018F7DF9CF80912001877FF5CFCF93AA
:10040000DF93282F30E0F901EE57FD4F8491F90179
:10041000E45CFD4FD491F901EA50FE4FC491CC2326
:10042000A1F081110E949801EC2FF0E0EE0FFF1F68
:10043000E452FE4FA591B491EC91ED2381E090E060
:1004400009F480E0DF91CF91089580E090E0FACF49
:100450001F93CF93DF93282F30E0F901EE57FD4F24
:100460008491F901E45CFD4FD491F901EA50FE4F0B
:10047000C491CC23A9F0162F81110E949801EC2F72
:10048000F0E0EE0FFF1FEE53FE4FA591B4918FB732
:10049000F894EC91111108C0D095DE23DC938FBF46
:1004A000DF91CF911F910895DE2BF8CFCF93DF938B
:1004B00090E0FC01E45CFD4F24918A509E4FFC01CA
:1004C00084918823D1F090E0880F991FFC01E855B2
:1004D000FE4FA591B491FC01EE53FE4FC591D4910E
:1004E000623071F49FB7F8943C91822F80958323FA
:1004F0008C93E8812E2B28839FBFDF91CF910895A5
:100500008FB7F894EC912E2B2C938FBFF6CF8633B8
:1005100008F0865320917B00982F9870277F922BAC
:1005200090937B008770806480937C0080917A0038
:10053000806480937A0080917A0086FDFCCF809160
:1005400078009091790008953FB7F8948091120C4B
:100550009091130CA091140CB091150C26B5A89B8A
:1005600005C02F3F19F00196A11DB11D3FBFBA2F45
:10057000A92F982F8827BC01CD01620F711D811D05
:10058000911D42E0660F771F881F991F4A95D1F78A
:1005900008958F929F92AF92BF92CF92DF92EF9287
:1005A000FF924B015C010E94A4026B017C010E943E
:1005B000A4026C197D098E099F09683E734081056C
:1005C0009105A8F321E0821A9108A108B10888EEEC
:1005D000C80E83E0D81EE11CF11C81149104A10413
:1005E000B10429F7FF90EF90DF90CF90BF90AF90CC
:1005F0009F908F9008952FB7F89460910E0C709192
:100600000F0C8091100C9091110C2FBF0895AF9298
:10061000BF92CF92DF92EF92FF920F931F93CF93EF
:10062000DF936C017B018B01040F151FEB015E0151
:10063000AE18BF08C017D10759F06991D601ED91E6
:10064000FC910190F081E02DC6011995892B79F775
:10065000C501DF91CF911F910F91FF90EF90DF9037
:10066000CF90BF90AF900895FC01538D448D252FFE
:1006700030E0842F90E0821B930B541710F0CF963C
:10068000089501970895FC01918D828D981761F06E
:10069000A28DAE0FBF2FB11D5D968C91928D9F5F85
:1006A0009F73928F90E008958FEF9FEF0895FC0164
:1006B000918D828D981731F0828DE80FF11D858D17
:1006C00090E008958FEF9FEF0895FC01918D228DAA
:1006D000892F90E0805C9F4F821B91098F7399272F
:1006E000089586E19CE00E94650321E0892B09F4CE
:1006F00020E0822F0895FC01A48DA80FB92FB11D11
:10070000A35ABF4F2C91848D90E001968F73992747
:10071000848FA689B7892C93A089B1898C91837025
:1007200080648C93938D848D981306C00288F3891E
:10073000E02D80818F7D80830895EF92FF920F934B
:100740001F93CF93DF93EC0181E0888F9B8D8C8D7D
:1007500098131AC0E889F989808185FF15C09FB771
:10076000F894EE89FF896083E889F9898081837034
:10077000806480839FBF81E090E0DF91CF911F91E3
:100780000F91FF90EF900895F62E0B8D10E00F5F04
:100790001F4F0F731127E02E8C8D8E110CC00FB6DA
:1007A00007FCFACFE889F989808185FFF5CFCE0172
:1007B0000E947B03F1CFEB8DEC0FFD2FF11DE35A6F
:1007C000FF4FF0829FB7F8940B8FEA89FB898081F5
:1007D0008062CFCFCF93DF93EC01888D8823B9F06F
:1007E000AA89BB89E889F9898C9185FD03C080813C
:1007F00086FD0DC00FB607FCF7CF8C9185FFF2CFB9
:10080000808185FFEDCFCE010E947B03E9CFDF9190
:10081000CF91089580E090E0892B29F00E94710328
:1008200081110E94000080E090E0892B49F080E077
:1008300090E0892B29F00E94000081110E940000A5
:1008400080E090E0892B49F080E090E0892B29F04E
:100850000E94000081110E94000080E090E0892B3E
:1008600049F080E090E0892B29F00E94000081117E
:100870000C9400000895CF93DF93A091870BB09163
:10088000880BAD01445D5D4F2AE83BE090E080E0DD
:10089000E901C80FD91FBC016A0F7B1FFA01E80FDD
:1008A000F91F603D71052CF0FC01E05DF109E40FDA
:1008B000F51F6081688301968031910549F74053A7
:1008C0005F4F205F3F4F8CE02A303807F9F6DF9109
:1008D000CF9108950E943B048091870B9091880BE3
:1008E00001968F3C910529F09093880B8093870B9C
:1008F00008951092880B1092870B0895CF93DF9381
:100900009C01215031092D30310560F46D51754F36
:10091000FB01E059FF4F81E080836F587F4FFB015F
:10092000808398C09C012E5031092D303105A8F4E8
:100930009B012D51354FF901E059FF4F81E0808334
:100940006C51754FFB01E059FF4F8083205A3F4F98
:10095000F9018083605A7F4FE2CF9C012B5131090E
:100960002D303105E8F49B012D51354FF901E05947
:10097000FF4F81E080836C51754FFB01E059FF4FC1
:100980008083F901E05AFF4F8083FB01E05AFF4F5B
:100990008083205B3F4FF9018083605B7F4FBFCF37
:1009A0009C01285231092D30310528F59B012D512C
:1009B000354FF901E059FF4F81E080836C51754F4D
:1009C000FB01E059FF4F8083F901E05AFF4F80831C
:1009D000FB01E05AFF4F8083F901E05BFF4F80830A
:1009E000FB01E05BFF4F8083205C3F4FF901808378
:1009F000605C7F4F94CF9C01255331092D30310528
:100A000060F5FB01ED51F54FDF01A059BF4F81E0CB
:100A10008C936C51754FDB01A059BF4F8C93DF0154
:100A2000A05ABF4F8C93DB01A05ABF4F8C93DF01BC
:100A3000A05BBF4F8C93DB01A05BBF4F8C93DF01AA
:100A4000A05CBF4F8C93DB01A05CBF4F8C9380AB4D
:100A5000FB0180ABDF91CF9108959C0122543109B5
:100A60002D30310578F5DB01AD51B54FFD01E05971
:100A7000FF4F81E08083FB01EC51F54FEF01C0593E
:100A8000DF4F8883ED01C05ADF4F8883EF01C05AE2
:100A9000DF4F8883ED01C05BDF4F8883EF01C05BD0
:100AA000DF4F8883ED01C05CDF4F8883EF01C05CBE
:100AB000DF4F8883D0968C93D09780AB90968C93A1
:100AC00080A3C8CF9C012F5431092D30310598F5F2
:100AD000DB01AD51B54FFD01E059FF4F81E080834F
:100AE000FB01EC51F54FEF01C059DF4F8883ED0159
:100AF000C05ADF4F8883EF01C05ADF4F8883ED0172
:100B0000C05BDF4F8883EF01C05BDF4F8883ED015F
:100B1000C05CDF4F8883EF01C05CDF4F8883D096D5
:100B20008C93D09780AB90968C93909780A350969F
:100B30008C93808B8FCF8C559109099708F08ACFC1
:100B4000DB01AD51B54FFD01E059FF4F81E08083DE
:100B5000FB01EC51F54FEF01C059DF4F8883ED01E8
:100B6000C05ADF4F8883EF01C05ADF4F8883ED0101
:100B7000C05BDF4F8883EF01C05BDF4F8883ED01EF
:100B8000C05CDF4F8883EF01C05CDF4F8883D09665
:100B90008C93D09780AB90968C93909780A350962F
:100BA0008C935097808B8C93BBCE83EE9AE030E091
:100BB00020E0FC01E20FF31F10822F5F3F4F203136
:100BC0003105B9F740962BE08336920781F70895F7
:100BD00083E69AE030E020E0FC01E20FF31F408161
:100BE000413009F410822F5F3F4F20313105A1F7CA
:100BF00040962AE0833E920769F708951092640BAD
:100C00001092630B1092620A1092610A1092790B93
:100C10001092780B83E090E09093010280930002A1
:100C20001092760B1092750B1092700B10926F0B46
:100C30001092770B1092820B10926E0B1092690B30
:100C400010920A0C0C94E80520916F0B3091700BF8
:100C50004091750B5091760BC9010196BA016F5FF7
:100C60007F4FDA011296E091770BF4E0220F331FE9
:100C7000FA95E1F7F4E0880F991FFA95E1F72D5105
:100C8000354FEE2391F0F901EA0FFB1F10828D51D1
:100C9000954FA80FB91F1C92680F791FFB01108296
:100CA000840F951FFC0110820895F901E40FF51FD0
:100CB00010828D51954F480F591FFA011082680F0D
:100CC000791FFB011082A80FB91F1C920895CF93C2
:100CD00080916F0B9091700B2091750B3091760B7A
:100CE000DC011196A9014F5F5F4FB9016E5F7F4F25
:100CF000F091770BE4E0880F991FEA95E1F7C4E0E3
:100D0000AA0FBB1FCA95E1F78D51954FFF23A9F09C
:100D1000FC01E60FF71F91E09083FD01ED51F54FC7
:100D20006E0F7F1FDB019C934E0F5F1FDA019C93B8
:100D3000E20FF31F9083CF910895FC01E20FF31FA0
:100D4000C1E0C083CD018D51954F280F391FF901A6
:100D5000C083480F591FDA01CC93860F971FFC01FF
:100D6000C083E9CF4F925F926F927F928F929F9252
:100D7000AF92BF92CF92DF92EF92FF920F931F93A9
:100D8000CF93DF931F921F92CDB7DEB78C014983BB
:100D90002A83660F771FF801EA5AFF4FE080F1803F
:100DA000EE0CFF1CF801CF01801B910B8E159F05E7
:100DB00014F41192F8CF8981F801E60FF71F8183AF
:100DC0008A818083680184E5C80ED11C60E0F60149
:100DD00080810E9428025801F2E5AF0EB11C480143
:100DE00080E5880E911C1E141F040CF5E1E0EE1A3C
:100DF000F108F801EE0DFF1D6080F5015080F4014F
:100E0000408088E0782E662D661F6627661F842D39
:100E10000E942802660C61E0852D0E94280260E095
:100E2000852D0E9428027A947110EDCFDCCF61E00D
:100E3000F60180810F900F90DF91CF911F910F915C
:100E4000FF90EF90DF90CF90BF90AF909F908F90EA
:100E50007F906F905F904F900C942802E0E8F0E054
:100E600002C0F595E7954A95E2F7DC01A60FB71F9A
:100E700050963C915097222361F0E32B5096EC93CF
:100E8000509741E0460F50962C9170E060E00C9432
:100E9000B206E095E323F2CF8F929F92AF92BF927A
:100EA000CF92DF92EF92FF920F931F93CF93DF9336
:100EB00043EEE42E4AE0F42ED0E0C0E010E000E083
:100EC00080918B0D90918C0D1816190674F421E009
:100ED000F701E00FF11F8081813009F020E0A801C7
:100EE000BE0185E39DE00E942E070F5F1F4F083073
:100EF000110531F7219680E1E80EF11CC830D105CB
:100F0000E9F693E0E92EF12C23ECC22ED12C3BE242
:100F1000A32E31E1B32E83EE882E8AE0982ECEE107
:100F200008E010E0F401E00FF11F8081813089F5C5
:100F300060E08C2F0E94280261E0D0E2D00F8D2F5C
:100F40000E942802C5010197F1F761E08C2F0E94F1
:100F5000280260E08D2F0E9428020F5F1F4F003192
:100F6000110501F7CF5F80E1880E911CC632C1F6F2
:100F700081E0E81AF10879F6DF91CF911F910F9186
:100F8000FF90EF90DF90CF90BF90AF909F908F90A9
:100F90000895C6010197F1F7E0CFCF92DF92EF926B
:100FA000FF921F93CF93DF937C016B01EB0183E0F2
:100FB000CC0FDD1F8A95E1F76096CE0DDF1D11E0A5
:100FC000199220E0412FB601C7010E94B2061F5FAF
:100FD0001930B1F7DF91CF911F91FF90EF90DF9023
:100FE000CF900895FC0101900020E9F73197AF01FF
:100FF000481B590BBC0186E19CE00C940703CF937E
:10100000DF930E94F207EC018EEB98E00E94F2075A
:101010008C0F9D1FDF91CF9108958F929F92AF9279
:10102000BF92CF92DF92EF92FF920F931F93CF93D5
:10103000DF93CDB7DEB7A1970FB6F894DEBF0FBE32
:10104000CDBF6C01990FEE08FF08F7FE47C06DE2B7
:1010500086E19CE00E949D038C0122273327A90191
:101060002C193D094E095F0919A2CE0181967C0118
:101070009AE0892E912CA12CB12CCA01B901A501AD
:1010800094010E94BF17605DF70162937F012115F3
:1010900031054105510589F790E080E0309719F05E
:1010A000CF010E94F207080F191F8EEB98E00E94F3
:1010B000F207800F911FA1960FB6F894DEBF0FBE06
:1010C000CDBFDF91CF911F910F91FF90EF90DF90F7
:1010D000CF90BF90AF909F908F900895A7019601F9
:1010E00019A28E010F5D1F4F8AE0C82ED12CE12C72
:1010F000F12CCA01B901A70196010E94BF17605DDA
:10110000F80162938F01211531054105510589F7D9
:10111000309729F0CF010E94F2078C01C6CF10E072
:1011200000E0C3CFCF92DF92EF92FF920F931F9315
:10113000CF93DF9333EEE32E3AE0F32E10E000E09E
:1011400045E0C42ED12CD0E0C0E0F701EC0FFD1F2C
:1011500080818130A9F58091750B9091760BC8172D
:10116000D90774F102968C179D0754F180916F0B8B
:101170009091700B081719071CF19C012F5F3F4FCE
:1011800020173107ECF0029797FD30C09093700B59
:1011900080936F0B80910002909101020E940D08D4
:1011A00080910002909101028230910524F1019713
:1011B00090930102809300020E9467060E944C07F0
:1011C0002196C031D10509F60F5F1F4F80E1E80E6F
:1011D000F11C0830110509F0B6CFDF91CF911F91B6
:1011E0000F91FF90EF90DF90CF9008951092700BC9
:1011F00010926F0BCFCF0E94D5058091540A909129
:10120000550AFC01EE0FFF1FEA5AF54F2091610AC3
:101210003091620A318320830196B6010E94F01753
:101220009093550A8093540A81EC98E00E94FF073E
:1012300010920A0C0E94FE0510920C0C10920B0CDE
:10124000BFCF2F923F924F925F926F927F928F9279
:101250009F92AF92BF92CF92DF92EF92FF920F9345
:101260001F93CF93DF9300D0CDB7DEB780910A0CE8
:10127000811104C00E9402100E944C0720910A0CA8
:101280002983222309F402C38091820B811171C248
:10129000E091630BF091640BEE30F10508F061C250
:1012A0008827EA5AF64F8F4F0C9404186409760980
:1012B000310A4F0A650A830A9B0AAB0AC90ADF0A88
:1012C0000D0B2F0B5D0B8B0B81E080930A0B809332
:1012D0003A0B8093FB0A80930B0B80931B0B80933C
:1012E0002B0B80933B0B80933C0B1DC081E08093C4
:1012F000F90A8093FA0A8093FB0A8093FC0A809390
:101300000C0B80931C0B8093190B80931A0B80930A
:101310001B0B8093390B80933A0B80933B0B80938C
:101320003C0B8093290B0E944C070E94FB0200910A
:101330007E0B10917F0B2091800B3091810B601BF5
:10134000710B820B930B603D77408105910508F48A
:1013500010C20E94FB0260937E0B70937F0B809300
:10136000800B9093810B81E08093820B0E94D505C6
:101370006090630B7090640B63E0660E711C8AEEE4
:1013800098E00E94FF07C3010E940D0810E000E0F2
:10139000061517050CF0EDC10E9435176B017C0195
:1013A0000E9435174B015C010E9435171B012C016F
:1013B000C501B40124E030E040E050E00E948D1708
:1013C0006F5F7F4F8F4F9F4FE8E0F0E0E61BF70B1A
:1013D000FB83EA83C201B10122E030E040E050E04B
:1013E0000E948D174B015C01FFEF8F1A9F0AAF0A15
:1013F000BF0AC701B6012EE030E040E050E00E9495
:101400008D1761507109CB01880D991D6EE070E058
:101410000E94F01701962A813B8144E0220F331F7E
:101420004A95E1F7820F931F50E040E02A813B810B
:10143000283031050CF09AC19A01280F391FF901A3
:10144000ED51F54F61E060832D59354FF90160830F
:101450002A813B812F5F3F4F3B832A83405F5F4F51
:10146000E5CF81E08093F90A8093FA0A8093FB0A22
:101470008093FC0A80930C0B80931C0B8093190BB8
:1014800080931A0B80931B0B8093390B80933C0B3A
:1014900080933A0B80933B0B80932C0B44CF81E0DD
:1014A0008093FC0A80930C0B80931C0B80933C0B65
:1014B00080932C0B8093F90A8093090B8093190B6E
:1014C00080931A0B80931B0B2ECF81E08093F90A37
:1014D0008093FA0A8093FB0A8093FC0A80931C0B8A
:1014E00080933C0B80932C0B8093090B8093190BFA
:1014F00080931A0B80931B0B8093390B80933A0BCC
:1015000080933B0B10CF81E08093F90A8093FA0A15
:101510008093FB0A8093FC0A80931C0B80933C0B06
:1015200080932C0B8093090B8093190B8093290BCC
:101530008093390B29C081E08093F90A8093FA0ADD
:101540008093FB0A8093FC0A80930C0B80931C0B06
:1015500080932C0BC8CE81E08093F90A8093FA0A1D
:101560008093FB0A8093FC0A80930C0B80931C0BE6
:1015700080933C0B80932C0B8093090B8093190B69
:101580008093390B8093290B80931A0B80931B0B4C
:10159000B5CF81E08093F90A8093FA0A8093FB0A21
:1015A0008093FC0A80930C0B80931C0B80933C0B64
:1015B00080932C0B8093090B8093190BB9CF81E09A
:1015C0008093080B8093F90A8093090B8093190B81
:1015D0008093290B8093390B8093380B80933A0BBF
:1015E0008093FB0A8093FC0A8093FD0A8093FE0A95
:1015F00080930E0B80931E0B80933E0B80932E0BDB
:1016000080930B0B80931B0B80933B0B80932B0BD6
:1016100080933C0B80933D0B86CE81E08093080B3A
:101620008093F90A8093090B8093190B8093290BFF
:101630008093390B8093380B80933A0B80930C0B7B
:101640008093FD0A80930D0B80931D0B80932D0BCF
:1016500080933D0B80933C0B80933E0B64CE81E0E6
:101660008093070B8093F80A8093080B8093180BE4
:101670008093280B8093380B8093370B8093390B22
:101680008093FB0A8093FC0A8093FD0A8093FE0AF4
:1016900080930E0B80931E0B80931B0B80931C0B6F
:1016A00080931D0B80933B0B80933C0B80933D0BF1
:1016B00080933E0B80932B0B36CE81E08093070BFB
:1016C0008093F80A8093080B8093180B8093280B63
:1016D0008093380B8093370B8093390B8093FB0AF0
:1016E0008093FC0A8093FD0A8093FE0A80930E0B80
:1016F00080931E0B80931B0B80931C0B80931D0B00
:1017000080933B0B80933C0B80933D0B80933E0B6F
:1017100080932E0B08CE81E08093070B8093F80A0C
:101720008093080B8093180B8093280B8093380BC1
:101730008093370B8093390B8093FE0A80930E0BB6
:1017400080931E0B80933E0B80932E0B8093FB0A9D
:1017500080930B0B80931B0B80931C0B80931D0BB2
:10176000E2CD83ED98E00E94FF07DDCD0F5F1F4FB4
:101770000FCE8091820B882309F47AC00E94FB026D
:1017800000917A0B10917B0B20917C0B30917D0B9B
:101790006B017C01C01AD10AE20AF30A2091780B8E
:1017A0003091790B032E000C440B550B215031095D
:1017B00041095109A6EABFEF0E94BA172FE030E0B5
:1017C00040E050E00E948D172C593F4F4F4F5F4F24
:1017D000C216D306E406F506D4F00E94FB0260931D
:1017E0007A0B70937B0B80937C0B90937D0B809195
:1017F000750B9091760B2091770B222309F45FC033
:10180000019797FD59C09093760B8093750B0E94BA
:10181000FB020091710B1091720B2091730B3091B0
:10182000740B601B710B820B930B683E7340810538
:101830009105B0F00E94FB026093710B7093720BE4
:101840008093730B9093740B80916F0B9091700B3E
:1018500087309105F4F501969093700B80936F0B90
:101860000E9492080E9467060E944C070E9424066C
:1018700085E00E94FF01892B89F5809104029091F7
:101880000502019759F581E08093770B0F900F9037
:101890000F90DF91CF911F910F91FF90EF90DF900C
:1018A000CF90BF90AF909F908F907F906F905F9000
:1018B0004F903F902F9008958DE090E0A4CF019637
:1018C0008E3091050CF49FCF1092760B1092750B11
:1018D0009ECF1092700B10926F0BC2CF86E00E94C9
:1018E000FF01892B39F48091040290910502019740
:1018F00009F485C087E00E94FF01892B09F491C19A
:1019000084E00E94FF01892B09F662E370E080E029
:1019100090E00E94C90284E00E94FF01892B09F037
:10192000B5CF80916E0B91E0892780936E0B882351
:1019300009F44FC382E399E00E94FF0780916E0B88
:10194000882309F4A3CF0E94D50521E02093F40A4F
:101950002093F50A2093060B2093070B2093F80A97
:101960002093F90A2093030B2093130B2093240B4D
:101970002093350B2093460B2093470B2093380B75
:101980002093290B20931A0B20930A0B2093040B0E
:101990002093140B2093050B2093150B2093250BFC
:1019A0002093160B2093260B2093360B2093170BB6
:1019B0002093270B2093370B2093080B2093180BB1
:1019C0002093280B2093090B2093190BE091000220
:1019D000F09101023197EA30F10508F06FC28827D3
:1019E000EB50F34F8F4F0C9404181B0E520E700ED9
:1019F0008E0EA40EC20EE20EF40E160F360F80915C
:101A00006F0B9091700B6C0162E0C60ED11C0091BF
:101A1000750B1091760B0F5F1F4FF4E0880F991F25
:101A2000FA95E1F7080F191FC8018D51954F9B8357
:101A30008A83F12CE12C412C55245394ADE08A2E5D
:101A4000912CB5E0AB2EB12C98E0C916D1040CF066
:101A50007EC0EA81FB8150A28091750B9091760B3C
:101A60002091770B222391F1019797FD05C0909368
:101A7000760B8093750B04C09092760B8092750B59
:101A80000E9492080E9467060E944C070E9424064A
:101A9000FFEFCF1ADF0AEA81FB8180A9813019F4B8
:101AA0004420E9F04980EA81FB8110A264E670E0FD
:101AB00080E090E00E94C9022A813B81205F3F4F75
:101AC0003B832A8330E1E30EF11CBECF01968E30BA
:101AD00091056CF21092760B1092750BD1CF20917C
:101AE000610A3091620A2F5F3F4F3093620A209360
:101AF000610AEA81FB8110AAF801EE0DFF1DED5984
:101B0000F54F10AADF01A05CBF4F1C9250961C92AB
:101B1000E05AFF4F1082C901B5010E94F017892BCE
:101B200009F6121613060CF0BDCF809100029091B9
:101B300001028A30910534F401969093010280935A
:101B40000002B0CF88EF98E00E94FF07ABCF8EE194
:101B500099E00E94F2078091610A9091620A0E94C6
:101B60000D08A3EEBAE070E060E0D12CC12C50E08B
:101B700040E090E080E08A010D51154F7D01E80EB4
:101B8000F91EF70120812130E1F4FFEFCF1ADF0ABF
:101B900030E020E07801E80EF91E5901E4E0AA0CDB
:101BA000BB1CEA95E1F7AE0CBF1CF501B080F1E07B
:101BB000BF1203C02F5F3F4FF0CF621773070CF4C3
:101BC000B901019680319105C9F65096405F5F4F8B
:101BD0004038510571F6CD2821F0663071050CF4BE
:101BE00055CE8091630B9091640B01969093640B9A
:101BF0008093630B0E94E8051092820B0E94FB0207
:101C000060937E0B70937F0B8093800B9093810B7E
:101C10001092760B1092750B1092700B10926F0B46
:101C200035CE8091040290910502019709F068CEAB
:101C30001092770B2BCE31E030930E0B30933E0B8E
:101C40003093FF0A30930F0B30931F0B30932F0B01
:101C500030933F0B3093400B0E944C070E94FB02D5
:101C60006B017C01C0926A0BD0926B0BE0926C0B03
:101C7000F0926D0B84E00E94FF01892B09F0A6C150
:101C80008091690B81111FC191E09093690B0E94B3
:101C9000FB026093650B7093660B8093670B9093C8
:101CA000680B4CCE61E06093FD0A6093FE0A60937E
:101CB000FF0A6093000B6093100B6093200B6093FE
:101CC0001D0B60931E0B60931F0B60933D0B609385
:101CD0003E0B60933F0B6093400B60932D0BBCCF8A
:101CE00081E08093FD0A8093FE0A8093FF0A80932F
:101CF000000B8093100B8093200B80931D0B80931F
:101D00001E0B80931F0B80933D0B8093400B8093A1
:101D10003E0B80933F0B8093300B9ECF91E09093CE
:101D2000000B9093100B9093200B9093400B90938B
:101D3000300B9093FD0A90930D0B90931D0B909395
:101D40001E0B90931F0B88CFE1E0E093FD0AE09318
:101D5000FE0AE093FF0AE093000BE093200BE09370
:101D6000400BE093300BE0930D0BE0931D0BE093E1
:101D70001E0BE0931F0BE0933D0BE0933E0BE093B3
:101D80003F0B6ACFF1E0F093FD0AF093FE0AF09367
:101D9000FF0AF093000BF093200BF093400BF093AD
:101DA000300BF0930D0BF0931D0BF0932D0BF09374
:101DB0003D0BF0931E0BF0931F0BF0933E0BF09333
:101DC0003F0B4ACF21E02093FD0A2093FE0A209387
:101DD000FF0A2093000B2093100B2093200B2093DD
:101DE000300B2093400B38CF31E03093FD0A309315
:101DF000FE0A3093FF0A3093000B3093100B3093A0
:101E0000200B3093400B3093300B30930D0B3093FD
:101E10001D0B30933D0B30932D0B30931E0B3093E5
:101E20001F0B30933E0B30933F0B16CF61E0609356
:101E3000FD0A6093FE0A6093FF0A6093000B6093B3
:101E4000100B6093200B6093400B6093300B6093FA
:101E50000D0B60931D0B60933D0B60931E0B609305
:101E60001F0B60933E0B60933F0BF6CE81E0809397
:101E7000FC0A80930C0B80931C0B80932C0B80939B
:101E80003C0B8093FE0A8093FF0A8093000B8093A3
:101E9000010B80930E0B80931E0B80932E0B80936F
:101EA0003E0B8093110B8093210B8093310B809319
:101EB000410B80933F0B8093400BCECE83ED98E097
:101EC0000E94FF07C9CE8091650B9091660BA0918F
:101ED000670BB091680BC81AD90AEA0AFB0AD70146
:101EE000C60188509740A109B109853F9140A105DD
:101EF000B105B8F58FE599E00E94FF0764EF71E046
:101F000080E090E00E94C90284E00E94FF01892BDA
:101F100041F180916E0BF1E08F2780936E0B83E48B
:101F200099E00E94FF070E94D50523E63AE043EEC0
:101F30005AE090E080E0F901E80FF91F608161301C
:101F400021F4FA01E80FF91F6083019680319105B1
:101F500091F7205F3F4F405F5F4F6AE0233E3607B7
:101F600041F780EFC81A8AE0D80AE108F10895EF36
:101F7000C91691E0D906E104F10408F0DFCC80E550
:101F800099E00E94F20764EF71E080E090E00E9427
:101F9000C90284E00E94FF01892B09F4CFCC809113
:101FA0006E0BE1E08E2780936E0B85E599E00E9431
:101FB000FF0762E370E080E090E00E94C9020E94A7
:101FC000D50510920A0C0E94FE05B8CC1092690B40
:101FD000B5CC83E699E00F900F900F90DF91CF91F1
:101FE0001F910F91FF90EF90DF90CF90BF90AF9037
:101FF0009F908F907F906F905F904F903F902F9029
:102000000C94FF074F925F926F927F929F92AF92D4
:10201000BF92CF92DF92EF92FF920F931F93CF93D5
:10202000DF93D1E0C1E042E0A42EB12C54E6952E1E
:1020300044244A9463E0562E612C712CC093040B07
:10204000C093140BC093150BC093160BC093350BA4
:10205000C093E80AC093E90AC093EA0AC093EB0A66
:10206000C093EC0AC093ED0AC093F80AC093F90A32
:10207000C093FA0AC093FB0AC093FC0AC093FD0AFE
:10208000C093080BC0930A0BC0930B0BC0930C0BAF
:10209000C0930D0BC093180BC0931A0BC0931B0B6E
:1020A000C0931D0BC093280BC0932B0BC0932D0B1B
:1020B000C093380BC0933D0BC093480BC093490BA2
:1020C000C0934A0BC0934B0BC0934C0BC0934D0B6A
:1020D000C093580BC093590BC0935A0BC0935B0B22
:1020E000C0935C0BC0935D0BC093100BC093110B9E
:1020F000C0931F0BC0932F0BC093400BC093410B99
:1021000085E00E94FF01892BF1F4809104029091F7
:1021100005020197C1F486E799E00E94FF07B0929B
:102120000C0CA0920B0C0E94FB0260937E0B709330
:102130007F0B8093800B9093810BC0930A0C0E94BD
:10214000D5050E94210986E00E94FF01892B71F4C8
:102150008091040290910502019741F48AE899E088
:102160000E94FF070E94D505C093600A8091600A13
:10217000882309F474C00E94D5050091580A109173
:10218000590A8091560A9091570A080F191F809199
:102190005A0A90915B0A080F191F80915C0A90916E
:1021A0005D0A080F191F80915E0A90915F0A080F5F
:1021B000191F36E5C32E3AE0D32EF12CE12CF6019F
:1021C000219131916F01929EC001939E900D112437
:1021D000B8010E94F017CB01E114F10409F0E7C047
:1021E00061E070E0181619060CF4EBC0FFEFEF1A6F
:1021F000FF0A25E0E216F10411F70E944C0784E083
:102200000E94FF01892B59F58091040290910502EB
:10221000019729F562E370E080E090E00E94C90236
:1022200084E00E94FF01892BD1F4809102029091F9
:1022300003020197A1F40E94FB026B017C01C09292
:102240006A0BD0926B0BE0926C0BF0926D0B84E0FA
:102250000E94FF01892B09F4D4C01092690B87E01A
:102260000E94FF01892B09F024C180910402909102
:102270000502019709F01DC183EA99E00E94FF075A
:102280000E94D505E3EEFAE0D1932AE0E33FF2079E
:10229000D9F7E3E5FBE0D1938BE0ED35F807D9F70B
:1022A0000E944C0786E30E948702BC01990F880BAD
:1022B000990B24E0660F771F881F991F2A95D1F785
:1022C000A30192010E948D1779013093790B20931D
:1022D000780B87E30E9487028C0127E030E0DC0165
:1022E0000E940C18A30192010E948D172D5F3F4F91
:1022F0004F4F5F4F1093010200930002E3EEFAE0AC
:1023000090E080E08E159F050CF0C4C0D08301964C
:10231000319680319105B1F750E040E0CA01805913
:102320009F4F8D51954FFC01421753070CF0B4C0DD
:10233000D0834F5F5F4F4A30510581F70E944C07B1
:1023400084E00E94FF01892B09F0A8C00E94FB02D3
:102350000091830B1091840B2091850B3091860B9B
:10236000601B710B820B930B683B7B4081059105D1
:1023700008F498CF0E94FB026093830B7093840B48
:102380008093850B9093860B81E090E090930C0CEA
:1023900080930B0C89EB99E00E94FF078EED99E08A
:1023A0000E94FF071092890B0E94D50547CEF1E0ED
:1023B000EF16F10449F464E070E0181619060CF009
:1023C00015CF0E947E0412CF22E0E216F10439F408
:1023D00067E070E0181619060CF008CFF2CFE3E0C2
:1023E000EE16F10439F46AE070E0181619060CF0E4
:1023F000FDCEE7CF181619060CF0F8CE6DE070E0B0
:10240000E0CF8091690B81110DC0C093690B0E94D0
:10241000FB026093650B7093660B8093670B909340
:10242000680B1DCF8091650B9091660BA091670B97
:10243000B091680BC81AD90AEA0AFB0A84EEC816DA
:102440008CE0D806E104F1040CF409CF80E599E0B2
:102450000E94F20764EF71E080E090E00E94C90200
:1024600084E00E94FF01892B09F4F9CE80916E0B64
:102470008D2780936E0B85E599E00E94FF0762E34C
:1024800070E080E090E00E94C9020E94D5051092A1
:10249000600AE5CE10823BCF10824BCF0E94FB0238
:1024A0006093830B7093840B8093850B9093860BC2
:1024B000F9CEDF91CF911F910F91FF90EF90DF90B8
:1024C000CF90BF90AF909F907F906F905F904F9014
:1024D00008951F920F920FB60F9211242F933F93DE
:1024E0008F939F93AF93BF9380910E0C90910F0C9D
:1024F000A091100CB091110C30910D0C23E0230F22
:102500002D3758F50196A11DB11D20930D0C809318
:102510000E0C90930F0CA093100CB093110C8091A3
:10252000120C9091130CA091140CB091150C019603
:10253000A11DB11D8093120C9093130CA093140C49
:10254000B093150CBF91AF919F918F913F912F91B7
:102550000F900FBE0F901F90189526E8230F02963C
:10256000A11DB11DD2CF1F920F920FB60F92112451
:102570000BB60F922F933F934F935F936F937F937D
:102580008F939F93AF93BF93EF93FF9386E19CE06C
:102590000E947B03FF91EF91BF91AF919F918F912B
:1025A0007F916F915F914F913F912F910F900BBE53
:1025B0000F900FBE0F901F9018951F920F920FB69D
:1025C0000F9211240BB60F922F938F939F93EF933B
:1025D000FF93E091260CF091270C8081E0912C0C68
:1025E000F0912D0C82FD1DC0908180912F0C8F5F8A
:1025F0008F732091300C821741F0E0912F0CF0E0A6
:10260000EA5EF34F958F80932F0CFF91EF919F918E
:102610008F912F910F900BBE0F900FBE0F901F90B8
:1026200018958081F2CF8F929F92AF92BF92CF92F6
:10263000DF92EF92FF920F931F93CF93DF938C0162
:10264000EC01C05BDF4F8BE0A82EB12CB982A882D1
:10265000480182E5880E911C8DE090E0F4019183A1
:1026600080836801F4E5CF0ED11C8AE090E0F6018A
:10267000918380837801F6E5EF0EF11C81E090E014
:10268000F7019183808361E08BE00E94560261E054
:10269000F40180810E94560261E0F60180810E946F
:1026A000560261E0F60180810E942802B982A88268
:1026B000F80170961192EC17FD07E1F7D0E0C0E049
:1026C000F70180819181C817D90784F520E04FE098
:1026D000BE01C8010E94B206F70180819181C8172E
:1026E000D90734F427E04BE0BE01C8010E94B206CE
:1026F00020E049E0BE01C8010E94B206F7018081D6
:102700009181C817D90724F4BE01C8010E94CD07E2
:10271000F70180819181C817D90734F420E04CE09B
:10272000BE01C8010E94B2062196CACFDF91CF91A7
:102730001F910F91FF90EF90DF90CF90BF90AF90DF
:102740009F908F900895CF93DF931092190C109261
:10275000180C88EE93E0A0E0B0E080931A0C909300
:102760001B0CA0931C0CB0931D0C80EB98E0909375
:10277000170C8093160C85EC90E09093230C8093BB
:10278000220C84EC90E09093250C8093240C80EC38
:1027900090E09093270C8093260C81EC90E090932E
:1027A000290C8093280C82EC90E090932B0C809362
:1027B0002A0C86EC90E090932D0C80932C0C1092B8
:1027C0002F0C1092300C1092310C1092320C81E0D0
:1027D00090E09093140D8093130DE8E1F2E0A5E1F1
:1027E000BDE0C8E0D2E0819191918D939D93899154
:1027F00099911F969C938E931E9782E0E832F8077A
:1028000091F78BEB9CE00E9413138BEB9CE0909371
:10281000B80C8093B70C83E19DE09093BA0C809341
:10282000B90C0E94FB026093B30C7093B40C8093BC
:10283000B50C9093B60C85E39DE0DF91CF910C949D
:102840001313CF93DF93CDB7DEB7C458D1090FB6BA
:10285000F894DEBF0FBECDBF789484B5826084BD8E
:1028600084B5816084BD85B5826085BD85B5816094
:1028700085BD80916E00816080936E001092810012
:1028800080918100826080938100809181008160CD
:10289000809381008091800081608093800080918E
:1028A000B10084608093B1008091B000816080931A
:1028B000B00080919100826080939100809191009E
:1028C000816080939100809190008160809390005E
:1028D0008091A10082608093A1008091A10081601D
:1028E0008093A1008091A00081608093A0008091DE
:1028F0002101826080932101809121018160809378
:1029000021018091200181608093200180917A00D3
:10291000846080937A0080917A00826080937A004C
:1029200080917A00816080937A0080917A0080683B
:1029300080937A001092C100E091260CF091270C50
:1029400082E08083E091220CF091230C1082E091D0
:10295000240CF091250C8FEC808310922E0CE091CA
:102960002A0CF0912B0C86E08083E091280CF091EA
:10297000290C808180618083E091280CF091290CE2
:10298000808188608083E091280CF091290C8081FF
:1029900080688083E091280CF091290C80818F7DE4
:1029A0008083E090B90CF090BA0C87010E5F1F4F46
:1029B00022E1E20EF11CD8018C910E5F1F4F61E005
:1029C0000E94560261E0F80186850E9456020E15AB
:1029D0001F0589F78091B70C9091B80CFC01EA5A59
:1029E000FF4F208131811216130634F421E04CE0B0
:1029F00070E060E00E94B2068091B70C9091B80C34
:102A0000FC01EA5AFF4F208131811216130634F47B
:102A100028E04AE070E060E00E94B2068091B70CC6
:102A20009091B80CFC01EA5AFF4F208131811216B7
:102A3000130624F470E060E00E94CD070E946A044F
:102A400062E085E00E94560262E086E00E94560243
:102A500062E087E00E94560262E084E00E94560233
:102A60009E012F573F4FCF57DF4F39832883C158DF
:102A7000D040812C912C54018A9480910B0C909120
:102A80000C0C009709F092C180910B0C90910C0CEA
:102A9000892B09F096C184E00E94FF01892B09F07F
:102AA0003CC10E94FB020091830B1091840B20918A
:102AB000850B3091860B601B710B820B930B603D75
:102AC000774081059105D0F00E94FB026093830B53
:102AD0007093840B8093850B9093860B41E050E0BC
:102AE00050930C0C40930B0C89EB99E00E94FF076C
:102AF0008FEF99E00E94FF071092890B86E00E94F9
:102B0000FF01892B81F480910602909107020197C1
:102B100051F48091890B51E085278093890B80E2E5
:102B20009AE00E94FF0785E00E94FF0186E00E9474
:102B3000FF01909307028093060287E00E94FF0145
:102B4000909305028093040284E00E94FF01909319
:102B50000302809302024AE85BE03E0181E4680ED2
:102B6000711CDE0111966D01BD019301FA0190E027
:102B700080E0D901A80FB91FF084FC927B01E80E18
:102B8000F91E10813196D7011C930196883091056A
:102B900081F7405F5F4F285F3F4F685F7F4FCF57A0
:102BA000DF4FE881F981C158D0402E173F07F1F679
:102BB000F12CE12C10E000E08091B70C9091B80C62
:102BC000FC01EA5AFF4F208131811216130644F4AA
:102BD000F601E00FF11F2081A801B7010E942E0726
:102BE0000F5F1F4F0830110539F7FFEFEF1AFF0A8B
:102BF00028E0C20ED11C38E0E316F104D9F60091AA
:102C0000B90C1091BA0CA801405F5F4FCD57DF4F50
:102C100059834883C358D0402801180152E2250E39
:102C2000311C60E0D20112968C910E94280273013F
:102C3000B8E0EB0EF11C6801F30181913F0188239C
:102C400031F061E0D60152968C910E942802B2E0E8
:102C5000CB0ED11C6E147F0479F761E070E080E048
:102C600090E00E94C90261E0F20182810E94280284
:102C70007801F2E1EF0EF11CD7018C91B2E0EB0E7E
:102C8000F11C60E00E9428022E143F04A9F7E2E044
:102C90004E0E511CCD57DF4F28813981C358D0408B
:102CA0002415350509F0BDCFC090B30CD090B40CFD
:102CB000E090B50CF090B60C8091890B811138C072
:102CC0000E94FB029B01AC012C193D094E095F09D2
:102CD00069017A0187E30E9487022CE330E0DC017E
:102CE0000E940C18A50194010E948D17285D3F4F8A
:102CF0004F4F5F4F2C153D054E055F0508F0C4CEC4
:102D00000E94FB026093B30C7093B40C8093B50CDB
:102D10009093B60C0E946A04B7CE0E94FB026093A7
:102D2000830B7093840B8093850B9093860BE6CE78
:102D30000E94FB029B01AC012C193D094E095F0961
:102D400069017A0187E30E9487022CE330E0DC010D
:102D50000E940C18A50194010E948D17285D3F4F19
:102D60004F4F5F4F2C153D054E055F0508F08CCE8B
:102D70000E94FB026093B30C7093B40C8093B50C6B
:102D80009093B60C0E943B048091870B9091880B26
:102D9000019728F09093880B8093870B75CE4FECAA
:102DA00050E05093880B4093870B6ECE8130910595
:102DB00059F480910A0C811104C00E9402100E94F3
:102DC0004C070E940A0459CE0297D9F70E942109A4
:102DD000F8CF8F929F92AF92BF92CF92DF92EF92F5
:102DE000FF92CF93DF93EC01688179818A819B8187
:102DF000611571058105910521F464E279ED8BE59A
:102E000097E02DE133EF41E050E00E948D1749013A
:102E10005A019B01AC01A7EAB1E40E94AC176B0117
:102E20007C01ACEEB4EFA50194010E94BA17C60E66
:102E3000D71EE81EF91EF7FE06C081E0C81AD108A9
:102E4000E10880E8F80AC882D982EA82FB82C701D9
:102E5000B6019F77DF91CF91FF90EF90DF90CF90F9
:102E6000BF90AF909F908F9008958F929F92AF9256
:102E7000BF92CF92DF92EF92FF9260912802709101
:102E8000290280912A0290912B026115710581051A
:102E9000910521F464E279ED8BE597E02DE133EFC4
:102EA00041E050E00E948D1749015A019B01AC019D
:102EB000A7EAB1E40E94AC176B017C01ACEEB4EF61
:102EC000A50194010E94BA17C60ED71EE81EF91E6E
:102ED000F7FE06C081E0C81AD108E10880E8F80AC8
:102EE000C0922802D0922902E0922A02F0922B028C
:102EF000C701B6019F77FF90EF90DF90CF90BF9012
:102F0000AF909F908F90089560932802709329024C
:102F100080932A0290932B020895052E97FB1EF4AE
:102F200000940E94A41757FD07D00E94BF1707FC0A
:102F300003D04EF40C94A4175095409530952195EC
:102F40003F4F4F4F5F4F08959095809570956195D5
:102F50007F4F8F4F9F4F08950E94E117A59F900DBF
:102F6000B49F900DA49F800D911D11240895B7FF6B
:102F70000C94AC170E94AC17821B930B0895A1E22E
:102F80001A2EAA1BBB1BFD010DC0AA1FBB1FEE1FE3
:102F9000FF1FA217B307E407F50720F0A21BB30B2E
:102FA000E40BF50B661F771F881F991F1A9469F7AA
:102FB00060957095809590959B01AC01BD01CF0106
:102FC0000895A29FB001B39FC001A39F700D811D02
:102FD0001124911DB29F700D811D1124911D089522
:102FE00097FB072E16F4009407D077FD09D00E94B6
:102FF000131807FC05D03EF4909581959F4F0895D6
:10300000709561957F4F0895EE0FFF1F881F8BBF4E
:103010000790F691E02D19940E94E117B7FF0895EB
:10302000821B930B0895AA1BBB1B51E107C0AA1F6B
:10303000BB1FA617B70710F0A61BB70B881F991F59
:103040005A95A9F780959095BC01CD010895F89403
:02305000FFCFB0
:103052000100010001000100280029002A002B00C4
:103062002C002D002E002F001E001F00200021002A
:1030720022002300240025000100000000000000BF
:103082000000000000010101010101010000010135
:103092000101010101010000000101010000000025
:1030A200000000000000000000000000000000001E
:1030B2000000010101010101010100000000000006
:1030C20000000000000101010101010100000001F6
:1030D20001010101000000010101010101010000E3
:1030E20000010101010100000000000001010000D7
:1030F20000000000000000000000010101010101C8
:1031020001000001010000000001010001010101B4
:1031120001010100000001010101010100000000A4
:103122000101000000000101000101000000000196
:10313200010001010101010101010001010101017F
:103142000101010000000101000000000001010175
:103152000101010000010101010101010100010160
:103162000101010101010001010101010000000052
:10317200000000000000000000000000000000004D
:103182000000010101010101010100000000000035
:103192000000000000010101010101010000010124
:1031A2000101010101000001010101010101000011
:1031B2000101010101010100000001010000000004
:1031C20000000000010100000000010101010101F5
:1031D20001010001010000000001010001010101E3
:1031E20001010101000101010101010101000000D1
:1031F20001010100000101010001010000000001C4
:1032020001000101010101010101000101010101AE
:1032120001010100000000000101000000010101A4
:103222000101010000010100000000010100010193
:103232000000000001010000000001010000000088
:10324200000000000000000000000000000000007C
:10325200000000000001010000000000000000006A
:103262000000000000000000000001010000010158
:103272000000000101000000000000000101000048
:103282000000000000010100000101000000000038
:103292000000000100000100000001010000000028
:1032A2000101000101000000000101000101000014
:1032B2000000010100010100000000010100000006
:1032C20000010101010101000001010000000001F3
:1032D20001000000000101000000000000000101E7
:1032E20000000000000000000001010000010100D8
:1032F20000010100000101000000000101000101C4
:1033020000000000010100000000010100000000B7
:10331200010101010101010100000101000001019F
:103322000000000000010100000000010101010194
:103332000101010000000000000001010000010184
:103342000000000101000000000000000101000077
:103352000000010101010100010000000000000065
:103362000000000100000100000001010000000057
:103372000101000101000000000101000101000043
:103382000000010100010100000000010100000035
:103392000000010101010000000001010000010123
:1033A2000000000000010100000000000000010117
:1033B2000000000000000000000000010001010107
:1033C20001010100000101010101010100000101EF
:1033D20001010101010100000000010100000000E3
:1033E20001010101010101010000010100000101CF
:1033F20000000000000101000000000101010101C4
:1034020001010100000101010101010100000101AE
:1034120000000001010000010101010101010000A1
:103422000000010101010100010000000000000094
:103432000000000001010100000001010101010181
:103442000100000101000000000101000101010171
:103452000101010100010100000000010100000062
:103462000000010101010000000001010000010152
:103472000000000000010100000000000000010146
:103482000000000000000000000000010001010136
:10349200010101000001010101010101010001011D
:1034A2000101010101010000000001010000000012
:1034B2000000000000000000000001010000010106
:1034C20000000101000101000000000000000000F6
:1034D20000000000000101000000000000000101E6
:1034E20000000001010000010100000000000000D6
:1034F20000000000000101000001010000000000C6
:1035020000000000000001000000010101010101B2
:10351200010100010100000000010100010101019F
:103522000101010000010100000000010100000092
:10353200000101010101010000000101000001017F
:103542000000000000010100000000000000010175
:103552000000000000000000000101000001010065
:103562000000000000010100000000010100010153
:10357200000000000101000101010101010101003F
:103582000000000000000000000000010101010035
:103592000000010101010100000000000000000024
:1035A2000000000000010101010101010000010110
:1035B20001010101010000010101010101010000FD
:1035C20001010101010101000000010100000000F0
:1035D20000000001000001000000010100000000E5
:1035E20001010001010101010101010001010000CD
:1035F20000000000000101010101010101000000C1
:1036020001010100000101010000000101010100AE
:10361200000001010101010101010001010101019B
:103622000101010000000000010100000001010091
:103632000000000000010100000000010100010182
:10364200000000000101000101010101010101006E
:103652000000000000000000000000000101000066
:103662000000000101010000000000000000000055
:103672000000000000010101010101010000000140
:10368200010101010000000101010101010100002D
:103692000001010101010000000000000101000021
:1036A2000000000001010000000001010000000014
:1036B20001010000010101010101000001010000FE
:1036C20000000000000001010101010100000000F2
:1036D20001010000000001010000000001010000E2
:1036E20000000101010101010101000101010101CB
:1036F20001010100000001010000000000000000C3
:103702009D0307033403EA036503430357030D0ACA
:10371200005961206E6F207469656E652076696458
:103722006173005961206E6F20686179206DC3A1B9
:1037320073206E6976656C6573004E756D206F62DD
:103742006A657469766F73004C6C65676173746542
:1037520020616C206D6178696D6F206465207669E7
:10376200646173207065726D697469646F00546F6F
:103772007272657320646573747275696461733AF9
:10378200200050726F6772616D61207061757361A4
:10379200646F00444F5320534547554E444F5300E6
:1037A20054524553005452455320534547554E44B5
:1037B2004F530050726F6772616D61207265616E66
:1037C200756461646F004368616E676520746F2081
:1037D20047414D45206D6F6465004368616E6765C2
:1037E20020746F20535441544953544943206D6F00
:1037F2006465004368616E676520746F20434F4EB5
:10380200464947206D6F646500494E4954206275F0
:1038120074746F6E20776173206368616E6765648C
:1038220020746F2067616D65206D6F64650042755D
:1038320074746F6E204D6964646C652068656C6495
:1038420020666F722033207365636F6E647300426B
:103852007574746F6E204D6964646C652068656C64
:103862006420666F722032207365636F6E6473002A
:103872004368616E676520746865206D6F766520A8
:103882006F6620746865206C6F6F70207465787441
:103892002066726F6D206C65667420746F20726989
:0438A20067687400DF
:00000001FF
