:100000000C9435010C9466010C9466010C94660105
:100010000C9466010C9466010C9466010C946601C4
:100020000C9466010C9466010C9466010C946601B4
:100030000C9466010C9466010C9466010C946601A4
:100040000C9466010C9466010C9466010C94660194
:100050000C9466010C9466010C9466010C94DA040D
:100060000C9466010C944E050C9424050C946601C6
:100070000C9466010C9466010C9466010C94660164
:100080000C9466010C9466010C9466010C94660154
:100090000C9466010C9466010C9466010C94660144
:1000A0000C9466010C9466010C9466010C94660134
:1000B0000C9466010C9466010C9466010C94660124
:1000C0000C9466010C9466010C9466010C94660114
:1000D0000C9466010C9466010C9466010C94660104
:1000E0000C9466010C94D2020C94C1010C94E102B0
:1000F0000C94CB010C94A5020C9494010C949001E7
:100100000C94AF010C94A1010C948C010C94840507
:100110000C9486010C9488030C94BD010C94F50298
:100120000C94B3010C94AB010C94B9010C949B0199
:100130000C943B030C94C7010C9403030C94A5018D
:100140000C9498010C94C6010000210024002700A3
:100150002A002D00300033000101000004010701D6
:100160000A0100002200250028002B002E0031008B
:10017000340002010000050108010B01000020000D
:100180002300260029002C002F003200000100006F
:10019000030106010901050505050705080808080A
:1001A000020202020A0A080804040404010101010F
:1001B000010101010303030303030303040707070A
:1001C0000C0C0C0C0C0C0C0C0202020206060606AF
:1001D000060606060B0B0B0B0B0B0B0B010210207C
:1001E000200808102040102040800201020108046D
:1001F0000201010204081020408080402010080401
:100200000201800402018040201008040201080459
:10021000020101020408102040800102040810209D
:10022000408000000A0B02090C0D0E0807030401B0
:1002300000000000000000000000000000000000BE
:10024000000000000000000000000000000012118B
:10025000100000000000000000000000000000008E
:100260000000000000000000840511241FBECFEF35
:10027000D1E2DEBFCDBF00E00CBF18E0A0E0B2E0ED
:10028000EAE0F3E100E00BBF02C007900D92AC364C
:10029000B107D9F72AE0ACE6B8E001C01D92AD3154
:1002A000B207E1F711E0C5E3D1E000E006C0219715
:1002B0000109802FFE010E947409C433D10780E038
:1002C0000807A9F70E9473060C9483090C94000098
:1002D0008150823108F05AC0E82FF0E08827EC58AE
:1002E000FE4F8F4F0C9474099401980186018C0184
:1002F0009001C6019B01A101A501AB01AF01B301B2
:10030000B901BD01C601C101C701CB0180918000C7
:100310008F77809380000895809180008F7DF9CF42
:1003200080918000877FF5CF84B58F7784BD089555
:1003300084B58F7DFBCF8091B0008F778093B00024
:1003400008958091B0008F7DF9CF809190008F77D4
:10035000809390000895809190008F7DF9CF8091D7
:100360009000877FF5CF8091A0008F778093A000C9
:1003700008958091A0008F7DF9CF8091A000877FA4
:10038000F5CF809120018F7780932001089580918F
:1003900020018F7DF9CF80912001877FF5CFCF930A
:1003A000DF93282F30E0F901EE5DFD4F8491F901D4
:1003B000E452FE4FD491F901EA56FE4FC491CC238A
:1003C000A1F081110E946801EC2FF0E0EE0FFF1FF9
:1003D000E458FE4FA591B491EC91ED2381E090E0BB
:1003E00009F480E0DF91CF91089580E090E0FACFAA
:1003F0001F93CF93DF93282F30E0F901EE5DFD4F7F
:100400008491F901E452FE4FD491F901EA56FE4F6E
:10041000C491CC23A9F0162F81110E946801EC2F02
:10042000F0E0EE0FFF1FEE59FE4FA591B4918FB78C
:10043000F894EC91111108C0D095DE23DC938FBFA6
:10044000DF91CF911F910895DE2BF8CFCF93DF93EB
:1004500090E0FC01E452FE4F24918A569E4FFC012D
:1004600084918823D1F090E0880F991FFC01E85B0C
:10047000FE4FA591B491FC01EE59FE4FC591D49168
:10048000623071F49FB7F8943C91822F809583235A
:100490008C93E8812E2B28839FBFDF91CF91089505
:1004A0008FB7F894EC912E2B2C938FBFF6CF863319
:1004B00008F0865320917B00982F9870277F922B0D
:1004C00090937B008770806480937C0080917A0099
:1004D000806480937A0080917A0086FDFCCF8091C1
:1004E00078009091790008953FB7F8948091FA08C8
:1004F0009091FB08A091FC08B091FD0826B5A89B3F
:1005000005C02F3F19F00196A11DB11D3FBFBA2FA5
:10051000A92F982F8827BC01CD01620F711D811D65
:10052000911D42E0660F771F881F991F4A95D1F7EA
:1005300008952FB7F8946091F6087091F7088091AC
:10054000F8089091F9082FBF0895AF92BF92CF920B
:10055000DF92EF92FF920F931F93CF93DF936C0183
:100560007B018B01040F151FEB015E01AE18BF0864
:10057000C017D10759F06991D601ED91FC91019016
:10058000F081E02DC6011995892B79F7C501DF911E
:10059000CF911F910F91FF90EF90DF90CF90BF9080
:1005A000AF900895FC01538D448D252F30E0842FAA
:1005B00090E0821B930B541710F0CF96089501978B
:1005C0000895FC01918D828D981761F0A28DAE0F78
:1005D000BF2FB11D5D968C91928D9F5F9F73928FFF
:1005E00090E008958FEF9FEF0895FC01918D828D2B
:1005F000981731F0828DE80FF11D858D90E00895F8
:100600008FEF9FEF0895FC01918D228D892F90E04F
:10061000805C9F4F821B91098F73992708958EEFFD
:1006200098E00E94030321E0892B09F420E0822F47
:100630000895FC01A48DA80FB92FB11DA35ABF4F77
:100640002C91848D90E001968F739927848FA689D1
:10065000B7892C93A089B1898C91837080648C9325
:10066000938D848D981306C00288F389E02D8081D4
:100670008F7D80830895EF92FF920F931F93CF9306
:10068000DF93EC0181E0888F9B8D8C8D98131AC0CD
:10069000E889F989808185FF15C09FB7F894EE89B4
:1006A000FF896083E889F989808183708064808311
:1006B0009FBF81E090E0DF91CF911F910F91FF905C
:1006C000EF900895F62E0B8D10E00F5F1F4F0F7304
:1006D0001127E02E8C8D8E110CC00FB607FCFACFBF
:1006E000E889F989808185FFF5CFCE010E94190341
:1006F000F1CFEB8DEC0FFD2FF11DE35AFF4FF08290
:100700009FB7F8940B8FEA89FB8980818062CFCFF5
:10071000CF93DF93EC01888D8823B9F0AA89BB8938
:10072000E889F9898C9185FD03C0808186FD0DC023
:100730000FB607FCF7CF8C9185FFF2CF808185FF44
:10074000EDCFCE010E941903E9CFDF91CF9108953B
:1007500080E090E0892B29F00E940F0381110E9414
:10076000000080E090E0892B49F080E090E0892B48
:1007700029F00E94000081110E94000080E090E0BA
:10078000892B49F080E090E0892B29F00E9400003D
:1007900081110E94000080E090E0892B49F080E008
:1007A00090E0892B29F00E94000081110C94000038
:1007B0000895CF93DF93A0917008B0917108AD01B7
:1007C000405E5D4F23E738E090E080E0E901C80F2C
:1007D000D91FBC016A0F7B1FFA01E80FF91F6E3B9E
:1007E00071052CF0FC01EE5BF109E40FF51F60814F
:1007F000688301968031910549F742545F4F205F2D
:100800003F4F88E0233F3807F9F6DF91CF910895F5
:100810000E94D903809170089091710801968D3BD8
:10082000910529F0909371088093700808951092B3
:1008300071081092700808954F925F926F927F92A4
:100840008F929F92AF92BF92CF92DF92EF92FF92E0
:100850000F931F93CF93DF931F921F92CDB7DEB7F5
:100860008C0149832A83660F771FF801EA5AFF4FEC
:10087000E080F180EE0CFF1CF801CF01801B910B92
:100880008E159F0514F41192F8CF8981F801E60FB7
:10089000F71F81838A818083680184E5C80ED11C9B
:1008A00060E0F60180810E94F8015801F2E5AF0E88
:1008B000B11C480180E5880E911C1E141F040CF524
:1008C000E1E0EE1AF108F801EE0DFF1D6080F50180
:1008D0005080F401408088E0782E662D661F6627E0
:1008E000661F842D0E94F801660C61E0852D0E9430
:1008F000F80160E0852D0E94F8017A947110EDCF27
:10090000DCCF61E0F60180810F900F90DF91CF91F5
:100910001F910F91FF90EF90DF90CF90BF90AF901D
:100920009F908F907F906F905F904F900C94F80104
:10093000CF92DF92EF92FF921F93CF93DF937C01D0
:100940006B01EB0183E0CC0FDD1F8A95E1F7609628
:10095000CE0DDF1D11E0199220E0412FB601C70135
:100960000E941C041F5F1930B1F7DF91CF911F91D6
:10097000FF90EF90DF90CF900895CF93DF93FC012D
:1009800001900020E9F73197AF01481B590BBC01DA
:100990008EEF98E00E94A502EC0142E050E062E296
:1009A00078E08EEF98E00E94A5028C0F9D1FDF91EA
:1009B000CF9108951F920F920FB60F9211242F938B
:1009C0003F938F939F93AF93BF938091F60890913D
:1009D000F708A091F808B091F9083091F50823E0E4
:1009E000230F2D3758F50196A11DB11D2093F50851
:1009F0008093F6089093F708A093F808B093F9084D
:100A00008091FA089091FB08A091FC08B091FD0834
:100A10000196A11DB11D8093FA089093FB08A09345
:100A2000FC08B093FD08BF91AF919F918F913F91CA
:100A30002F910F900FBE0F901F90189526E8230F4F
:100A40000296A11DB11DD2CF1F920F920FB60F9229
:100A500011240BB60F922F933F934F935F936F9395
:100A60007F938F939F93AF93BF93EF93FF938EEFFB
:100A700098E00E941903FF91EF91BF91AF919F9170
:100A80008F917F916F915F914F913F912F910F9037
:100A90000BBE0F900FBE0F901F9018951F920F92D4
:100AA0000FB60F9211240BB60F922F938F939F9333
:100AB000EF93FF93E0910E09F0910F098081E0918F
:100AC0001409F091150982FD1DC0908180911709CC
:100AD0008F5F8F7320911809821741F0E0911709F9
:100AE000F0E0E250F74F958F80931709FF91EF9157
:100AF0009F918F912F910F900BBE0F900FBE0F9073
:100B00001F9018958081F2CFCF93DF931092010947
:100B10001092000988EE93E0A0E0B0E08093020913
:100B200090930309A0930409B093050984E198E028
:100B30009093FF088093FE0885EC90E090930B095A
:100B400080930A0984EC90E090930D0980930C093E
:100B500080EC90E090930F0980930E0981EC90E077
:100B6000909311098093100982EC90E090931309FF
:100B70008093120986EC90E09093150980931409F4
:100B800010921709109218091092190910921A0957
:100B900081E090E09093FC098093FB09E0E1F2E0B2
:100BA000ADEFB9E0C0E0D2E0819191918D939D933A
:100BB000899199911F969C938E931E9782E0E032C3
:100BC000F80791F7CBE0D0E0D093F409C093F30994
:100BD0008DE090E09093F6098093F5098AE090E02B
:100BE0009093F8098093F70981E090E09093FA09D7
:100BF0008093F90961E08BE00E94260261E0809118
:100C0000F5090E94260261E08091F7090E94260200
:100C100061E08091F7090E94F801D093F409C09334
:100C2000F309E3EBF9E083EF99E011928E179F0748
:100C3000E1F7D0E0C0E08091F9099091FA09C81776
:100C4000D907C4F520E04FE0BE0183EA99E00E9495
:100C50001C048091F9099091FA09C817D9073CF44E
:100C600027E04BE0BE0183EA99E00E941C0420E0EB
:100C700049E0BE0183EA99E00E941C048091F909D1
:100C80009091FA09C817D9072CF4BE0183EA99E0BC
:100C90000E9498048091F9099091FA09C817D90720
:100CA0003CF420E04CE0BE0183EA99E00E941C0481
:100CB0002196C1CF8BEF99E09093A00980939F0973
:100CC00083EA99E09093A2098093A1090E94990276
:100CD00060939B0970939C0980939D0990939E0952
:100CE000DF91CF910895CF93DF93CDB7DEB7C6588C
:100CF000D1090FB6F894DEBF0FBECDBF789484B58E
:100D0000826084BD84B5816084BD85B5826085BD07
:100D100085B5816085BD80916E00816080936E0095
:100D20001092810080918100826080938100809187
:100D30008100816080938100809180008160809338
:100D400080008091B10084608093B1008091B000F8
:100D500081608093B00080919100826080939100C7
:100D600080919100816080939100809190008160DA
:100D7000809390008091A10082608093A100809177
:100D8000A10081608093A1008091A0008160809388
:100D9000A000809121018260809321018091210136
:100DA00081608093210180912001816080932001E6
:100DB00080917A00846080937A0080917A008260CA
:100DC00080937A0080917A00816080937A0080918C
:100DD0007A00806880937A001092C100E0910E0939
:100DE000F0910F0982E08083E0910A09F0910B09EC
:100DF0001082E0910C09F0910D098FEC8083109224
:100E00001609E0911209F091130986E08083E091C0
:100E10001009F0911109808180618083E0911009AF
:100E2000F0911109808188608083E0911009F09130
:100E30001109808180688083E0911009F091110987
:100E400080818F7D8083E0909F09F090A0098701C9
:100E50000E5F1F4F22E1E20EF11CF80180810E5F50
:100E60001F4F61E00E94260261E0F80186850E9422
:100E700026020E151F0589F78091A1099091A209FC
:100E8000FC01EA5AFF4F208131811216130634F417
:100E900021E04CE070E060E00E941C048091A10918
:100EA0009091A209FC01EA5AFF4F2081318112166C
:100EB000130634F428E04AE070E060E00E941C046D
:100EC0008091A1099091A209FC01EA5AFF4F20816B
:100ED00031811216130624F470E060E00E94980439
:100EE0000E94080462E085E00E94260262E086E03B
:100EF0000E94260262E087E00E9426029E012F5790
:100F00003F4FCF57DF4F39832883C158D040412C02
:100F1000512C32014A948091F3089091F408019782
:100F200009F48FC186E00E94CF01892B09F03DC1F1
:100F30000E94990200916C0810916D0820916E0832
:100F400030916F08601B710B820B930B683B7B40E9
:100F500081059105D0F00E94990260936C0870930E
:100F60006D0880936E0890936F0841E050E05093B5
:100F7000F4084093F30885E298E00E94BD048AE4F7
:100F800098E00E94BD041092720885E00E94CF0193
:100F900086E00E94CF0187E00E94CF0163E778E0FE
:100FA0008E010F5B1F4FCE0101964C01AC019801E1
:100FB000FB0190E080E0F190D901A80FB91FFC92ED
:100FC000DA01A80FB91FF780FC92019688309105CD
:100FD00091F7605F7F4F285F3F4F485F5F4FCF576C
:100FE000DF4FE881F981C158D0402E173F0701F744
:100FF000E0909F09F090A0099701205F3F4FCB57E9
:10100000DF4F39832883C558D0401701A7014E5DB3
:101010005F4FCD57DF4F59834883C358D04060E0BE
:10102000F10182810E94F8015801F8E0AF0EB11C75
:101030006701F80181918F01882329F061E0F601B1
:1010400082890E94F801F2E0CF0ED11C0A151B051F
:1010500081F70E9474025B016C010E9474026A199C
:101060007B098C099D09683E734081059105A8F3B1
:1010700061E0F10182810E94F8016701F2E1CF0E87
:10108000D11CF6018081F2E0CF0ED11C60E00E94FD
:10109000F801CD57DF4F28813981C358D040C2169F
:1010A000D30679F732E0230E311CCB57DF4F48814E
:1010B0005981C558D0404215530509F0B0CF10E012
:1010C00000E0F12CE12CDD24D394D00E8091A10915
:1010D0009091A209FC01EA5AFF4F2081318112163A
:1010E0001306DCF420E830E00E2C02C0359527957D
:1010F0000A94E2F7FC01E00FF11F4089D401AE0D24
:10110000BF1D5C91552309F45BC0242B208B2089E3
:101110004D2D70E060E00E941C045FEFE51AF50AB7
:1011200088E0E816F10491F60F5F1F4F98E0890EF2
:10113000911C0830110529F6C0909B09D0909C099C
:10114000E0909D09F0909E098091720881113BC04A
:101150000E9499029B01AC012C193D094E095F09BF
:1011600069017A0187E30E9457022CE330E0DC0139
:101170000E947C09A30192010E942409285D3F4F2F
:101180004F4F5F4F2C153D054E055F0508F0C3CE50
:101190000E94990260939B0970939C0980939D091A
:1011A00090939E090E940804B6CE0E949902609313
:1011B0006C0870936D0880936E0890936F08E5CE6D
:1011C00020952423A3CF0E9499029B01AC012C19E6
:1011D0003D094E095F0969017A0187E30E945702C0
:1011E0002CE330E0DC010E947C09A30192010E9403
:1011F0002409285D3F4F4F4F5F4F2C153D054E058D
:101200005F0508F088CE0E94990260939B09709355
:101210009C0980939D0990939E090E94D903809117
:10122000700890917108019728F09093710880934D
:10123000700871CE4DEB50E05093710840937008E8
:101240006ACE0E94A80367CE052E97FB1EF4009479
:101250000E943B0957FD07D00E94430907FC03D0B9
:101260004EF40C943B0950954095309521953F4F95
:101270004F4F5F4F089590958095709561957F4F82
:101280008F4F9F4F0895A1E21A2EAA1BBB1BFD0191
:101290000DC0AA1FBB1FEE1FFF1FA217B307E40755
:1012A000F50720F0A21BB30BE40BF50B661F771FAD
:1012B000881F991F1A9469F760957095809590958D
:1012C0009B01AC01BD01CF010895A29FB001B39F66
:1012D000C001A39F700D811D1124911DB29F700D3F
:1012E000811D1124911D0895EE0FFF1F881F8BBFD4
:1012F0000790F691E02D19940E946509B7FF0895B3
:0A130000821B930B0895F894FFCFB1
:10130A00280029002A002B002C002D002E002F0077
:10131A001E001F00200021002200230024002500B7
:10132A0000000000000000000001010101010101AC
:10133A00000001010101010101010000000000009B
:10134A000001010000000000000000000000000091
:10135A00000000000000010101010101010100007B
:10136A00000000000000000000010101010101016C
:10137A000000000101010101000000010101010159
:10138A00010100000001010101010000000000004C
:10139A00010100000000000000000000000001013F
:1013AA00010101010100000101000000000101002A
:1013BA000101010101010100000001010101010116
:1013CA000000000000000000000001010000000110
:1013DA0001010101010000000101000000000000FC
:1013EA0000000000000000010101010101010100EB
:1013FA0001010101010101010000000000000001DA
:10140A0001000000000000000000000000000000D1
:10141A0000000000010101010101010100000000BA
:10142A0000000000000000010101010101010000AB
:10143A000101010101010100000101010101010194
:10144A000000010101010101010000000101000089
:10145A00000000000000010100000000010101017C
:10146A000101010100010100000000010100010168
:10147A000101010101010001010101010101010054
:10148A00000000000000000001010000000101014D
:10149A00010101000000000001010000000101013A
:1014AA00010100000001010000000001010001012A
:1014BA00000000000101000000000000000101001E
:1014CA000000000000000000000000000000000012
:1014DA000000000000010100000000000000000000
:1014EA0000000000000000000000010100000101EE
:1014FA0000000001010000000000000001010000DE
:10150A0000000000000101000001010000000000CD
:10151A0000000001000001000000010100000000BD
:10152A0001010001010000000001010001010000A9
:10153A00000001010001010000000001010000009B
:10154A00000000000000010100000000000000018E
:10155A00010000000000000101000001010000017B
:10156A00000000010100000000010100010100006B
:10157A00000001010000000000000001010001015B
:10158A000101010101010000010100000101000047
:10159A000000000101000000000101010101010138
:1015AA00010000000000000001010000010100002C
:1015BA00000101000000000000000101000000001D
:1015CA00010101010100010000000000000000000B
:1015DA0000010000010000000101000000000101FB
:1015EA0000010100000000010100010100000000EB
:1015FA0001010001010000000001010000000000DB
:10160A0000000000010100000000000000010100CC
:10161A0000000000000000010001010101010000BA
:10162A0000010101010101010000010101010101A3
:10163A000101000000000000000101000101010198
:10164A000101010100000101000001010000000088
:10165A000001010000000001010101010101010076
:10166A000001010101010101000001010000000166
:10167A000100000101010101010100000000010156
:10168A00010101000100000000000000000000004C
:10169A000101010000000101010101010100000135
:1016AA000100000000010100010101010101010125
:1016BA00000101000000000101000000000000001C
:1016CA00000001010000000000010101010000000A
:1016DA0000000000000100010100000000000001FC
:1016EA0001010101010101000101010101010101E1
:1016FA0000000000000000010100000000000000DE
:10170A0000000000010100000101000001010001C8
:10171A0001000000000000000000000000000001BD
:10172A0001000000000000000101000000010100AA
:10173A00000101000000000000000000000000019C
:10174A00010000010100000000000000000000008C
:10175A000100000001010101010101010001010074
:10176A000000000101000101010101010100000165
:10177A00010000000001010000000000000000005C
:10178A00010100000000000000010100000000004B
:10179A000001010000010100000000000001010039
:1017AA000000000101000101000000000101000029
:1017BA00000000000001010000000000000000001D
:1017CA000000000101010100000001010101010006
:1017DA0000000000000000000000000000010101FC
:1017EA0001010101000001010101010101000001E3
:1017FA0001010101010100000101010101010100D2
:10180A0000000101000000000000000100000100CA
:10181A0000000101000000000101000101010101B5
:10182A0001010100010100000000000000010101A6
:10183A000101010101000000000000000000010197
:10184A00000000000000000101000000000001018A
:10185A00000000010100000000000001010000007A
:10186A000001010001010000000001010000000068
:10187A00000000010100000000000000000000005C
:10188A000000010100000000000101010000000049
:10189A000000000000000000000000010101010139
:1018AA000101000000010101010100000001010124
:1018BA000101010100000001010101010000000015
:1018CA00000001010000000000000101000000000A
:1018DA0001010000000001010000010101010101F4
:1018EA0000000101000000000000000001010101E8
:1018FA0001010000000000000000000001010000DA
:10190A0000000000000101000000010100000000C9
:10191A00000000003B03A502D20288030303E10290
:10192A00F5020D0A00494E495420627574746F6EAF
:10193A0020776173206368616E67656420746F2025
:10194A0067616D65206D6F646500427574746F6EB2
:10195A00204D6964646C652068656C6420666F72EA
:0C196A002033207365636F6E647300000F
:00000001FF
