:100000000C9465010C9496010C9496010C94960145
:100010000C9496010C9496010C9496010C94960104
:100020000C9496010C9496010C9496010C949601F4
:100030000C9496010C9496010C9496010C949601E4
:100040000C9496010C9496010C9496010C949601D4
:100050000C9496010C9496010C9496010C94F00F5C
:100060000C9496010C9464100C943A100C94960124
:100070000C9496010C9496010C9496010C949601A4
:100080000C9496010C9496010C9496010C94960194
:100090000C9496010C9496010C9496010C94960184
:1000A0000C9496010C9496010C9496010C94960174
:1000B0000C9496010C9496010C9496010C94960164
:1000C0000C9496010C9496010C9496010C94960154
:1000D0000C9496010C9496010C9496010C94960144
:1000E0000C9496010C94C0010C9407030C944303E8
:1000F0000C94DB010C941D090C94E9010C942B0D5C
:100100000C94FE070C94EA030C94C8010C94A70904
:100110000C94F70C0C94C9090C9434030C949D03B3
:100120000C94690D0C94E9080C94250A0C94ED01CB
:100130000C9435090C94B6010C94F7010C945703F8
:100140000C94D5010C949D0D0C94FB010C94CB08E0
:100150000C94E3010C94CB010C942A110C94D10162
:100160000C9445090C94D90C0C94FF080C94F601DE
:100170000C947B0D0C94C4010C94BC010C94630989
:100180000C94F7090C9479090C94150D0C94DF016B
:100190000C9465030C94A20C0C94490D0C94BD0DA9
:1001A0000C94F1010C941008000021002400270099
:1001B0002A002D0030003300010100000401070176
:1001C0000A0100002200250028002B002E0031002B
:1001D000340002010000050108010B0100002000AD
:1001E0002300260029002C002F003200000100000F
:1001F00003010601090105050505070508080808AA
:10020000020202020A0A08080404040401010101AE
:1002100001010101030303030303030304070707A9
:100220000C0C0C0C0C0C0C0C02020202060606064E
:10023000060606060B0B0B0B0B0B0B0B010210201B
:10024000200808102040102040800201020108040C
:1002500002010102040810204080804020100804A0
:1002600002018004020180402010080402010804F9
:10027000020101020408102040800102040810203D
:10028000408000000A0B02090C0D0E080703040150
:10029000000000000000000000000000000000005E
:1002A000000000000000000000000000000012112B
:1002B000100000000000000000000000000000002E
:1002C00000000000000000002A1111241FBECFEF23
:1002D000D1E2DEBFCDBF00E00CBF1AE0A0E0B2E08B
:1002E000E0E7FBE200E00BBF02C007900D92AC38E4
:1002F000B107D9F72DE0ACE8BAE001C01D92AA3BE6
:10030000B207E1F711E0C5E6D1E000E006C02197B1
:100310000109802FFE010E949315C436D10780E0A9
:100320000807A9F70E94A8110C94B6150C940000B8
:100330008150823108F05AC0E82FF0E08827EC5550
:10034000FE4F8F4F0C949315C401C801B601BC0138
:10035000C001F601CB01D101D501DB01DF01E301D1
:10036000E901ED01F601F101F701FB018091800047
:100370008F77809380000895809180008F7DF9CFE2
:1003800080918000877FF5CF84B58F7784BD0895F5
:1003900084B58F7DFBCF8091B0008F778093B000C4
:1003A00008958091B0008F7DF9CF809190008F7774
:1003B000809390000895809190008F7DF9CF809177
:1003C0009000877FF5CF8091A0008F778093A00069
:1003D00008958091A0008F7DF9CF8091A000877F44
:1003E000F5CF809120018F7780932001089580912F
:1003F00020018F7DF9CF80912001877FF5CFCF93AA
:10040000DF93282F30E0F901EE57FD4F8491F90179
:10041000E45CFD4FD491F901EA50FE4FC491CC2326
:10042000A1F081110E949801EC2FF0E0EE0FFF1F68
:10043000E452FE4FA591B491EC91ED2381E090E060
:1004400009F480E0DF91CF91089580E090E0FACF49
:100450001F93CF93DF93282F30E0F901EE57FD4F24
:100460008491F901E45CFD4FD491F901EA50FE4F0B
:10047000C491CC23A9F0162F81110E949801EC2F72
:10048000F0E0EE0FFF1FEE53FE4FA591B4918FB732
:10049000F894EC91111108C0D095DE23DC938FBF46
:1004A000DF91CF911F910895DE2BF8CFCF93DF938B
:1004B00090E0FC01E45CFD4F24918A509E4FFC01CA
:1004C00084918823D1F090E0880F991FFC01E855B2
:1004D000FE4FA591B491FC01EE53FE4FC591D4910E
:1004E000623071F49FB7F8943C91822F80958323FA
:1004F0008C93E8812E2B28839FBFDF91CF910895A5
:100500008FB7F894EC912E2B2C938FBFF6CF8633B8
:1005100008F0865320917B00982F9870277F922BAC
:1005200090937B008770806480937C0080917A0038
:10053000806480937A0080917A0086FDFCCF809160
:1005400078009091790008953FB7F89480913F0C1E
:100550009091400CA091410CB091420C26B5A89B03
:1005600005C02F3F19F00196A11DB11D3FBFBA2F45
:10057000A92F982F8827BC01CD01620F711D811D05
:10058000911D42E0660F771F881F991F4A95D1F78A
:1005900008958F929F92AF92BF92CF92DF92EF9287
:1005A000FF924B015C010E94A4026B017C010E943E
:1005B000A4026C197D098E099F09683E734081056C
:1005C0009105A8F321E0821A9108A108B10888EEEC
:1005D000C80E83E0D81EE11CF11C81149104A10413
:1005E000B10429F7FF90EF90DF90CF90BF90AF90CC
:1005F0009F908F9008952FB7F89460913B0C709165
:100600003C0C80913D0C90913E0C2FBF0895AF9211
:10061000BF92CF92DF92EF92FF920F931F93CF93EF
:10062000DF936C017B018B01040F151FEB015E0151
:10063000AE18BF08C017D10759F06991D601ED91E6
:10064000FC910190F081E02DC6011995892B79F775
:10065000C501DF91CF911F910F91FF90EF90DF9037
:10066000CF90BF90AF900895FC01538D448D252FFE
:1006700030E0842F90E0821B930B541710F0CF963C
:10068000089501970895FC01918D828D981761F06E
:10069000A28DAE0FBF2FB11D5D968C91928D9F5F85
:1006A0009F73928F90E008958FEF9FEF0895FC0164
:1006B000918D828D981731F0828DE80FF11D858D17
:1006C00090E008958FEF9FEF0895FC01918D228DAA
:1006D000892F90E0805C9F4F821B91098F7399272F
:1006E000089583E49CE00E94650321E0892B09F4CE
:1006F00020E0822F0895FC01A48DA80FB92FB11D11
:10070000A35ABF4F2C91848D90E001968F73992747
:10071000848FA689B7892C93A089B1898C91837025
:1007200080648C93938D848D981306C00288F3891E
:10073000E02D80818F7D80830895EF92FF920F934B
:100740001F93CF93DF93EC0181E0888F9B8D8C8D7D
:1007500098131AC0E889F989808185FF15C09FB771
:10076000F894EE89FF896083E889F9898081837034
:10077000806480839FBF81E090E0DF91CF911F91E3
:100780000F91FF90EF900895F62E0B8D10E00F5F04
:100790001F4F0F731127E02E8C8D8E110CC00FB6DA
:1007A00007FCFACFE889F989808185FFF5CFCE0172
:1007B0000E947B03F1CFEB8DEC0FFD2FF11DE35A6F
:1007C000FF4FF0829FB7F8940B8FEA89FB898081F5
:1007D0008062CFCFCF93DF93EC01888D8823B9F06F
:1007E000AA89BB89E889F9898C9185FD03C080813C
:1007F00086FD0DC00FB607FCF7CF8C9185FFF2CFB9
:10080000808185FFEDCFCE010E947B03E9CFDF9190
:10081000CF91089580E090E0892B29F00E94710328
:1008200081110E94000080E090E0892B49F080E077
:1008300090E0892B29F00E94000081110E940000A5
:1008400080E090E0892B49F080E090E0892B29F04E
:100850000E94000081110E94000080E090E0892B3E
:1008600049F080E090E0892B29F00E94000081117E
:100870000C9400000895CF93DF93A091B40BB09136
:10088000B50BAD01465D5D4F27EB3BE090E080E0AE
:10089000E901C80FD91FBC016A0F7B1FFA01E80FDD
:1008A000F91F603D71052CF0FC01E05DF109E40FDA
:1008B000F51F6081688301968031910549F74053A7
:1008C0005F4F205F3F4F8CE027333807F9F6DF9109
:1008D000CF9108950E943B048091B40B9091B50B89
:1008E00001968F3C910529F09093B50B8093B40B42
:1008F00008951092B50B1092B40B089580E19BE01F
:1009000030E020E0FC01E20FF31F10822F5F3F4F29
:1009100020313105B9F740962BE08039920781F7F5
:10092000089580E99AE030E020E0FC01E20FF31F37
:100930004081413009F410822F5F3F4F2031310553
:10094000A1F740962BE08031920769F70895109245
:10095000910B1092900B10928F0A10928E0A1092A7
:10096000A60B1092A50B83E090E090930102809378
:1009700000021092A30B1092A20B10929D0B1092EA
:100980009C0B1092A40B1092AF0B10929B0B109229
:10099000960B1092370C0C94910420919C0B309183
:1009A0009D0B4091A20B5091A30BC9010196BA0176
:1009B0006F5F7F4FDA011296E091A40BF4E0220FF3
:1009C000331FFA95E1F7F4E0880F991FFA95E1F7E4
:1009D000205F344FEE2391F0F901EA0FFB1F1082E4
:1009E000805F944FA80FB91F1C92680F791FFB01FD
:1009F0001082840F951FFC0110820895F901E40F05
:100A0000F51F1082805F944F480F591FFA01108222
:100A1000680F791FFB011082A80FB91F1C9208955F
:100A2000CF9380919C0B90919D0B2091A20B3091C4
:100A3000A30BDC011196A9014F5F5F4FB9016E5FF7
:100A40007F4FF091A40BE4E0880F991FEA95E1F73E
:100A5000C4E0AA0FBB1FCA95E1F7805F944FFF2344
:100A6000A9F0FC01E60FF71F91E09083FD01E05F24
:100A7000F44F6E0F7F1FDB019C934E0F5F1FDA0157
:100A80009C93E20FF31F9083CF910895FC01E20F36
:100A9000F31FC1E0C083CD01805F944F280F391F41
:100AA000F901C083480F591FDA01CC93860F971FB5
:100AB000FC01C083E9CF4F925F926F927F928F9239
:100AC0009F92AF92BF92CF92DF92EF92FF920F93DD
:100AD0001F93CF93DF931F921F92CDB7DEB78C0188
:100AE00049832A83660F771FF801EA5AFF4FE08097
:100AF000F180EE0CFF1CF801CF01801B910B8E15CD
:100B00009F0514F41192F8CF8981F801E60FF71FC1
:100B100081838A818083680184E5C80ED11C60E0EE
:100B2000F60180810E9428025801F2E5AF0EB11C47
:100B3000480180E5880E911C1E141F040CF5E1E0AD
:100B4000EE1AF108F801EE0DFF1D6080F5015080EE
:100B5000F401408088E0782E662D661F6627661FA8
:100B6000842D0E942802660C61E0852D0E942802D7
:100B700060E0852D0E9428027A947110EDCFDCCFC1
:100B800061E0F60180810F900F90DF91CF911F916E
:100B90000F91FF90EF90DF90CF90BF90AF909F901C
:100BA0008F907F906F905F904F900C942802E0E8B8
:100BB000F0E002C0F595E7954A95E2F7DC01A60F53
:100BC000B71F50963C915097222361F0E32B50962B
:100BD000EC93509741E0460F50962C9170E060E006
:100BE0000C945B05E095E323F2CF8F929F92AF9236
:100BF000BF92CF92DF92EF92FF920F931F93CF930A
:100C0000DF9340E1E42E4BE0F42ED0E0C0E010E0B2
:100C100000E08091B80D9091B90D1816190674F482
:100C200021E0F701E00FF11F8081813009F020E021
:100C3000A801BE0182E69DE00E94D7050F5F1F4F0D
:100C40000830110531F7219680E1E80EF11CC8301B
:100C5000D105E9F693E0E92EF12C23ECC22ED12C3C
:100C60003BE2A32E31E1B32E80E1882E8BE0982E5B
:100C7000CEE108E010E0F401E00FF11F8081813047
:100C800089F560E08C2F0E94280261E0D0E2D00F4D
:100C90008D2F0E942802C5010197F1F761E08C2F8A
:100CA0000E94280260E08D2F0E9428020F5F1F4FD4
:100CB0000031110501F7CF5F80E1880E911CC6322B
:100CC000C1F681E0E81AF10879F6DF91CF911F9122
:100CD0000F91FF90EF90DF90CF90BF90AF909F90DB
:100CE0008F900895C6010197F1F7E0CFCF92DF9280
:100CF000EF92FF921F93CF93DF937C016B01EB0187
:100D000083E0CC0FDD1F8A95E1F76096CE0DDF1DE5
:100D100011E0199220E0412FB601C7010E945B0546
:100D20001F5F1930B1F7DF91CF911F91FF90EF90C6
:100D3000DF90CF900895FC0101900020E9F73197F2
:100D4000AF01481B590BBC0183E49CE00C940703E2
:100D5000CF93DF930E949B06EC018CEB98E00E94FE
:100D60009B068C0F9D1FDF91CF9108958F929F92CC
:100D7000AF92BF92CF92DF92EF92FF920F931F93A9
:100D8000CF93DF93CDB7DEB7A1970FB6F894DEBF50
:100D90000FBECDBF6C01990FEE08FF08F7FE47C0EC
:100DA0006DE283E49CE00E949D038C01222733279F
:100DB000A9012C193D094E095F0919A2CE0181969E
:100DC0007C019AE0892E912CA12CB12CCA01B90189
:100DD000A50194010E944E15605DF70162937F01A9
:100DE000211531054105510589F790E080E03097E4
:100DF00019F0CF010E949B06080F191F8CEB98E099
:100E00000E949B06800F911FA1960FB6F894DEBF3B
:100E10000FBECDBFDF91CF911F910F91FF90EF904B
:100E2000DF90CF90BF90AF909F908F900895A701D3
:100E3000960119A28E010F5D1F4F8AE0C82ED12C9A
:100E4000E12CF12CCA01B901A70196010E944E15AF
:100E5000605DF80162938F0121153105410551054F
:100E600089F7309729F0CF010E949B068C01C6CFED
:100E700010E000E0C3CFCF92DF92EF92FF920F938A
:100E80001F93CF93DF9380E1E82E8BE0F82E10E0E4
:100E900000E095E0C92ED12CD0E0C0E0F701EC0FC6
:100EA000FD1F80818130A9F58091A20B9091A30B49
:100EB000C817D90774F102968C179D0754F18091D9
:100EC0009C0B90919D0B081719071CF19C012F5F3B
:100ED0003F4F20173107ECF0029797FD30C09093F9
:100EE0009D0B80939C0B80910002909101020E94C7
:100EF000B60680910002909101028230910524F1A2
:100F0000019790930102809300020E9410050E94B5
:100F1000F5052196C031D10509F60F5F1F4F80E11D
:100F2000E80EF11C0830110509F0B6CFDF91CF9122
:100F30001F910F91FF90EF90DF90CF900895109246
:100F40009D0B10929C0BCFCF0E947E0480918C0A47
:100F500090918D0A0196B6010E947F1590938D0A9B
:100F600080938C0A8FEB98E00E94A8061092370CB1
:100F70000E94A704CECF2F923F924F925F926F9222
:100F80007F928F929F92AF92BF92CF92DF92EF9219
:100F9000FF920F931F93CF93DF9300D0CDB7DEB7AF
:100FA0008091370C811104C00E94890E0E94F505C2
:100FB0002091370C2983222309F4FCC28091AF0BC6
:100FC000811171C2E091900BF091910BEE30F1051F
:100FD00008F061C28827E051F84F8F4F0C949315A9
:100FE000FE071008CB08E908FF081D093509450967
:100FF00063097909A709C909F709250A81E08093DE
:10100000370B8093670B8093280B8093380B80936A
:10101000480B8093580B8093680B8093690B1DC01D
:1010200081E08093260B8093270B8093280B80937D
:10103000290B8093390B8093490B8093460B809347
:10104000470B8093480B8093660B8093670B8093CC
:10105000680B8093690B8093560B0E94F5050E94E4
:10106000FB020091AB0B1091AC0B2091AD0B3091BA
:10107000AE0B601B710B820B930B603D77408105BB
:10108000910508F410C20E94FB026093AB0B7093B1
:10109000AC0B8093AD0B9093AE0B81E08093AF0BC4
:1010A0000E947E046090900B7090910B63E0660E3E
:1010B000711C88EE98E00E94A806C3010E94B60643
:1010C00010E000E0061517050CF0EDC10E94C414F5
:1010D0006B017C010E94C4144B015C010E94C4148A
:1010E0001B012C01C501B40124E030E040E050E0D8
:1010F0000E941C156F5F7F4F8F4F9F4FE8E0F0E01D
:10110000E61BF70BFB83EA83C201B10122E030E06A
:1011100040E050E00E941C154B015C01FFEF8F1A6C
:101120009F0AAF0ABF0AC701B6012EE030E040E0D7
:1011300050E00E941C1561507109CB01880D991D6A
:101140006EE070E00E947F1501962A813B8144E0A9
:10115000220F331F4A95E1F7820F931F50E040E0C2
:101160002A813B81283031050CF09AC19A01280F61
:10117000391FF901E05FF44F61E060832057354F7C
:10118000F90160832A813B812F5F3F4F3B832A8394
:10119000405F5F4FE5CF81E08093260B8093270B64
:1011A0008093280B8093290B8093390B8093490BF4
:1011B0008093460B8093470B8093480B8093660B7C
:1011C0008093690B8093670B8093680B8093590B16
:1011D00044CF81E08093290B8093390B8093490B96
:1011E0008093690B8093590B8093260B8093360B69
:1011F0008093460B8093470B8093480B2ECF81E062
:101200008093260B8093270B8093280B8093290BC8
:101210008093490B8093690B8093590B8093360B15
:101220008093460B8093470B8093480B8093660B0B
:101230008093670B8093680B10CF81E08093260B1F
:101240008093270B8093280B8093290B8093490B65
:101250008093690B8093590B8093360B8093460BD8
:101260008093560B8093660B29C081E08093260BF8
:101270008093270B8093280B8093290B8093390B45
:101280008093490B8093590BC8CE81E08093260B45
:101290008093270B8093280B8093290B8093390B25
:1012A0008093490B8093690B8093590B8093360B85
:1012B0008093460B8093660B8093560B8093470B6D
:1012C0008093480BB5CF81E08093260B8093270B4A
:1012D0008093280B8093290B8093390B8093490BC3
:1012E0008093690B8093590B8093360B8093460B48
:1012F000B9CF81E08093350B8093260B8093360B1A
:101300008093460B8093560B8093660B8093650BFE
:101310008093670B8093280B8093290B80932A0B73
:1013200080932B0B80933B0B80934B0B80936B0B29
:1013300080935B0B8093380B8093480B8093680BF2
:101340008093580B8093690B80936A0B86CE81E063
:101350008093350B8093260B8093360B8093460B3E
:101360008093560B8093660B8093650B8093670B7D
:101370008093390B80932A0B80933A0B80934A0B0E
:1013800080935A0B80936A0B8093690B80936B0B4D
:1013900064CE81E08093340B8093250B8093350BD2
:1013A0008093450B8093550B8093650B8093640B62
:1013B0008093660B8093280B8093290B80932A0BD4
:1013C00080932B0B80933B0B80934B0B8093480BAC
:1013D0008093490B80934A0B8093680B8093690B31
:1013E00080936A0B80936B0B8093580B36CE81E011
:1013F0008093340B8093250B8093350B8093450BA2
:101400008093550B8093650B8093640B8093660BE0
:101410008093280B8093290B80932A0B80932B0BAE
:1014200080933B0B80934B0B8093480B8093490B2D
:1014300080934A0B8093680B8093690B80936A0BAF
:1014400080936B0B80935B0B08CE81E08093340B11
:101450008093250B8093350B8093450B8093550B20
:101460008093650B8093640B8093660B80932B0BAA
:1014700080933B0B80934B0B80936B0B80935B0BA8
:101480008093280B8093380B8093480B8093490BF3
:1014900080934A0BE2CD81ED98E00E94A806DDCD55
:1014A0000F5F1F4F0FCE8091AF0B882309F47AC0D6
:1014B0000E94FB020091A70B1091A80B2091A90B91
:1014C0003091AA0B6B017C01C01AD10AE20AF30A1F
:1014D0002091A50B3091A60B032E000C440B550B4D
:1014E0002150310941095109A6EABFEF0E9449156F
:1014F0002FE030E040E050E00E941C152C593F4F97
:101500004F4F5F4FC216D306E406F506D4F00E9493
:10151000FB026093A70B7093A80B8093A90B909389
:10152000AA0B8091A20B9091A30B2091A40B2223D4
:1015300009F459C0019797FD53C09093A30B809372
:10154000A20B0E94FB0200919E0B10919F0B209119
:10155000A00B3091A10B601B710B820B930B683EAB
:10156000734081059105B0F00E94FB0260939E0BD1
:1015700070939F0B8093A00B9093A10B80919C0B79
:1015800090919D0B87309105C4F5019690939D0B2A
:1015900080939C0B0E943B070E9410050E94F5055A
:1015A0000E94CD0485E00E94FF01019759F581E07A
:1015B0008093A40B0F900F900F90DF91CF911F910C
:1015C0000F91FF90EF90DF90CF90BF90AF909F90E2
:1015D0008F907F906F905F904F903F902F900895E5
:1015E0008DE090E0AACF01968E3091050CF4A5CF46
:1015F0001092A30B1092A20BA4CF10929D0B1092ED
:101600009C0BC8CF87E00E94FF01019719F410924C
:10161000A40BD0CF86E00E94FF01019709F012C110
:1016200080919C0B90919D0B6C0162E0C60ED11CC9
:101630000091A20B1091A30B0F5F1F4FF4E0880FD6
:10164000991FFA95E1F7080F191FC801805F944FA1
:101650009B838A83F12CE12C412C55245394ADE0DB
:101660008A2E912CB5E0AB2EB12C98E0C916D1048E
:101670000CF07EC0EA81FB8150A28091A20B909178
:10168000A30B2091A40B222391F1019797FD05C094
:101690009093A30B8093A20B04C09092A30B809213
:1016A000A20B0E943B070E9410050E94F5050E94B4
:1016B000CD04FFEFCF1ADF0AEA81FB8180A98130D8
:1016C00019F44420E9F04980EA81FB8110A264E624
:1016D00070E080E090E00E94C9022A813B81205F97
:1016E0003F4F3B832A8330E1E30EF11CBECF0196CE
:1016F0008E3091056CF21092A30B1092A20BD1CFF9
:1017000020918E0A30918F0A2F5F3F4F30938F0ABE
:1017100020938E0AEA81FB8110AAF801EE0DFF1DCD
:10172000E057F54F10AADF01A05CBF4F1C92509606
:101730001C92E05AFF4F1082C901B5010E947F152B
:10174000892B09F6121613060CF0BDCF809100020A
:10175000909101028A30910534F401969093010230
:1017600080930002B0CF86EF98E00E94A806ABCF2E
:101770008CE199E00E949B0680918E0A90918F0ADD
:101780000E94B606A0E1BBE050E040E070E060E0FF
:10179000D12CC12C90E080E08A01005F144F7D01C4
:1017A000E80EF91EF70120812130E1F4FFEFCF1A96
:1017B000DF0A30E020E07801E80EF91E5901E4E08C
:1017C000AA0CBB1CEA95E1F7AE0CBF1CF501B0807A
:1017D000F1E0BF1203C02F5F3F4FF0CF62177307D6
:1017E0000CF4B901019680319105C9F65096405F1D
:1017F0005F4F4038510571F6CD2821F066307105F4
:101800000CF4D8CE8091900B9091910B019690930F
:10181000910B8093900B0E9491041092AF0B0E9449
:10182000FB026093AB0B7093AC0B8093AD0B90936A
:10183000AE0B1092A30B1092A20B10929D0B109264
:101840009C0BB8CE84E00E94FF01019709F0B2CE54
:1018500062E370E080E090E00E94C90284E00E94B0
:10186000FF01019709F0A6CE80919B0B91E089279B
:1018700080939B0B882309F433C280E399E00E9494
:10188000A80680919B0B882309F494CE0E947E04C5
:1018900021E02093210B2093220B2093330B2093E4
:1018A000340B2093250B2093260B2093300B209391
:1018B000400B2093510B2093620B2093730B2093CA
:1018C000740B2093650B2093560B2093470B2093AA
:1018D000370B2093310B2093410B2093320B209335
:1018E000420B2093520B2093430B2093530B2093D6
:1018F000630B2093440B2093540B2093640B209391
:10190000350B2093450B2093550B2093360B2093DA
:10191000460BE0910002F09101023197EA30F105A7
:1019200008F053C18827E856F34F8F4F0C94931556
:10193000A20CD90CF70C150D2B0D490D690D7B0D63
:101940009D0DBD0D31E030933B0B30936B0B30930D
:101950002C0B30933C0B30934C0B30935C0B30933F
:101960006C0B30936D0B0E94F5050E94FB026B011E
:101970007C01C092970BD092980BE092990BF09259
:101980009A0B84E00E94FF01892B09F4A6C1809183
:10199000960B81111FC191E09093960B0E94FB0260
:1019A0006093920B7093930B8093940B9093950B91
:1019B00068CF61E060932A0B60932B0B60932C0B34
:1019C00060932D0B60933D0B60934D0B60934A0B1E
:1019D00060934B0B60934C0B60936A0B60936B0BA3
:1019E00060936C0B60936D0B60935A0BBCCF81E0DE
:1019F00080932A0B80932B0B80932C0B80932D0BC1
:101A000080933D0B80934D0B80934A0B80934B0B3F
:101A100080934C0B80936A0B80936D0B80936B0BC0
:101A200080936C0B80935D0B9ECF91E090932D0B78
:101A300090933D0B90934D0B90936D0B90935D0B9A
:101A400090932A0B90933A0B90934A0B90934B0BE5
:101A500090934C0B88CFE1E0E0932A0BE0932B0BA3
:101A6000E0932C0BE0932D0BE0934D0BE0936D0B6B
:101A7000E0935D0BE0933A0BE0934A0BE0934B0B42
:101A8000E0934C0BE0936A0BE0936B0BE0936C0BD1
:101A90006ACFF1E0F0932A0BF0932B0BF0932C0B11
:101AA000F0932D0BF0934D0BF0936D0BF0935D0BBA
:101AB000F0933A0BF0934A0BF0935A0BF0936A0BA6
:101AC000F0934B0BF0934C0BF0936B0BF0936C0B70
:101AD0004ACF21E020932A0B20932B0B20932C0B31
:101AE00020932D0B20933D0B20934D0B20935D0BEA
:101AF00020936D0B38CF31E030932A0B30932B0BB2
:101B000030932C0B30932D0B30933D0B30934D0BBA
:101B100030936D0B30935D0B30933A0B30934A0B3F
:101B200030936A0B30935A0B30934B0B30934C0B22
:101B300030936B0B30936C0B16CF61E060932A0BE4
:101B400060932B0B60932C0B60932D0B60933D0BDC
:101B500060934D0B60936D0B60935D0B60933A0B3C
:101B600060934A0B60936A0B60934B0B60934C0B32
:101B700060936B0B60936C0BF6CE81E08093290B26
:101B80008093390B8093490B8093590B8093690B99
:101B900080932B0B80932C0B80932D0B80932E0B1B
:101BA00080933B0B80934B0B80935B0B80936B0B71
:101BB00080933E0B80934E0B80935E0B80936E0B55
:101BC00080936C0B80936D0BCECE81ED98E00E94DC
:101BD000A806C9CE8091920B9091930BA091940B83
:101BE000B091950BC81AD90AEA0AFB0AD701C601B7
:101BF00088509740A109B109853F9140A105B105E1
:101C0000B8F58DE599E00E94A80664EF71E080E0E8
:101C100090E00E94C90284E00E94FF01892B41F5F7
:101C200080919B0BF1E08F2780939B0B81E499E0DF
:101C30000E94A8060E947E0420E93AE040E15BE0B1
:101C400090E080E0F901E80FF91F6081613021F434
:101C5000FA01E80FF91F608301968031910591F731
:101C6000205F3F4F405F5F4F6BE02031360741F709
:101C700080EFC81A8AE0D80AE108F10895EFC91682
:101C800091E0D906E104F10408F0FBCD8EE499E07F
:101C90000E949B0664EF71E080E090E00E94C90220
:101CA00084E00E94FF01892B09F0EBCD80919B0B12
:101CB000E1E08E2780939B0B83E599E00E94A806C4
:101CC00062E370E080E090E00E94C9020E947E041E
:101CD0001092370C0E94A704D4CD1092960BD1CD50
:101CE00081E699E00F900F900F90DF91CF911F91B7
:101CF0000F91FF90EF90DF90CF90BF90AF909F90AB
:101D00008F907F906F905F904F903F902F900C94AA
:101D1000A8068F929F92AF92BF92CF92DF92EF92DE
:101D2000FF920F931F93CF93DF93D1E0C1E032E096
:101D3000E32EF12C88248A9443E0942EA12CB12C1C
:101D4000CC24C394D12CC093310BC093410BC093CE
:101D5000420BC093430BC093620BC093150BC0930F
:101D6000160BC093170BC093180BC093190BC0939D
:101D70001A0BC093250BC093260BC093270BC0935F
:101D8000280BC093290BC0932A0BC093350BC0932B
:101D9000370BC093380BC093390BC0933A0BC093E9
:101DA000450BC093470BC093480BC0934A0BC0939D
:101DB000550BC093580BC0935A0BC093650BC0933F
:101DC0006A0BC093750BC093760BC093770BC093CF
:101DD000780BC093790BC0937A0BC093850BC0939B
:101DE000860BC093870BC093880BC093890BC0935D
:101DF0008A0BC0933D0BC0933E0BC0934C0BC0931A
:101E00005C0BC0936D0BC0936E0B85E00E94FF01CD
:101E1000892BF1F480910202909103020197C1F4A1
:101E200084E799E00E94A806F092390CE092380C01
:101E30000E94FB026093AB0B7093AC0B8093AD0BD5
:101E40009093AE0BC093370C0E947E040E94BB0798
:101E500086E00E94FF01892B61F48091020290913B
:101E60000302019731F488E899E00E94A8060E94D5
:101E70007E0487E00E94FF01892B09F0A4C08091B5
:101E8000020290910302019709F09DC081EA99E056
:101E90000E94A8060E947E04E0E1FBE0D1932BE0C3
:101EA000E032F207D9F7E0E8FBE0D1938BE0EA38C3
:101EB000F807D9F70E94F50586E30E948702BC0166
:101EC000990F880B990B24E0660F771F881F991FC5
:101ED0002A95D1F7A50194010E941C15890187E379
:101EE0000E94870227E030E0DC010E949B15A501DB
:101EF00094010E941C152D5F3F4F4F4F5F4FE0E153
:101F0000FBE090E080E0801791070CF04DC0D0839B
:101F10000196319680319105B1F750E040E0CA0159
:101F200080599F4F805F944FFC0142175307F4F58F
:101F3000D0834F5F5F4F4A30510589F70E94F50506
:101F400084E00E94FF01892B99F50E94FB02009119
:101F5000B00B1091B10B2091B20B3091B30B601B01
:101F6000710B820B930B683B7B408105910508F454
:101F7000A3CF0E94FB026093B00B7093B10B8093D0
:101F8000B20B9093B30BD092390CC092380C87EB04
:101F900099E00E94A8068CED99E00E94A806109294
:101FA000B60B0E947E04CFCE1082B2CF1082C1CF7A
:101FB0000E94FB026093B00B7093B10B8093B20B45
:101FC0009093B30B79CFDF91CF911F910F91FF9039
:101FD000EF90DF90CF90BF90AF909F908F9008953B
:101FE0001F920F920FB60F9211242F933F938F934E
:101FF0009F93AF93BF9380913B0C90913C0CA09129
:102000003D0CB0913E0C30913A0C23E0230F2D375C
:1020100058F50196A11DB11D20933A0C80933B0CFD
:1020200090933C0CA0933D0CB0933E0C80913F0CE0
:102030009091400CA091410CB091420C0196A11DD1
:10204000B11D80933F0C9093400CA093410CB09332
:10205000420CBF91AF919F918F913F912F910F9023
:102060000FBE0F901F90189526E8230F0296A11D12
:10207000B11DD2CF1F920F920FB60F9211240BB643
:102080000F922F933F934F935F936F937F938F9311
:102090009F93AF93BF93EF93FF9383E49CE00E94E1
:1020A0007B03FF91EF91BF91AF919F918F917F91B2
:1020B0006F915F914F913F912F910F900BBE0F90B9
:1020C0000FBE0F901F9018951F920F920FB60F9290
:1020D00011240BB60F922F938F939F93EF93FF933F
:1020E000E091530CF091540C8081E091590CF091E7
:1020F0005A0C82FD1DC0908180915C0C8F5F8F73A4
:1021000020915D0C821741F0E0915C0CF0E0ED5BFA
:10211000F34F958F80935C0CFF91EF919F918F917E
:102120002F910F900BBE0F900FBE0F901F90189520
:102130008081F2CF8F929F92AF92BF92CF92DF9227
:10214000EF92FF920F931F93CF93DF938C01EC01DB
:10215000C05BDF4F8BE0A82EB12CB982A88248016A
:1021600082E5880E911C8DE090E0F40191838083DC
:102170006801F4E5CF0ED11C8AE090E0F60191836E
:1021800080837801F6E5EF0EF11C81E090E0F70125
:102190009183808361E08BE00E94560261E0F4014C
:1021A00080810E94560261E0F60180810E94560201
:1021B00061E0F60180810E942802B982A882F801BC
:1021C00070961192EC17FD07E1F7D0E0C0E0F7013F
:1021D00080819181C817D90784F520E04FE0BE01C6
:1021E000C8010E945B05F70180819181C817D9075A
:1021F00034F427E04BE0BE01C8010E945B0520E0FB
:1022000049E0BE01C8010E945B05F7018081918110
:10221000C817D90724F4BE01C8010E947606F70149
:1022200080819181C817D90734F420E04CE0BE01C9
:10223000C8010E945B052196CACFDF91CF911F9103
:102240000F91FF90EF90DF90CF90BF90AF909F9055
:102250008F900895CF93DF931092460C1092450C07
:1022600088EE93E0A0E0B0E08093470C9093480C98
:10227000A093490CB0934A0C8EEA98E09093440CDA
:102280008093430C85EC90E09093500C80934F0C1E
:1022900084EC90E09093520C8093510C80EC90E091
:1022A0009093540C8093530C81EC90E09093560CD7
:1022B0008093550C82EC90E09093580C8093570CCF
:1022C00086EC90E090935A0C8093590C10925C0C21
:1022D00010925D0C10925E0C10925F0C81E090E009
:1022E0009093410D8093400DE6E1F2E0A2E4BDE061
:1022F000C6E0D2E0819191918D939D9389919991BE
:102300001F969C938E931E9782E0E632F80791F712
:1023100088EE9CE00E949A1088EE9CE09093E50C79
:102320008093E40C80E49DE09093E70C8093E60CAE
:102330000E94FB026093E00C7093E10C8093E20C2E
:102340009093E30C82E69DE0DF91CF910C949A107C
:10235000CF93DF93CDB7DEB7C458D1090FB6F89449
:10236000DEBF0FBECDBF789484B5826084BD84B5D6
:10237000816084BD85B5826085BD85B5816085BD80
:1023800080916E00816080936E0010928100809138
:1023900081008260809381008091810081608093C0
:1023A0008100809180008160809380008091B100E5
:1023B00084608093B1008091B00081608093B00010
:1023C0008091910082608093910080919100816062
:1023D0008093910080919000816080939000809123
:1023E000A10082608093A1008091A1008160809310
:1023F000A1008091A00081608093A00080912101C4
:10240000826080932101809121018160809321016C
:102410008091200181608093200180917A00846006
:1024200080937A0080917A00826080937A00809114
:102430007A00816080937A0080917A00806880932E
:102440007A001092C100E091530CF091540C82E09C
:102450008083E0914F0CF091500C1082E091510C70
:10246000F091520C8FEC808310925B0CE091570C32
:10247000F091580C86E08083E091550CF091560C59
:10248000808180618083E091550CF091560C8081B1
:1024900088608083E091550CF091560C80818068B3
:1024A0008083E091550CF091560C80818F7D808364
:1024B000E090E60CF090E70C87010E5F1F4F22E1E1
:1024C000E20EF11CD8018C910E5F1F4F61E00E945B
:1024D000560261E0F80186850E9456020E151F051E
:1024E00089F78091E40C9091E50CFC01EA5AFF4FCA
:1024F000208131811216130634F421E04CE070E0A3
:1025000060E00E945B058091E40C9091E50CFC0179
:10251000EA5AFF4F208131811216130634F428E065
:102520004AE070E060E00E945B058091E40C9091CD
:10253000E50CFC01EA5AFF4F208131811216130687
:1025400024F470E060E00E9476060E946A0462E073
:1025500085E00E94560262E086E00E94560262E038
:1025600087E00E94560262E084E00E9456029E01CB
:102570002F573F4FCF57DF4F39832883C158D04063
:10258000812C912C54018A948091380C9091390CB3
:10259000009709F092C18DEF99E00E94A806809102
:1025A000380C9091390C892B09F096C184E00E9477
:1025B000FF01892B09F038C10E94FB020091B00B8A
:1025C0001091B10B2091B20B3091B30B601B710BCA
:1025D000820B930B603D774081059105D0F00E94FE
:1025E000FB026093B00B7093B10B8093B20B90938E
:1025F000B30B41E050E05093390C4093380C87EB1B
:1026000099E00E94A80681E19AE00E94A806109233
:10261000B60B86E00E94FF01892B81F480910402B1
:1026200090910502019751F48091B60B51E08527F6
:102630008093B60B82E39AE00E94A80685E00E9490
:10264000FF0186E00E94FF0190930502809304023F
:1026500087E00E94FF01909303028093020284E0CE
:102660000E94FF0147EB5BE03E0181E4680E711CB4
:10267000DE0111966D01BD019301FA0190E080E049
:10268000D901A80FB91FF084FC927B01E80EF91E56
:1026900010813196D7011C9301968830910581F7FE
:1026A000405F5F4F285F3F4F685F7F4FCF57DF4FDF
:1026B000E881F981C158D0402E173F07F1F6F12C7F
:1026C000E12C10E000E08091E40C9091E50CFC011D
:1026D000EA5AFF4F208131811216130644F4F601A5
:1026E000E00FF11F2081A801B7010E94D7050F5FFD
:1026F0001F4F0830110539F7FFEFEF1AFF0A28E0E6
:10270000C20ED11C38E0E316F104D9F60091E60CB4
:102710001091E70CA801405F5F4FCD57DF4F598301
:102720004883C358D0402801180152E2250E311CBD
:1027300060E0D20112968C910E9428027301B8E0E9
:10274000EB0EF11C6801F30181913F01882331F008
:1027500061E0D60152968C910E942802B2E0CB0E25
:10276000D11C6E147F0479F761E070E080E090E0A6
:102770000E94C90261E0F20182810E942802780170
:10278000F2E1EF0EF11CD7018C91B2E0EB0EF11CDF
:1027900060E00E9428022E143F04A9F7E2E04E0EEA
:1027A000511CCD57DF4F28813981C358D040421684
:1027B000530609F0BDCFC090E00CD090E10CE09042
:1027C000E20CF090E30C8091B60B811138C00E94AE
:1027D000FB029B01AC012C193D094E095F096901FF
:1027E0007A0187E30E9487022CE330E0DC010E943B
:1027F0009B15A50194010E941C15285D3F4F4F4F6A
:102800005F4F2C153D054E055F0508F0C8CE0E94B0
:10281000FB026093E00C7093E10C8093E20C9093C8
:10282000E30C0E946A04BBCE0E94FB026093B00BD3
:102830007093B10B8093B20B9093B30BEACE0E94CE
:10284000FB029B01AC012C193D094E095F0969018E
:102850007A0187E30E9487022CE330E0DC010E94CA
:102860009B15A50194010E941C15285D3F4F4F4FF9
:102870005F4F2C153D054E055F0508F090CE0E9478
:10288000FB026093E00C7093E10C8093E20C909358
:10289000E30C0E943B048091B40B9091B50B01971F
:1028A00028F09093B50B8093B40B79CE4FEC50E0A9
:1028B0005093B50B4093B40B72CE8130910579F4EF
:1028C00086E69AE00E94A8068091370C811104C028
:1028D0000E94890E0E94F5050E940A0455CE0297B7
:1028E000D9F787E79AE00E94A8060E94BB07F4CFB9
:1028F0008F929F92AF92BF92CF92DF92EF92FF9210
:10290000CF93DF93EC01688179818A819B81611586
:1029100071058105910521F464E279ED8BE597E07D
:102920002DE133EF41E050E00E941C1549015A01AE
:102930009B01AC01A7EAB1E40E943B156B017C014D
:10294000ACEEB4EFA50194010E944915C60ED71E46
:10295000E81EF91EF7FE06C081E0C81AD108E1089A
:1029600080E8F80AC882D982EA82FB82C701B601F0
:102970009F77DF91CF91FF90EF90DF90CF90BF9046
:10298000AF909F908F9008958F929F92AF92BF9239
:10299000CF92DF92EF92FF92609126027091270210
:1029A0008091280290912902611571058105910598
:1029B00021F464E279ED8BE597E02DE133EF41E01E
:1029C00050E00E941C1549015A019B01AC01A7EA85
:1029D000B1E40E943B156B017C01ACEEB4EFA501A4
:1029E00094010E944915C60ED71EE81EF91EF7FE77
:1029F00006C081E0C81AD108E10880E8F80AC09250
:102A00002602D0922702E0922802F0922902C70102
:102A1000B6019F77FF90EF90DF90CF90BF90AF907F
:102A20009F908F9008956093260270932702809361
:102A30002802909329020895052E97FB1EF4009416
:102A40000E94331557FD07D00E944E1507FC03D096
:102A50004EF40C94331550954095309521953F4F89
:102A60004F4F5F4F089590958095709561957F4F7A
:102A70008F4F9F4F08950E947015A59F900DB49F92
:102A8000900DA49F800D911D11240895B7FF0C9403
:102A90003B150E943B15821B930B0895A1E21A2E51
:102AA000AA1BBB1BFD010DC0AA1FBB1FEE1FFF1FF2
:102AB000A217B307E407F50720F0A21BB30BE40B42
:102AC000F50B661F771F881F991F1A9469F7609589
:102AD0007095809590959B01AC01BD01CF01089543
:102AE000A29FB001B39FC001A39F700D811D11244F
:102AF000911DB29F700D811D1124911D089597FBAA
:102B0000072E16F4009407D077FD09D00E94A21575
:102B100007FC05D03EF4909581959F4F08957095E0
:102B200061957F4F0895EE0FFF1F881F8BBF0790A1
:102B3000F691E02D19940E947015B7FF0895821B3D
:102B4000930B0895AA1BBB1B51E107C0AA1FBB1F13
:102B5000A617B70710F0A61BB70B881F991F5A9529
:102B6000A9F780959095BC01CD010895F894FFCF09
:102B7000140001000100280029002A002B002C006D
:102B80002D002E002F001E001F002000210022001B
:102B900023002400250001000000000000000000C8
:102BA000000000010101010101010000010101011A
:102BB000010101010000000101010000000000000E
:102BC0000000000000000000000000000000000005
:102BD00001010101010101010000000000000000ED
:102BE00000000001010101010101000000010101DB
:102BF00001010000000101010101010100000001CB
:102C000001010101000000000000010100000000BE
:102C100000000000000000000101010101010100AD
:102C2000000101000000000101000101010101019A
:102C3000010000000101010101010000000001018B
:102C4000000000000101000101000000000101007E
:102C50000101010101010101000101010101010165
:102C6000010000000101000000000001010101015C
:102C70000100000101010101010101000101010147
:102C8000010101010001010101010000000000003B
:102C90000000000000000000000000000000000034
:102CA000010101010101010100000000000000001C
:102CB0000000000101010101010100000101010109
:102CC00001010100000101010101010100000101F8
:102CD00001010101010000000101000000000000ED
:102CE00000000101000000000101010101010101DA
:102CF00000010100000000010100010101010101CA
:102D000001010001010101010101010000000101B7
:102D100001000001010100010100000000010100AB
:102D20000101010101010101000101010101010194
:102D3000010000000000010100000001010101018B
:102D4000010000010100000000010100010100007C
:102D5000000001010000000001010000000000006F
:102D60000000000000000000000000000000000063
:102D70000000000101000000000000000000000051
:102D8000000000000000000001010000010100003F
:102D9000000101000000000000000101000000002F
:102DA000000000010100000101000000000000001F
:102DB000000100000100000001010000000001010D
:102DC00000010100000000010100010100000000FD
:102DD00001010001010000000001010000000001EC
:102DE00001010101010000010100000000010100DA
:102DF00000000001010000000000000001010000CF
:102E000000000000000000010100000101000001BD
:102E100001000001010000000001010001010000AB
:102E2000000001010000000001010000000001019C
:102E30000101010101010000010100000101000088
:102E40000000000101000000000101010101010179
:102E5000010000000000000001010000010100006D
:102E6000000101000000000000000101000000005E
:102E7000010101010100010000000000000000004C
:102E8000000100000100000001010000000001013C
:102E9000000101000000000101000101000000002C
:102EA000010100010100000000010100000000001C
:102EB000010101010000000001010000010100000A
:102EC00000000001010000000000000001010000FE
:102ED00000000000000000000001000101010101EC
:102EE00001000001010101010101000001010101D6
:102EF00001010101000000000101000000000101CA
:102F000001010101010100000101000001010000B7
:102F100000000001010000000001010101010101A8
:102F20000100000101010101010100000101000097
:102F30000001010000010101010101010000000088
:102F4000010101010100010000000000000000007B
:102F50000000010101000000010101010101010067
:102F60000001010000000001010001010101010157
:102F7000010100010100000000010100000000004B
:102F80000101010100000000010100000101000039
:102F9000000000010100000000000000010100002D
:102FA000000000000000000000010001010101011B
:102FB0000100000101010101010101000101010104
:102FC00001010101000000000101000000000000FB
:102FD00000000000000000000101000001010000ED
:102FE00001010001010000000000000000000000DD
:102FF00000000001010000000000000001010000CD
:1030000000010100000101000000000000000000BC
:1030100000000001010000010100000000000000AC
:103020000000000001000000010101010101010197
:103030000001010000000001010001010101010186
:10304000010000010100000000010100000000017A
:103050000101010101000000010100000101000067
:10306000000000010100000000000000010100005C
:10307000000000000000000101000001010000004C
:10308000000000010100000000010100010100003A
:103090000000010100010101010101010100000026
:1030A000000000000000000000010101010000001C
:1030B000010101010100000000000000000000000B
:1030C00000000001010101010101000001010101F5
:1030D00001010100000101010101010100000101E4
:1030E00001010101010000000101000000000000D9
:1030F00000010000010000000101000000000101CA
:1031000000010101010101010100010100000000B5
:1031100000000001010101010101010000000101A5
:103120000100000101010000000101010100000097
:103130000101010101010101000101010101010180
:10314000010000000000010100000001010000007A
:103150000000000101000000000101000101000069
:103160000000010100010101010101010100000055
:10317000000000000000000000000101000000004D
:10318000000101010000000000000000000000003C
:103190000000000101010101010100000001010125
:1031A0000101000000010101010101010000000115
:1031B0000101010100000000000001010000000009
:1031C00000000101000000000101000000000101F9
:1031D00000000101010101010000010100000000E7
:1031E00000000000010101010101000000000101D7
:1031F00000000000010100000000010100000000CB
:1032000001010101010101010001010101010101AF
:1032100001000000010100000000000000009D030B
:1032200007033403EA036503430357030D0A0059F8
:1032300061206E6F207469656E65207669646173C4
:10324000005961206E6F20686179206DC3A17320E1
:103250006E6976656C6573004E756D206F626A6588
:103260007469766F73004C6C656761737465206177
:103270006C206D6178696D6F20646520766964618A
:1032800073207065726D697469646F00546F727237
:10329000657320646573747275696461733A2000A4
:1032A00050726F6772616D61207061757361646FD8
:1032B00000444F5320534547554E444F53005452FA
:1032C0004553005452455320534547554E444F53A0
:1032D0000050726F6772616D61207265616E756416
:1032E00061646F004368616E676520746F204741B9
:1032F0004D45206D6F6465004368616E676520749D
:103300006F20535441544953544943206D6F6465B1
:10331000004368616E676520746F20434F4E4649D5
:1033200047206D6F646500494E495420627574747E
:103330006F6E20776173206368616E6765642074C7
:103340006F2067616D65206D6F64650042757474F0
:103350006F6E204D6964646C652068656C642066DE
:103360006F722033207365636F6E647300457374EE
:103370006F7920656E20656C206D656E73616A657E
:1033800000427574746F6E204D6964646C652068CA
:10339000656C6420666F722032207365636F6E64A3
:1033A00073004368616E676520746865206D6F7691
:1033B00065206F6620746865206C6F6F702074657F
:1033C00078742066726F6D206C65667420746F204F
:1033D0007269676874004573746F7920656E206543
:1033E0006C206D656E75004573746F7920656E2075
:0C33F000656C204A7565676F2047470038
:00000001FF
