:100000000C9435010C9466010C9466010C94660105
:100010000C9466010C9466010C9466010C946601C4
:100020000C9466010C9466010C9466010C946601B4
:100030000C9466010C9466010C9466010C946601A4
:100040000C9466010C9466010C9466010C94660194
:100050000C9466010C9466010C9466010C941706CE
:100060000C9466010C948B060C9461060C9466014A
:100070000C9466010C9466010C9466010C94660164
:100080000C9466010C9466010C9466010C94660154
:100090000C9466010C9466010C9466010C94660144
:1000A0000C9466010C9466010C9466010C94660134
:1000B0000C9466010C9466010C9466010C94660124
:1000C0000C9466010C9466010C9466010C94660114
:1000D0000C9466010C9466010C9466010C94660104
:1000E0000C9466010C94B9010C94C7010C94940112
:1000F0000C9412030C94DA020C949B010C94B80239
:100100000C947C020C94AF010C94A1010C94CB01D3
:100110000C948C010C945F030C94BD010C94900121
:100120000C9498010C94C6010C94CC020C9486019A
:100130000C94AB010C94C1010C94C1060C94A50164
:100140000C94A9020C94B3010000210024002700A4
:100150002A002D00300033000101000004010701D6
:100160000A0100002200250028002B002E0031008B
:10017000340002010000050108010B01000020000D
:100180002300260029002C002F003200000100006F
:10019000030106010901050505050705080808080A
:1001A000020202020A0A080804040404010101010F
:1001B000010101010303030303030303040707070A
:1001C0000C0C0C0C0C0C0C0C0202020206060606AF
:1001D000060606060B0B0B0B0B0B0B0B010210207C
:1001E000200808102040102040800201020108046D
:1001F0000201010204081020408080402010080401
:100200000201800402018040201008040201080459
:10021000020101020408102040800102040810209D
:10022000408000000A0B02090C0D0E0807030401B0
:1002300000000000000000000000000000000000BE
:10024000000000000000000000000000000012118B
:10025000100000000000000000000000000000008E
:100260000000000000000000C10611241FBECFEFF7
:10027000D1E2DEBFCDBF00E00CBF12E0A0E0B2E0F3
:10028000E4EEF6E100E00BBF02C007900D92A03350
:10029000B107D9F723E0A0E3B2E001C01D92AE3B65
:1002A000B207E1F711E0C5E3D1E000E006C0219715
:1002B0000109802FFE010E94680BC433D10780E042
:1002C0000807A9F70E948F070C94700B0C9400008C
:1002D0008150823108F05AC0E82FF0E08827EC58AE
:1002E000FE4F8F4F0C94680B9401980186018C018E
:1002F0009001C6019B01A101A501AB01AF01B301B2
:10030000B901BD01C601C101C701CB0180918000C7
:100310008F77809380000895809180008F7DF9CF42
:1003200080918000877FF5CF84B58F7784BD089555
:1003300084B58F7DFBCF8091B0008F778093B00024
:1003400008958091B0008F7DF9CF809190008F77D4
:10035000809390000895809190008F7DF9CF8091D7
:100360009000877FF5CF8091A0008F778093A000C9
:1003700008958091A0008F7DF9CF8091A000877FA4
:10038000F5CF809120018F7780932001089580918F
:1003900020018F7DF9CF80912001877FF5CFCF930A
:1003A000DF93282F30E0F901EE5DFD4F8491F901D4
:1003B000E452FE4FD491F901EA56FE4FC491CC238A
:1003C000A1F081110E946801EC2FF0E0EE0FFF1FF9
:1003D000E458FE4FA591B491EC91ED2381E090E0BB
:1003E00009F480E0DF91CF91089580E090E0FACFAA
:1003F0001F93CF93DF93282F30E0F901EE5DFD4F7F
:100400008491F901E452FE4FD491F901EA56FE4F6E
:10041000C491CC23A9F0162F81110E946801EC2F02
:10042000F0E0EE0FFF1FEE59FE4FA591B4918FB78C
:10043000F894EC91111108C0D095DE23DC938FBFA6
:10044000DF91CF911F910895DE2BF8CFCF93DF93EB
:1004500090E0FC01E452FE4F24918A569E4FFC012D
:1004600084918823D1F090E0880F991FFC01E85B0C
:10047000FE4FA591B491FC01EE59FE4FC591D49168
:1004800061110EC09FB7F8948C91E22FE0958E23F6
:100490008C932881E223E8839FBFDF91CF91089559
:1004A0008FB7F894EC91E22BEC938FBFF6CF3FB768
:1004B000F8948091C5029091C602A091C702B091B4
:1004C000C80226B5A89B05C02F3F19F00196A11DB3
:1004D000B11D3FBFBA2FA92F982F8827BC01CD018E
:1004E000620F711D811D911D42E0660F771F881FED
:1004F000991F4A95D1F70895AF92BF92CF92DF929C
:10050000EF92FF920F931F93CF93DF936C017B01C8
:100510008B01040F151FEB015E01AE18BF08C01759
:10052000D10759F06991D601ED91FC910190F081CC
:10053000E02DC6011995892B79F7C501DF91CF917F
:100540001F910F91FF90EF90DF90CF90BF90AF90F1
:100550000895FC01538D448D252F30E0842F90E0C9
:10056000821B930B541710F0CF96089501970895AE
:10057000FC01918D828D981761F0A28DAE0FBF2F77
:10058000B11D5D968C91928D9F5F9F73928F90E0CD
:1005900008958FEF9FEF0895FC01918D828D98173C
:1005A00031F0828DE80FF11D858D90E008958FEF79
:1005B0009FEF0895FC01918D228D892F90E0805C42
:1005C0009F4F821B91098F739927089589EC92E0C0
:1005D0000E94DA0221E0892B09F420E0822F08959D
:1005E000FC01A48DA80FB92FB11DA35ABF4F2C91A8
:1005F000848D90E001968F739927848FA689B7899F
:100600002C93A089B1898C91837080648C93938D95
:10061000848D981306C00288F389E02D80818F7D38
:1006200080830895EF92FF920F931F93CF93DF93F0
:10063000EC0181E0888F9B8D8C8D98131AC0E8891E
:10064000F989808185FF15C09FB7F894EE89FF89ED
:100650006083E889F98980818370806480839FBF8B
:1006600081E090E0DF91CF911F910F91FF90EF908B
:100670000895F62E0B8D10E00F5F1F4F0F7311279B
:10068000E02E8C8D8E110CC00FB607FCFACFE889D6
:10069000F989808185FFF5CFCE010E94F002F1CF6C
:1006A000EB8DEC0FFD2FF11DE35AFF4FF0829FB74A
:1006B000F8940B8FEA89FB8980818062CFCFCF933A
:1006C000DF93EC01888D8823B9F0AA89BB89E8897A
:1006D000F9898C9185FD03C0808186FD0DC00FB620
:1006E00007FCF7CF8C9185FFF2CF808185FFEDCF9E
:1006F000CE010E94F002E9CFDF91CF91089580E012
:1007000090E0892B29F00E94E60281110E940000EE
:1007100080E090E0892B49F080E090E0892B29F07F
:100720000E94000081110E94000080E090E0892B6F
:1007300049F080E090E0892B29F00E9400008111AF
:100740000E94000080E090E0892B49F080E090E07A
:10075000892B29F00E94000081110C94000008955B
:100760002091B3023091B4024091B9025091BA0283
:10077000C9010196BA016F5F7F4FDA011296E091CD
:10078000BB02F4E0220F331FFA95E1F7F4E0880F83
:10079000991FFA95E1F72E5C3D4FEE2391F0F90198
:1007A000EA0FFB1F10828E5C9D4FA80FB91F1C9291
:1007B000680F791FFB011082840F951FFC011082C6
:1007C0000895F901E40FF51F10828E5C9D4F480FCC
:1007D000591FFA011082680F791FFB011082A80FC0
:1007E000B91F1C920895CF938091B3029091B402E7
:1007F0002091B9023091BA02DC011196A9014F5F34
:100800005F4FB9016E5F7F4FF091BB02E4E0880F4C
:10081000991FEA95E1F7C4E0AA0FBB1FCA95E1F75B
:100820008E5C9D4FFF23A9F0FC01E60FF71F91E0BE
:100830009083FD01EE5CFD4F6E0F7F1FDB019C93EB
:100840004E0F5F1FDA019C93E20FF31F9083CF914D
:100850000895FC01E20FF31FC1E0C083CD018E5C5F
:100860009D4F280F391FF901C083480F591FDA0126
:10087000CC93860F971FFC01C083E9CFCF92DF9204
:10088000EF92FF920F931F93CF93DF931F921F92CC
:10089000CDB7DEB769834A83880F991F0091BC03E7
:1008A0001091BD03000F111FE6E6F3E09F012656ED
:1008B00033402017310714F41192F8CF2981FC013D
:1008C000EA59FC4F21838A81808360E08091BA03DA
:1008D0000E94F8011016110604F501501109F801E3
:1008E000EA59FC4FE080D090B803C090B60388E08E
:1008F000F82E6E2D661F6627661F8C2D0E94F8014C
:10090000EE0C61E08D2D0E94F80160E08D2D0E94BB
:10091000F801FA94F110EDCFDDCF61E08091BA03D8
:100920000F900F90DF91CF911F910F91FF90EF905B
:10093000DF90CF900C94F8018F929F92AF92BF926C
:10094000CF92DF92EF92FF920F931F93CF93DF939B
:10095000C6E6D3E042E3C42E42E0D42EBB24B394D7
:1009600050E8E52EF12C10E000E08091BC0390915E
:10097000BD0318161906BCF4C701002E02C09595D8
:1009800087950A94E2F72889F601E00FF11F30817C
:10099000313009F05DC0822B888B48896B2D90E047
:1009A00080E00E943E040F5F1F4F08301105E9F6FA
:1009B0002196B39480E1C80ED11C89E0B812D3CF40
:1009C00093E0E92EF12C23ECC22ED12C3BE2A32E96
:1009D00031E1B32E82E3882E82E0982ECEE008E04B
:1009E00010E0F401E00FF11F80818130A1F560E09B
:1009F0008C2F0E94F80161E0DEE0D00F8D2F0E9465
:100A0000F801C5010197F1F761E08C2F0E94F80110
:100A100060E08D2F0E94F8010F5F1F4F003111051C
:100A200001F7CF5F80E1880E911CC631C1F681E0ED
:100A3000E81AF10879F6DF91CF911F910F91FF909D
:100A4000EF90DF90CF90BF90AF909F908F900895E0
:100A500080958223A1CFC6010197F1F7DDCFEF92F8
:100A6000FF920F931F93CF93DF9382E3E82E82E0F0
:100A7000F82E10E000E0D0E0C0E0F701EC0FFD1F21
:100A80008081813019F58091B9029091BA02C8171E
:100A9000D907E4F002968C179D07C4F08091B30249
:100AA0009091B402081719078CF09C012F5F3F4FFB
:100AB000201731075CF0029797FD1BC09093B4029A
:100AC0008093B3020E94F3030E949C042196C031DC
:100AD000D10599F60F5F1F4F80E1E80EF11C083039
:100AE000110549F6DF91CF911F910F91FF90EF9083
:100AF00008951092B4021092B302E4CFFC01019069
:100B00000020E9F73197AF01481B590BBC0189EC74
:100B100092E00C947C022F923F924F925F926F92E0
:100B20007F928F929F92AF92BF92CF92DF92EF927D
:100B3000FF920F931F93CF93DF9300D000D0CDB7D8
:100B4000DEB700910002109101020D5F1F4F1E825F
:100B50001D8234E0C32ED12CE12CF12C48E0242E50
:100B6000312C2D813E81201731070CF047C00E94A7
:100B7000AD0A2FE030E040E050E00E94050B4B0151
:100B80000E94AD0A2B013C010E94AD0A22E030E038
:100B900040E050E00E94050B9B01AC012F5F3F4FEE
:100BA0004F4F5F4F29833A834B835C83C301B2016C
:100BB000A70196010E94050B6F5F7F4F8F4F9F4FDC
:100BC000C101861B970B49815A81840E951E88307E
:100BD000910574F4FC0124E0EE0FFF1F2A95E1F764
:100BE000E80DF91DEE5CFD4F51E050830196EFCF0B
:100BF0008D819E8101969E838D83B3CF26960FB6FD
:100C0000F894DEBF0FBECDBFDF91CF911F910F9142
:100C1000FF90EF90DF90CF90BF90AF909F908F901C
:100C20007F906F905F904F903F902F9008951F920C
:100C30000F920FB60F9211242F933F938F939F9390
:100C4000AF93BF938091C1029091C202A091C30261
:100C5000B091C4023091C00223E0230F2D3758F524
:100C60000196A11DB11D2093C0028093C1029093F3
:100C7000C202A093C302B093C4028091C5029091B6
:100C8000C602A091C702B091C8020196A11DB11D74
:100C90008093C5029093C602A093C702B093C80286
:100CA000BF91AF919F918F913F912F910F900FBE68
:100CB0000F901F90189526E8230F0296A11DB11DD5
:100CC000D2CF1F920F920FB60F9211240BB60F9234
:100CD0002F933F934F935F936F937F938F939F9344
:100CE000AF93BF93EF93FF9389EC92E00E94F002E1
:100CF000FF91EF91BF91AF919F918F917F916F91F4
:100D00005F914F913F912F910F900BBE0F900FBEAF
:100D10000F901F9018951F920F920FB60F921124EB
:100D20000BB60F922F938F939F93EF93FF93E091C6
:100D3000D902F091DA028081E091DF02F091E002C5
:100D400082FD1DC090818091E2028F5F8F732091A0
:100D5000E302821741F0E091E202F0E0E753FD4F39
:100D6000958F8093E202FF91EF919F918F912F9148
:100D70000F900BBE0F900FBE0F901F9018958081A3
:100D8000F2CFEF92FF921F93CF93DF931092CC029A
:100D90001092CB0288EE93E0A0E0B0E08093CD0209
:100DA0009093CE02A093CF02B093D0028AE092E05B
:100DB0009093CA028093C90285EC90E09093D6028A
:100DC0008093D50284EC90E09093D8028093D70270
:100DD00080EC90E09093DA028093D90281EC90E06D
:100DE0009093DC028093DB0282EC90E09093DE0231
:100DF0008093DD0286EC90E09093E0028093DF0226
:100E00001092E2021092E3021092E4021092E502C4
:100E1000C7E0D0E0D093B703C093B60386E090E07C
:100E20009093B9038093B80385E090E09093BB035F
:100E30008093BA0381E090E09093BD038093BC035C
:100E400061E087E00E94260261E08091B8030E9481
:100E5000260261E08091BA030E94260261E080913F
:100E6000BA030E94F801D093B703C093B603E6E734
:100E7000F3E0119223E0E63BF207D9F7D0E0C0E0BF
:100E80008091BC039091BD03C817D9070CF041C0F5
:100E900040E06FE0CE010E943E048091BC0390913F
:100EA000BD03C817D9072CF447E06BE0CE010E94C0
:100EB0003E0440E069E0CE010E943E048091BC0304
:100EC0009091BD03C817D907B4F4CE0123E0880F71
:100ED000991F2A95E1F7FC01EA58FC4F7F0111E0C8
:100EE000F70111927F0140E0612FCE010E943E0484
:100EF0001F5F1930A9F78091BC039091BD03C817FB
:100F0000D9072CF440E06CE0CE010E943E0421960B
:100F1000B7CFDF91CF911F91FF90EF900895CF93BE
:100F2000DF93CDB7DEB7A2970FB6F894DEBF0FBE42
:100F3000CDBF789484B5826084BD84B5816084BD62
:100F400085B5826085BD85B5816085BD80916E0067
:100F5000816080936E001092810080918100826098
:100F600080938100809181008160809381008091D5
:100F700080008160809380008091B10084608093C4
:100F8000B1008091B00081608093B00080919100A9
:100F900082608093910080919100816080939100A4
:100FA000809190008160809390008091A100826088
:100FB0008093A1008091A10081608093A100809125
:100FC000A00081608093A0008091210182608093C5
:100FD0002101809121018160809321018091200174
:100FE00081608093200180917A00846080937A00F0
:100FF00080917A00826080937A0080917A0081608B
:1010000080937A0080917A00806880937A001092B1
:10101000C100E091D902F091DA0282E08083E09190
:10102000D502F091D6021082E091D702F091D80259
:101030008FEC80831092E102E091DD02F091DE02FC
:1010400086E08083E091DB02F091DC0280818061A8
:101050008083E091DB02F091DC02808188608083F4
:10106000E091DB02F091DC02808180688083E09176
:10107000DB02F091DC0280818F7D80838091BC0354
:101080009091BD031816190634F441E06CE090E02D
:1010900080E00E943E048091BC039091BD0318162D
:1010A000190634F448E06AE090E080E00E943E04D3
:1010B0001EE061E0812F0E9426021F5F1631C9F7F2
:1010C00061E0812F0E9426021F5F1E31C9F71EE0DA
:1010D00061E0812F0E94F8011F5F1631C9F760E0BF
:1010E000812F0E94F8011F5F1E31C9F760E088E27E
:1010F0000E94260260E089E20E942602BAE04B2E9E
:10110000512C612C712C2FB7F8948091C1029091D1
:10111000C202A091C302B091C4022FBF4091BC0291
:101120005091BD026091BE027091BF02841B950B6D
:10113000A60BB70B86399105A105B10554F12FB760
:10114000F8948091C1029091C202A091C302B09123
:10115000C4022FBF8093BC029093BD02A093BE0235
:10116000B093BF022091BB028091B9029091BA0264
:10117000222309F465C0019797FD05C09093BA0238
:101180008093B90206C02DE030E03093BA0220937C
:10119000B9022FB7F8948091C1029091C202A09138
:1011A000C302B091C4022FBF4091B5025091B60264
:1011B0006091B7027091B802841B950BA60BB70B18
:1011C000883E9340A105B105F8F02FB7F8948091BF
:1011D000C1029091C202A091C302B091C4022FBF7C
:1011E0008093B5029093B602A093B702B093B80271
:1011F0008091B3029091B402873091055CF501961D
:101200009093B4028093B3020E942F050E94F303CF
:101210000E949C040E94B0038091B202811105C01B
:1012200081E08093B2020E948B0588E20E94CF0188
:101230000197A9F491E09093BB020E947F0363CFD2
:1012400001968E3091050CF499CF1092BA0210924B
:10125000B9029FCF1092B4021092B302D5CF89E2A7
:101260000E94CF01019719F41092BB02E6CF8AE2E7
:101270000E94CF01019709F78091B3029091B402C7
:101280001C01E2E02E0E311C0091B9021091BA024D
:10129000A4E0880F991FAA95E1F7080F191F0D5CAC
:1012A0001D4F1AA2F8E02F1631040CF068C021E09F
:1012B000F80120A38091B9029091BA022091BB025B
:1012C000222309F452C0019797FD4CC09093BA02B3
:1012D0008093B9020E942F050E94F3030E949C0490
:1012E0000E94B0039FEF291A390AF80180A98130C2
:1012F00081F4FAA1F1110DC0809130029091310278
:1013000001969093310280933002F80110AAF1E027
:10131000FAA3F80110A20E9457024B015C01F4E607
:10132000CF2ED12CE12CF12C0E945702681979099B
:101330008A099B09683E734081059105A8F3F1E095
:10134000CF1AD108E108F10828EE820E23E0921EA0
:10135000A11CB11CC114D104E104F10429F7005F00
:101360001F4FA0CF8DE090E0B1CF01968E30910558
:101370000CF4ACCF1092BA021092B902ABCF88E154
:1013800092E00E947E05C0903002D09031020D2C78
:10139000000CEE08FF08F7FE55C06DE289EC92E004
:1013A0000E94120322273327A9012C193D094E0957
:1013B0005F0919A28E010F5D1F4FCA01B901A30178
:1013C00092010E94370B605DF80162938F01211535
:1013D00031054105510589F70115110519F0C801BD
:1013E0000E947E058CE292E00E947E05A2E3B2E0BC
:1013F00050E040E070E060E0B12CA12C90E080E093
:101400009A012E5C3D4F69019D01280F391FF9019A
:101410002081213089F5FFEFAF1ABF0A30E020E0CC
:101420007601E80EF91E8901E4E0000F111FEA952C
:10143000E1F70E0D1F1DF80110811130C9F42F5F67
:101440003F4FF1CFA701960119A28E010F5D1F4FEB
:10145000CA01B901A30192010E94370B605DF80136
:1014600062938F01211531054105510589F7B4CFEC
:10147000621773070CF4B90101968031910521F6CA
:101480005096405F5F4F4038510509F0B7CFAB2809
:1014900021F0653071050CF4D0CE8091000290915E
:1014A0000102019690930102809300021092BA0209
:1014B0001092B9021092B4021092B3020E948B05EE
:1014C000BCCE8F929F92AF92BF92CF92DF92EF925B
:1014D000FF92CF93DF93EC01688179818A819B81B0
:1014E000611571058105910521F464E279ED8BE5C3
:1014F00097E02DE133EF41E050E00E94050B4901F8
:101500005A019B01AC01A7EAB1E40E94240B6B01D4
:101510007C01ACEEB4EFA50194010E94320BC60E23
:10152000D71EE81EF91EF7FE06C081E0C81AD108D2
:10153000E10880E8F80AC882D982EA82FB82C70102
:10154000B6019F77DF91CF91FF90EF90DF90CF9022
:10155000BF90AF909F908F9008958F929F92AF927F
:10156000BF92CF92DF92EF92FF9260910202709150
:1015700003028091040290910502611571058105B5
:10158000910521F464E279ED8BE597E02DE133EFED
:1015900041E050E00E94050B49015A019B01AC015A
:1015A000A7EAB1E40E94240B6B017C01ACEEB4EF1E
:1015B000A50194010E94320BC60ED71EE81EF91E2B
:1015C000F7FE06C081E0C81AD108E10880E8F80AF1
:1015D000C0920202D0920302E0920402F09205024D
:1015E000C701B6019F77FF90EF90DF90CF90BF903B
:1015F000AF909F908F9008956093020270930302C2
:1016000080930402909305020895052E97FB1EF423
:1016100000940E941C0B57FD07D00E94370B07FC5B
:1016200003D04EF40C941C0B5095409530952195A9
:101630003F4F4F4F5F4F08959095809570956195FE
:101640007F4F8F4F9F4F08950E94590BA59F900D7C
:10165000B49F900DA49F800D911D11240895B7FF94
:101660000C94240B0E94240B821B930B0895A1E27F
:101670001A2EAA1BBB1BFD010DC0AA1FBB1FEE1F0C
:10168000FF1FA217B307E407F50720F0A21BB30B57
:10169000E40BF50B661F771F881F991F1A9469F7D3
:1016A00060957095809590959B01AC01BD01CF012F
:1016B0000895A29FB001B39FC001A39F700D811D2B
:1016C0001124911DB29F700D811D1124911D08954B
:1016D000EE0FFF1F881F8BBF0790F691E02D199426
:0416E000F894FFCFAC
:1016E4000100010000000000000012037C02A902B6
:1016F4005F03DA02B802CC02546F7272657320641D
:101704006573747275696461733A20000D0A000090
:00000001FF
