:100000000C9465010C9496010C9496010C94960145
:100010000C9496010C9496010C9496010C94960104
:100020000C9496010C9496010C9496010C949601F4
:100030000C9496010C9496010C9496010C949601E4
:100040000C9496010C9496010C9496010C949601D4
:100050000C9496010C9496010C9496010C947008E3
:100060000C9496010C94E4080C94BA080C94960134
:100070000C9496010C9496010C9496010C949601A4
:100080000C9496010C9496010C9496010C94960194
:100090000C9496010C9496010C9496010C94960184
:1000A0000C9496010C9496010C9496010C94960174
:1000B0000C9496010C9496010C9496010C94960164
:1000C0000C9496010C9496010C9496010C94960154
:1000D0000C9496010C9496010C9496010C94960144
:1000E0000C9496010C9410110C941E0E0C94B601F5
:1000F0000C94CB010C94AC0D0C94920C0C94400E0F
:100100000C94C8010C94ED010C94D5010C94940D41
:100110000C94BC0D0C9499110C94BC010C943A03F2
:100120000C94D7110C9422110C94DA0D0C94F1015B
:100130000C9480030C94600D0C94E3010C94B711A3
:100140000C94F6010C94EA020C94DB010C94DF0190
:100150000C9483110C94E9010C9417030C94D101B5
:100160000C94800C0C94F7010C9465110C942603EC
:100170000C941A090C94760D0C94FB010C94C40198
:100180000C94E7110C94420D0C94F00D0C94C001EA
:100190000C946E0E0C949C0E0C94CD030C9448039E
:1001A0000C9409120C94291200002100240027004D
:1001B0002A002D0030003300010100000401070176
:1001C0000A0100002200250028002B002E0031002B
:1001D000340002010000050108010B0100002000AD
:1001E0002300260029002C002F003200000100000F
:1001F00003010601090105050505070508080808AA
:10020000020202020A0A08080404040401010101AE
:1002100001010101030303030303030304070707A9
:100220000C0C0C0C0C0C0C0C02020202060606064E
:10023000060606060B0B0B0B0B0B0B0B010210201B
:10024000200808102040102040800201020108040C
:1002500002010102040810204080804020100804A0
:1002600002018004020180402010080402010804F9
:10027000020101020408102040800102040810203D
:10028000408000000A0B02090C0D0E080703040150
:10029000000000000000000000000000000000005E
:1002A000000000000000000000000000000012112B
:1002B000100000000000000000000000000000002E
:1002C00000000000000000001A0911241FBECFEF3B
:1002D000D1E2DEBFCDBF00E00CBF12E0A0E0B2E093
:1002E000E4E3F8E200E00BBF02C007900D92A63EE7
:1002F000B107D9F725E0A6EEB2E001C01D92A23108
:10030000B207E1F711E0C5E6D1E000E006C02197B1
:100310000109802FFE010E94FC13C436D10780E042
:100320000807A9F70E94E8090C9418140C9400001F
:100330008150823108F05AC0E82FF0E08827EC5550
:10034000FE4F8F4F0C94FC13C401C801B601BC01D1
:10035000C001F601CB01D101D501DB01DF01E301D1
:10036000E901ED01F601F101F701FB018091800047
:100370008F77809380000895809180008F7DF9CFE2
:1003800080918000877FF5CF84B58F7784BD0895F5
:1003900084B58F7DFBCF8091B0008F778093B000C4
:1003A00008958091B0008F7DF9CF809190008F7774
:1003B000809390000895809190008F7DF9CF809177
:1003C0009000877FF5CF8091A0008F778093A00069
:1003D00008958091A0008F7DF9CF8091A000877F44
:1003E000F5CF809120018F7780932001089580912F
:1003F00020018F7DF9CF80912001877FF5CFCF93AA
:10040000DF93282F30E0F901EE57FD4F8491F90179
:10041000E45CFD4FD491F901EA50FE4FC491CC2326
:10042000A1F081110E949801EC2FF0E0EE0FFF1F68
:10043000E452FE4FA591B491EC91ED2381E090E060
:1004400009F480E0DF91CF91089580E090E0FACF49
:100450001F93CF93DF93282F30E0F901EE57FD4F24
:100460008491F901E45CFD4FD491F901EA50FE4F0B
:10047000C491CC23A9F0162F81110E949801EC2F72
:10048000F0E0EE0FFF1FEE53FE4FA591B4918FB732
:10049000F894EC91111108C0D095DE23DC938FBF46
:1004A000DF91CF911F910895DE2BF8CFCF93DF938B
:1004B00090E0FC01E45CFD4F24918A509E4FFC01CA
:1004C00084918823D1F090E0880F991FFC01E855B2
:1004D000FE4FA591B491FC01EE53FE4FC591D4910E
:1004E00061110EC09FB7F8948C91E22FE0958E2396
:1004F0008C932881E223E8839FBFDF91CF910895F9
:100500008FB7F894EC91E22BEC938FBFF6CF3FB707
:10051000F8948091190490911A04A0911B04B09151
:100520001C0426B5A89B05C02F3F19F00196A11DFC
:10053000B11D3FBFBA2FA92F982F8827BC01CD012D
:10054000620F711D811D911D42E0660F771F881F8C
:10055000991F4A95D1F708958F929F92AF92BF92BB
:10056000CF92DF92EF92FF924B015C010E948702D3
:100570006B017C010E9487026C197D098E099F091D
:10058000683E734081059105A8F321E0821A910825
:10059000A108B10888EEC80E83E0D81EE11CF11C4A
:1005A00081149104A104B10429F7FF90EF90DF902A
:1005B000CF90BF90AF909F908F9008952FB7F894F1
:1005C000609115047091160480911704909118049D
:1005D0002FBF0895AF92BF92CF92DF92EF92FF921A
:1005E0000F931F93CF93DF936C017B018B01040F5B
:1005F000151FEB015E01AE18BF08C017D10759F0F7
:100600006991D601ED91FC910190F081E02DC60138
:100610001995892B79F7C501DF91CF911F910F9122
:10062000FF90EF90DF90CF90BF90AF900895FC01C6
:10063000538D448D252F30E0842F90E0821B930B47
:10064000541710F0CF96089501970895FC01918DED
:10065000828D981761F0A28DAE0FBF2FB11D5D96F0
:100660008C91928D9F5F9F73928F90E008958FEF92
:100670009FEF0895FC01918D828D981731F0828D46
:10068000E80FF11D858D90E008958FEF9FEF08959D
:10069000FC01918D228D892F90E0805C9F4F821B01
:1006A00091098F73992708958DE194E00E94480382
:1006B00021E0892B09F420E0822F0895FC01A48D0C
:1006C000A80FB92FB11DA35ABF4F2C91848D90E074
:1006D00001968F739927848FA689B7892C93A08957
:1006E000B1898C91837080648C93938D848D9813E1
:1006F00006C00288F389E02D80818F7D8083089574
:10070000EF92FF920F931F93CF93DF93EC0181E061
:10071000888F9B8D8C8D98131AC0E889F989808108
:1007200085FF15C09FB7F894EE89FF896083E8893B
:10073000F98980818370806480839FBF81E090E02D
:10074000DF91CF911F910F91FF90EF900895F62EBA
:100750000B8D10E00F5F1F4F0F731127E02E8C8D54
:100760008E110CC00FB607FCFACFE889F989808199
:1007700085FFF5CFCE010E945E03F1CFEB8DEC0F2C
:10078000FD2FF11DE35AFF4FF0829FB7F8940B8FB6
:10079000EA89FB8980818062CFCFCF93DF93EC0120
:1007A000888D8823B9F0AA89BB89E889F9898C9159
:1007B00085FD03C0808186FD0DC00FB607FCF7CF15
:1007C0008C9185FFF2CF808185FFEDCFCE010E9415
:1007D0005E03E9CFDF91CF91089580E090E0892B0F
:1007E00029F00E94540381110E94000080E090E0F3
:1007F000892B49F080E090E0892B29F00E940000CD
:1008000081110E94000080E090E0892B49F080E097
:1008100090E0892B29F00E94000081110E940000C5
:1008200080E090E0892B49F080E090E0892B29F06E
:100830000E94000081110C9400000895CF93DF9373
:100840009C01215031092D30310560F46B587C4FEB
:10085000FB01E059FF4F81E080836F587F4FFB0120
:10086000808398C09C012E5031092D303105A8F4A9
:100870009B012B583C4FF901E059FF4F81E08083E9
:100880006A587C4FFB01E059FF4F8083205A3F4F4D
:10089000F9018083605A7F4FE2CF9C012B513109CF
:1008A0002D303105E8F49B012B583C4FF901E059FC
:1008B000FF4F81E080836A587C4FFB01E059FF4F76
:1008C0008083F901E05AFF4F8083FB01E05AFF4F1C
:1008D0008083205B3F4FF9018083605B7F4FBFCFF8
:1008E0009C01285231092D30310528F59B012B58E8
:1008F0003C4FF901E059FF4F81E080836A587C4FFB
:10090000FB01E059FF4F8083F901E05AFF4F8083DC
:10091000FB01E05AFF4F8083F901E05BFF4F8083CA
:10092000FB01E05BFF4F8083205C3F4FF901808338
:10093000605C7F4F94CF9C01255331092D303105E8
:1009400060F5FB01EB58FC4FDF01A059BF4F81E080
:100950008C936A587C4FDB01A059BF4F8C93DF0109
:10096000A05ABF4F8C93DB01A05ABF4F8C93DF017D
:10097000A05BBF4F8C93DB01A05BBF4F8C93DF016B
:10098000A05CBF4F8C93DB01A05CBF4F8C9380AB0E
:10099000FB0180ABDF91CF9108959C012254310976
:1009A0002D30310578F5DB01AB58BC4FFD01E05926
:1009B000FF4F81E08083FB01EA58FC4FEF01C059F3
:1009C000DF4F8883ED01C05ADF4F8883EF01C05AA3
:1009D000DF4F8883ED01C05BDF4F8883EF01C05B91
:1009E000DF4F8883ED01C05CDF4F8883EF01C05C7F
:1009F000DF4F8883D0968C93D09780AB90968C9362
:100A000080A3C8CF9C012F5431092D30310598F5B2
:100A1000DB01AB58BC4FFD01E059FF4F81E0808303
:100A2000FB01EA58FC4FEF01C059DF4F8883ED010D
:100A3000C05ADF4F8883EF01C05ADF4F8883ED0132
:100A4000C05BDF4F8883EF01C05BDF4F8883ED0120
:100A5000C05CDF4F8883EF01C05CDF4F8883D09696
:100A60008C93D09780AB90968C93909780A3509660
:100A70008C93808B8FCF8C559109099708F08ACF82
:100A8000DB01AB58BC4FFD01E059FF4F81E0808393
:100A9000FB01EA58FC4FEF01C059DF4F8883ED019D
:100AA000C05ADF4F8883EF01C05ADF4F8883ED01C2
:100AB000C05BDF4F8883EF01C05BDF4F8883ED01B0
:100AC000C05CDF4F8883EF01C05CDF4F8883D09626
:100AD0008C93D09780AB90968C93909780A35096F0
:100AE0008C935097808B8C93BBCE85E793E030E05E
:100AF00020E0FC01E20FF31F10822F5F3F4F2031F7
:100B00003105B9F7409623E0853F920781F70895B4
:100B100085EF92E030E020E0FC01E20FF31F40811E
:100B2000413009F410822F5F3F4F20313105A1F78A
:100B3000409623E08537920769F7089581E090E0B9
:100B400090930302809302021092F4021092F30237
:100B5000109209041092080483E090E0909301023F
:100B60008093000210920604109205041092000473
:100B70001092FF0310920704109212041092FE03C9
:100B80001092F903109213040C9488052091FF032E
:100B9000309100044091050450910604C90101966A
:100BA000BA016F5F7F4FDA011296E0910704F4E01B
:100BB000220F331FFA95E1F7F4E0880F991FFA9599
:100BC000E1F72B583C4FEE2391F0F901EA0FFB1FA0
:100BD00010828B589C4FA80FB91F1C92680F791F69
:100BE000FB011082840F951FFC0110820895F9010A
:100BF000E40FF51F10828B589C4F480F591FFA01C4
:100C00001082680F791FFB011082A80FB91F1C9278
:100C10000895CF938091FF039091000420910504E3
:100C200030910604DC011196A9014F5F5F4FB901B5
:100C30006E5F7F4FF0910704E4E0880F991FEA95FB
:100C4000E1F7C4E0AA0FBB1FCA95E1F78B589C4F90
:100C5000FF23A9F0FC01E60FF71F91E09083FD014F
:100C6000EB58FC4F6E0F7F1FDB019C934E0F5F1FF5
:100C7000DA019C93E20FF31F9083CF910895FC015A
:100C8000E20FF31FC1E0C083CD018B589C4F280FAA
:100C9000391FF901C083480F591FDA01CC93860F21
:100CA000971FFC01C083E9CFCF92DF92EF92FF92B2
:100CB0000F931F93CF93DF931F921F92CDB7DEB791
:100CC00069834A83880F991F0091100510911105BF
:100CD000000F111FEAEBF4E09F012A5B344020175C
:100CE000310714F41192F8CF2981FC01E654FB4F2F
:100CF00021838A81808360E080910E050E94280212
:100D00001016110604F501501109F801E654FB4FC5
:100D1000E080D0900C05C0900A0588E0F82E6E2D7A
:100D2000661F6627661F8C2D0E942802EE0C61E06C
:100D30008D2D0E94280260E08D2D0E942802FA94D9
:100D4000F110EDCFDDCF61E080910E050F900F9097
:100D5000DF91CF911F910F91FF90EF90DF90CF9097
:100D60000C9428028F929F92AF92BF92CF92DF9203
:100D7000EF92FF920F931F93CF93DF93CAEBD4E0D0
:100D800045E7C42E43E0D42EBB24B39450E8E52EAF
:100D9000F12C10E000E080911005909111051816DB
:100DA0001906BCF4C701002E02C0959587950A94D8
:100DB000E2F72889F601E00FF11F3081313009F0A8
:100DC0005DC0822B888B48896B2D90E080E00E946B
:100DD00054060F5F1F4F08301105E9F62196B394B2
:100DE00080E1C80ED11C89E0B812D3CF93E0E92E80
:100DF000F12C23ECC22ED12C3BE2A32E31E1B32EF9
:100E000085E7882E83E0982ECEE008E010E0F4011C
:100E1000E00FF11F80818130A1F560E08C2F0E94EE
:100E2000280261E0DEE0D00F8D2F0E942802C5016C
:100E30000197F1F761E08C2F0E94280260E08D2F6E
:100E40000E9428020F5F1F4F0031110501F7CF5F8D
:100E500080E1880E911CC631C1F681E0E81AF108E4
:100E600079F6DF91CF911F910F91FF90EF90DF9076
:100E7000CF90BF90AF909F908F90089580958223E0
:100E8000A1CFC6010197F1F7DDCFFC010190002051
:100E9000E9F73197AF01481B590BBC018DE194E094
:100EA0000C94EA028F929F92AF92BF92CF92DF9200
:100EB000EF92FF920F931F93CF93DF93CDB7DEB7DF
:100EC000A1970FB6F894DEBF0FBECDBF6C01990F8E
:100ED000EE08FF08F7FE47C06DE28DE194E00E9446
:100EE00080038C0122273327A9012C193D094E09C3
:100EF0005F0919A2CE0181967C019AE0892E912C7E
:100F0000A12CB12CCA01B901A50194010E94B7130B
:100F1000605DF70162937F0121153105410551059F
:100F200089F790E080E0309719F0CF010E944507E3
:100F3000080F191F8AE192E00E944507800F911F58
:100F4000A1960FB6F894DEBF0FBECDBFDF91CF9153
:100F50001F910F91FF90EF90DF90CF90BF90AF90D7
:100F60009F908F900895A701960119A28E010F5DA1
:100F70001F4F8AE0C82ED12CE12CF12CCA01B901F7
:100F8000A70196010E94B713605DF80162938F017B
:100F9000211531054105510589F7309729F0CF0119
:100FA0000E9445078C01C6CF10E000E0C3CFCF936D
:100FB000DF930E944507EC018AE192E00E94450719
:100FC0008C0F9D1FDF91CF910895CF92DF92EF920A
:100FD000FF920F931F93CF93DF9335E7E32E33E018
:100FE000F32E10E000E045E0C42ED12CD0E0C0E0AC
:100FF000F701EC0FFD1F80818130A9F58091050478
:1010000090910604C817D90774F102968C179D07B2
:1010100054F18091FF0390910004081719071CF107
:101020009C012F5F3F4F20173107ECF0029797FD8F
:1010300030C0909300048093FF0380910002909150
:1010400001020E94520780910002909101028230B9
:10105000910524F1019790930102809300020E9470
:1010600009060E94B2062196C031D10509F60F5F2C
:101070001F4F80E1E80EF11C0830110509F0B6CFD2
:10108000DF91CF911F910F91FF90EF90DF90CF9064
:101090000895109200041092FF03CFCF0E947505AF
:1010A0008091E6029091E702FC01EE0FFF1FE851EC
:1010B000FD4F2091F3023091F40231832083019699
:1010C000B6010E94E8139093E7028093E6028DE157
:1010D00092E00E94D707109213040E949E05C3CF8E
:1010E0001F920F920FB60F9211242F933F938F935D
:1010F0009F93AF93BF938091150490911604A09194
:101100001704B09118043091140423E0230F2D37F5
:1011100058F50196A11DB11D209314048093150468
:1011200090931604A0931704B093180480911904A7
:1011300090911A04A0911B04B0911C040196A11D6A
:10114000B11D8093190490931A04A0931B04B093CB
:101150001C04BF91AF919F918F913F912F910F9060
:101160000FBE0F901F90189526E8230F0296A11D21
:10117000B11DD2CF1F920F920FB60F9211240BB652
:101180000F922F933F934F935F936F937F938F9320
:101190009F93AF93BF93EF93FF938DE194E00E94F1
:1011A0005E03FF91EF91BF91AF919F918F917F91DE
:1011B0006F915F914F913F912F910F900BBE0F90C8
:1011C0000FBE0F901F9018951F920F920FB60F929F
:1011D00011240BB60F922F938F939F93EF93FF934E
:1011E000E0912D04F0912E048081E0913304F09180
:1011F000340482FD1DC09081809136048F5F8F730F
:1012000020913704821741F0E0913604F0E0E35E6C
:10121000FB4F958F80933604FF91EF919F918F91B3
:101220002F910F900BBE0F900FBE0F901F9018952F
:101230008081F2CFEF92FF921F93CF93DF931092B2
:10124000200410921F0488EE93E0A0E0B0E08093A9
:10125000210490932204A0932304B09324048CE0EF
:1012600092E090931E0480931D0485EC90E090938F
:101270002A048093290484EC90E090932C048093BA
:101280002B0480EC90E090932E0480932D0481EC4D
:1012900090E09093300480932F0482EC90E0909340
:1012A00032048093310486EC90E090933404809370
:1012B00033041092360410923704109238041092BE
:1012C0003904C7E0D0E0D0930B05C0930A0586E04F
:1012D00090E090930D0580930C0585E090E090934D
:1012E0000F0580930E0581E090E0909311058093A7
:1012F000100561E087E00E94560261E080910C05D4
:101300000E94560261E080910E050E94560261E043
:1013100080910E050E942802D0930B05C0930A0508
:10132000EAECF4E0119225E0EA30F207D9F7D0E0D8
:10133000C0E08091100590911105C817D9070CF0F5
:1013400041C040E06FE0CE010E945406809110053C
:1013500090911105C817D9072CF447E06BE0CE0136
:101360000E94540640E069E0CE010E94540680913C
:10137000100590911105C817D907B4F4CE0123E0E8
:10138000880F991F2A95E1F7FC01E653FB4F7F0177
:1013900011E0F70111927F0140E0612FCE010E9420
:1013A00054061F5F1930A9F780911005909111051F
:1013B000C817D9072CF440E06CE0CE010E94540617
:1013C0002196B7CFDF91CF911F91FF90EF900895B5
:1013D000CF93DF9300D000D01F921F92CDB7DEB71E
:1013E000789484B5826084BD84B5816084BD85B500
:1013F000826085BD85B5816085BD80916E0081600C
:1014000080936E00109281008091810082608093B1
:1014100081008091810081608093810080918000B3
:101420008160809380008091B10084608093B100DE
:101430008091B00081608093B000809191008260C3
:1014400080939100809191008160809391008091C0
:1014500090008160809390008091A10082608093D1
:10146000A1008091A10081608093A1008091A000E3
:1014700081608093A000809121018260809321018E
:101480008091210181608093210180912001816000
:101490008093200180917A00846080937A0080910B
:1014A0007A00826080937A0080917A0081608093D4
:1014B0007A0080917A00806880937A001092C1004F
:1014C000E0912D04F0912E0482E08083E0912904C4
:1014D000F0912A041082E0912B04F0912C048FECFF
:1014E000808310923504E0913104F091320486E05B
:1014F0008083E0912F04F0913004808180618083AB
:10150000E0912F04F0913004808188608083E09125
:101510002F04F0913004808180688083E0912F0453
:10152000F091300480818F7D8083809110059091AF
:1015300011051816190634F441E06CE090E080E0E3
:101540000E945406809110059091110518161906F5
:1015500034F448E06AE090E080E00E9454062EE017
:10156000298361E089810E94560239813F5F398376
:101570003631B9F761E089810E94560289818F5F17
:1015800089838E31B9F79EE0998361E089810E9459
:101590002802E981EF5FE983E631B9F760E08981EC
:1015A0000E942802F981FF5FF983FE31B9F760E0FC
:1015B00088E20E94560260E089E20E9456026FE0D3
:1015C000462E512C612C712C809113048111F9C08D
:1015D00021E0209396032093A6032093A703209352
:1015E000A8032093C70320937A0320937B032093BF
:1015F0007C0320937D0320937E0320937F0320931D
:101600008A0320938B0320938C0320938D032093D4
:101610008E0320938F0320939A0320939C0320939F
:101620009D0320939E0320939F032093AA0320935E
:10163000AC032093AD032093AF032093BA03209310
:10164000BD032093BF032093CA032093CF032093AD
:10165000DA032093DB032093DC032093DD03209344
:10166000DE032093DF032093EA032093EB03209310
:10167000EC032093ED032093EE032093EF032093DC
:10168000A2032093A3032093B1032093C1032093CB
:10169000D2032093D30388E20E94FF01019709F04F
:1016A000B6C00E94DE0260930E0470930F04809314
:1016B00010049093110431E0309313040E947505D7
:1016C0008091F202882309F47AC00E947505E091A6
:1016D000E802F091E9028091EA029091EB02E80FB2
:1016E000F91F8091EC029091ED02E80FF91F8091B3
:1016F000EE029091EF02E80FF91F8091F0029091B5
:10170000F102E80FF91FFA83E98348EEE42E42E084
:10171000F42E10E000E054E6D52EF701219131912E
:101720007F01D29EC001D39E900D112469817A81E0
:101730000E94E813CB010115110509F078C061E0A2
:1017400070E0181619060CF47BC00F5F1F4F0530B0
:10175000110519F70E94B2068BE20E94FF01019762
:1017600071F562E370E080E090E00E94AC028BE2F1
:101770000E94FF01019719F50E94DE026B017C01B6
:10178000C092FA03D092FB03E092FC03F092FD03B7
:101790008BE20E94FF01892B09F4AFC08091F9030D
:1017A00081116CC081E08093F9030E94DE02609396
:1017B000F5037093F6038093F7039093F8030E9468
:1017C000B20630901304332009F470C380911204E0
:1017D0008111E0C2E0910202F09103023197EE30F4
:1017E000F10508F0CFC28827E750F44F8F4F0C94D3
:1017F000FC13800C920C420D600D760D940DAC0D17
:10180000BC0DDA0DF00D1E0E400E6E0E9C0E89E220
:101810000E94FF01019709F451CF8AE20E94FF0163
:10182000019709F04DCF81E08093F20249CF01305A
:10183000110549F464E070E0181619060CF085CF24
:101840000E941E0482CF0230110539F467E070E077
:10185000181619060CF079CFF3CF0330110539F4BF
:101860006AE070E0181619060CF06FCFE9CF181671
:1018700019060CF06ACF6DE070E0E2CF8091F503BD
:101880009091F603A091F703B091F803C81AD90A12
:10189000EA0AFB0AF0EFCF1AFAE0DF0AE108F108E2
:1018A00025EFC21621E0D206E104F10408F087CF4B
:1018B0008FE292E00E94450764EF71E080E090E0E3
:1018C0000E94AC028BE20E94FF01892B09F077CFC6
:1018D0008091FE0391E089278093FE0384E392E0E8
:1018E0000E94D70762E370E080E090E00E94AC02C3
:1018F0000E9475051092F20262CF1092F9035FCF39
:1019000081E080939C038093CC0380938D0380932C
:101910009D038093AD038093BD038093CD0380939B
:10192000CE031DC081E080938B0380938C03809352
:101930008D0380938E0380939E038093AE038093E8
:10194000AB038093AC038093AD038093CB03809370
:10195000CC038093CD038093CE038093BB030E947E
:10196000B2060E94DE0200910E0410910F04209135
:10197000100430911104601B710B820B930B603DBE
:1019800077408105910508F405C20E94DE0260934C
:101990000E0470930F04809310049093110481E05F
:1019A000809312040E9475058091020290910302B7
:1019B000FC013396FA83E98310E000E022242394AB
:1019C00029813A81021713070CF0E4C10E942D13FC
:1019D0006B017C010E942D134B015C010E942D13B1
:1019E0006B837C838D839E83C501B40124E030E04A
:1019F00040E050E00E9485136F5F7F4F8F4F9F4FF5
:101A0000E8E0F0E0E61BF70BF887EF836B817C8161
:101A10008D819E8122E030E040E050E00E948513FD
:101A20004B015C01FFEF8F1A9F0AAF0ABF0AC70183
:101A3000B601A30192010E948513680D791D8F8064
:101A4000988434E0880C991C3A95E1F7680D791D6B
:101A500030E020E08F81988508970CF098C1CB0189
:101A6000820F931FFC01EB58FC4F20828B509D4F3F
:101A7000FC0120828F819885019698878F83205F53
:101A80003F4FE8CF81E080938B0380938C0380935A
:101A90008D0380938E0380939E038093AE03809387
:101AA000AB038093AC038093AD038093CB0380930F
:101AB000CE038093CC038093CD038093BE034FCF9E
:101AC00081E080938E0380939E038093AE03809386
:101AD000CE038093BE0380938B0380939B038093FC
:101AE000AB038093AC038093AD0339CF81E0809347
:101AF0008B0380938C0380938D0380938E0380935C
:101B0000AE038093CE038093BE0380939B038093A8
:101B1000AB038093AC038093AD038093CB0380939E
:101B2000CC038093CD031BCF81E080938B03809304
:101B30008C0380938D0380938E038093AE038093F8
:101B4000CE038093BE0380939B038093AB0380936B
:101B5000BB038093CB0329C081E080938B038093E8
:101B60008C0380938D0380938E0380939E038093D8
:101B7000AE038093BE03D3CE81E080938B0380932A
:101B80008C0380938D0380938E0380939E038093B8
:101B9000AE038093CE038093BE0380939B03809318
:101BA000AB038093CB038093BB038093AC03809300
:101BB000AD03B5CF81E080938B0380938C0380933A
:101BC0008D0380938E0380939E038093AE03809356
:101BD000CE038093BE0380939B038093AB03B9CF66
:101BE00081E080939A0380938B0380939B0380937F
:101BF000AB038093BB038093CB038093CA03809392
:101C0000CC0380938D0380938E0380938F03809306
:101C100090038093A0038093B0038093D0038093BC
:101C2000C00380939D038093AD038093CD03809385
:101C3000BD038093CE038093CF0391CE81E0809348
:101C40009A0380938B0380939B038093AB038093D1
:101C5000BB038093CB038093CA038093CC03809310
:101C60009E0380938F0380939F038093AF038093A1
:101C7000BF038093CF038093CE038093D0036FCEB6
:101C800081E08093990380938A0380939A038093E1
:101C9000AA038093BA038093CA038093C9038093F5
:101CA000CB0380938D0380938E0380938F03809367
:101CB00090038093A0038093B0038093AD0380933F
:101CC000AE038093AF038093CD038093CE038093C4
:101CD000CF038093D0038093BD0341CE81E08093F6
:101CE000990380938A0380939A038093AA03809335
:101CF000BA038093CA038093C9038093CB03809374
:101D00008D0380938E0380938F0380939003809341
:101D1000A0038093B0038093AD038093AE038093C0
:101D2000AF038093CD038093CE038093CF03809342
:101D3000D0038093C00313CE81E0809399038093F6
:101D40008A0380939A038093AA038093BA038093B3
:101D5000CA038093C9038093CB038093900380933D
:101D6000A0038093B0038093D0038093C00380933B
:101D70008D0380939D038093AD038093AE03809386
:101D8000AF03EDCD82E492E00E94D707E8CD0F5F6C
:101D90001F4F16CE80911204882309F47FC00E9441
:101DA000DE0200910A0410910B0420910C04309182
:101DB0000D046B017C01C01AD10AE20AF30A2091DA
:101DC000080430910904032E000C440B550B2150DC
:101DD000310941095109A6EABFEF0E94B213A301DC
:101DE00092010E9485132C593F4F4F4F5F4FC216EF
:101DF000D306E406F5060CF10E94DE0260930A04A5
:101E000070930B0480930C0490930D04809105044F
:101E10009091060420910704222309F44AC00197F7
:101E200097FD05C0909306048093050406C0EDE07D
:101E3000F0E0F0930604E09305040E94DE020091B6
:101E40000104109102042091030430910404601BEA
:101E5000710B820B930B683E734081059105B0F0C6
:101E60000E94DE02609301047093020480930304D5
:101E7000909304048091FF039091000487309105B2
:101E800014F50196909300048093FF030E94E507E8
:101E90000E9409060E94B2060E94C60588E20E94BE
:101EA000FF010197A9F481E0809307040E94ED03EC
:101EB0008BCB01968E3091050CF4B4CF10920604B2
:101EC00010920504BACF109200041092FF03DECFE7
:101ED00089E20E94FF01019719F410920704E6CFEE
:101EE0008AE20E94FF01019709F01AC12091FF03C5
:101EF000309100043A832983790132E0E30EF11C2A
:101F000000910504109106040F5F1F4F89819A818B
:101F100024E0880F991F2A95E1F7800F911F8B58B5
:101F20009C4F9A838983D12CCC24C39498E0E916E2
:101F3000F1040CF079C0E981FA81C0A28091050416
:101F40009091060420910704222389F1019797FDBF
:101F500005C0909306048093050406C02DE030E090
:101F600030930604209305040E94E5070E940906A9
:101F70000E94B2060E94C6053FEFE31AF30AE98108
:101F8000FA8180A9813019F4DD20D1F0D32CE981C8
:101F9000FA8110A264E670E080E090E00E94AC025A
:101FA00029813A81205F3F4F3A832983BFCF019631
:101FB0008E30910574F21092060410920504D4CF6D
:101FC0002091F3023091F4022F5F3F4F3093F402DF
:101FD0002093F302E981FA8110AAF70184E0EE0F61
:101FE000FF1F8A95E1F7E00FF11FEB50FD4F1082C4
:101FF000C90165E070E00E94E813892B39F61216DA
:10200000130624F680910002909101028A30910516
:1020100034F401969093010280930002B7CF89E5D2
:1020200092E00E94D707B2CF8FE792E00E94450767
:102030008091F3029091F4020E94520765E773E0E9
:1020400050E040E01A82198210E000E090E080E069
:10205000DA01AB58BC4FFB01E80FF91F208121309A
:10206000E9F40F5F1F4F30E020E07D01E80EF91E1C
:10207000F901E295F295F07FFE27E07FFE27EE0D55
:10208000FF1DE081E13019F42F5F3F4FF1CFE9816F
:10209000FA81E217F30714F43A8329830196803119
:1020A0009105C9F6605F7F4F405F5F4F4038510533
:1020B00069F683E992E00E94D707C8010E9452079F
:1020C00084EA92E00E94D70789819A810E94520790
:1020D000012B31F029813A81263031050CF4E6CE0E
:1020E00080910202909103020196909303028093E3
:1020F00002020E948805109212040E94DE02609380
:102100000E0470930F0480931004909311041092A6
:10211000060410920504109200041092FF03C6CE2C
:102120008BE20E94FF01019709F0C0CE62E370E0EC
:1021300080E090E00E94AC028BE20E94FF010197D8
:1021400009F0B4CE8091FE0391E089278093FE03CD
:10215000882309F431C285EB92E00E94D707809171
:10216000FE03882309F4A2CE0E94750531E0309366
:102170008603309387033093980330939903309309
:102180008A0330938B03309395033093A5033093E8
:10219000B6033093C7033093D8033093D9033093F9
:1021A000CA033093BB033093AC0330939C0330934A
:1021B00096033093A603309397033093A70330938D
:1021C000B7033093A8033093B8033093C803309318
:1021D000A9033093B9033093C90330939A03309322
:1021E000AA033093BA0330939B033093AB03E0917F
:1021F0000002F09101023197EA30F10508F051C177
:102200008827EA5FFE4E8F4F0C94FC1310112211A9
:10221000651183119911B711D711E711091229120C
:1022200081E08093A0038093D003809391038093F7
:10223000A1038093B1038093C1038093D103809362
:10224000D2031DC091E090938F03909390039093DD
:102250009103909392039093A2039093B20390936F
:10226000AF039093B0039093B1039093CF039093F7
:10227000D0039093D1039093D2039093BF030E9415
:10228000B2060E94DE026B017C01C092FA03D0927A
:10229000FB03E092FC03F092FD038BE20E94FF013E
:1022A000892B09F486C18091F9038111FFC021E0D7
:1022B0002093F9030E94DE026093F5037093F60306
:1022C0008093F7039093F8034ACFE1E0E0938F0304
:1022D000E0939003E0939103E0939203E093A203D1
:1022E000E093B203E093AF03E093B003E093B10354
:1022F000E093CF03E093D203E093D003E093D103C4
:10230000E093C203BCCFF1E0F0939203F093A203F9
:10231000F093B203F093D203F093C203F0938F03D0
:10232000F0939F03F093AF03F093B003F093B103E6
:10233000A6CF21E020938F03209390032093910355
:10234000209392032093B2032093D2032093C203DD
:1023500020939F032093AF032093B0032093B103F6
:102360002093CF032093D0032093D10388CF31E073
:1023700030938F0330939003309391033093920303
:102380003093B2033093D2033093C20330939F0350
:102390003093AF033093BF033093CF033093B00338
:1023A0003093B1033093D0033093D10368CF81E0F1
:1023B00080938F0380939003809391038093920383
:1023C0008093A2038093B2038093C20338CF91E03D
:1023D00090938F0390939003909391039093920323
:1023E0009093A2039093B2039093D2039093C2036D
:1023F00090939F039093AF039093CF039093BF0369
:102400009093B0039093B1039093D0039093D10332
:1024100036CFE1E0E0938F03E0939003E0939103E4
:10242000E0939203E093A203E093B203E093D2031C
:10243000E093C203E0939F03E093AF03E093CF03E5
:10244000E093B003E093B103E093D003E093D103B2
:1024500016CFF1E0F0938E03F0939E03F093AE035A
:10246000F093BE03F093CE03F0939003F0939103A7
:10247000F0939203F0939303F093A003F093B003CF
:10248000F093C003F093D003F093A303F093B3034E
:10249000F093C303F093D303F093D103F093D203EB
:1024A000EECE82E492E00E94D707E9CE8091F50358
:1024B0009091F603A091F703B091F803C81AD90AD6
:1024C000EA0AFB0AD701C60188509740A109B10961
:1024D000853F9140A105B105B8F58EE392E00E94D9
:1024E000D70764EF71E080E090E00E94AC028BE2DD
:1024F0000E94FF01892B41F58091FE0391E089271D
:102500008093FE0386EC92E00E94D7070E94750537
:1025100025EF32E045E753E090E080E0F901E80F75
:10252000F91F6081613021F4FA01E80FF91F60831F
:1025300001968031910591F7205F3F4F405F5F4FDB
:10254000E3E025373E0741F7F0EFCF1AFAE0DF0A64
:10255000E108F10825EFC21621E0D206E104F104FA
:1025600008F0FDCD8FE292E00E94450764EF71E034
:1025700080E090E00E94AC028BE20E94FF01892B78
:1025800009F0EDCD8091FE0331E083278093FE03B7
:1025900084E392E00E94D70762E370E080E090E07D
:1025A0000E94AC020E947505109213040E949E05C1
:1025B000D6CD1092F903D3CD83ED92E00E94D707D8
:1025C00075CC8F929F92AF92BF92CF92DF92EF9293
:1025D000FF92CF93DF93EC01688179818A819B819F
:1025E000611571058105910521F464E279ED8BE5B2
:1025F00097E02DE133EF41E050E00E94851349015F
:102600005A019B01AC01A7EAB1E40E94A4136B013B
:102610007C01ACEEB4EFA50194010E94B213C60E8A
:10262000D71EE81EF91EF7FE06C081E0C81AD108C1
:10263000E10880E8F80AC882D982EA82FB82C701F1
:10264000B6019F77DF91CF91FF90EF90DF90CF9011
:10265000BF90AF909F908F9008958F929F92AF926E
:10266000BF92CF92DF92EF92FF926091040270913D
:10267000050280910602909107026115710581059E
:10268000910521F464E279ED8BE597E02DE133EFDC
:1026900041E050E00E94851349015A019B01AC01C1
:1026A000A7EAB1E40E94A4136B017C01ACEEB4EF85
:1026B000A50194010E94B213C60ED71EE81EF91E92
:1026C000F7FE06C081E0C81AD108E10880E8F80AE0
:1026D000C0920402D0920502E0920602F092070234
:1026E000C701B6019F77FF90EF90DF90CF90BF902A
:1026F000AF909F908F9008956093040270930502AD
:1027000080930602909307020895052E97FB1EF40E
:1027100000940E949C1357FD07D00E94B71307FC3A
:1027200003D04EF40C949C13509540953095219510
:102730003F4F4F4F5F4F08959095809570956195ED
:102740007F4F8F4F9F4F08950E94D913A59F900DE3
:10275000B49F900DA49F800D911D11240895B7FF83
:102760000C94A4130E94A413821B930B0895A1E25E
:102770001A2EAA1BBB1BFD010DC0AA1FBB1FEE1FFB
:10278000FF1FA217B307E407F50720F0A21BB30B46
:10279000E40BF50B661F771F881F991F1A9469F7C2
:1027A00060957095809590959B01AC01BD01CF011E
:1027B0000895A29FB001B39FC001A39F700D811D1A
:1027C0001124911DB29F700D811D1124911D08953A
:1027D00097FB072E16F4009407D077FD09D00E94CE
:1027E000041407FC05D03EF4909581959F4F089501
:1027F000709561957F4F0895EE0FFF1F881F8BBF67
:102800000790F691E02D1994AA1BBB1B51E107C05C
:10281000AA1FBB1FA617B70710F0A61BB70B881F70
:10282000991F5A95A9F780959095BC01CD010895FF
:04283000F894FFCF4A
:102834000300010001000000000000008003EA0220
:102844001703CD03480326033A030D0A00596120F8
:102854006E6F207469656E652076696461730054D7
:10286400524553005452455320534547554E444F07
:1028740053005961206E6F20686179206DC3A17384
:10288400206E6976656C6573004C6C656761737462
:102894006520616C206D6178696D6F2064652076B8
:1028A40069646173207065726D697469646F005442
:1028B4006F72726573206465737472756964617391
:1028C4003A200041727269626120646520746F72FB
:1028D4007265730041727269626120646520416CA3
:1028E400747572610050726F6772616D61207061FE
:1028F400757361646F00444F5320534547554E44EC
:102904004F530050726F6772616D61207265616E22
:06291400756461646F00B0
:00000001FF
